:10000000281D0020E1240000AF630000B52400009B
:10001000B5240000B5240000B52400000000000055
:10002000000000000000000000000000C11D0000F2
:10003000B524000000000000691D0000B524000088
:10004000451E0000451E0000451E0000451E000024
:10005000451E0000451E0000451E0000451E000014
:10006000451E0000451E0000451E0000451E000004
:10007000451E0000451E0000451E0000451E0000F4
:10008000451E0000451E0000451E0000451E0000E4
:10009000451E0000451E0000451E0000451E0000D4
:1000A000451E0000451E0000451E0000451E0000C4
:1000B000451E0000451E0000451E0000451E0000B4
:1000C000451E0000451E0000451E0000451E0000A4
:0C00D000451E0000451E0000451E0000FB
:1000DC0053B94AB9002908BF00281CBF4FF0FF31A3
:1000EC004FF0FF3000F00CB8ADF1080C6DE904CE08
:1000FC0000F008F8DDF804E0DDE9022304B07047F5
:10010C00704700BF2DE9F04786468C460846089E8E
:10011C00154674461946002B40F0C2808542B2FA4F
:10012C0082F245D94AB1C2F1200300FA02FC2EFA40
:10013C0003F3954043EA0C0C94404FEA154EA8B2D9
:10014C00BCFBFEF8230C0EFB18CC08FB00F943EAB1
:10015C000C43994528D9EB1808F1FF3704D299457F
:10016C0002D9A8F102072B44A3EB0903A4B2B3FBF9
:10017C00FEFC0EFB1C330CFB00F044EA0344A042D3
:10018C0014D92C190CF1FF3304D2A04202D9ACF1D2
:10019C0002032C44241A43EA07401EB1D440002326
:1001AC0034607360BDE8F0874746DDE76346F1E7EE
:1001BC0092BB431B01214FEA154EAFB2B3FBFEFCC1
:1001CC00200C0EFB1C330CFB07F840EA034398454C
:1001DC0062D9EB180CF1FF3004D2984502D9ACF17E
:1001EC0002002B44A3EB0803A4B2B3FBFEFC0EFBF2
:1001FC001C330CFB07F744EA0344A7424ED92C19D5
:10020C000CF1FF3304D2A74202D9ACF102032C4407
:10021C00E41B43EA0040C0E7C2F1200320FA03F1DB
:10022C00954090402EFA03F303434FEA154EAFB2BC
:10023C00B1FBFEFC0EFB1C10190C0CFB07F841EA81
:10024C000041884504FA02F422D969180CF1FF30F8
:10025C0004D2884502D9ACF102002944A1EB080173
:10026C009BB2B1FBFEFC0EFB1C110CFB07F743EA27
:10027C0001439F420ED9EB180CF1FF3104D29F427F
:10028C0002D9ACF102012B44DB1B41EA004192E79D
:10029C006046E3E76146F7E76046A3E76346B7E7E6
:1002AC00834206D916B9002108467BE7C6E900E06F
:1002BC00F9E7B3FA83F78FB9834201D3724508D8B3
:1002CC00BEEB020460EB030301209C461EB9002127
:1002DC0068E73846FAE7C6E9004CF8E7C7F1200CA6
:1002EC00BB4022FA0CF41C432EFA0CF120FA0CF34E
:1002FC00B84001434FEA14490EFA07F5B3FBF9F87D
:10030C001FFA84FE09FB18300B0C08FB0EFA43EAAB
:10031C0000439A4502FA07F240D9E31808F1FF307E
:10032C0004D29A4502D9A8F102002344A3EB0A0394
:10033C0089B2B3FBF9F809FB183308FB0EFE41EA4E
:10034C0003418E452CD9611808F1FF3304D28E4538
:10035C0002D9A8F10203214443EA0040A0FB029811
:10036C00A1EB0E014145CE46434602D306D14D4585
:10037C0004D2B9EB020E68EB04030138002EA6D0B0
:10038C00B5EB0E0261EB030101FA0CFC22FA07F348
:10039C004CEA0303F940C6E9003198E74046C5E74B
:1003AC004346D9E7034613F8012B002AFBD1181A50
:1003BC00013870472DE9F8431348144DDFF850808D
:1003CC0000AF0A2105F09AFB0124042601231946EB
:1003DC0059430133A342FBDDE94688B06A46C2E9C2
:1003EC000554D16142F8106F00234FF4035140467D
:1003FC00013401F04BF80B2CCD46E7D1054805F044
:10040C007DFBBD46BDE8F883F06E0000256F000053
:10041C00A06C0000406F00002DE9F047504B8AB0F3
:10042C0000AF3A4603F10805B846186859681446F7
:10043C0003C40833AB422246F7D118681B792060FD
:10044C002371E946474B7B6202253D6246480023F7
:10045C0007F120024FF4865101F018F888B06C4671
:10046C00424B26464FF0030AC4E9053546F810AF57
:10047C003D48002332464FF4C65101F007F8CD46F3
:10048C00A5463B4B63613B4BA361C4F810A03648B7
:10049C00002332464FF4C85100F0F8FFCD46364BDE
:1004AC00C7E908533048002307F120024FF4845168
:1004BC0000F0ECFF314BC7E908532B48002307F140
:1004CC0020024FF4825100F0E1FFA5462C4B6361F2
:1004DC002C4BA3614FF40073A3832B4B23612B494B
:1004EC0021484346324600F0D1FFCD46284C2046E9
:1004FC0006F056F968B327484FF4D01105F087FA87
:10050C00002826DB24484FF4803105F080FA0028BF
:10051C001FDB2369A6681B6813F0040F294614BF60
:10052C004FF000734FF08063B5694FF0A072204616
:10053C00A8471A491A4B4B6004238B60F36913B11B
:10054C0001222046984700214FF0967004F062FD7E
:10055C00F9E74FF0FF302837BD46BDE8F08700BF04
:10056C00206D0000796F0000A06C0000966F0000F9
:10057C00A26F000011700000C36F0000E36F000059
:10058C00017000000470000003000001C01CD000CA
:10059C00406B0000386D0000406D0000F00600203C
:1005AC00C10300002DE9F04F91B08407009302F0D5
:1005BC0004030293C2F3C20303F10103DDF8689054
:1005CC00039205460E46059340F0BA81041D30B1E6
:1005DC00072909D86FF01B0011B0BDE8F08F01F0AE
:1005EC000706341DC6F10806009B4FF00008591E83
:1005FC004FF0040A4FF0FF330193CDF810804746BB
:10060C00C34653460DB1009A22600598002800F3AA
:10061C00E8809848009A824203D397488242C0F0FF
:10062C00E080039AA4EB050E92074FEA9E0000F1BE
:10063C0003810F2F00F2B180002D00F0058107F12E
:10064C0040020DEB020C019A0CF8200C0CF8102C4B
:10065C00049801300490E7E07A285DD84B280ED836
:10066C00472859D829282DD8252852D054D82028A5
:10067C007AD02338D0F1000B4BEB000B74E04C38E4
:10068C002E2849D8DFE800F07048484848484848C8
:10069C00484848484B484848484848484859484BB7
:1006AC004B595959704B6D487048184B1848488233
:1006BC007F4B48484B487F0000204FF0000B4FF019
:1006CC00040A38E02A38C0B2012202FA00F010EA1B
:1006DC000E0F49D110F0625C2FD110EA020B43D0FF
:1006EC006046013C5444B4FBFAF40AFB04F4002DBC
:1006FC0061D0A3EB050CA4446645FFF46BAF002856
:10070C0068D1042B47D159F8043B236004340423EB
:10071C002AE0019A013A01924FF0000B24E011F803
:10072C00010C6C2834D111F8023C00206C2B834650
:10073C00C5D14FF0080A5346D3E709F1070929F050
:10074C0007090734F9E802AB24F0070435B1069821
:10075C002044B0423FF63EAFC4E900AB08344FF042
:10076C00000B4FF0080A534611F8010F002878D0FF
:10077C00BBF1000F7FF470AF2528F5D1019B01333D
:10078C0001934FF0010B4FF0040AECE7584694E745
:10079C0000208346A5E7082B02D06FF015001BE75D
:1007AC0009F1070929F00709F9E80223C4E9002334
:1007BC0008340823D8E768B9042B02D109F10409DD
:1007CC00A4E7082BE9D109F1070929F0070909F178
:1007DC000809EDE7059A013A059259F8042B0092A5
:1007EC0010E7039A900720D5A4EB050E4FEA9E0064
:1007FC004FF0010CBEF5007FCFD20F2FCDD8F5B145
:10080C0007F140020DEB020EC0B2019A0EF8200C5B
:10081C000EF8102CBCF1000F3FF41AAF60F07F0003
:10082C000EF8200C08F101080137C5F10802043458
:10083C0006924FF6DA7E97E74FF0000CDAE7BCF140
:10084C00000F01D00136EFE7029802360028EBD1F9
:10085C000098CDE90631FFF7A5FDDDE90631064428
:10086C00E2E7631BB3F5806F97D23DB9A6F108049C
:10087C00E018B1E6DC6A0000CC770000029A286030
:10088C009B082B709DF81030C2B1EB7085F802807C
:10089C00B8F1000F05D008A80022C5F1010C974251
:1008AC000ED1C5F101030DF120094FF0000A01939F
:1008BC000DF1300B574512D1601B8DE66B70E5E7DF
:1008CC0010F8013B190608D504EB0C0E764503F025
:1008DC007F03FFF47FAE04F8013B0132DFE7B8F190
:1008EC00000F03D099F90020002A17DB029BD3B12B
:1008FC001AF80B2004F8012B0022019B98182044B5
:10090C008642FFF467AE99F8000004F8010B0099D9
:10091C000392204606F0B4F8039A14440AF1010A33
:10092C0009F10109C6E799F8002055F82230009327
:10093C00029B45F822300098FFF734FD421CDCE79F
:10094C006FF00D0048E600BF2DE9F04F95B000AFF9
:10095C0090F802B0BB61BB6F7A62C3F3C00304466C
:10096C003B618A4641B9457800780BEB8000204406
:10097C00554517D8A0EB040AE3787B61BBF1000F57
:10098C0002D0BB6FD80716D47B6953BB7B6A1BB1F3
:10099C00BA69514620469847554628465437BD46B5
:1009AC00BDE8F08F461C3046FFF7FCFC01303044AC
:1009BC000AF1010ADCE723783B629B00FB603B6A8F
:1009CC006268FA6104EB83097B6A002B40F0FE80BD
:1009DC005546C84609EB0B0A0026D04551D1D944DF
:1009EC0013E0BB6F9907D1D523783B6299469B00E6
:1009FC00FB606368FB617B6A04EB8909002B7AD18D
:100A0C005546BBF1000F4FD15E46BB6F13F0050F7F
:100A1C007B6909EB430ABB6F03F002030CBF4FF079
:100A2C00020B4FF0010B7B62D145B6D019F8021BBB
:100A3C0019F8013C54F82380AA4B984502D3AA4BD1
:100A4C00984538D33B69002B42D0F86905F02FF854
:100A5C0000283DD0E8468AB06A46A44B5361FB6936
:100A6C00C2E906314FF400731384A14B42F8103FD6
:100A7C00A04800234FF4125100F008FD023DC5467A
:100A8C00D2E718F8013B54F82300FFF78BFCFB6FFF
:100A9C0001303BB1D7F880309E423EBFFB6F23F84C
:100AAC0016000136054498E7BB6F13F004061CBF13
:100ABC007E6AD944A9E73B6923B1F86904F0F7FFD2
:100ACC000028C7D1BB6FDA0705D4A5EB0B05ABE744
:100ADC007B6A002BA8D04046FFF764FCFB6F43B148
:100AEC00D7F880309E423FBFFA6F431C22F8163075
:100AFC000136054498E7BBF1000F6DD0BB6F13F0C6
:100B0C0004066CD0D846002607F140005A464946E8
:100B1C0005F0B6FF7B695B007B607B69D94409EB10
:100B2C004303BB60BB6F03F002033B60BB684B45E8
:100B3C0057D1B96F6378B86F890706EB030254BFBE
:100B4C004FEA58010021C507D2B200F19A8010F08B
:100B5C00040F14BF40460020FB616270A070E1706E
:100B6C00BA69F9687B6A20469847051EFFF615AFEF
:100B7C003B6A2370FB6963707B69E3704146BA6919
:100B8C007B6A84F802B007F140009847B0F1000886
:100B9C00C0F2A480FB68BA69AAEB0B01C91A7B6886
:100BAC004846C91A7B6A98470028C0F29980A84425
:100BBC0008EB00054FF0000B07F1300AB34562D388
:100BCC000021BA697B6A08469847E6E65E464FF014
:100BDC00000807F1300099E75E46D8469AE7B04620
:100BEC0098E719F8021B3F4B19F8015C54F82500E3
:100BFC00984202D33C4B98421DD33B6923B1F86910
:100C0C0004F055FF002891D13B68FBB908F128038B
:100C1C0007F1280208F1010003EB020C07F1500365
:100C2C0053FA80F008F102080CF8101C5FFA88F8EF
:100C3C0000F8105C7AE73B692BB1F86904F037FFD8
:100C4C0000287FF473AFBB6FDB0709D506F12803CF
:100C5C0007F12802711C9E1806F8205CCEB265E7DD
:100C6C00BB6F58077FF562AF08F1280307F1280224
:100C7C0008F1010103EB020808F8105C5FFA81F837
:100C8C0054E7002068E71BF80A3087F82F3054F837
:100C9C002390FB6FFBB133F81B80BA697B6A01218F
:100CAC0007F12F00984700281ADB0544B8F1000F14
:100CBC0006D14846FFF776FB00F101081FFA88F8C9
:100CCC00BA697B6A414648469847002808DB0544C8
:100CDC000BF1010B72E7D7F87C80DEE745465CE64A
:100CEC0005465AE6DC6A0000CC7700002270000052
:100CFC0004000001B86C0000014B1860704700BF85
:100D0C000000002080B505460E461746984604F0B4
:100D1C009BF9034605F0D2FEDFF81890044649F81B
:100D2C000030424630463946A84754F8090001F0D5
:100D3C0051FC00BF080000002DE9F047058B04466C
:100D4C002807904611D4022905F0070540F0CD8004
:100D5C00204604F049FF78B10138218B042811D8C2
:100D6C00DFE800F0C3106D85950001290CBF45F03C
:100D7C00100545F02005258388F31188BFF36F8F8C
:100D8C00BDE8F08701F0070AAA4500F0A68000270D
:100D9C00B9463E46A368002B00F0BD8041F0080127
:100DAC00218388F31188BFF36F8FA168002900F0AD
:100DBC00BB800D68002900F0B780D1F80480334661
:100DCC0052462046C047002D76D02B6829461D463A
:100DDC00F0E701F007035A1F012A1BD8002221F06B
:100DEC000701062B276889B2C4E9002209D13B46CA
:100DFC0003E0628B013262831B68002BF9D141F056
:100E0C0002012183204604F0EFFE00287BD041F044
:100E1C00200177E0042B0AD121F0070189B221834C
:100E2C00204604F0E1FE10B141F020012183218B1A
:100E3C0001F0070AAA4550D00027B946AAE7236952
:100E4C0021F0070141F00601062DD3F80090218313
:100E5C002DD1B9F1000F40D041F00801218388F366
:100E6C001188BFF36F8F3A492046C84729E021F01B
:100E7C000701236941F0040189B2042DD3F80490D1
:100E8C002183E6D000273E464FF0040A82E721F08A
:100E9C000701236941F0050189B2052DD3F80890AB
:100EAC002183D6D000273E464FF0050A72E7002773
:100EBC003E464FF0060A6DE72B4687E7B9F1000F67
:100ECC00D1D14FF02003EFF3118883F31288BFF3D5
:100EDC006F8F238B23F008032383258BEA062ED5F3
:100EEC0025F01003238305F007056669218B002E7E
:100EFC00BFF66FAF00232768C4E9003321F0070168
:100F0C0041F001012183218B01F0070AAA454FF022
:100F1C0000097FF43FAF002F9BD041F008012183E3
:100F2C0088F31188BFF36F8F002FC7D03D68394607
:100F3C0033465246204604F083FE2F46F4E7AB06B8
:100F4C007FF51AAF25F02003238305F00705FFE694
:100F5C00795C000002F0B4BB2DE9F047DFF8588053
:100F6C00044607464FF0010914B93846BDE8F0872E
:100F7C0094FAA4F5B5FA85F509FA05F32E0108EBF8
:100F8C0005156FEA030A24EA03042B7B002BEBD034
:100F9C0058F806301B694BB946440422736828463E
:100FAC00196807EA0A0700F05DFADDE7284698475A
:100FBC000028D9D1F0E700BF006D000030B5104912
:100FCC00104889B0002205F00CFD0F4D0F4900228E
:100FDC000023CDE9062300240E23CDE90334CDE90B
:100FEC0001440B4B00944FF44072284603F0C6FBAF
:100FFC000849284605F0E9FB204609B030BD00BF82
:10100C002510000078050020F0000020E80C0020DE
:10101C0015130000D6700000014803F0EDBC00BFB2
:10102C00DC0000202DE9F04780461F480F4605F0F4
:10103C001DF90646002830D000252846BDE8F0876B
:10104C00237B73B12368DB680BB120469847236878
:10105C001B69D3B9636804221968204600F002FAB0
:10106C00013610344C45EBD3B8F1000FE5D0002D10
:10107C00E2D02846FFF770FF0546002FF7D000217D
:10108C004FF4A47003F0C6FFF1E720469847002800
:10109C00E0D00AFA06F31D43E2E7044CDFF81090A7
:1010AC0005464FF0010ADDE70C070020006D00003B
:1010BC00206D0000014B53F8200070475C6D000060
:1010CC0008B5034608462BB1044A136000F07EFCB9
:1010DC00002008BD6FF01500FBE700BF04000020E6
:1010EC0010B5044C237813B9034803F085FC012395
:1010FC00237010BDB8080020DC00002010B5044699
:10110C00084805F0B3F85CB1BFF35B8F064B53E8AE
:10111C00001F013943E80012002AF8D1BFF35B8F9E
:10112C0010BD00BF04070020080700200020064B5C
:10113C00BFF35B8F014653E8000F43E80012002A0F
:10114C00F9D1BFF35B8F70470407002070B5FFF730
:10115C00EDFF084C084E0546B44200D370BD6368E1
:10116C005B792BB123685B6813B1294620469847FD
:10117C001034F1E7006D0000206D000010B5044C38
:10118C000449204604F003FF034B1C6010BD00BF54
:10119C008C000020486D0000FC060020084A09481D
:1011AC0008B500231370084A1360084A4FF4004135
:1011BC001360FFF785FFBDE80840FFF7DFBF00BFF6
:1011CC00B908002075620000040700200807002001
:1011DC00014600220148002304F0FABE8C000020D6
:1011EC00014804F093BF00BF8C000020024B014665
:1011FC00186804F0DDBF00BFFC060020014805F0B4
:10120C0013B800BF8C00002070B5284B187800284C
:10121C004BD0FFF7E5FF054690B1BFF35B8F244B36
:10122C0053E8001F013943E80012002AF8D1BFF33C
:10123C005B8F204C204EB4422DD32846FFF7D6FFAF
:10124C001E4B1F4C1B68002B19DD05F0C8FB4FF41F
:10125C007A72A0FB020302FB0131C30BD4E900201C
:10126C0043EA41439B1A4FEAD13140F2E93261EB38
:10127C000001934271F1000101D3FFF767FFD4E93C
:10128C00003213F57A7342F10002C4E90032BDE872
:10129C007040FFF7B3BF63685B7923B123682946BD
:1012AC001B68204698471034C5E770BDB80800206D
:1012BC0008070020006D0000206D000004070020CE
:1012CC007005002070B50D4D297861B90120FFF72C
:1012DC00A9FE0B4C0B4EB44206D3FFF795FF00282A
:1012EC00FBD101232B7070BD63685B791BB1236844
:1012FC0020469B6898471034EDE700BFB9080020E2
:10130C00006D0000206D000000212DE9F04708461B
:10131C00FFF788FE044658B340F267684FF00009A7
:10132C0005F0CCFB1B4B1C4A1B58136033B11B4BF9
:10133C001B68092B02DD1A4803F05EFB194FDFF81E
:10134C0060A0002544B12046FFF706FE044618B9FC
:10135C004FF0FF384FF0FF39FFF756FF064628B91C
:10136C00B5B942464B46504603F06AFB3546E9E7B1
:10137C004FF0FF384FF0FF39D2E72B689B691BB158
:10138C0000221146284698471035BD42F5D3E8E7B0
:10139C00054DFAE7080000000007002008070020B0
:1013AC00DC000020206D0000006D000013B5184813
:1013BC0004F05CFF174B1B787BB14FF02003EFF36D
:1013CC00118483F31288BFF36F8FFFF71DFF84F333
:1013DC001188BFF36F8F02B010BD0F4B1B68002B31
:1013EC00F9D050B900220023CDE900230B484FF46B
:1013FC000042002304F05AF8EDE70928EBD1074826
:10140C0005F0FBFA064802B0BDE8104003F0F4BA50
:10141C0008070020B90800200007002078050020EC
:10142C00DC00002010B5064B1B680446984721468B
:10143C00A060044804F04AFEBDE81040FFF7B6BFB8
:10144C00040000208C000020044A054B9B1AB1EBD1
:10145C00D30F34BF52F8310000207047A06C00004D
:10146C00006D0000084BC31A10B41B114468013303
:10147C00237143689A7143681960436801225A7159
:10148C0010BCFFF72DBE00BF006D00002DE9F04F22
:10149C008FB004AFC1F34A28B8600D4691467B600B
:1014AC000C0DB8F1000F63D0002607F114034FF0B8
:1014BC00040B4FF00A0AC7F80C80C7E907667E6276
:1014CC000193CDF808B0CDF800A007F11C03F96822
:1014DC0032464846FFF738FAB0F5006F03461CD386
:1014EC006C468AB0D9F8041004AB2648C3E9050150
:1014FC0040F2FF71D9611A464FF400711984224BE6
:10150C0042F8103F214833464FF41251FFF7BEFF0B
:10151C00A5462C37BD46BDE8F08FC0F30A0804F190
:10152C001700184420F0070080083B60FFF750FEBE
:10153C0068F35325044690B13B68154AC7E9083651
:10154C0000F1100107F11403F961CDE900A3CDF806
:10155C0008B0F96807F11C034846FFF7F5F968F382
:10156C0053257B68B9682A46204604F0B5FED0E7BF
:10157C0004F1170020F007008008FFF729FE04464D
:10158C00EDE700BFEB70000004000001D06C000020
:10159C00B96200002DE9F04F87B0DDE91269DDE991
:1015AC00105A04460F4693469846A6B31021CDF820
:1015BC000090334652460020CDF81490FEF7F2FF0F
:1015CC00014605F117000844144B039104F007047D
:1015DC000BF0070BE40020F0070003EA412344EA78
:1015EC008B1480081C43FFF7F3FD44EA05540546B1
:1015FC0040B13EB10399CDF80090334652461030BD
:10160C00FEF7D0FF434622463946284607B0BDE8D0
:10161C00F04F04F061BE3146D3E700BF00FE0F006F
:10162C000EB403B503AB014653F8042B04480193E5
:10163C0001F0BCF802B05DF804EB03B0704700BFDA
:10164C004B630000CA0605D48B064CBF0249034904
:10165C00FFF7E6BF704700BF2B7100002A71000036
:10166C002DE9F04F89B09B469DF84C300493DDE991
:10167C0014930593049B0692DDE9167604460D46F9
:10168C00002B00F0878006F00803079304F00CFE93
:10169C0006F0020A024600284BD086492046FFF786
:1016AC00BFFF8046BAF1000F08D016F0440F42D1AC
:1016BC0081492A462046FFF7B3FF804406F0010318
:1016CC005BB17E4B049A7E4953F822207D4B204619
:1016DC00002A08BF1A46FFF7A3FF06F00803002BE9
:1016EC0055D0794B049A794953F822202046FFF7BC
:1016FC0097FF0546069B2BB175491A462046FFF706
:10170C008FFF0544BBF1000F05D072495A462046A5
:10171C00FFF786FF05444544B9F1000F49D1002F6E
:10172C004FD1F30700F1C08031462046FFF78AFF06
:10173C00B4E08046B6E7684B18680028BDD0674B0C
:10174C004FF47A7E1B68B5FBF3F54FF46162B5FB81
:10175C00F0F300FB1355B3FBF2FA0EFB05F502FB9D
:10176C001A323C21B5FBF0FCB2FBF1F300FB1C552B
:10177C0001FB13220EFB05F50092B5FBF0F5584961
:10178C00CDE901C552462046FFF74AFF95E706F022
:10179C000805AFE7BBF1010F06D1B9F1000F64D119
:1017AC00002F7BD000250CE0B9F1000FF8D04D488C
:1017BC005CE04D484D494B46224604F047F9002F5A
:1017CC0068D0DFF82C91DFF82CA1102F3146204681
:1017DC00B84628BF4FF01008FFF734FF4FF0000B4E
:1017EC005D4545DC059B51461A782046FFF718FFEE
:1017FC004FF0010B1BF0070F03D149462046FFF7B2
:10180C000FFFD8453BD9059B514613F80B202046BA
:10181C00FFF706FF0BF1010BBBF1100FEAD13649B4
:10182C0020464FF0000BFFF7FBFE5A46059B9A5CD7
:10183C00A2F120015F2928BF2E2230492046FFF754
:10184C00EFFE0BF1010BBBF1100F1DD01BF0070FBE
:10185C0003D149462046FFF7E3FED8455A46E5D862
:10186C0049462046FFF7DCFEEBE71F48049DA1E745
:10187C0049462046FFF7D4FE0BF1010BB0E7204997
:10188C002046FFF7CDFEC5E7059BB7EB08074344A1
:10189C0005939AD1049B002B7FF443AF204609B0EB
:1018AC00BDE8F04F04F03EBD064A05492046FFF75F
:1018BC00B7FE39E732710000367100006C6D000024
:1018CC00017000002D710000806D00005B71000044
:1018DC0061710000657100001407002010070020E2
:1018EC003F710000816300004B630000B9270000CA
:1018FC00727100006A710000747100007671000052
:10190C00707100002DE9F0410F884B688E6886B02D
:10191C0005460C469046C7F382175BB1144A9B1AD6
:10192C0043F3CF01002920DB2078C0F3C200FFF77E
:10193C008BFD03462146608851F8102B0197C2F3AA
:10194C004A22002A01EB0204C0F30B1008BF00214D
:10195C000022CDE90408CDE9021400923146284654
:10196C00FFF77EFE06B0BDE8F0810023E2E700BF82
:10197C00A06C000073B542F20F738B4228BF0B466C
:10198C0005680F4A04460521684603F0C5FD6368E7
:10199C000C495B6806460B22284604F0B6FC6368CB
:1019AC003246694628465B6804F0AFFC636806491A
:1019BC005B681B22284604F0A8FC02B070BD00BF77
:1019CC00067700009571000079710000074A00212C
:1019DC000123904206D8064A01B901231360054B36
:1019EC001860704740085B000121F2E740420F008D
:1019FC001007002014070020014B01221A707047B9
:101A0C00BA080020014B0020196070472C070020F9
:101A1C00024B034801221A7004F084BCBB0800205E
:101A2C00B06D00000148FFF7A5BF00BFB06D00000E
:101A3C0010B5064B18680C46FFF73CFB21460346D5
:101A4C00BDE8104002480F22184700BF2C070020A9
:101A5C00B06D000010B9074B18707047064B1B781F
:101A6C001BB141F2883004F096BEA420002103F093
:101A7C00D1BA00BFBA080020BB0800202DE9F843FA
:101A8C00DFF874901D4F80460E46042499F80050E0
:101A9C0095B902F0A9FC28463246414602F02AFCD0
:101AAC00054602F0ABFCE5B101233B7099F8003020
:101ABC0073B93046BDE8F88332464146002002F047
:101ACC0019FC0546EFE72046FFF7C4FF651E2C46C0
:101ADC00002002F07FFC0028EBD03B78002BF2D1E9
:101AEC00E7E73B78002BE4D0013C2046FFF7B2FF40
:101AFC003B78002BCAD1DCE7BB080020BA080020D9
:101B0C00014B00201960704744070020024B03482A
:101B1C0001221A7004F006BCCD080020DC6D000018
:101B2C000148FFF727BF00BFDC6D000010B5064B66
:101B3C0018680C46FFF7BEFA21460346BDE8104074
:101B4C0002480F22184700BF44070020DC6D00003C
:101B5C00F8B5074F0D4604464618B44201D1284645
:101B6C00F8BD14F8011BBB6801485B689847F4E7A3
:101B7C00546B0000014910220A60704710ED00E020
:101B8C0072B6404080F31188BFF36F8FBFF34F8F55
:101B9C0030BF62B6BFF36F8F704700BF72B649405B
:101BAC0081F31188BFF34F8F20BF80F3118862B689
:101BBC00704700BF2DE9F047814600AF0C46002965
:101BCC004CD06E468AB0D1E90012A3686D46274806
:101BDC00A8464FF0050AC5E90501C5E9072348F8F1
:101BEC0010AF2348424600234FF42151FFF74EFC1F
:101BFC00B546D4E903126369AD461E48C5F810A07A
:101C0C00C5E90501C5E907231948002342464FF4ED
:101C1C002151FFF73BFCB54688B0E3696D46164A87
:101C2C00A8464FF0030AC5E9052348F810AF104841
:101C3C00002342464FF4C251FFF728FCB546A36976
:101C4C00AD460E4AC5F810A0C5E905230848002387
:101C5C0042464FF4C251FFF719FCB546214648469F
:101C6C0002F0D2FBBD46BDE8F08700BFEB7100006F
:101C7C00F06C00001A7200004972000058720000EB
:101C8C0040B2002807DB044A4109012300F01F0081
:101C9C00834042F82130704700E100E0054B4209D7
:101CAC0000F01F0053F82220012303FA00F010402B
:101CBC00704700BF00E100E040B20028A8BF00F16F
:101CCC00604001F10101B8BF064B4FEA4111ACBFB6
:101CDC0000F5614000F00F00C9B2B4BF195480F890
:101CEC000013704714ED00E030BFFFF7FDBF00BFDD
:101CFC000B4A08B50B4B22F07F029A60BFF34F8F53
:101D0C00BFF36F8FD3F8882022F47002C3F88820B9
:101D1C0002F038FC03F0FEF900F0D0FB02F080FC7E
:101D2C000000000000ED00E0094A0A4993680968C8
:101D3C009967094958674B6843F080534B600023FF
:101D4C0083F31188BFF36F8F9368986F704700BF50
:101D5C0088080020C06E000000ED00E012498A687F
:101D6C004FF030001044EFF3098C80E8F01F202076
:101D7C0080F31288BFF36F8F0C4F4FF000664A69E7
:101D8C008A603E604FF0700414192068084C206083
:101D9C00506F0023536780F3118802F1300090E8F4
:101DAC00F01F8CF3098870478808002004ED00E0D0
:101DBC00480700201EF0040F0CBFEFF30880EFF370
:101DCC000980816911F8021C0229FFD001B504F0C9
:101DDC00E0FA01BD42F8203C009B42F81C3C0A4949
:101DEC00019B42F8183C029B42F8143C21F0010183
:101DFC004FF0807342F8043C42F8081C0023203A50
:101E0C0002654367704700BF110D0000084B9860D6
:101E1C00084B006F1860104681F30988002163B6E7
:101E2C0081F31188BFF36F8F00220023FEF76AFF46
:101E3C00880800204807002001B5EFF30580A0F1C9
:101E4C0010004FEAC0000449014409C99847BDE895
:101E5C000140024908470000686B0000C91E0000E1
:101E6C00114B124A2DE9F041D518DFF84480013DA1
:101E7C00B5FBF3F55D430F4B08EB0304013CB4FBDE
:101E8C00F3F403FB04540E1B07460B49304604F0D5
:101E9C00F7FD701942460021083E04F0FFFD3E6735
:101EAC0004F10800BDE8F081010000000000000012
:101EBC000400000004000000206D0000044B996831
:101ECC005869884203D003494FF080520A6070472A
:101EDC008808002004ED00E02DE9F04186B00646AC
:101EEC0000AF0D46444B7B61022444483C6107F132
:101EFC0010024FF4825104F05BFA414B9B6ADB06F3
:101F0C0078D5404B3D48C7E9044307F110024FF424
:101F1C00825104F04DFA1120394B9B6A1C070BD5EA
:101F2C00394B7B61022335483B6107F110024FF4BA
:101F3C00825104F03DFA1220314CA36A990723D543
:101F4C00E846324B7B6102233B6107F110022B48C0
:101F5C004FF4825104F02CFA636BA26A120612D56C
:101F6C0088B06A462A492548C2E90513032342F87A
:101F7C00103F4FF4C25104F01BFAC5461EB1A36AC0
:101F8C0023F08003A36213201D4B9B6ADE070BD545
:101F9C00204B7B61022319483B6107F110024FF47F
:101FAC00825104F005FA1420154B9B6A9C060BD544
:101FBC00194B7B61022311483B6107F110024FF46E
:101FCC00825104F0F5F915200D4B9A6AD10658BFD1
:101FDC009A6A9A6A920642BF5A6A22F400525A626C
:101FEC009A6A42F0FF029A62183700232B70BD46A2
:101FFC00BDE8F08110208FE786720000F06C0000C5
:10200C0000ED00E09C720000CF720000E272000054
:10201C00FA720000107300002F7300002DE9F041DC
:10202C0086B0064600AF0D46474B7B6102244FF449
:10203C00825146483C6107F1100204F0B9F9444B57
:10204C009B6AD9046DD5434B4048C7E9044307F15B
:10205C0010024FF4825104F0ABF917203C4B9B6AF1
:10206C001A050BD53C4B7B61022338483B6107F1C9
:10207C0010024FF4825104F09BF91820344CA36ADF
:10208C009B0523D5E846354B7B6102232F483B61EA
:10209C0007F110024FF4825104F08AF9A36BA26A83
:1020AC00100412D588B06A462D492848C2E9051398
:1020BC00032342F8103F4FF4C25104F079F9C5469E
:1020CC001EB1A36A23F40043A3621920204B9B6A20
:1020DC0059050BD5234B7B6102231C483B6107F14F
:1020EC0010024FF4825104F063F91A20184B9A6ACB
:1020FC00D20518D51C4B7B61022314483B6107F1B8
:10210C0010024FF4825104F053F91B20104A936AC9
:10211C0043F47F439362183700232B70BD46BDE810
:10212C00F08116209AE79B6A9B04EFD50F4B7B61DD
:10213C00022306483B6107F110024FF4825104F070
:10214C0037F91C20E2E700BF5E730000F06C000062
:10215C0000ED00E074730000CF7200008573000086
:10216C009E730000B3730000CE7300002F73000049
:10217C0010B586B0364B3748059304AA02244FF4A9
:10218C008251049404F014F9334B9B6A9A015DD587
:10219C00324B304804AA4FF48251CDE9044304F089
:1021AC0007F91E202C4B9B6ADB010AD52C4B2948C6
:1021BC00059304AA02234FF48251049304F0F8F817
:1021CC001F20254B9B6A1C030AD5264B21480593DF
:1021DC0004AA02234FF48251049304F0E9F821205D
:1021EC001D4B9B6A59030AD51F4B1A48059304AA29
:1021FC0002234FF48251049304F0DAF82220164B98
:10220C009B6A9A030AD5194B1248059304AA022318
:10221C004FF48251049304F0CBF823200E4B9B6AAD
:10222C00DB030AD5124B0B48059304AA02234FF487
:10223C008251049304F0BCF82420074A936A6FEA95
:10224C0003436FEA1343936206B010BD1D20A9E748
:10225C00E6730000F06C000000ED00E0FE7300007F
:10226C00117400002B740000497400006E7400009F
:10227C00887400002DE9F0437A4B8BB0D3F80480BE
:10228C0000AF0446C8F30805002686F31188BFF397
:10229C006F8F02F07F43B3F17F4F0ED102F00C032E
:1022AC00082B19D1704BFB6102237048BB6107F1FD
:1022BC0018024FF4825104F07BF8002634460023B8
:1022CC00FB71EB1E092B00F2AC80DFE803F00A9FD8
:1022DC00A29BAAAAAAAAAAA510074CBF0C46012623
:1022EC00EDE7E946624BFB614FF0020807F118027B
:1022FC005E48C7F818804FF4825104F059F8002357
:10230C00584DFB71EB6A9A070BD55A4BC7E90683FC
:10231C00564807F118024FF4825104F049F8002393
:10232C0041E0EB6A002B01DA534BEFE7EB6A5B0001
:10233C00F5D5524B4D48C7E9068307F118024FF407
:10234C00825104F035F86B69A26943F480736B61B8
:10235C00BFF34F8FBFF36F8F6B6932F8022C23F4EE
:10236C0080736B61BFF34F8FBFF36F8F4DF60273AA
:10237C009A4208D0AB6ADBB2002B36D0F91D012093
:10238C00FFF7AAFD40E088B023686A463C4937480D
:10239C00C2E90513032342F8103F4FF4C25104F075
:1023AC0007F82368CD46FA79DAB907F1080504F184
:1023BC00200C206861682A4603C20834644515461F
:1023CC00F7D17A6A002E47D0C2F3080121B96FEA1F
:1023DC0052226FEA42227A6207F108011846FFF78F
:1023EC00E9FB2C37BD46BDE8F083AB6A13F47F4F95
:1023FC0004D0F91D0120FFF711FE05E0AB6AB3F51F
:10240C00803F8CD3FFF7B4FE0346CCE7F91D0020C8
:10241C00B6E7F91D0020EEE71A4BFB610223BB6106
:10242C0076E7194A194B18F4F87FE8468AB018BFBA
:10243C0013466A4616490D48C2E905134FF400735A
:10244C001384103D134BD5614FF4115142F8103FDA
:10245C0003F0AEFFC54662E722F4FF7222F00102E0
:10246C00B9E700BF00ED00E0E1740000F06C000083
:10247C000C750000237500004475000052750000B7
:10248C00717500008D750000C8740000B3740000F5
:10249C00B175000004000001024A536943F01003B7
:1024AC005361704700ED00E0EFF30880EFF3098112
:1024BC0001B57246FFF7DEFE01BD00BF04480023E4
:1024CC002021C2180133272B82F80013F9D1704751
:1024DC0000E100E0002080F31488BFF36F8FFEF75B
:1024EC0039FD00200D490860BFF34F8F0C4880F375
:1024FC00088800F03DF8202080F3118809484FF43B
:10250C000061401880F30988EFF31480022108431E
:10251C0080F31488BFF36F8FFFF7EAFB94ED00E0B4
:10252C00281D0020E80F0020BFF34F8F0549064BF4
:10253C00CA6802F4E0621343CB60BFF34F8F00BF55
:10254C00FDE700BF00ED00E00400FA050749D1F8F3
:10255C0090200023C2F307221846934200DB7047F9
:10256C00C1F89830C1F8A0000133F6E700ED00E0A7
:10257C0008B572B6002383F31388FFF7E7FF144BFB
:10258C004FF0FF32C3F88020C3F88420C3F88820B2
:10259C00C3F88C20C3F89020C3F89420C3F898207B
:1025AC00C3F89C20C3F88021C3F88421C3F8882188
:1025BC00C3F88C21C3F89021C3F89421C3F8982157
:1025CC00C3F89C2162B6BFF34F8FBFF36F8F08BD6A
:1025DC0000E100E0084B9B6883420BD1EFF30583CD
:1025EC0043B1064B5A6842F080525A605A6A22F440
:1025FC0000425A6202F02EBD8808002000ED00E077
:10260C00024B034A0348012100F082B8000001206C
:10261C0000000020EC6D00002DE9F041DFF8B4E083
:10262C009C4600AF154600238B421ADA4468002CF6
:10263C004DD0BCF1000F1DD0661E344215D06C4637
:10264C0088B06A462449C2E90513032342F8103FB7
:10265C00224800234FF4C251FEF718FF6FF0150506
:10266C00A5462846BD46BDE8F0811F2CE7D9026877
:10267C001642E4D1202C026886685FFA85F814D9DA
:10268C00B4F1004F13D8013CB4FA84F4C4F11F0424
:10269C006400B8F1070F46EA04060AD96C4688B004
:1026AC006A460F4BC2E90535CFE70824F1E73E2413
:1026BC00EFE722F01F022A4342F0100246F0010617
:1026CC00CEF89850CEF89C200135CEF8A06001339E
:1026DC000C30A9E700ED00E0C8750000E86C0000C4
:1026EC00EB750000044B0522C3F89420BFF34F8F09
:1026FC00BFF36F8F704700BF00ED00E0BFF35F8F3B
:10270C00024B0022C3F89420704700BF00ED00E09C
:10271C0010B5034C01232278FFF77EFF207010BD0B
:10272C00CE08002014490868082810B521D8FFF7F6
:10273C00E5FF124C49680022904201F10C0105D1D1
:10274C000F4B1870FFF7CEFF002010BDC4F8982077
:10275C0051F80C3C23F01F03134343F01003C4F84F
:10276C009C3051F8043C43F00103C4F8A030013212
:10277C00E2E74FF0FF30E8E7F86D000000ED00E015
:10278C00CE08002008B5024B1B689847002008BDF6
:10279C004C070020034B044A1860937843F0020363
:1027AC00937070474C07002008000020F0B587B0EC
:1027BC0007460E4614460021102268461D4604F0BA
:1027CC006DF902238DF802302A46054B0193214600
:1027DC006846CDE9047602F0CBFE07B0F0BD00BF31
:1027EC00C363000008B50649064821F00701C1F192
:1027FC00005202F5803203F0BAF9002008BD00BF88
:10280C003B1D0020281D0020044A0123C2F840353E
:10281C004FF080420020C2F87835704700E001404C
:10282C0020B1034B800143F001031847704700BFF0
:10283C00306D0000084B70B5C31A0D4607499B104C
:10284C00044659430648402203F0DCFD2B46014662
:10285C002046BDE87040184764070020B76DDBB612
:10286C002C6B000073B50C4C0C4A4023041B0093DA
:10287C000D460B460A49A41061430646094803F06D
:10288C00EDFD011E05DA30462B4602B0BDE8704066
:10289C00184702B070BD00BF64070020D36400006D
:1028AC00B76DDBB62C6B000010B54FF02003EFF3C7
:1028BC00118483F31288BFF36F8F074A136823F0D8
:1028CC000201DB07116002D4012003F0A9FE84F39E
:1028DC001188BFF36F8F10BDB4070020002270B5B4
:1028EC00012104461046FFF7E7F90F4801F0CAF83A
:1028FC000E4B984215D103F086FE26690C493046E2
:10290C0003F0C2F900280BDB012535642469084962
:10291C0004F11C0003F0B8F9002801DBE564002089
:10292C0070BD6FF00400FBE7752900000000AD0BD3
:10293C00186E000070B501460C2309484B43C418AF
:10294C00D4E90E56403300221844A26303F047FD2D
:10295C002DB132462B460348BDE87040184770BD78
:10296C00640700202C6B000010B1012804D07047C4
:10297C00034B1B6C5B0701D1FFF7DCBF704700BF3B
:10298C006407002008B54FF02003EFF3118183F3A7
:10299C001288BFF36F8F124A136843F00200106065
:1029AC00DA0708D481F31188BFF36F8F0120BDE8DB
:1029BC00084001F077B84FF08043D3F80C24D3F8DB
:1029CC000C34DB07EED5074803F009FD81F31188C1
:1029DC00BFF36F8F0020BDE80840FFF7ABBF00BF0F
:1029EC00B4070020A40700201FB500220123CDE965
:1029FC000223094ACDF800D06B46CDF804D003F081
:102A0C005BFD002805DB4FF480420023684602F092
:102A1C0017F805B05DF804FBEB64000010B5074C2B
:102A2C0023782BB94FF4A57003F0B5FE0123237066
:102A3C00BDE81040002001F035B800BFCF080020E1
:102A4C002DE9F0413849BFF35B8F0746012251E86D
:102A5C00003F41E800200028F9D1BFF35B8F33B968
:102A6C00324933484B60CB608A6003F020F97B1EFF
:102A7C00012B2BD8012F07D14FF08043D3F81C34F6
:102A8C0003F00303012B21D003F099FE0546F8B99E
:102A9C00284B1B78E3B14FF080430222C3F8082384
:102AAC000646DFF894804FF08044D4F81824D4F80C
:102ABC001834D20316D503F00303012B01D0012FD8
:102ACC0010D15DB386F31188BFF36F8FBDE8F08131
:102ADC004FF02003EFF3118683F31288BFF36F8F4F
:102AEC000125DEE7ADB13046FFF758F8D4F81835BC
:102AFC00002BDAD1D4F80421002AD6D0C4F8043142
:102B0C00D4F804310123C4F81835C8F88031A36017
:102B1C00CBE70021212002F07DFAE7E74FF080435C
:102B2C000222C3F80423D1E76007002050070020DD
:102B3C0080070020E10C002000E100E010B5044CFF
:102B4C002046FEF7D9F82046FFF724FE002010BDE2
:102B5C00612B0000F7B5134E8DF8070004460325D2
:102B6C0001F042FC01220DF10701002001F006FCEE
:102B7C00074601F043FC27B101233370204603B014
:102B8C00F0BD3378002BF9D0013D08D003F017FECF
:102B9C000028E5D10021422002F03CFAE0E7357034
:102BAC00ECE700BFD008002008B5074803F0F8FD9B
:102BBC0038B10648FFF7EEFD0448FEF79DF80020FB
:102BCC0008BD6FF01200FBE7546B0000DD2B00001A
:102BDC000A2838B5074D044604D1AB680D215B6853
:102BEC0028469847AB6803485B68E1B29847204693
:102BFC0038BD00BF546B000030B54068057B01F058
:102C0C001F04B2F5001F85B044EA451405D12046D7
:102C1C0001F030FA002005B030BD0025B2F5800F70
:102C2C00CDE9025514D1B3F1007F0CBF0423052369
:102C3C008DF808300023194602AA204601F04EF800
:102C4C00214B984239D10121204601F0C7F9E1E727
:102C5C00B3F1C06F26D0B3F1007F14BF0123022360
:102C6C008DF80830836823FA01F111F00101E1D1EC
:102C7C00B2F1A07FDED104F01F03620903F5E0730B
:102C8C001ED14FF0A04252F82330DB07D2D40DF105
:102C9C0007052946204601F04DF90C4B984203D00C
:102CAC000395C7E70323DBE7284601F091F9064BB0
:102CBC009842F5D06FF00B00ADE76FF01500AAE766
:102CCC0051F82330FFDE00BF0000AD0B0400AD0B4C
:102CDC0010B501F06DF9044668B901F041F9084BE3
:102CEC0098420AD10748214601F01EF922460521D7
:102CFC000620FEF7E1FF002010BD6FF00400FBE79B
:102D0C000000AD0B152D0000430970B507D10B4B1E
:102D1C00596821B101250C68094E854001B970BD77
:102D2C008A682A4002D04B68304698471CB1236809
:102D3C0021461C46F2E72346FAE700BFB8070020FD
:102D4C00406B00002DE9FF4147683B7B01F01F05FC
:102D5C0045EA43150E4628460DF10701144601F0CD
:102D6C00E9F814F4403F80460DD1284601F0A8F94B
:102D7C003D4B984503D19DF8070001F023F9002045
:102D8C0004B0BDE8F0810023194602AA2846CDE91B
:102D9C00023300F0A3FF344B984214D1804503D189
:102DAC009DF8070001F00EF9A3034ED540F206334F
:102DBC002340B3F5837F1AD00DD8062B18D005D835
:102DCC00B3B1022B33D06FF01500D9E7B3F5807F88
:102DDC00F9D101230CE040F20222934229D0B3F541
:102DEC00407F28D0B3F5007FEDD1022300E007230C
:102DFC008DF8083084F48033C3F30043E0068DF87B
:102E0C00093054BFC4F34013032321038DF80A3057
:102E1C0013D57A680123B340C2F80835002202A901
:102E2C00284601F00BF8104B9842A8D0CBE70423AE
:102E3C00DEE70523DCE70323DAE7620341BF012366
:102E4C007A68B340C2F80C35E8E7E3064FF00003AC
:102E5C0054BFC4F3401403241A4602A928468DF823
:102E6C00084000F03BFFDEE70000AD0BF0B5524D23
:102E7C0000EB8101814201D10020F0BD046804F017
:102E8C007F03C4F343267F2B4FEA144408BF4FF053
:102E9C00FF33192C7ED8DFE804F00D13191C1F2505
:102EAC001C7D7D7D7D345D7D7D7D7D7D7D7D7D7D10
:102EBC006074777AC2F80C355F1C57D10430D9E7AF
:102ECC00C2F814355C1CF9D0002458E0C2F808355F
:102EDC00F2E7C2F81035F5E75F1CC2F80835EDD003
:102EEC00002404E05C1CC2F80C35E7D001245F0917
:102EFC0053D101274FF0A04C07FA03FECCF80CE598
:102F0C0008E0C2F80835002EDCD15C1CD6D00024B9
:102F1C0027460626D0F800E00EF4005CBCF1000F4A
:102F2C001CBF0124002703F01F0C5B093DD14FEAA5
:102F3C008C0C0CF1A04CCEF3C11EDCF800372B40EE
:102F4C0043EA8E0343EA06233B4343EA4403CCF8AB
:102F5C000037B3E7C2F80C35D5E7C2F860355F1C13
:102F6C000468ABD0C4F38034002CBFD05C0918D1FA
:102F7C0001244FF0A04704FA03FCC7F808C5274604
:102F8C00C8E7C2F86435EAE7C2F86835E7E7C2F883
:102F9C006C35E4E76FF085006FE70023C3F80C3560
:102FAC00FFDE0023C3F80835FAE70CF5E07C0023BC
:102FBC0053F82C30F4E700BFF0F8FCFF074BD3F8C4
:102FCC00082142B10020C3F80801D3F80821D3F836
:102FDC0018350B7070474FF0FF30704700200040E1
:102FEC00024BD3F88004C3F88004704700200040E3
:102FFC0010B54B79012B1CD18B79032B19D1CB79C3
:10300C00BBB90A7912B1022A13D10E220B68B3F59F
:10301C00164F5ED02BD8B3F5165F5CD014D8B3F531
:10302C00966F5AD008D8B3F5967F59D0B3F5167F62
:10303C0059D06FF085004BE0B3F5166F56D0B3F551
:10304C00965FF6D1334B39E0B3F5E14F51D007D849
:10305C00B3F5615F4FD0B3F5964FEAD12E4B2DE00F
:10306C0047F61224A342E4D14FF4000326E0B3F553
:10307C00613F43D011D8B3F5963F41D008D84DF6F7
:10308C00C024A3423ED0B3F5614FD2D1234B15E0FF
:10309C00B3F5E13FCDD1224B10E0B3F5612F34D025
:1030AC0007D8204CA34232D0B3F5E12FC1D11E4B2F
:1030BC0004E01E4CA342BCD14FF0805304691C4861
:1030CC00C0F82435C0F86C2503C984E8030000203F
:1030DC0010BD184BF2E7184BF0E74FF49E23EDE7C9
:1030EC004FF4A033EAE74FF41C33E7E74FF41D230A
:1030FC00E4E7124BE2E74FF46C13DFE7104BDDE72C
:10310C00104BDBE74FF46503D8E70F4BD6E74FF0D6
:10311C008063D3E700B0130000A04E0000F0EB007A
:10312C0000E0D70190D0030000705F0740420F0011
:10313C000020004000509D000050270000F075005A
:10314C0000B0AF0300903A0100D0BE0EF8B50E46A9
:10315C0003F035FB1A4D78BB64240127BFF35B8F5A
:10316C0055E8003F002B03D145E80072002AF7D147
:10317C00BFF35B8F07D021200021013C01F04AFFF7
:10318C0014F0FF04EAD10F4C0023C4F81C31D4F81E
:10319C001C310123A360C4F81C654FF47A76D4F873
:1031AC001C3123B9012003F02CFA013EF7D1012385
:1031BC00E36000232B60F8BD01232B60E3E700BF25
:1031CC00C407002000200040F7B5134C4368076982
:1031DC000021C4F800151E68054601AA304603F00C
:1031EC00D6F9002815DB019B326819791868FFF7AE
:1031FC003DFE00280DDB39462846FFF7F9FE40B9A5
:10320C000423C4F80035C4F80801D4F808310123AC
:10321C00236003B0F0BD00BF0020004070B5012357
:10322C0083400E4ABFF35B8FDC4352E8001F01EA78
:10323C00040542E80056002EF7D1BFF35B8F4FF424
:10324C00803282400648C0F80823BFF35F8FBFF37B
:10325C006F8F0B4214BF0120002070BDCC070020E3
:10326C000010014070B40E49D1E90034D01AC318D3
:10327C0044F1000422F07F46C1E90034A6F50013A6
:10328C00B3F5400F09D2074B1B681A0A1B069C1991
:10329C00054B42F10005C3E9004570BC02F010B8C3
:1032AC00C0050020D0070020C805002011B3BFF3D3
:1032BC005B8F0123104A834052E800CF4CEA030C89
:1032CC0042E800C10029F7D1BFF35B8F0B4A4FF4E2
:1032DC0080338340C2F80433094BBFF35B8F1B6808
:1032EC00BFF35B8FC340DB0742BF064B4FF400328A
:1032FC00C3F80021704700BFCC070020001001402C
:10330C00C807002000E100E00D4B1868010A000618
:10331C00BFF35F8F0B4BD3F80435181841F1000144
:10332C00B3F5801F0AD2084BD3E90023904271EB0E
:10333C00030303D210F1807041F10001704700BF0C
:10334C00D007002000100140C80500202DE9F04FE7
:10335C0085B016461F469DF840A00446FFF75EFF59
:10336C000190FFF7D1FFB04271EB070354D23E4BF3
:10337C00301A67EB0101984271F100014FD23B4BBF
:10338C0003EB0413D3E902239F4208BF96425ED09D
:10339C0037494FF4803804F1500508FA04F8AD00B1
:1033AC00C1F848832046ADB203F00CF926F07F4BF0
:1033BC0005F1804504F5A87305F58835DC464FF01A
:1033CC0003090293029A2CF07F4341F82230C1F892
:1033DC004483D1F80435274A6FF00200C01A6044C8
:1033EC0020F07F40904232D9286868B1D1F804357A
:1033FC000393A3EB0B0020F07F40B0F5000F26D910
:10340C00204603F0DFF8039BBAF1000F07D109EB5C
:10341C00030C09F10109D5E7BAF1000F09D06FF0DF
:10342C00150520460199FFF741FF284605B0BDE878
:10343C00F08F0123104ABFF35B8FA34052E8000FBB
:10344C00184342E800010029F8D1BFF35B8F07490C
:10345C000E98230101EB0412C8500F9B5360C2E974
:10346C0002670025DDE700BF01008000B0050020E9
:10347C0000100140FDFF7F00C80700207FB51C4CE9
:10348C001C4BC4F80833C4F848331B4B00254FF0D1
:10349C00FF304FF0FF31C4F80855C3E902014FF477
:1034AC008033C4F80433154B02264FF4003201214B
:1034BC00C4F804631120C3F880212A46FEF7FCFBF4
:1034CC001120FEF7DDFB0E4A0123A360236013607D
:1034DC000C4B0D4A0093CDE9015500232846FFF70C
:1034EC0035FF3046FFF7ACFA284604B070BD00BF7C
:1034FC000010014003000F00B005002000E100E0C7
:10350C00CC07002071320000FFFF7F002DE9F7434C
:10351C002F4CD4F8043399070BD5D4F8043143B1AC
:10352C002C4A0023C4F80431D4F804311368013355
:10353C001360D4F80433DA032AD5BFF35B8F264B20
:10354C0053E8002F22F0010143E800100028F7D1C6
:10355C00BFF35B8FD30702D4D4F84031C3B100253D
:10356C00C4F84051D4F84031FFF7CEFE4FF02003A1
:10357C00EFF3118283F31288BFF36F8F174BD3E9EC
:10358C000267B042B94106D282F31188BFF36F8F44
:10359C0003B0BDE8F0834FF0FF384FF0FF39C3E9BB
:1035AC000289D3E900101D604FF48033C4F848330E
:1035BC00C4F84051D4F8403182F31188BFF36F8FB7
:1035CC000029E5D0009032463B4628468847DFE785
:1035DC0000100140D0070020C8070020B0050020D3
:1035EC001FB5431C23D0012823DD134A134B9042F3
:1035FC00D4BF04461C46FFF787FE114B0F49D3E995
:10360C000023801AB0F5000F28BF002404448C421C
:10361C0028BF0C46A2180B4900914FF00000CDE9D1
:10362C00010043F10003FFF791FE04B010BD034C01
:10363C00E1E70124DFE700BFFEFF7F00FFFF7F0013
:10364C00C00500207132000008B5FFF75DFE024B8B
:10365C001B68C01A08BD00BFC00500207FB5FDF770
:10366C0031FE074B0593022304930648002304AA5A
:10367C004FF48251FDF70AFF0020FEF755FF00BF03
:10368C0069760000C86C00004FF0704393F8E02F8F
:10369C00062A09D1D3F8E83FC3F30313033B042BE9
:1036AC0002D8024AD05C7047002070479576000023
:1036BC00024AD2F80034002BFBD0704700E00140E6
:1036CC0010B502F08FFF40B14FF080538E4AD3F803
:1036DC002433C3F30423C2F84035FFF7D5FF10B1F0
:1036EC008A4B8B4A5A6702F07DFF48B14FF08053EA
:1036FC004FF08042D3F84432C3F34233C2F83C3526
:10370C00FFF7C2FF30B1834AD2F8FC3023F080734C
:10371C00C2F8FC3002F066FF40B14FF0804300224B
:10372C00C3F80C21C3F81021C3F83825FFF7ACFF00
:10373C0020B14FF080430322C3F8A025FFF7A4FF6C
:10374C0060B1754B0522C3F810260122C3F88826F8
:10375C000022C3F818263F22C3F814264FF08053DA
:10376C00D3F83021511C09BF4FF07043D3F83431DA
:10377C0093F8E02FD3F8E83F08BFC3F30313062AEE
:10378C004DD1033B042B03D8644AD35C002B46D0A9
:10379C004FF08052624BD2F80414C3F82015D2F8C3
:1037AC000814C3F82415D2F80C14C3F82815D2F851
:1037BC001014C3F82C15D2F81414C3F83015D2F821
:1037CC001814C3F83415D2F81C14C3F84015D2F8E9
:1037DC002014C3F84415D2F82414C3F84815D2F8B1
:1037EC002814C3F84C15D2F82C14C3F85015D2F881
:1037FC003014C3F85415D2F83414C3F86015D2F849
:10380C003814C3F86415D2F83C14C3F86815D2F810
:10381C004014C3F86C15D2F84424C3F8702502F098
:10382C00E1FE48B14FF080534FF08042D3F858324C
:10383C0003F04F03C2F8E43E02F0D4FE48B14FF05F
:10384C008043D3F80024D20744BF6FF00102C3F8C1
:10385C0000244FF08053D3F83021062A26D1D3F818
:10386C003431033B042B02D82E4AD35C63B12E4A6D
:10387C00D2F83C3743F48063C2F83C374FF08053A6
:10388C00D3F83031062B11D14FF08053D3F83431AB
:10389C00033B042B02D8254AD35C3BB14FF01023D9
:1038AC00D3F808224FF08043C3F858254FF010236B
:1038BC00D3F80022002A03DBD3F80432002B22DADF
:1038CC001B4901234FF01020C1F804351524FFF7D4
:1038DC00EFFEC0F80042FFF7EBFEC0F80442FFF722
:1038EC00E7FE0023C1F80435FFF7E2FEBFF34F8F6C
:1038FC000849104BCA6802F4E0621343CB60BFF373
:10390C004F8F00BFFDE710BD0030014000C00740E5
:10391C000DF0ADBA00ED00E00050004090760000D4
:10392C0000C000408B76000000100040867600003E
:10393C0000E001400400FA0530B50468CCB1BFF3D7
:10394C005B8FB4FA84F3C3F11F03DBB201229A40FC
:10395C0024EA020250E8005FA54204D140E8002CA2
:10396C00BCF1000FF6D1BFF35B8FE6D102480B70B0
:10397C0030BD0248FCE700BF0000AD0B0200AD0BF0
:10398C0010B50368CB40DB0714D401238B400268CD
:10399C00BFF35B8F43EA020150E8004F944204D11D
:1039AC0040E8001CBCF1000FF6D1BFF35B8FEED1E9
:1039BC00014810BD0148FCE70000AD0B0400AD0B45
:1039CC00F7B5044618B1012823D003B0F0BD4FF071
:1039DC0080430222C3F80823C3F80401D3F804215E
:1039EC000122DA60064601238DF8073042F2107589
:1039FC004FF08047D4B1012CE7D1D7F80C3403F445
:103A0C008033AEBB83B3012002F0FBFD013DF4D14A
:103A1C002AE04FF080430022C3F80803C3F80021CA
:103A2C00D3F8002158600DF10706DCE7D7F81834FD
:103A3C0003F480333EB9002BC7D0012002F0E1FD26
:103A4C00013DF3D1C1E7D7F8182402F0030232602C
:103A5C00002BBAD09DF80700012803D102F0D1FD4C
:103A6C00013DC7D1012CB0D1054B00225A71ACE7F6
:103A7C00D7F80C2402F001023270002BEAD1F3E7E4
:103A8C00D4070020044B1A7922B9012218609A80BD
:103A9C000248704702487047D40700200000AD0B65
:103AAC000C00AD0B38B510B1012843D038BD4FF028
:103ABC008042D2F81814D2F81834C8032ED503F06B
:103ACC000303012B04D013B10020FFF779FF00236F
:103ADC004FF08042C2F818350023C2F80431D2F8F6
:103AEC0004310223C2F80433184AD2F8FC0040F027
:103AFC008073C2F8FC30164B1C6844F0010119604D
:103B0C005D685968491BB1F50A5FFAD31C604FF028
:103B1C008043C2F8FC0001229A60C7E7D2F8143443
:103B2C00D907D4D5D2F81C349B07CDD40223C2F8C4
:103B3C000433BBE74FF080430022C3F80021D3F8D5
:103B4C000021C3F804031860B0E700BF00ED00E0EB
:103B5C00001000E010B54FF08043D3F800216AB19B
:103B6C000022C3F80021D3F800210122C3F8082356
:103B7C00114B587910B95A711B6898474FF0804314
:103B8C00D3F8042172B10022C3F80421D3F8042124
:103B9C00D3F81824D3F81824920704D10122C3F8BF
:103BAC0018259A6010BD0222C3F80823024BBDE809
:103BBC0010401B6801201847D4070020C0B2034BEB
:103BCC00083033F81000C0F340107047200000207C
:103BDC00C0B2034B083033F81000C0F340007047FC
:103BEC0020000020C0B2034B083033F81000400B0B
:103BFC00704700BF2000002070B500F108030C4C8A
:103C0C0034F81330DA0505460E4607D5C3F34323C3
:103C1C0004EBC30254F8333052689847A3682BB1B5
:103C2C00E26831462846BDE87040184770BD00BFB9
:103C3C002000002010B4C0B2114A083032F8103005
:103C4C00D9051BD5C3F3432123F4F85322F81030C4
:103C5C0002F10E04002034F8023F13F4807F03D0ED
:103C6C00C3F34323994209D001302028F3D1002318
:103C7C0042F83130034810BCFFF782BE10BC7047CD
:103C8C002000002074000020F0B50146104A114CB1
:103C9C0000200125064602F14043A3F5C2439B08D0
:103CAC0005FA03F3194204D0176817B116601768A8
:103CBC0018430432A242EED1074BD3F87C2132B127
:103CCC000022C3F87C21D3F87C3140F00040F0BDD9
:103CDC00006100402061004000600040F0B50446E7
:103CEC0085B017461D4601B3FFF772FF18B1204689
:103CFC00FFF764FF08BB0023CDE900338DF80E30CD
:103D0C008DF80F300DF10F020B4620460DF10E0110
:103D1C0002F092FCE3B24449083331F8132022F04C
:103D2C00020242F0010221F8132057B320463E78DC
:103D3C007A68FFF74DFF10B1C2B13C4823E0E3B203
:103D4C00DFF8E4C008333CF8131021F02001C9045B
:103D5C00C90C2CF813104AB1032EEED87A681778D8
:103D6C009EB9334B07F5A27743F82760E3B22E498F
:103D7C00083331F8132022F01C0242EA860221F8A3
:103D8C0013203DBB2B4805B0F0BDBA0002F18042B8
:103D9C0002F5C04241EA4731D2F8100520F0030089
:103DAC00C2F81005D2F8100520F4473020F440700A
:103DBC00C2F81005D2F810E5200200F4F85040EAE1
:103DCC000E0040EA064041F020012CF81310C2F816
:103DDC001005CBE7D5E900672046FFF72BFF002E37
:103DEC00D0D0114DD5E90023964201D19F4219D074
:103DFC0011480DF10F01FFF79FFD0E4B9842C2D1F8
:103E0C009DF80F2045F83260E4B205EBC20308348C
:103E1C005F6035F8143043EA422343F4807325F88D
:103E2C001430AFE70022EDE7200000200400AD0BBA
:103E3C00006000400000AD0B74000020F0B504469B
:103E4C0085B0164629B3FFF7C3FE20B92046FFF70D
:103E5C00B5FE00285FD1E5B2304F083537F8153084
:103E6C0013F01C0F02D04B78012B54D001238DF88A
:103E7C000F300023CDE900134A1C8B1C20460DF19A
:103E8C000F0102F0D9FB37F8153043F0030327F884
:103E9C00153016B9224805B0F0BD2046FFF798FE44
:103EAC00C8B3E5B21D4F96F800C00835614637F827
:103EBC001500890020F0200001F18041C00401F5BB
:103ECC00C041C00C27F815000023C1F810357278DA
:103EDC00002ADFD0D1F81035B67823F4981323F4E8
:103EEC00F853C1F8103512042302D1F810E502F48E
:103EFC00403203F4F8531343320543EA0E0302F441
:103F0C00801240EA4C30134340F0200027F8150093
:103F1C00C1F81035BEE70348BDE700BF2000002004
:103F2C000000AD0B0400AD0B014BC3E9020170475F
:103F3C002000002008B50246FFF740FE40B1D2B287
:103F4C00044B0548083233F812305B0B0B7008BD7C
:103F5C000248FCE7200000200000AD0B0400AD0B74
:103F6C0070B50F4C94F85860BEB90E4D40223146D6
:103F7C0004F1100002F092FDC5F87C610620D5F822
:103F8C007C31FDF77DFE4FF00043C5F80433064845
:103F9C00012384F85830636570BD0448FCE700BF0A
:103FAC0020000020006000400000AD0B0500AD0BB0
:103FBC00034B93F85800003818BF0120704700BF1E
:103FCC002000002001460148FFF7DABC70000020F9
:103FDC0001460148FFF7B0BC7000002037B504461D
:103FEC00FFF7ECFD08B32046FFF7F2FD0546E0B9FC
:103FFC002046FFF7F7FD03B29B0003F1804202F568
:10400C00C24203F1804303F5C04315601268D3F834
:10401C00102542F00102C3F8102521B1134A0123E7
:10402C008340C2F8043303B030BDE3B2104A083306
:10403C0032F81330C3F38203042B12D0052B12D0A9
:10404C0001A8019402F0EEFA019BD0F81015D940AA
:10405C0001F001010231204603B0BDE8304002F00E
:10406C0034BB0321F7E70221F5E700BF00600040F5
:10407C002000002008B50246FFF7A0FDC0B1104695
:10408C00FFF7A6FDA0B91046FFF7ACFD0B4A0123C4
:10409C008340C2F8083303B29B0003F1804303F55D
:1040AC00C043D3F8102522F00302C3F8102508BD35
:1040BC00BDE808400021104602F007BB006000403C
:1040CC0073B5C5B2174E0835044636F81530DB0704
:1040DC0026D5FFF7CFFF2046FFF770FD40B12046F5
:1040EC00FFF780FD104B00F5A270002243F8202052
:1040FC002046FFF79FFD002301A826F815300194F8
:10410C0002F090FA019B00EB8300084BD0F80027DB
:10411C00134043F00203C0F80037054802B070BDED
:10412C000448FBE72000002000600040F0F8FCFF92
:10413C000000AD0B0400AD0B2DE9F347534BD3F846
:10414C000403C0B240F00040FFF79EFD051E1ADAD2
:10415C004FF0A043DFF83881D3F820250092C3F844
:10416C0020250127009CA4B94FF00040FFF78CFDDF
:10417C004FF0A042D2F820350093C2F82035002B26
:10418C00EFD125F000450124002D66D102B0BDE829
:10419C00F08794FAA4F4B4FA84F4E00804F1080368
:1041AC0004F0070238F813901DF80030019407FA58
:1041BC0002F223EA02030DF8003001A802F032FAF1
:1041CC00019B03F5E0734FEA990150F82360C9F3A2
:1041DC00820A4B07D146C6F3014623D520465146E9
:1041EC00FFF70AFD01A8019402F01CFA019B03F5EC
:1041FC00E073F6B250F82330C3F301439E4207D16B
:10420C000021204602F061FA3146204602F05DFAA8
:10421C0001A8019402F006FA019B07FA03F3C0F817
:10422C0020359FE7022E0CD10321204602F04DFAD7
:10423C000AF00503012BEBD149462046FFF7DCFCC5
:10424C00E6E70221204602F040FABAF1030FF3D060
:10425C00032EDDD1BAF1020FEDE795FAA5F3B3FA0F
:10426C0083F304FA03F29B0003F1804303F5C0438C
:10427C0025EA0205D3F81005D3F81015C0F3042075
:10428C00C1F30141FFF7B8FC7EE700BF00600040BE
:10429C002000002008B5124BA8220021184602F07D
:1042AC00FDFB032202610F4942610F4A8161C26129
:1042BC004FF480620262002282624262C262016634
:1042CC000A49416610218166094902670346C266A4
:1042DC00426711F8010D98540132102AF9D108BD2A
:1042EC00DC070020B1760000E1080020D108002096
:1042FC00CA7600002DE9F84FDFF87C80182606FB03
:10430C00008E00FB06664644DEF82440DEF828C02A
:10431C007368A44507468946154603EB040022D86A
:10432C00DEF820B0ABEB040A0AF1FF339A4203D853
:10433C0002F0A6FB2C440FE063449A4219D8524673
:10434C002C4402F09DFBB4EB0B0405D070682246A4
:10435C0009EB0A0102F094FB182303FB07830120ED
:10436C005C62BDE8F88F0CF1FF3CACEB040C94459F
:10437C00DED20020F5E700BFDC070020F8B5144BB7
:10438C00182700FB07751D4407FB00330E46DB6A3C
:10439C00012B14460AD0022B14D023B9284602F064
:1043AC00A3F9844208D900242046F8BD284602F01F
:1043BC009BF9844228BF044622463146284602F027
:1043CC009CF9F1E72846BDE8F84002F0B3B900BF0C
:1043DC00DC070020034B182202FB00339A6A586A50
:1043EC00801A7047DC07002003484FF0FF324FF073
:1043FC00FF3300F04BBA00BFC8000020014800F0AA
:10440C00BFBA00BFC80000202DE9F04786B00446B3
:10441C0000AF0D464FF02003EFF3118883F31288A1
:10442C00BFF36F8F02F04AFB2D4B042C1E5896BF26
:10443C002C4B2D4B53F82430E9468AB06A462B4955
:10444C00D36140F2013393844FF0000A284BC2F839
:10445C0020A0C2E9051442F8103F264853464FF4F9
:10446C003151FDF713F8CD467DB1EB69C3F3080369
:10447C005BB1214B7B6102233B611E48534607F124
:10448C0010024FF48251FDF701F82EB1304602F0C4
:10449C009FF908B1037803B91848E9468AB06A460F
:1044AC00174BD061C2E9053640F201331384154B2A
:1044BC0042F8103F00230F484FF41151FCF7E6FF70
:1044CC002946CD462046FFF7C9F888F31188BFF37B
:1044DC006F8F3046FEF77EF81837BD46BDE8F08783
:1044EC0008000000C46E0000CB760000E1760000EE
:1044FC0005000001F06C000009770000D97600007F
:10450C002A77000004000001104B70B553F82040CE
:10451C00013053F82060A64200D870BDD4E90035B4
:10452C0095B153B12846984738B10028B8BF4042DE
:10453C00EB68FF28A8BFFF201870EA68537843F097
:10454C00010353700834E6E79847FBE7D86E000088
:10455C0008B50A4B012203201A70FFF7D5FF00F0B3
:10456C00D5FF0420FFF7D0FF00F034F9FBF754FF20
:10457C00034A137B23F00103137308BDE10C0020E5
:10458C005006002008B50348034A0021121A02F015
:10459C0012F908BDF0000020E40C002070B50023D7
:1045AC0086B00122CDE90423174E184D01930F223A
:1045BC00CDE902321649142303FB005506EBC01655
:1045CC004FF4A0720446134B009502FB00113046C9
:1045DC0000F096F8737B2C7423F0040373730E4B6A
:1045EC00EE60013403EBC4236B600C4BBFF35B8FA9
:1045FC0053E8001F013143E80012002AF8D1BFF341
:10460C005B8F06B070BD00BFD0050020880800206D
:10461C00E8170020E1670000E80F00208408002064
:10462C0080B50020A6B0FFF76FFF2E4B83F30888F0
:10463C002D4D2E4E6B692E4F43F400736B6100248D
:10464C00E02385F82230EC772C766C76AC7685F806
:10465C0020406B6A43F4E0236B6285F82340FDF73E
:10466C001BFFFDF787FA4FF0FF33AB62EB62FEF7EF
:10467C0059F8FDF7C5FFFCF791FD40F20113ADF8B9
:10468C00243006ABB360CDE91E44219402F087F8C8
:10469C000120FFF739FF0220164DFFF735FF00F020
:1046AC002FFC154B75610593012314490094CDE93A
:1046BC0003434FF480623B46CDE90144284600F0A9
:1046CC001FF86A7B064622F0040228466A7302F041
:1046DC00DBF82046FFF762FF3A4631462846FDF7E5
:1046EC0095FB00BFE817002000ED00E088080020D3
:1046FC005D450000500600208C7700002819002032
:10470C002DE9F04385B0984600F158030732C0E913
:10471C001633109B037322F0070504230026437302
:10472C0001EB05090F9B83730F46C0E906664946EA
:10473C008660C6730446FDF793FB07300E9B20F092
:10474C000700A066C4E9187502930D9B0193A9EBB1
:10475C0000090C9B00934A46434639462046FDF718
:10476C0039FB054B66659B6803B1DB6EE366484617
:10477C0005B0BDE8F08300BF88080020F0B587B015
:10478C0000250595109D04950F9D03950E9D029592
:10479C00DDE912760D9D01950C9D00950446FFF701
:1047AC00AFFFB6F1FF3F08BFB7F1FF3F05D056EAA8
:1047BC00070305D1204600F023FB204607B0F0BDCF
:1047CC0003493A46334604F1180000F003FDF4E7C0
:1047DC001D6900002DE9F043294C2A4D87B026466F
:1047EC00AE4204F12C040FD300F05AFB244CDFF83A
:1047FC0098904FF4004640F2E737AC4220D307B014
:10480C00BDE8F04300F060BB54F8043C059354F849
:10481C000C3C049354F8103C039354F8143C02934E
:10482C0054F8183C019354F81C3C009354E90923A8
:10483C0054E90B01FFF764FF54F82C3C5E65CEE79E
:10484C00636A5A1C0DD023EAE37300213846C3FB7C
:10485C00060151EAC333D4F8008004D1404600F07D
:10486C00CFFA2C34C9E74FF47A720023FBF730FCF3
:10487C0002460B4608F11800494600F0ABFCF0E785
:10488C00A06C0000A06C00001D6900002DE9F34134
:10489C00044617461E464FF02003EFF3118883F3AE
:1048AC001288BFF36F8FC368334A7BB180689168FD
:1048BC00884219D057EA060318D188F31188BFF340
:1048CC006F8F6FF00F0002B0BDE8F081916891F925
:1048DC000E1021610133E3609368A36088F31188A3
:1048EC00BFF36F8F0020EEE72169F2E791F90E100C
:1048FC0090F90E309942A8BF19466FF07E02914292
:10490C00B8BF11468B422EDD01F070FF0546CDE994
:10491C0000761A482246414600F0FCF90028E1D006
:10492C004FF02003EFF3118683F31288BFF36F8FE0
:10493C00A068D0B1236821699C420AD04BB193F98D
:10494C000E309942A8BF19466FF07E039942B8BF4A
:10495C00194601F04BFF40B10848314600F03EFAD1
:10496C006FF00A00AFE70025D1E7002DF4D186F3F4
:10497C001188BFF36F8FF3E788080020E20C00204A
:10498C0038B5836804466BB3194A926893422CD1AC
:10499C00C368012B03D9013BC360002038BD4FF025
:1049AC002003EFF3118583F31288BFF36F8F016936
:1049BC00806801F01BFF204601F0C5FFA06058B1D4
:1049CC0090F90E2022610022826701F05DFF0948F8
:1049DC00294600F003FAE0E7E06085F31188BFF3A5
:1049EC006F8FDAE76FF01500D8E74FF0FF30D5E79F
:1049FC0088080020E20C002038B504464FF0200354
:104A0C00EFF3118583F31288BFF36F8F01F09BFFD7
:104A1C0048B10022826701F037FF29460748BDE8FC
:104A2C00384000F0DBB9D4E902329A4218BF0133A6
:104A3C00A36085F31188BFF36F8F38BDE20C0020A3
:104A4C0013B54FF02004EFF3118184F31288BFF3F8
:104A5C006F8F846844B1013C846081F31188BFF38B
:104A6C006F8F002002B010BD52EA030406D181F30F
:104A7C001188BFF36F8F6FF00F00F3E7CDE90023C0
:104A8C000246024800F046F9ECE700BFE20C0020B9
:104A9C00C3897F2B12D80A4B1B6863B1094B90F961
:104AAC000E201B689A4209DB437BDB0606D1064BC2
:104ABC00C31A18BF012303F0010070470023FAE763
:104ACC00B0080020AC080020D0050020044BC01A10
:104ADC00044BC0105843044B01221A54704700BFBA
:104AEC00D0060020ABAAAAAAE20C002070B50E4B8F
:104AFC000E4C1E7C06EB460304EBC3040546204615
:104B0C0001F053FF0A4B002228469A55FFF7C0FFCD
:104B1C0048B1084B08491A68013A2046D317BDE83A
:104B2C00704000F057BB70BD88080020D0060020F4
:104B3C00E20C0020B0080020D94A000038B50D4D19
:104B4C002B4653F8184F9C4200D004B9EC68AB6864
:104B5C0038B95A7BD20604D1A26912B9DA897F2AF4
:104B6C0005D89C4202D02046FFF7C0FF23466B615C
:104B7C0038BD00BF8808002070B590F90D20437B2C
:104B8C00002A014604DA03F07F03437301F042FE6E
:104B9C004B7B154A63F07F0310464B7350F8183F5C
:104BAC00D469834208BF002323B9C1E90004216002
:104BBC00D1610CE091F90E5093F90E60B5420ED014
:104BCC00AE420CDD5868C1E9003001605960906854
:104BDC00431A5842BDE870405841FFF7AFBF9C42A2
:104BEC00E3D01B68E0E700BF8808002070B490F9A0
:104BFC000D30427B002B29DBD30627D183692BBBDD
:104C0C00134962F07F0242730A4652F8184F9442DD
:104C1C0018BF2346CC6923B9C0E900242060C861C1
:104C2C000CE090F90E5093F90E60B5420AD0AE42EA
:104C3C0008DD5A68C0E900321060586070BC002072
:104C4C00FFF77CBFA342E7D01B68E4E770BC70475A
:104C5C008808002008B590F90D20437B002A0146F6
:104C6C0004DA03F07F03437301F0D4FD044B98681E
:104C7C00431A58425841BDE80840FFF75FBF00BFD8
:104C8C008808002070B515461C46064601F0D4FD78
:104C9C00B4F1FF3F08BFB5F1FF3F08D02A462346C9
:104CAC0006F118000249BDE8704000F093BA70BDDF
:104CBC001D69000038B54FF02003EFF3118583F325
:104CCC001288BFF36F8F104B104A9C681068A0427B
:104CDC0006D1FFF70BFF85F31188BFF36F8F38BD3B
:104CEC0000211B7C11600A4AD35C002BF3D02046B8
:104CFC00FFF7CEFE0028EED0637BDB0602D1204608
:104D0C00FFF73AFF2046E4E788080020A8080020B7
:104D1C00E20C002070B50C480C4D86682E600C46D9
:104D2C001146DDE904234FF02006EFF3118586F3DD
:104D3C001288BFF36F8F8068FFF7A4FF2046BDE891
:104D4C007040FCF7F1BF00BF88080020A8080020C5
:104D5C00F8B504464FF02003EFF3118683F3128865
:104D6C00BFF36F8F437BDA0649B219D18569BDB9A0
:104D7C0003F07F03437301F04DFD437B164A8173AF
:104D8C0063F07F034373134653F8180F984218BF10
:104D9C000546D0695DB9C4E900300460D46111E006
:104DAC00A173002086F31188BFF36F8FF8BD95F9BE
:104DBC000E70B9420BD08F4209DD6B68C4E9005309
:104DCC001C606C600120FFF7B9FE0120EAE7A842E5
:104DDC00E1D02D68DEE700BF8808002049B9EFF369
:104DEC00058030B9054B5A699B689A4201D0FCF793
:104DFC009BBF81F31188BFF36F8F70478808002029
:104E0C0010B54FF02002EFF3118482F31288BFF338
:104E1C006F8F427B510704D484F31188BFF36F8FDB
:104E2C0010BD22F004024273FFF7E0FE2146024857
:104E3C00BDE81040FFF7D2BFE30C002070B504466C
:104E4C00183001F0B2FD4FF02003EFF3118683F31D
:104E5C001288BFF36F8F94F90D20637B002A05DA5B
:104E6C0003F07F036373204601F0D4FC0B4D637B8E
:104E7C00A86843F010036373031B58425841FFF7B3
:104E8C005DFE86F31188BFF36F8FAB68A34203D12D
:104E9C00BDE8704001F07FBD70BD00BF88080020E8
:104EAC004FF02003EFF3118183F31288BFF36F8F60
:104EBC00044B9A68D37B013BD37381F31188BFF306
:104ECC006F8F70478808002010B54FF02003EFF368
:104EDC00118483F31288BFF36F8F084B9A68D37BCE
:104EEC000133D3730020FFF729FE84F31188BFF33D
:104EFC006F8FBDE8104001F04EBD00BF8808002048
:104F0C00024B03F11802C3E90622704788080020FF
:104F1C00F8B54FF02003EFF3118583F31288BFF33C
:104F2C006F8F19498868437B03F07F03437301F04B
:104F3C0071FC8B685A7B084662F07F025A7350F8FA
:104F4C00182FCC69824208BF002222B9C3E90004A1
:104F5C002360CB610CE093F90E6092F90E70BE42A7
:104F6C000ED0B7420CDD5168C3E900210B605360D1
:104F7C000120FFF7E3FD2846BDE8F840FCF7D4BE5E
:104F8C00A242E3D01268E0E78808002050EA01034F
:104F9C002DE9F04105460E4603D1FFF7B9FF00207D
:104FAC002CE0831C71F1FF332ADB01F014FD2C186B
:104FBC004FF02003EFF3118883F31288BFF36F8F48
:104FCC00114F124BB8681860FFF744FEB8681049CF
:104FDC002A463346183000F0FDF8BA68537B43F08C
:104FEC00100353734046FCF79FFE01F0F4FC201AAB
:104FFC0063EB0303012873F10003D0DBBDE8F08100
:10500C006FF00104241AD3E788080020A8080020B8
:10501C001D690000B1F1FF3F08BFB0F1FF3F08B5BB
:10502C0006D1084B9868FFF709FF4FF0FF3008BD19
:10503C00FFF7ACFF4FF47A7380FB0303C00B40EA1D
:10504C004340F4E788080020014B9868704700BF84
:10505C00880800202DE9F04104464FF02003EFF3BF
:10506C00118683F31288BFF36F8F037BD9070BD59F
:10507C0086F31188BFF36F8F404080F311884FF097
:10508C00040002DFBDE8F081437B1A0704D586F3E8
:10509C001188BFF36F8FF5E723F0200242F008016F
:1050AC00D20920D14173A36813B1204601F0BAFB99
:1050BC0004F1180001F079FC04F158074FF00008D6
:1050CC00A56DBD4200D0B5B90120FFF737FD104BDF
:1050DC009B68A342DBD1EFF30583002BD7D130467D
:1050EC00FCF722FED3E703F05F0343F0080343739E
:1050FC0001F090FBD7E7284601F094FB05F118006E
:10510C0001F053FCC5F878802846FFF76FFDD7E710
:10511C008808002008B50648064A0749121A01F00B
:10512C004CFBBDE80840054A0549064801F045BB63
:10513C0000000020EC000020CC77000000000000F4
:10514C00CC77000000000020034B1B680BB9FEF766
:10515C007BBA0020704700BFB408002010B50E4B7E
:10516C001C689C4204D1FFF7EFFF6FF0004010BDAC
:10517C00FFF7EAFF002CF8D0D4E904321B1A62EBDB
:10518C00E072B3F1004F72F10001EEDA002AACBF0D
:10519C0018460020EBE700BF7C00002030B570B152
:1051AC000B4B5B6898420AD0036843B1D3E90421E6
:1051BC00D0E90445121941EB0501C3E90421D0E9FA
:1051CC00003213605A600023C0E9003330BD00BFC9
:1051DC007C000020B3F1FF3F08BFB2F1FF3FF8B5F0
:1051EC0004461D4616465CD081604FF02003EFF359
:1051FC00118783F31288BFF36F8F013275F1FF3380
:10520C0024DA2D49D1E900206FF001039B1A4FF0ED
:10521C00FF3262EB00009E1B60EB0500012E70F16B
:10522C00000301DA01260020C4E90460234ED6F8FD
:10523C0000C07568B44508BF4FF0000CBCF1000FFE
:10524C000DD1C4E900652C6074601CE0FFF77CFF95
:10525C00013645F10005361845EBE070E4E7DCE972
:10526C000420D4E90431934271EB000E1ADAD21AFD
:10527C00DCF8043060EB0100CCE90420C4E900C385
:10528C001C60CCF804403368B34206D09C4204D175
:10529C00FFF764FF0021FEF7A3F987F31188BFF332
:1052AC006F8FF8BD9B1A61EB0001AC45C4E904316A
:1052BC00C7D0DCF800C0C1E7E80600207C00002065
:1052CC002DE9F84F4FF02003EFF3118C83F3128884
:1052DC00BFF36F8FDFF8B0A0DFF8B0902C4FC9F898
:1052EC000000DAF800000024504508BF002000251B
:1052FC00D7E90021D9F80030E04680B3D0E9046C3E
:10530C004FEAE37EB3427EEB0C0B05DAF61A6CEB3C
:10531C000E04C0E9046422E0B21841EBE671C0E966
:10532C000445C7E90021FFF739FF88F31188BFF363
:10533C006F8F836898474FF02003EFF3118883F346
:10534C001288BFF36F8FD9F80030DAF800009B1B7E
:10535C005045C446C9F80030CAD1D7E900219A1883
:10536C0041EBE3730024C7E90023C9F80040FFF7C1
:10537C00F5FE2146FEF734F988F31188BFF36F8FE1
:10538C00BDE8F84FFFF796BC7C000020B408002065
:10539C00E806002010B54FF02003EFF3118483F3DF
:1053AC001288BFF36F8FFFF7CFFE064A0346D2E990
:1053BC000001181841EBE37184F31188BFF36F8F70
:1053CC0010BD00BFE8060020F8B504464FF02003DE
:1053DC00EFF3118783F31288BFF36F8F026822B14A
:1053EC0087F31188BFF36F8FF8BDD0E90A36581CCC
:1053FC0046F10001022871F1000127D3012B76F14F
:10540C000001BCBF012316465D1E46F1FF3601F0BC
:10541C00E6FA013041F10001401946EB0101012887
:10542C0071F100013ADB01F0DAFA013041F10001CF
:10543C006FF00102401946EB0103121A4FF0FF31D5
:10544C0061EB030318492046FFF7C4FE236B0133BD
:10545C002363236A73B187F31188BFF36F8F236AB9
:10546C00204698474FF02003EFF3118783F31288FF
:10547C00BFF36F8F54F8185FA542B1D0002DAFD099
:10548C00284601F011FA0023AB6787F31188BFF3AC
:10549C006F8F2846BDE8F84001F0F6B96FF00102B5
:1054AC004FF0FF33CEE700BFD55300002DE9F04796
:1054BC00B3F1FF3F08BFB2F1FF3FDDE908670546D6
:1054CC001C46914698461CD0531C74F1FF3309DBE3
:1054DC00012A74F10003BCBF0122002412F1FF3930
:1054EC0044F1FF38284601F060FAC5E90A67002349
:1054FC002B634A46434628460349BDE8F047FFF76D
:10550C0069BEBDE8F08700BFD5530000014800F02C
:10551C00F5BA00BF947700000CB430B589B00546DD
:10552C000C461C22002101A801F0B8FA02238DF8C8
:10553C0006300E4B0293059523462CB1B4F1004F67
:10554C0028BF4FF00043013B1D440DAA0C99069552
:10555C0001A8009200F00CF814B1059B00221A70FF
:10556C0009B0BDE8304002B0704700BFB96A000016
:10557C002DE9F04F8BB043680193837881469807EF
:10558C00144640F1098100250F78002F00F00681A8
:10559C00252F0BD04B1C02930135019B49463846F5
:1055AC0098470028C0F2F2800299EDE74F788B1CE7
:1055BC00252F0293F0D000239A469846B8F11F0F7E
:1055CC0037D8A7F12002102A0AD8DFE802F02909FF
:1055DC00092F0909092009090927092C09091E00A5
:1055EC00A7F13002092A32D92A2F36D118F0400FF0
:1055FC0054F8042B7ED1002AA7BF48F0200892460D
:10560C00C2F1000A48F0280801E048F00108029AAB
:10561C0012F8017B0292002FD0D130E048F0020842
:10562C0048F00408F3E748F00808F0E748F01008E1
:10563C00EDE7B8F17F0F19D8A7F13002092AD3D8BA
:10564C0018F0400F03D00A2101FB0323DFE70A21E6
:10565C0001FB0A2A48F02008D9E72E2F06D118F0B2
:10566C00400F40F09B8048F04008D0E76C2F2ED0C4
:10567C0028D8682F33D06A2F39D04C2F37D0002B35
:10568C0047F02002B8BF28F04008A2F16501BCBF6A
:10569C001FFA88F80023022901D9612A2CD107347A
:1056AC0024F00704A24E0834072718F0080F64D022
:1056BC0006EB070BB046D84561D1AE1BB044AAEB44
:1056CC00070A62E1742FA2D07A2FA0D0D7E718F086
:1056DC00800F18BF48F4007848F0800897E718F45A
:1056EC00807F18BF48F4007848F480788FE748F43E
:1056FC0020788CE713468AE7A7F16301122900F2A0
:10570C00E080DFE811F013004F00DE00DE00DE0069
:10571C00DE004F00DE00DE00DE00DE00DE00EE000C
:10572C00D900DE00DE001A00DE00A30054F8043BB2
:10573C008DF81C30012707AEB7E754F8046B7D4A8F
:10574C00002E08BF164618F0400F14BF19464FF034
:10575C00FF31304601F06EF90746A6E7019B49463A
:10576C0020209847002811DB08F1FF384745F5D376
:10577C005544A5EB0805C2469AE7D046F6E718F85B
:10578C00010B019B49469847002894DA99F802309E
:10579C0043F0040389F802304FF0FF3528460BB074
:1057AC00BDE8F08F18F0800F2ED018F4007F1BBFCF
:1057BC00073424F0070454F8040B54F8080B28F0B1
:1057CC0010060028B6B22ADA404246F480660393EB
:1057DC000DF11C080A22414601F038F97206039BB0
:1057EC00A0EB080853D526F00101434589B240F3DC
:1057FC009380002F00F08B8016F01002039240F083
:10580C008D809B460E4616E018F4807F54F8040BEE
:10581C00D5D018F4007F14BF40B200B2CFE7D6D178
:10582C0018F0400FD3D0002BD1D128F011081FFA5B
:10583C0088F69B46984640F2064116EA010203920E
:10584C001EBF00220BF1010B039228E028F0100878
:10585C001FFA88F80A2218F0800F45D018F4007F40
:10586C001BBF073424F0070454F8040B54F8080B3E
:10587C00002844D128F0160618F0400FB6B242D0DA
:10588C00002B40D128F017081FFA88F6984616F01E
:10589C001002039249D0002F45D108F1010B3107BA
:1058AC005CD4F20706D5DA4572DDAAEB0B0202EBEB
:1058BC000803D3465A464BE048F0100810227827CC
:1058CC00C9E7782A04D1C7F1780242F01002C2E786
:1058DC00019B4946252098470028FFF657AF023513
:1058EC005BE608220027B6E718F4807F54F8040B17
:1058FC00BED018F4007F14BFC0B280B2B8E728F055
:10590C0006081FFA88F603930DF11C0863E726F0CE
:10591C001106B6B29B468EE70E46B8E71A460E46FF
:10592C0002F1020BBBE74246FAE7C34683E700BF2E
:10593C00C3770000BC770000CDE904324946019BD7
:10594C00202098470028FFF621AF059A049B0132CE
:10595C009245F1DCA5EB0B018D189346039A1AB313
:10596C0003934946019B302098470028FFF60EAF61
:10597C00039B7FB901355E19711B414526DC4646F8
:10598C0007AF66BBA844AAEB0B0A4546C24437E0F6
:10599C0043468FE70393023549463846019B9847A7
:1059AC000028039BE7DAF1E640F206410E42E2D012
:1059BC0016F0020F14BF2B20202016F4806F0393D7
:1059CC0005F10105494618BF2D20E7E7019B494623
:1059DC0030209847002805F10105CDDAD6E6013EC6
:1059EC00019BB85D494698470028CADACEE6019B70
:1059FC00494620209847002805F10105FFF6C6AE60
:105A0C00AAEB0503002BF2DCCEE500BF7047F0B427
:105A1C0003460A461979DB8800681343DC02876861
:105A2C00066906D513F4402F03D0DA0748BF83F478
:105A3C004023346801258D4023F48012DB074CBFD2
:105A4C002C43AC4334603B68F0BC18472DE9F0475D
:105A5C0006460D46174698462BB398F8004093F827
:105A6C000190DB78A40004EB430498F802301C444A
:105A7C0044444FF0000ACA4509D3D8F8042008F171
:105A8C00080339463046AC46BDE8F047604714F889
:105A9C00013B48F823402046FAF784FC01300444CB
:105AAC000AF1010AE7E76FF01500BDE8F08770B561
:105ABC00002502462846144614F8013B0BB918463B
:105ACC0009E098B18D4207D1702B04D0A3F14002AC
