:10000000F01400208D140000275D00006114000032
:100010006114000061140000611400000000000081
:10002000000000000000000000000000D1100000EF
:10003000611400000000000079100000611400004D
:100040005511000055110000551100005511000018
:100050005511000055110000551100005511000008
:1000600055110000551100005511000055110000F8
:1000700055110000551100005511000055110000E8
:1000800055110000551100005511000055110000D8
:1000900055110000551100005511000055110000C8
:1000A00055110000551100005511000055110000B8
:1000B00055110000551100005511000055110000A8
:1000C0005511000055110000551100005511000098
:0C00D000551100005511000055110000F2
:0400DC00FFFFFFFF24
:1000E00081F0004102E000BF83F0004330B54FEAE9
:1000F00041044FEA430594EA050F08BF90EA020F56
:100100001FBF54EA000C55EA020C7FEA645C7FEAE8
:10011000655C00F0E2804FEA5454D4EB5555B8BF0B
:100120006D420CDD2C4480EA020281EA030382EA7C
:10013000000083EA010180EA020281EA0303362D0E
:1001400088BF30BD11F0004F4FEA01314FF4801CE1
:100150004CEA113102D0404261EB410113F0004FF3
:100160004FEA03334CEA133302D0524263EB4303AA
:1001700094EA050F00F0A780A4F10104D5F1200E48
:100180000DDB02FA0EFC22FA05F2801841F10001A3
:1001900003FA0EF2801843FA05F359410EE0A5F177
:1001A00020050EF1200E012A03FA0EFC28BF4CF0A8
:1001B000020C43FA05F3C01851EBE37101F000455E
:1001C00007D54FF0000EDCF1000C7EEB00006EEB6B
:1001D0000101B1F5801F1BD3B1F5001F0CD34908F5
:1001E0005FEA30004FEA3C0C04F101044FEA44524C
:1001F00012F5800F80F09A80BCF1004F08BF5FEAD3
:10020000500C50F1000041EB045141EA050130BDB2
:100210005FEA4C0C404141EB0101013C28BFB1F5C4
:10022000801FE9D291F0000F04BF01460020B1FA0F
:1002300081F308BF2033A3F10B03B3F120020CDAE2
:100240000C3208DD02F1140CC2F10C0201FA0CF0C0
:1002500021FA02F10CE002F11402D8BFC2F1200C25
:1002600001FA02F120FA0CFCDCBF41EA0C019040DB
:10027000E41AA2BF01EB0451294330BD6FEA040424
:100280001F3C1CDA0C340EDC04F11404C4F120020F
:1002900020FA04F001FA02F340EA030021FA04F321
:1002A00045EA030130BDC4F10C04C4F1200220FA78
:1002B00002F001FA04F340EA0300294630BD21FAB6
:1002C00004F0294630BD94F0000F83F4801306BF7C
:1002D00081F480110134013D4EE77FEA645C18BF70
:1002E0007FEA655C29D094EA050F08BF90EA020F07
:1002F00005D054EA000C04BF1946104630BD91EAFF
:10030000030F1EBF0021002030BD5FEA545C05D101
:100310004000494128BF41F0004130BD14F5800440
:100320003CBF01F5801130BD01F0004545F0FE41B4
:1003300041F470014FF0000030BD7FEA645C1ABFE9
:10034000194610467FEA655C1CBF0B46024650EA20
:10035000013406BF52EA033591EA030F41F400214C
:1003600030BD00BF90F0000F04BF0021704730B5D2
:100370004FF4806404F132044FF000054FF00001A7
:1003800050E700BF90F0000F04BF0021704730B568
:100390004FF4806404F1320410F0004548BF40423D
:1003A0004FF000013EE700BF42004FEAE2014FEA92
:1003B00031014FEA02701FBF12F07F4393F07F4F6D
:1003C00081F06051704732F07F4208BF704793F070
:1003D0007F4F04BF41F40021704730B54FF4607483
:1003E00001F0004521F000411CE700BF50EA010286
:1003F00008BF704730B54FF000050AE050EA01022F
:1004000008BF704730B511F0004502D5404261EB9E
:1004100041014FF4806404F132045FEA915C3FF4DF
:10042000D8AE4FF003025FEADC0C18BF03325FEA7C
:10043000DC0C18BF033202EBDC02C2F1200300FA2D
:1004400003FC20FA02F001FA03FE40EA0E0021FA52
:1004500002F11444BDE600BF70B54FF0FF0C4CF440
:10046000E06C1CEA11541DBF1CEA135594EA0C0FF2
:1004700095EA0C0F00F0DEF82C4481EA030621EA2D
:100480004C5123EA4C5350EA013518BF52EA033568
:1004900041F4801143F4801338D0A0FB02CE4FF01A
:1004A0000005E1FB02E506F00042E0FB03E54FF04A
:1004B0000006E1FB03569CF0000F18BF4EF0010E42
:1004C000A4F1FF04B6F5007F64F5407404D25FEA3E
:1004D0004E0E6D4146EB060642EAC62141EA5551F1
:1004E0004FEAC52040EA5E504FEACE2EB4F1FD0C33
:1004F00088BFBCF5E06F1ED8BEF1004F08BF5FEAB1
:10050000500E50F1000041EB045170BD06F0004662
:1005100046EA010140EA020081EA0301B4EB5C040F
:10052000C2BFD4EB0C0541EA045170BD41F4801107
:100530004FF0000E013C00F3AB8014F1360FDEBF2C
:10054000002001F0004170BDC4F10004203C35DA08
:100550000C341BDC04F11404C4F1200500FA05F38B
:1005600020FA04F001FA05F240EA020001F000422C
:1005700021F0004110EBD37021FA04F642EB0601A2
:100580005EEA430E08BF20EAD37070BDC4F10C04CC
:10059000C4F1200500FA04F320FA05F001FA04F290
:1005A00040EA020001F0004110EBD37041F100017C
:1005B0005EEA430E08BF20EAD37070BDC4F1200587
:1005C00000FA05F24EEA020E20FA04F301FA05F2EF
:1005D00043EA020321FA04F001F0004121FA04F297
:1005E00020EA020000EBD3705EEA430E08BF20EA67
:1005F000D37070BD94F0000F0FD101F000464000A1
:1006000041EB010111F4801F08BF013CF7D041EA22
:10061000060195F0000F18BF704703F00046520026
:1006200043EB030313F4801F08BF013DF7D043EAF7
:100630000603704794EA0C0F0CEA135518BF95EAAD
:100640000C0F0CD050EA410618BF52EA4306D1D134
:1006500081EA030101F000414FF0000070BD50EA53
:10066000410606BF1046194652EA430619D094EADD
:100670000C0F02D150EA013613D195EA0C0F05D1C7
:1006800052EA03361CBF104619460AD181EA03011B
:1006900001F0004141F0FE4141F470014FF00000D3
:1006A00070BD41F0FE4141F4780170BD70B54FF06E
:1006B000FF0C4CF4E06C1CEA11541DBF1CEA1355EE
:1006C00094EA0C0F95EA0C0F00F0A7F8A4EB0504D0
:1006D00081EA030E52EA03354FEA013100F08880C7
:1006E0004FEA03334FF0805545EA131343EA126390
:1006F0004FEA022245EA111545EA10654FEA002645
:100700000EF000419D4208BF964244F1FD0404F5FD
:10071000407402D25B084FEA3202B61A65EB030559
:100720005B084FEA32024FF480104FF4002CB6EB16
:10073000020E75EB030E22BFB61A754640EA0C0096
:100740005B084FEA3202B6EB020E75EB030E22BFD6
:10075000B61A754640EA5C005B084FEA3202B6EB17
:10076000020E75EB030E22BFB61A754640EA9C00D6
:100770005B084FEA3202B6EB020E75EB030E22BFA6
:10078000B61A754640EADC0055EA060E18D04FEA64
:10079000051545EA16754FEA06164FEAC30343EA04
:1007A00052734FEAC2025FEA1C1CC0D111F4801FD1
:1007B0000BD141EA00014FF000004FF0004CB6E7CA
:1007C00011F4801F04BF01430020B4F1FD0C88BF69
:1007D000BCF5E06F3FF6AFAEB5EB030C04BFB6EB74
:1007E000020C5FEA500C50F1000041EB045170BD67
:1007F0000EF0004E4EEA113114EB5C04C2BFD4EB94
:100800000C0541EA045170BD41F480114FF0000E17
:10081000013C90E645EA060E8DE60CEA135594EA93
:100820000C0F08BF95EA0C0F3FF43BAF94EA0C0F96
:100830000AD150EA01347FF434AF95EA0C0F7FF40B
:1008400025AF104619462CE795EA0C0F06D152EA5F
:1008500003353FF4FDAE1046194622E750EA410643
:1008600018BF52EA43067FF4C5AE50EA41047FF454
:100870000DAF52EA43057FF4EBAE12E753B94AB924
:10088000002908BF00281CBF4FF0FF314FF0FF3098
:1008900000F00CB8ADF1080C6DE904CE00F008F8DA
:1008A000DDF804E0DDE9022304B07047704700BFC3
:1008B0002DE9F04786468C460846089E1546744644
:1008C0001946002B40F0C2808542B2FA82F245D927
:1008D0004AB1C2F1200300FA02FC2EFA03F395405C
:1008E00043EA0C0C94404FEA154EA8B2BCFBFEF84C
:1008F000230C0EFB18CC08FB00F943EA0C43994586
:1009000028D9EB1808F1FF3704D2994502D9A8F18C
:1009100002072B44A3EB0903A4B2B3FBFEFC0EFBBE
:100920001C330CFB00F044EA0344A04214D92C19F8
:100930000CF1FF3304D2A04202D9ACF102032C44E3
:10094000241A43EA07401EB1D44000233460736088
:10095000BDE8F0874746DDE76346F1E792BB431BFE
:1009600001214FEA154EAFB2B3FBFEFC200C0EFB8B
:100970001C330CFB07F840EA0343984562D9EB1897
:100980000CF1FF3004D2984502D9ACF102002B449F
:10099000A3EB0803A4B2B3FBFEFC0EFB1C330CFB61
:1009A00007F744EA0344A7424ED92C190CF1FF3350
:1009B00004D2A74202D9ACF102032C44E41B43EA5F
:1009C0000040C0E7C2F1200320FA03F195409040B7
:1009D0002EFA03F303434FEA154EAFB2B1FBFEFC10
:1009E0000EFB1C10190C0CFB07F841EA004188456E
:1009F00004FA02F422D969180CF1FF3004D28845B8
:100A000002D9ACF102002944A1EB08019BB2B1FB71
:100A1000FEFC0EFB1C110CFB07F743EA01439F424F
:100A20000ED9EB180CF1FF3104D29F4202D9ACF180
:100A300002012B44DB1B41EA004192E76046E3E7F9
:100A40006146F7E76046A3E76346B7E7834206D906
:100A500016B9002108467BE7C6E900E0F9E7B3FADA
:100A600083F78FB9834201D3724508D8BEEB0204E5
:100A700060EB030301209C461EB9002168E738465D
:100A8000FAE7C6E9004CF8E7C7F1200CBB4022FAB0
:100A90000CF41C432EFA0CF120FA0CF3B84001437D
:100AA0004FEA14490EFA07F5B3FBF9F81FFA84FE72
:100AB00009FB18300B0C08FB0EFA43EA00439A4579
:100AC00002FA07F240D9E31808F1FF3004D29A4540
:100AD00002D9A8F102002344A3EB0A0389B2B3FBB5
:100AE000F9F809FB183308FB0EFE41EA03418E4575
:100AF0002CD9611808F1FF3304D28E4502D9A8F130
:100B00000203214443EA0040A0FB0298A1EB0E013E
:100B10004145CE46434602D306D14D4504D2B9EBFA
:100B2000020E68EB04030138002EA6D0B5EB0E02CE
:100B300061EB030101FA0CFC22FA07F34CEA030310
:100B4000F940C6E9003198E74046C5E74346D9E792
:100B50002DE9F0478AB0DFF848A1504605F08FFB39
:100B600048B9DAF800104F4804F083FF4FF0FF3027
:100B70000AB0BDE8F08748F60343ADF8043001AB96
:100B80000493022305938DF81830DAF80830012217
:100B90009C6804A94A235046A047002873D1DFF877
:100BA00008914FF00008002103ABADF80810049342
:100BB0008DF81810012302A9CDE90713022205932D
:100BC0000723ADF80C208DF82430DAF8083004A99A
:100BD0009C6850464A23A04728B19DF80C20334812
:100BE0004A2104F046FF0DF10D03002204938DF815
:100BF000182001230DF10902CDE9072305930723EE
:100C00008DF82430DAF8083002229C6804A94A23BF
:100C10005046A04728B19DF80D2024484A2104F0F1
:100C200028FF9DF808309DF8092003F0F00303EB3E
:100C30000223B3F5004F4FEA2310A8BFA0F5805060
:100C4000FFF7A0FB42464B46FFF706FC12A3D3E991
:100C5000002306460F46FFF7FFFB154B0022FFF768
:100C600045FA32460D4604463B46124804F001FF61
:100C7000114822462B4604F0FCFE00214FF40040B0
:100C800003F0FEFB8FE79DF804200C484A2104F096
:100C9000F0FE6BE7AFF30080CDCCCCCCCCCCFC3FEE
:100CA000D4680000006F00000000B03F516F0000EA
:100CB000000040408A6F0000AC6F00001B6F000016
:100CC000014B1B68184700BF00000020014B186053
:100CD000704700BF0000002030B585B004460D46C7
:100CE00010220021684605F0DEFC02238DF8023058
:100CF0002A46044B01932146684603F03DFE05B0A9
:100D000030BD00BFC10C000080B505460E46174639
:100D1000984603F0CFFB034605F08CFDDFF81890F2
:100D2000044649F80030424630463946A84754F850
:100D3000090000F02BFC00BF080000002DE9F0477F
:100D4000058B04462807904611D4022905F00705B3
:100D500040F0CD80204604F002FF78B10138218BAD
:100D6000042811D8DFE800F0C3106D859500012933
:100D70000CBF45F0100545F02005258388F3118848
:100D8000BFF36F8FBDE8F08701F0070AAA4500F0B6
:100D9000A6800027B9463E46A368002B00F0BD8020
:100DA00041F00801218388F31188BFF36F8FA16898
:100DB000002900F0BB800D68002900F0B780D1F851
:100DC0000480334652462046C047002D76D02B681B
:100DD00029461D46F0E701F007035A1F012A1BD8D8
:100DE000002221F00701062B276889B2C4E90022FE
:100DF00009D13B4603E0628B013262831B68002B02
:100E0000F9D141F002012183204604F0A8FE002818
:100E10007BD041F0200177E0042B0AD121F00701BB
:100E200089B22183204604F09AFE10B141F02001DE
:100E30002183218B01F0070AAA4550D00027B9462B
:100E4000AAE7236921F0070141F00601062DD3F836
:100E5000009021832DD1B9F1000F40D041F008015D
:100E6000218388F31188BFF36F8F3A492046C84722
:100E700029E021F00701236941F0040189B2042D22
:100E8000D3F804902183E6D000273E464FF0040AB1
:100E900082E721F00701236941F0050189B2052DA0
:100EA000D3F808902183D6D000273E464FF0050A9C
:100EB00072E700273E464FF0060A6DE72B4687E7AC
:100EC000B9F1000FD1D14FF02003EFF3118883F374
:100ED0001288BFF36F8F238B23F008032383258BA6
:100EE000EA062ED525F01003238305F00705666971
:100EF000218B002EBFF66FAF00232768C4E90033B3
:100F000021F0070141F001012183218B01F0070A43
:100F1000AA454FF000097FF43FAF002F9BD041F06E
:100F20000801218388F31188BFF36F8F002FC7D08A
:100F30003D68394633465246204604F03CFE2F4673
:100F4000F4E7AB067FF51AAF25F02003238305F005
:100F50000705FFE6E35B000001F04CBC01491022ED
:100F60000A60704710ED00E072B6404080F31188CF
:100F7000BFF36F8FBFF34F8F30BF62B6BFF36F8F7A
:100F8000704700BF72B6494081F31188BFF34F8F9D
:100F900020BF80F3118862B6704700BF40B20028BE
:100FA00007DB044A4109012300F01F00834042F897
:100FB0002130704700E100E0054B420900F01F00BE
:100FC00053F82220012303FA00F01040704700BFBD
:100FD00000E100E040B20028A8BF00F1604001F14C
:100FE0000101B8BF064B4FEA4111ACBF00F56140AB
:100FF00000F00F00C9B2B4BF195480F80013704755
:1010000014ED00E030BFFFF7FDBF00BF0B4A08B58D
:101010000B4B22F07F029A60BFF34F8FBFF36F8FAD
:10102000D3F8882022F47002C3F8882002F00AFE68
:1010300003F0A6FA00F01EFA02F052FE00000000D3
:1010400000ED00E0094A0A4993680968996709496F
:1010500058674B6843F080534B60002383F311883B
:10106000BFF36F8F9368986F704700BF58030020DD
:101070003C6E000000ED00E012498A684FF030003D
:101080001044EFF3098C80E8F01F202080F31288D1
:10109000BFF36F8F0C4F4FF000664A698A603E6065
:1010A0004FF0700414192068084C2060506F002322
:1010B000536780F3118802F1300090E8F01F8CF341
:1010C000098870475803002004ED00E0F00100207B
:1010D0001EF0040F0CBFEFF30880EFF30980816965
:1010E00011F8021C0229FFD001B504F014FE01BD65
:1010F00042F8203C009B42F81C3C0A49019B42F804
:10110000183C029B42F8143C21F001014FF080731F
:1011100042F8043C42F8081C0023203A0265436769
:10112000704700BF090D0000084B9860084B006F26
:101130001860104681F30988002163B681F3118895
:10114000BFF36F8F00220023FFF7DEFD580300205E
:10115000F001002001B5EFF30580A0F110004FEA87
:10116000C0000449014409C99847BDE8014002494B
:1011700008470000E8680000D9110000114B124A2E
:101180002DE9F041D518DFF84480013DB5FBF3F5BA
:101190005D430F4B08EB0304013CB4FBF3F403FB8A
:1011A00004540E1B07460B49304605F06EFA7019C1
:1011B00042460021083E05F076FA3E6704F1080039
:1011C000BDE8F08101000000000000000400000004
:1011D00004000000786A0000044B9968586988424E
:1011E00003D003494FF080520A6070475803002033
:1011F00004ED00E0134B9A6A12F0007F9A6A14BF64
:101200001E201D2012F0807F9A6A18BF1F2012F442
:10121000002F9A6A18BF212012F4802F9A6A18BFF3
:10122000222012F4003F9A6A18BF232012F4803F54
:101230009A6A6FEA02426FEA12429A6218BF242049
:10124000704700BF00ED00E010B5194B0246986AE8
:101250009C6A10F4805F14BF1720162014F4006FEE
:101260009C6A18BF1820A40509D5986B986A0004D9
:1012700004D51AB19A6A22F400429A6219200C4BE2
:101280009A6A12F4806F9A6A18BF1A20D2050CD499
:101290009B6A13F4005F18BF1C20054A936A43F44D
:1012A0007F43936200230B7010BD1B20F5E700BF46
:1012B00000ED00E010B51C4B0246986A9C6A10F0E5
:1012C000100F14BF1120102014F0080F9C6A18BFD3
:1012D0001220A40709D5586B986A000604D51AB1E4
:1012E0009A6A22F080029A6213200F4B9A6A12F0D7
:1012F000010F9A6A18BF142012F0200F9A6A18BFC3
:101300001520D40658BF9B6A074B9A6A920642BFC3
:101310005A6A22F400525A629A6A42F0FF029A62B2
:1013200000230B7010BD00BF00ED00E0F0B5474B8F
:101330005B688BB00446C3F30803002585F311886E
:10134000BFF36F8F02F07F40B0F17F4F11D102F0F9
:101350000C0008280DD010074CBF0C4601250022B8
:10136000033B8DF80720032B05D8DFE803F0246248
:10137000665F2C46F3E700239DF80720CAB902AE4A
:1013800004F1200720686168324603C20834BC4279
:101390001646F7D1099A002D53D0C2F3080121B99E
:1013A0006FEA52226FEA4222099202A9184604F01B
:1013B000B0FC0BB0F0BD254BDA6A9107DBD4DA6ADA
:1013C000002AD8DBDA6A5200D5D55A69A16942F4FD
:1013D00080725A61BFF34F8FBFF36F8F5A6931F834
:1013E000021C22F480725A61BFF34F8FBFF36F8FDC
:1013F0004DF60272914209D09A6AD2B242B10DF111
:1014000007010120FFF756FF0346B5E72368B3E75E
:101410009A6A12F47F4F05D00DF107010120FFF702
:1014200013FFF1E79B6AB3F5803FA4D3FFF7E2FE19
:10143000EAE70DF107010020E4E70DF107010020C4
:10144000EDE722F4FF7222F00102ADE700ED00E0CB
:10145000024A536943F010035361704700ED00E006
:10146000EFF30880EFF3098101B57246FFF75EFFE5
:1014700001BD00BF044800232021C2180133272BDF
:1014800082F80013F9D1704700E100E0002080F3FA
:101490001488BFF36F8FFFF75FFD00200D490860D0
:1014A000BFF34F8F0C4880F3088800F03DF82020F0
:1014B00080F3118809484FF40061401880F30988CF
:1014C000EFF314800221084380F31488BFF36F8F79
:1014D000FFF79CFD94ED00E0F0140020B007002021
:1014E000BFF34F8F0549064BCA6802F4E06213430D
:1014F000CB60BFF34F8F00BFFDE700BF00ED00E002
:101500000400FA050749D1F890200023C2F307220E
:101510001846934200DB7047C1F89830C1F8A0002C
:101520000133F6E700ED00E008B572B6002383F35F
:101530001388FFF7E7FF144B4FF0FF32C3F880200A
:10154000C3F88420C3F88820C3F88C20C3F8902007
:10155000C3F89420C3F89820C3F89C20C3F88021D6
:10156000C3F88421C3F88821C3F88C21C3F89021E3
:10157000C3F89421C3F89821C3F89C2162B6BFF345
:101580004F8FBFF36F8F08BD00E100E0084B9B68F1
:1015900083420BD1EFF3058343B1064B5A6842F007
:1015A00080525A605A6A22F400425A6202F088BF9E
:1015B0005803002000ED00E0024B034A03480121DC
:1015C00000F060B80000012000000020186D00004D
:1015D000F0B5204E00258D4239DA446874B353B11A
:1015E00004F1FF3C14EA0C0F2FD11F2C2DD90768F2
:1015F0001CEA070F29D1202C0768D0F808C05FFA31
:1016000082FE1ED9B4F1004F1DD8013CB4FA84F417
:10161000C4F11F046400BEF1070F4CEA040C14D897
:1016200027F01F04144344F01004C6F89820C6F8AD
:101630009C404CF00104C6F8A040013201350C304A
:10164000C9E70824E7E73E24E5E76FF015021046F6
:10165000F0BD00BF00ED00E0044B0522C3F894206C
:10166000BFF34F8FBFF36F8F704700BF00ED00E0F7
:10167000BFF35F8F024B0022C3F89420704700BF76
:1016800000ED00E010B5034C01232278FFF7A0FF26
:10169000207010BD8803002014490868082810B580
:1016A00021D8FFF7E5FF124C49680022904201F172
:1016B0000C0105D10F4B1870FFF7CEFF002010BDB5
:1016C000C4F8982051F80C3C23F01F03134343F057
:1016D0001003C4F89C3051F8043C43F00103C4F8F3
:1016E000A0300132E2E74FF0FF30E8E7246D000060
:1016F00000ED00E08803002008B5024B1B68984706
:10170000002008BDF4010020034B044A18609378C0
:1017100043F0020393707047F4010020040000209E
:1017200008B50649064821F00701C1F1005202F54B
:10173000803204F0D7F9002008BD00BF0315002057
:10174000F0140020044A0123C2F840354FF08042D3
:101750000020C2F87835704700E0014020B1034B0B
:10176000800143F001031847704700BF806A000002
:10177000084B70B5C31A0D4607499B1004465943E0
:101780000648402204F0F7FA2B4601462046BDE801
:10179000704018470C020020B76DDBB69868000057
:1017A00073B50C4C0C4A4023041B00930D460B46AA
:1017B0000A49A41061430646094804F009FB011ECA
:1017C00005DA30462B4602B0BDE87040184702B03B
:1017D00070BD00BF0C0200203D5E0000B76DDBB69F
:1017E0009868000010B54FF02003EFF3118483F3E5
:1017F0001288BFF36F8F074A136823F00201DB07DB
:10180000116002D4012004F0F2FB84F31188BFF3CD
:101810006F8F10BD5C020020002270B501210446CC
:101820001046FFF7D7FB0F4801F0C6F90E4B984260
:1018300015D104F0CFFB26690C49304604F0DFF9DE
:1018400000280BDB012535642469084904F11C00DC
:1018500004F0D5F9002801DBE564002070BD6FF0CD
:101860000400FBE7A51800000000AD0B446D00006C
:1018700070B501460C2309484B43C418D4E90E56F1
:10188000403300221844A26304F062FA2DB13246BC
:101890002B460348BDE87040184770BD0C0200207D
:1018A0009868000010B1012804D07047034B1B6CEE
:1018B0005B0701D1FFF7DCBF704700BF0C020020BF
:1018C00008B54FF02003EFF3118183F31288BFF3C3
:1018D0006F8F124A136843F002001060DA0708D4D1
:1018E00081F31188BFF36F8F0120BDE8084001F03C
:1018F00073B94FF08043D3F80C24D3F80C34DB07D2
:10190000EED5074804F024FA81F31188BFF36F8FF6
:101910000020BDE80840FFF7ABBF00BF5C0200201D
:101920004C0200201FB500220123CDE90223094A01
:10193000CDF800D06B46CDF804D004F078FA00283A
:1019400005DB4FF480420023684602F0F5FA05B04B
:101950005DF804FB555E000010B5074C23782BB9E9
:101960004FF4A57004F086FC01232370BDE81040FD
:10197000002001F031B900BF890300202DE9F041BA
:101980003849BFF35B8F0746012251E8003F41E829
:1019900000200028F9D1BFF35B8F33B932493348B7
:1019A0004B60CB608A6004F03DF97B1E012B2BD885
:1019B000012F07D14FF08043D3F81C3403F0030309
:1019C000012B21D004F06AFC0546F8B9284B1B789E
:1019D000E3B14FF080430222C3F808230646DFF844
:1019E00094804FF08044D4F81824D4F81834D203EB
:1019F00016D503F00303012B01D0012F10D15DB3E5
:101A000086F31188BFF36F8FBDE8F0814FF020039C
:101A1000EFF3118683F31288BFF36F8F0125DEE7A2
:101A2000ADB13046FFF7AEFAD4F81835002BDAD155
:101A3000D4F80421002AD6D0C4F80431D4F80431F3
:101A40000123C4F81835C8F88031A360CBE7002122
:101A5000212002F015FDE7E74FF080430222C3F892
:101A60000423D1E708020020F8010020280200200A
:101A7000AB07002000E100E010B5044C2046FFF762
:101A800025F92046FFF740FE002010BD911A000006
:101A9000F7B5144E8DF8070004460325EFF31187C0
:101AA0004FF0200181F3118801220DF10701002080
:101AB00002F042F887F3118820B1012333702046E9
:101AC00003B0F0BD3378002BF9D0013D08D004F00D
:101AD000E5FB0028E2D10021422002F0D1FCDDE745
:101AE0003570ECE78A03002008B5074804F0C7FB0F
:101AF00038B10648FFF708FE0448FFF7E7F8002072
:101B000008BD6FF01200FBE7C0680000111B000069
:101B10000A2838B5074D044604D1AB680D215B682F
:101B200028469847AB6803485B68E1B2984720466F
:101B300038BD00BFC068000030B54068057B01F0CB
:101B40001F04B2F5001F85B044EA451405D12046B4
:101B500001F02AFB002005B030BD0025B2F5800F52
:101B6000CDE9025514D1B3F1007F0CBF0423052346
:101B70008DF808300023194602AA204601F048F9E2
:101B8000214B984239D10121204601F0C1FAE1E709
:101B9000B3F1C06F26D0B3F1007F14BF012302233D
:101BA0008DF80830836823FA01F111F00101E1D1C9
:101BB000B2F1A07FDED104F01F03620903F5E073E8
:101BC0001ED14FF0A04252F82330DB07D2D40DF1E2
:101BD00007052946204601F047FA0C4B984203D0EE
:101BE0000395C7E70323DBE7284601F08BFA064B92
:101BF0009842F5D06FF00B00ADE76FF01500AAE743
:101C000051F82330FFDE00BF0000AD0B0400AD0B28
:101C100010B501F067FA044668B901F03BFA084BC9
:101C200098420AD10748214601F018FA22460521B8
:101C30000620FFF7CFF9002010BD6FF00400FBE78E
:101C40000000AD0B491C0000430970B507D10B4BD8
:101C5000596821B101250C68094E854001B970BD54
:101C60008A682A4002D04B68304698471CB12368E6
:101C700021461C46F2E72346FAE700BF6002002037
:101C8000AC6800002DE9FF4147683B7B01F01F0570
:101C900045EA43150E4628460DF10701144601F0AA
:101CA000E3F914F4403F80460DD1284601F0A2FA32
:101CB0003D4B984503D19DF8070001F01DFA002027
:101CC00004B0BDE8F0810023194602AA2846CDE9F8
:101CD000023301F09DF8344B984214D1804503D172
:101CE0009DF8070001F008FAA3034ED540F2063331
:101CF0002340B3F5837F1AD00DD8062B18D005D812
:101D0000B3B1022B33D06FF01500D9E7B3F5807F64
:101D1000F9D101230CE040F20222934229D0B3F51D
:101D2000407F28D0B3F5007FEDD1022300E00723E8
:101D30008DF8083084F48033C3F30043E0068DF857
:101D4000093054BFC4F34013032321038DF80A3034
:101D500013D57A680123B340C2F80835002202A9DE
:101D6000284601F005F9104B9842A8D0CBE7042390
:101D7000DEE70523DCE70323DAE7620341BF012343
:101D80007A68B340C2F80C35E8E7E3064FF0000389
:101D900054BFC4F3401403241A4602A928468DF800
:101DA000084001F035F8DEE70000AD0B38B54468B7
:101DB0000569E3699847206A04F0C0F800280DDB44
:101DC0002B46084A04F10801204601F01BFB064B94
:101DD000984204D1204601F075FB002038BD6FF019
:101DE0000400FBE7291E00000000AD0B70B544683D
:101DF0002368D3F80855D3F80C65204601F072FB30
:101E00003146284601F0F6FD0546206A04F096F8B2
:101E1000204601F057FB034B9D4214BF6FF00F00AB
:101E2000002070BD0000AD0B0378012B08D0022B01
:101E300008D04BB9054B0B6201F1100002F058B805
:101E4000034BF8E7034BF6E7034BF4E70000AD0B59
:101E50000100AE0B0200AE0B0100AD0B2DE9F04FFF
:101E60001D468BB0436806690093914614221B8B74
:101E7000D6F824A0029380460C460DEB0200002108
:101E800004F011FC8DF815504FF0FF324FF0FF3386
:101E9000304602F051F806F11003019300220023AE
:101EA00006F1100002F048F80027DFF818B13D46AF
:101EB0004F4501D300245AE0207A02077BD4013732
:101EC0004F4521680AD2830708D4237D80EA0302A4
:101ED00002F0010203F004031A4307D025B901F010
:101EE0006043B3F1005F17D0002300E00123626874
:101EF000DDF808E005EB020CF4455FD8C00705D417
:101F00000AEB0500039304F0C0FB039B62682A44BC
:101F100095B2002B39D1D5B92368089363680025A1
:101F2000227A069302F0010382F00202C2F3400219
:101F300000988DF81430520105A901F0F1FA5845C6
:101F400009D0214B984210D16FF00F040FE0CDF86B
:101F500020A02B46E4E74FF480420198002301F0D3
:101F6000EBFF58B14046FFF741FF6FF004043046E5
:101F700001F0BEFF20460BB0BDE8F08F336A5B4531
:101F8000F3D1237ADB0702D400250C3490E7089BB9
:101F90009A45F9D1234608E0A91AD86803938DB26F
:101FA0001AFA81F104F071FB039B5A689542A3F180
:101FB0000C03F1D2E8E76FF08504D8E76FF01B045B
:101FC000D5E700BF0000AD0B0B00AD0BF0B5524DD7
:101FD00000EB8101814201D10020F0BD046804F0D2
:101FE0007F03C4F343267F2B4FEA144408BF4FF00E
:101FF000FF33192C7ED8DFE804F00D13191C1F25C0
:102000001C7D7D7D7D345D7D7D7D7D7D7D7D7D7DCA
:102010006074777AC2F80C355F1C57D10430D9E769
:10202000C2F814355C1CF9D0002458E0C2F8083519
:10203000F2E7C2F81035F5E75F1CC2F80835EDD0BD
:10204000002404E05C1CC2F80C35E7D001245F09D1
:1020500053D101274FF0A04C07FA03FECCF80CE552
:1020600008E0C2F80835002EDCD15C1CD6D0002474
:1020700027460626D0F800E00EF4005CBCF1000F05
:102080001CBF0124002703F01F0C5B093DD14FEA60
:102090008C0C0CF1A04CCEF3C11EDCF800372B40A9
:1020A00043EA8E0343EA06233B4343EA4403CCF866
:1020B0000037B3E7C2F80C35D5E7C2F860355F1CCE
:1020C0000468ABD0C4F38034002CBFD05C0918D1B5
:1020D00001244FF0A04704FA03FCC7F808C52746BF
:1020E000C8E7C2F86435EAE7C2F86835E7E7C2F83E
:1020F0006C35E4E76FF085006FE70023C3F80C351B
:10210000FFDE0023C3F80835FAE70CF5E07C002376
:1021100053F82C30F4E700BFF0F8FCFF074BD3F87E
:10212000082142B10020C3F80801D3F80821D3F8F0
:1021300018350B7070474FF0FF307047002000409B
:10214000024BD3F88004C3F880047047002000409D
:1021500010B54B79012B1CD18B79032B19D1CB797D
:10216000BBB90A7912B1022A13D10E220B68B3F55A
:10217000164F5ED02BD8B3F5165F5CD014D8B3F5EC
:10218000966F5AD008D8B3F5967F59D0B3F5167F1D
:1021900059D06FF085004BE0B3F5166F56D0B3F50C
:1021A000965FF6D1334B39E0B3F5E14F51D007D804
:1021B000B3F5615F4FD0B3F5964FEAD12E4B2DE0CA
:1021C00047F61224A342E4D14FF4000326E0B3F50E
:1021D000613F43D011D8B3F5963F41D008D84DF6B2
:1021E000C024A3423ED0B3F5614FD2D1234B15E0BA
:1021F000B3F5E13FCDD1224B10E0B3F5612F34D0E0
:1022000007D8204CA34232D0B3F5E12FC1D11E4BE9
:1022100004E01E4CA342BCD14FF0805304691C481B
:10222000C0F82435C0F86C2503C984E803000020F9
:1022300010BD184BF2E7184BF0E74FF49E23EDE783
:102240004FF4A033EAE74FF41C33E7E74FF41D23C4
:10225000E4E7124BE2E74FF46C13DFE7104BDDE7E6
:10226000104BDBE74FF46503D8E70F4BD6E74FF091
:102270008063D3E700B0130000A04E0000F0EB0035
:1022800000E0D70190D0030000705F0740420F00CC
:102290000020004000509D000050270000F0750015
:1022A00000B0AF0300903A0100D0BE0EF8B50E4664
:1022B00003F0F4FF1A4D78BB64240127BFF35B8F52
:1022C00055E8003F002B03D145E80072002AF7D102
:1022D000BFF35B8F07D021200021013C02F0D0F832
:1022E00014F0FF04EAD10F4C0023C4F81C31D4F8D9
:1022F0001C310123A360C4F81C654FF47A76D4F82E
:102300001C3123B9012003F063FE013EF7D1012304
:10231000E36000232B60F8BD01232B60E3E700BFDF
:102320006C02002000200040F7B5134C4368076999
:102330000021C4F800151E68054601AA304603F0C6
:102340000DFE002815DB019B326819791868FFF72C
:102350003DFE00280DDB39462846FFF7F9FE40B95F
:102360000423C4F80035C4F80801D4F80831012367
:10237000236003B0F0BD00BF0020004070B5012312
:1023800083400E4ABFF35B8FDC4352E8001F01EA33
:10239000040542E80056002EF7D1BFF35B8F4FF4DF
:1023A000803282400648C0F80823BFF35F8FBFF336
:1023B0006F8F0B4214BF0120002070BD74020020FB
:1023C0000010014070B40E49D1E90034D01AC3188E
:1023D00044F1000422F07F46C1E90034A6F5001361
:1023E000B3F5400F09D2074B1B681A0A1B069C194C
:1023F000054B42F10005C3E9004570BC02F096B9F7
:10240000C000002078020020C800002011B3BFF3F4
:102410005B8F0123104A834052E800CF4CEA030C43
:1024200042E800C10029F7D1BFF35B8F0B4A4FF49C
:1024300080338340C2F80433094BBFF35B8F1B68C2
:10244000BFF35B8FC340DB0742BF064B4FF4003244
:10245000C3F80021704700BF740200200010014043
:102460007002002000E100E00D4B1868010A000630
:10247000BFF35F8F0B4BD3F80435181841F10001FF
:10248000B3F5801F0AD2084BD3E90023904271EBC9
:10249000030303D210F1807041F10001704700BFC7
:1024A0007802002000100140C80000202DE9F04F04
:1024B00085B016461F469DF840A00446FFF75EFF14
:1024C0000190FFF7D1FFB04271EB070354D23E4BAE
:1024D000301A67EB0101984271F100014FD23B4B7A
:1024E00003EB0413D3E902239F4208BF96425ED058
:1024F00037494FF4803804F1500508FA04F8AD006C
:10250000C1F848832046ADB203F043FD26F07F4B6F
:1025100005F1804504F5A87305F58835DC464FF0D4
:1025200003090293029A2CF07F4341F82230C1F84C
:102530004483D1F80435274A6FF00200C01A604482
:1025400020F07F40904232D9286868B1D1F8043534
:102550000393A3EB0B0020F07F40B0F5000F26D9CA
:10256000204603F016FD039BBAF1000F07D109EBDB
:10257000030C09F10109D5E7BAF1000F09D06FF09A
:10258000150520460199FFF741FF284605B0BDE833
:10259000F08F0123104ABFF35B8FA34052E8000F76
:1025A000184342E800010029F8D1BFF35B8F0749C7
:1025B0000E98230101EB0412C8500F9B5360C2E92F
:1025C00002670025DDE700BF01008000B0000020A9
:1025D00000100140FDFF7F00700200207FB51C4C01
:1025E0001C4BC4F80833C4F848331B4B00254FF08C
:1025F000FF304FF0FF31C4F80855C3E902014FF432
:102600008033C4F80433154B02264FF40032012105
:10261000C4F804631120C3F880212A46FEF7DAFCCF
:102620001120FEF7BBFC0E4A0123A3602360136058
:102630000C4B0D4A0093CDE9015500232846FFF7C6
:1026400035FF3046FFF79AF9284604B070BD00BF49
:102650000010014003000F00B000002000E100E086
:1026600074020020C5230000FFFF7F002DE9F7431F
:102670002F4CD4F8043399070BD5D4F8043143B167
:102680002C4A0023C4F80431D4F804311368013310
:102690001360D4F80433DA032AD5BFF35B8F264BDB
:1026A00053E8002F22F0010143E800100028F7D181
:1026B000BFF35B8FD30702D4D4F84031C3B10025F8
:1026C000C4F84051D4F84031FFF7CEFE4FF020035C
:1026D000EFF3118283F31288BFF36F8F174BD3E9A7
:1026E0000267B042B94106D282F31188BFF36F8FFF
:1026F00003B0BDE8F0834FF0FF384FF0FF39C3E976
:102700000289D3E900101D604FF48033C4F84833C8
:10271000C4F84051D4F8403182F31188BFF36F8F71
:102720000029E5D0009032463B4628468847DFE73F
:10273000001001407802002070020020B00000204C
:102740001FB5431C23D0012823DD134A134B9042AD
:10275000D4BF04461C46FFF787FE114B0F49D3E94F
:102760000023801AB0F5000F28BF002404448C42D7
:1027700028BF0C46A2180B4900914FF00000CDE98C
:10278000010043F10003FFF791FE04B010BD034CBC
:10279000E1E70124DFE700BFFEFF7F00FFFF7F00CE
:1027A000C0000020C523000008B5FFF75DFE024B06
:1027B0001B68C01A08BD00BFC00000204FF0704366
:1027C00093F8E02F062A09D1D3F8E83FC3F30313A7
:1027D000033B042B02D8024AD05C704700207047AC
:1027E0006C700000024AD2F80034002BFBD0704716
:1027F00000E0014010B503F0DCFB40B14FF0805326
:102800008E4AD3F82433C3F30423C2F84035FFF7CC
:10281000D5FF10B18A4B8B4A5A6703F0CAFB48B107
:102820004FF080534FF08042D3F84432C3F3423329
:10283000C2F83C35FFF7C2FF30B1834AD2F8FC3012
:1028400023F08073C2F8FC3003F0B3FB40B14FF0CB
:1028500080430022C3F80C21C3F81021C3F83825A7
:10286000FFF7ACFF20B14FF080430322C3F8A0254F
:10287000FFF7A4FF60B1754B0522C3F810260122B3
:10288000C3F888260022C3F818263F22C3F814266E
:102890004FF08053D3F83021511C09BF4FF07043E3
:1028A000D3F8343193F8E02FD3F8E83F08BFC3F3EF
:1028B0000313062A4DD1033B042B03D8644AD35C8F
:1028C000002B46D04FF08052624BD2F80414C3F86C
:1028D0002015D2F80814C3F82415D2F80C14C3F844
:1028E0002815D2F81014C3F82C15D2F81414C3F814
:1028F0003015D2F81814C3F83415D2F81C14C3F8E4
:102900004015D2F82014C3F84415D2F82414C3F8A3
:102910004815D2F82814C3F84C15D2F82C14C3F873
:102920005015D2F83014C3F85415D2F83414C3F843
:102930006015D2F83814C3F86415D2F83C14C3F803
:102940006815D2F84014C3F86C15D2F84424C3F8C3
:10295000702503F02EFB48B14FF080534FF08042BA
:10296000D3F8583203F04F03C2F8E43E03F021FBE2
:1029700048B14FF08043D3F80024D20744BF6FF032
:102980000102C3F800244FF08053D3F83021062A07
:1029900026D1D3F83431033B042B02D82E4AD35C22
:1029A00063B12E4AD2F83C3743F48063C2F83C3717
:1029B0004FF08053D3F83031062B11D14FF08053B4
:1029C000D3F83431033B042B02D8254AD35C3BB106
:1029D0004FF01023D3F808224FF08043C3F8582556
:1029E0004FF01023D3F80022002A03DBD3F804327F
:1029F000002B22DA1B4901234FF01020C1F80435C7
:102A00001524FFF7EFFEC0F80042FFF7EBFEC0F819
:102A10000442FFF7E7FE0023C1F80435FFF7E2FEAA
:102A2000BFF34F8F0849104BCA6802F4E0621343AA
:102A3000CB60BFF34F8F00BFFDE710BD00300140FA
:102A400000C007400DF0ADBA00ED00E000500040BE
:102A50006770000000C0004062700000001000407D
:102A60005D70000000E001400400FA0530B5046824
:102A7000CCB1BFF35B8FB4FA84F3C3F11F03DBB2B5
:102A800001229A4024EA020250E8005FA54204D1E4
:102A900040E8002CBCF1000FF6D1BFF35B8FE6D10C
:102AA00002480B7030BD0248FCE700BF0000AD0BD0
:102AB0000200AD0B10B50368CB40DB0714D4012333
:102AC0008B400268BFF35B8F43EA020150E8004F7E
:102AD000944204D140E8001CBCF1000FF6D1BFF3D2
:102AE0005B8FEED1014810BD0148FCE70000AD0B43
:102AF0000400AD0BF7B5044618B1012823D003B08C
:102B0000F0BD4FF080430222C3F80823C3F804014C
:102B1000D3F804210122DA60064601238DF807303C
:102B200042F210754FF08047D4B1012CE7D1D7F8AD
:102B30000C3403F48033AEBB83B3012003F048FAB6
:102B4000013DF4D12AE04FF080430022C3F808038E
:102B5000C3F80021D3F8002158600DF10706DCE727
:102B6000D7F8183403F480333EB9002BC7D00120C6
:102B700003F02EFA013DF3D1C1E7D7F8182402F093
:102B800003023260002BBAD09DF80700012803D160
:102B900003F01EFA013DC7D1012CB0D1054B002234
:102BA0005A71ACE7D7F80C2402F001023270002B06
:102BB000EAD1F3E77C020020044B1A7922B9012202
:102BC00018609A8002487047024870477C020020D3
:102BD0000000AD0B0C00AD0B38B510B1012843D08F
:102BE00038BD4FF08042D2F81814D2F81834C80318
:102BF0002ED503F00303012B04D013B10020FFF7FF
:102C000079FF00234FF08042C2F818350023C2F844
:102C10000431D2F804310223C2F80433184AD2F83E
:102C2000FC0040F08073C2F8FC30164B1C6844F086
:102C3000010119605D685968491BB1F50A5FFAD353
:102C40001C604FF08043C2F8FC0001229A60C7E785
:102C5000D2F81434D907D4D5D2F81C349B07CDD47C
:102C60000223C2F80433BBE74FF080430022C3F8CD
:102C70000021D3F80021C3F804031860B0E700BFB7
:102C800000ED00E0001000E010B54FF08043D3F8F5
:102C900000216AB10022C3F80021D3F800210122EB
:102CA000C3F80823114B587910B95A711B6898471B
:102CB0004FF08043D3F8042172B10022C3F80421FD
:102CC000D3F80421D3F81824D3F81824920704D198
:102CD0000122C3F818259A6010BD0222C3F8082308
:102CE000024BBDE810401B68012018477C02002001
:102CF000C0B2034B083033F81000C0F340107047E7
:102D000044000020C0B2034B083033F81000C0F379
:102D10004000704744000020C0B2034B083033F835
:102D20001000400B704700BF4400002070B500F158
:102D300008030C4C34F81330DA0505460E4607D567
:102D4000C3F3432304EBC30254F83330526898476B
:102D5000A3682BB1E26831462846BDE870401847A9
:102D600070BD00BF4400002010B4C0B2114A08304A
:102D700032F81030D9051BD5C3F3432123F4F8539F
:102D800022F8103002F10E04002034F8023F13F450
:102D9000807F03D0C3F34323994209D00130202818
:102DA000F3D1002342F83130034810BCFFF782BE54
:102DB00010BC70474400002098000020F0B5014688
:102DC000104A114C00200125064602F14043A3F5AC
:102DD000C2439B0805FA03F3194204D0176817B1E0
:102DE0001660176818430432A242EED1074BD3F89D
:102DF0007C2132B10022C3F87C21D3F87C3140F031
:102E00000040F0BD006100402061004000600040D3
:102E1000F0B5044685B017461D4601B3FFF772FFB3
:102E200018B12046FFF764FF08BB0023CDE900334B
:102E30008DF80E308DF80F300DF10F020B46204645
:102E40000DF10E0103F0DFF8E3B24449083331F825
:102E5000132022F0020242F0010221F8132057B39E
:102E600020463E787A68FFF74DFF10B1C2B13C486A
:102E700023E0E3B2DFF8E4C008333CF8131021F09C
:102E80002001C904C90C2CF813104AB1032EEED846
:102E90007A6817789EB9334B07F5A27743F8276015
:102EA000E3B22E49083331F8132022F01C0242EA23
:102EB000860221F813203DBB2B4805B0F0BDBA00B7
:102EC00002F1804202F5C04241EA4731D2F81005D2
:102ED00020F00300C2F81005D2F8100520F44730A6
:102EE00020F44070C2F81005D2F810E5200200F47A
:102EF000F85040EA0E0040EA064041F020012CF86C
:102F00001310C2F81005CBE7D5E900672046FFF79C
:102F10002BFF002ED0D0114DD5E90023964201D1D0
:102F20009F4219D011480DF10F01FFF79FFD0E4B85
:102F30009842C2D19DF80F2045F83260E4B205EB0B
:102F4000C20308345F6035F8143043EA422343F487
:102F5000807325F81430AFE70022EDE7440000202D
:102F60000400AD0B006000400000AD0B9800002095
:102F7000F0B5044685B0164629B3FFF7C3FE20B965
:102F80002046FFF7B5FE00285FD1E5B2304F083587
:102F900037F8153013F01C0F02D04B78012B54D0AA
:102FA00001238DF80F300023CDE900134A1C8B1C40
:102FB00020460DF10F0103F026F837F8153043F0E5
:102FC000030327F8153016B9224805B0F0BD204696
:102FD000FFF798FEC8B3E5B21D4F96F800C008355C
:102FE000614637F81500890020F0200001F180418A
:102FF000C00401F5C041C00C27F815000023C1F83A
:1030000010357278002ADFD0D1F81035B67823F465
:10301000981323F4F853C1F8103512042302D1F8A1
:1030200010E502F4403203F4F8531343320543EA47
:103030000E0302F4801240EA4C30134340F02000AB
:1030400027F81500C1F81035BEE70348BDE700BFFB
:10305000440000200000AD0B0400AD0B014BC3E9A0
:10306000020170474400002008B50246FFF740FE09
:1030700040B1D2B2044B0548083233F812305B0B32
:103080000B7008BD0248FCE7440000200000AD0BB7
:103090000400AD0B70B50F4C94F85860BEB90E4DDE
:1030A0004022314604F1100003F0FDFAC5F87C61BE
:1030B0000620D5F87C31FDF771FF4FF00043C5F8CD
:1030C00004330648012384F85830636570BD044812
:1030D000FCE700BF44000020006000400000AD0B92
:1030E0000500AD0B034B93F85800003818BF0120C2
:1030F000704700BF4400002001460148FFF7DABCDA
:103100009400002001460148FFF7B0BC9400002065
:1031100037B50446FFF7ECFD08B32046FFF7F2FD94
:103120000546E0B92046FFF7F7FD03B29B0003F127
:10313000804202F5C24203F1804303F5C0431560AB
:103140001268D3F8102542F00102C3F8102521B10E
:10315000134A01238340C2F8043303B030BDE3B205
:10316000104A083332F81330C3F38203042B12D011
:10317000052B12D001A8019402F03BFF019BD0F86F
:103180001015D94001F001010231204603B0BDE81D
:10319000304002F081BF0321F7E70221F5E700BFCD
:1031A000006000404400002008B50246FFF7A0FD83
:1031B000C0B11046FFF7A6FDA0B91046FFF7ACFD61
:1031C0000B4A01238340C2F8083303B29B0003F18A
:1031D000804303F5C043D3F8102522F00302C3F85F
:1031E000102508BDBDE808400021104602F054BF7C
:1031F0000060004073B5C5B2174E0835044636F876
:103200001530DB0726D5FFF7CFFF2046FFF770FD0F
:1032100040B12046FFF780FD104B00F5A270002260
:1032200043F820202046FFF79FFD002301A826F841
:103230001530019402F0DDFE019B00EB8300084B8A
:10324000D0F80027134043F00203C0F800370548C8
:1032500002B070BD0448FBE744000020006000405D
:10326000F0F8FCFF0000AD0B0400AD0B2DE9F347B7
:10327000534BD3F80403C0B240F00040FFF79EFD6B
:10328000051E1ADA4FF0A043DFF83881D3F8202565
:103290000092C3F820250127009CA4B94FF00040FC
:1032A000FFF78CFD4FF0A042D2F820350093C2F812
:1032B0002035002BEFD125F000450124002D66D1EB
:1032C00002B0BDE8F08794FAA4F4B4FA84F4E008FC
:1032D00004F1080304F0070238F813901DF80030D9
:1032E000019407FA02F223EA02030DF8003001A864
:1032F00002F07FFE019B03F5E0734FEA990150F85D
:103300002360C9F3820A4B07D146C6F3014623D591
:1033100020465146FFF70AFD01A8019402F069FE1C
:10332000019B03F5E073F6B250F82330C3F3014379
:103330009E4207D10021204602F0AEFE31462046D3
:1033400002F0AAFE01A8019402F053FE019B07FAC5
:1033500003F3C0F820359FE7022E0CD1032120464D
:1033600002F09AFE0AF00503012BEBD149462046F4
:10337000FFF7DCFCE6E70221204602F08DFEBAF101
:10338000030FF3D0032EDDD1BAF1020FEDE795FA6A
:10339000A5F3B3FA83F304FA03F29B0003F180432D
:1033A00003F5C04325EA0205D3F81005D3F810153C
:1033B000C0F30420C1F30141FFF7B8FC7EE700BF72
:1033C000006000404400002010B4CC7B8A68036891
:1033D0002CB9D1E90041C3F80845C3F80C15C3F86E
:1033E0002425037928225343054AD3582BB100687A
:1033F00010BC40F30730FDF7D1BD10BC704700BFD3
:1034000084020020F8B506792A4C4FF0280C0CFBFA
:1034100006FC04EB0C0595F82270002F3ED1AF603E
:1034200044F80C206B6085F8257085F8247069B32A
:103430008F7B85F827700FBB0A6802F01F035209C3
:103440002ED19B0003F1A043DFF86CC0D3F80057E6
:1034500040F20C6705EA0C053D43C3F800574D6880
:1034600005F01F036D0920D19B0003F1A043D3F8A1
:10347000002702EA0C023A43C3F80027282303FB83
:1034800006434A7B83F82620FFF79EFF282303FB91
:1034900006440A48012384F82230F8BD0848FCE7B6
:1034A00003F5E07357F82330FFDE03F5E07352F8BD
:1034B0002330F9E784020020F0F8FCFF0000AD0B98
:1034C0000500AD0B036802790621C3F80015044B13
:1034D000282101FB0233022283F82220704700BF1B
:1034E0008402002002790C4B282101FB02330021C9
:1034F000996002680948C2F80803D2F8000220F473
:10350000BC50C2F80002C2F80015012283F8222044
:1035100083F82410704700BF8402002002029C013F
:103520002DE9F84FB04D90F804900468282303FB70
:1035300009539046002283F823204B680E4633B18E
:10354000CB6803F06043B3F1005F40F085813378CE
:10355000023B012B06D8336903F06043B3F1005FEF
:1035600040F07A81A14BC4F80833282303FB0953A8
:1035700093F8241001F0FF0239B19B68DFF870B2B4
:10358000C4F804335846BDE8F88F18F0140F0CBF88
:103590000121002183F82410317883F820107178FC
:1035A00083F82110F168D960716819613169596136
:1035B000B1689961C8F3001183F82510C3F81C8025
:1035C0007378C4F88835C4F86021D4F86031C4F841
:1035D0004821D4F84831C4F82421D4F82431C4F85F
:1035E0000421D4F8043118F0010318BF0123C4F8F2
:1035F000503518F0020318BF0123C4F84035337862
:1036000009EB890705EBC707032B00F2A380DFE86E
:1036100003F0799862024FF48073C4F80032D7E95E
:103620000323C4F84425C4F848350123A3604FF4AC
:103630008011204602F081FD0028F8D1D7E905234A
:10364000C4F84425C4F84835282303FB09534FF434
:1036500080229A60DFF89CB1282202FB09F218F060
:10366000080AAB5805EB020013D13178032910D0BA
:10367000012940F085802160002B6ED0282202FBBA
:1036800009F27168AA5821B9002A00F0BB80012212
:103690006261282202FB09F2A918AA58002A00F048
:1036A000B18018F0040F1CBF00228A6018F0400F90
:1036B00006D1282202FB0952916841F00201916073
:1036C000282202FB0952916841F4007191609268CE
:1036D000C4F8042356E7D7E90323C4F84425C4F803
:1036E0004835D7E90523C4F83425C4F838354FF4F4
:1036F0008453C4F8003201232362282303FB0953B7
:103700000222A6E7D7E9032318F0200FC4F84425C6
:10371000C4F848354FF0280315BF4FF480724FF4BA
:10372000007203FB095303FB095315BFC4F80022C1
:10373000C4F800224FF4802202229A6001232362FF
:1037400088E7D7E90323C4F83425C4F838354FF4A3
:103750008053CEE7DFF8A0B07EE7026902B961616D
:103760002649DFF89CA0204602F0E7FC012210F475
:10377000007F18BF626110EA0A0F2049F3D07DE78D
:103780000121A160002B7FF479AF006918B31C4BB5
:103790001AEA030F7FF472AF1849204602F0CDFCFD
:1037A00010F4007F8246F2D04FF08071204602F084
:1037B000C4FCD4F8001280B111F4007003D10122CE
:1037C000226282466261CB05E1D54FF4802120461A
:1037D00002F0B3FC04E06161D9E701222262626178
:1037E0004FF0000AD3E700BF8402002002029C01D0
:1037F0000B00AD0B0000AD0B0400AD0B020204008A
:10380000020004002821D4F8C424C4F8C42401FB15
:103810000955002185F824108AB11149114B12F085
:10382000010F14BF8B469B46013112F0020F18BFE7
:103830008B4612F0040F0C4A18BF9346A2E618F00C
:10384000400F7FF49FAE3946204602F034FC054A13
:10385000002808BF934695E6DFF810B092E600BF57
:103860000000AE0B0100AD0B0200AE0B0A00AD0B69
:1038700070B55C4D5C4C86B00221284602F05DFCC0
:103880004FF400710646284602F057FCD8B1E6B95D
:10389000A368C5F808330223A360A368C5F80433FE
:1038A0004FF08071284602F048FC18B1D5F800327C
:1038B0009B0503D44B4B01221A625A61012384F801
:1038C000233006B070BD002E57D0E5696E060AD4CD
:1038D00094F823303BB94449424802F0ECFB80F0B5
:1038E000010084F8230015F0040524D13D4B94F821
:1038F0002520C3F86051D3F86011C3F85C51D3F8A8
:103900005C1112B194F8232052B10022C3F80022B6
:10391000A260364AC3F80823354B0822C3F8802139
:10392000238CADF80430E368049323690293636940
:103930000593A36903932B4AD2F8C434C2F8C43464
:10394000980749D4590749D4DA0749D494F8233061
:103950009B00DBB28DF8003094F825300BB984F869
:103960002430E3695B0703D594F82330002BA8D0FB
:10397000D4E9003168469847A3E74FF480212846F0
:1039800002F0DBFB94F82030A3B994F825304BB952
:10399000C5F80032A360154BC5F80833144B082254
:1039A000C3F8802100238DF8043094F821308DF87D
:1039B0000530B8E74FF40073C5F8003240F2022337
:1039C000A36003F1CE73C5F80833A368C5F80433C8
:1039D0000123AB602B6274E70123BBE70223B9E745
:1039E0000323B7E7003000408402002002029C015C
:1039F00000E100E0F7B5064602F0D3FB084602F00E
:103A0000D0FB01A8019602F0C2FB019B2E4D00EBFA
:103A100083000C46D0F80037019440F20D612B4032
:103A20000B43C0F8003701A802F0B1FB019B00EB8B
:103A300083000127D0F800372B400B43C0F8003734
:103A4000042002F0C5FA092501A8019402F09FFBA9
:103A5000019AD0F81035D340DB0715D401A80196A0
:103A600002F095FB019B07FA03F3C0F80C35042024
:103A700002F0AEFA304602F094FB013D042002F061
:103A8000A7FA15F0FF05DFD101A8019402F07FFB32
:103A9000019A01239340C0F80C35042002F098FAF3
:103AA000204602F07EFB042002F092FA01A8019465
:103AB00002F06DFB019AD0F810350448D34003F0B2
:103AC0000103C01A03B0F0BDF0F8FCFF0100AD0B1C
:103AD00008B5144BA8220021184602F0E4FD032289
:103AE000026111494261114A8161C2614FF48062F1
:103AF0000262002282624262C26201660C49416631
:103B00001021816603460267C2664267BFF35F8F7A
:103B1000084911F8010D98540132102AF9D1BFF368
:103B20005F8F08BDAC02002092700000AB03002044
:103B30009B030020AB700000F8B5144B182700FB66
:103B400007751D4407FB00330E46DB6A012B144644
:103B50000AD0022B14D023B9284602F02FFB84424E
:103B600008D900242046F8BD284602F027FB8442ED
:103B700028BF044622463146284602F028FBF1E7DA
:103B80002846BDE8F84002F041BB00BFAC0200206F
:103B900038B503464FF02002EFF3118582F3128807
:103BA000BFF36F8F02F046FE064A1458184602F023
:103BB000FCF985F31188BFF36F8F2046BDE83840CC
:103BC000FDF7E4BC08000000104B70B553F820402E
:103BD000013053F82060A64200D870BDD4E900350A
:103BE00095B153B12846984738B10028B8BF404234
:103BF000EB68FF28A8BFFF201870EA68537843F0ED
:103C0000010353700834E6E79847FBE7406E000075
:103C100008B50A4B012203201A70FFF7D5FF00F008
:103C200009FE0420FFF7D0FF00F006F9FCF790FF33
:103C3000034A137B23F00103137308BDAB07002075
:103C40005001002008B50348034A0021121A02F06F
:103C500021FB08BDB0000020B007002070B5002394
:103C600086B00122CDE90423174E184D01930F228F
:103C7000CDE902321649142303FB005506EBC016AA
:103C80004FF4A0720446134B009502FB001130461E
:103C900000F094F8737B2C7423F0040373730E4BC1
:103CA000EE60013403EBC4236B600C4BBFF35B8FFE
:103CB00053E8001F013143E80012002AF8D1BFF396
:103CC0005B8F06B070BD00BFD000002058030020FD
:103CD000B00F0020A9620000B007002054030020AC
:103CE00080B50020A6B0FFF76FFF2D4B83F3088847
:103CF0002C4D2D4E6B692D4F43F400736B610024E6
:103D0000E02385F82230EC772C766C76AC7685F85B
:103D100020406B6A43F4E0236B6285F82340FDF793
:103D200097FBFDF71BF94FF0FF33AB62EB62FDF73A
:103D3000B3FCFDF741FC40F20113ADF8243006ABB3
:103D4000B360CDE91E44219402F098FA0120FFF7F8
:103D50003BFF0220164DFFF737FF00F007FB154B26
:103D600075610593012314490094CDE903434FF491
:103D700080623B46CDE90144284600F01FF86A7B8B
:103D8000064622F0040228466A7302F0D3FA20465F
:103D9000FFF764FF3A4631462846FDF7C5F900BFF4
:103DA000B00F002000ED00E058030020113C00009F
:103DB00050010020AC700000F01000202DE9F0430D
:103DC00085B0984600F158030732C0E91633109BBE
:103DD000037322F0070504230026437301EB050952
:103DE0000F9B83730F46C0E9066649468660C6731B
:103DF0000446FDF7C3F907300E9B20F00700A066CC
:103E0000C4E9187502930D9B0193A9EB00090C9B63
:103E100000934A46434639462046FDF769F9054B6B
:103E200066659B6803B1DB6EE366484605B0BDE896
:103E3000F08300BF580300202DE9F043294C2A4DA0
:103E400087B02646AE4204F12C040FD300F05EFA90
:103E5000244CDFF898904FF4004640F2E737AC422C
:103E600020D307B0BDE8F04300F064BA54F8043C36
:103E7000059354F80C3C049354F8103C039354F805
:103E8000143C029354F8183C019354F81C3C0093E2
:103E900054E9092354E90B01FFF790FF54F82C3C37
:103EA0005E65CEE7636A5A1C0DD023EAE3730021F6
:103EB0003846C3FB060151EAC333D4F8008004D16D
:103EC000404600F0D3F92C34C9E74FF47A7200234E
:103ED000FCF7D4FC02460B4608F11800494600F0F6
:103EE000AFFBF0E7206A0000206A00009963000041
:103EF00038B504464FF02003EFF3118583F31288A1
:103F0000BFF36F8F02F04CFA48B10022826702F0D3
:103F100011FA29460748BDE8384000F095B9D4E9C0
:103F200002329A4218BF0133A36085F31188BFF3B0
:103F30006F8F38BDAC07002013B54FF02004EFF3AE
:103F4000118184F31288BFF36F8F846844B1013C00
:103F5000846081F31188BFF36F8F002002B010BD21
:103F600052EA030406D181F31188BFF36F8F6FF01B
:103F70000F00F3E7CDE900230246024800F046F9BE
:103F8000ECE700BFAC070020C3897F2B12D80A4B97
:103F90001B6863B1094B90F90E201B689A4209DB3C
:103FA000437BDB0606D1064BC31A18BF012303F07F
:103FB000010070470023FAE7800300207C03002003
:103FC000D0000020044BC01A044BC0105843044BCF
:103FD00001221A54704700BFD0010020ABAAAAAA40
:103FE000AC07002070B50E4B0E4C1E7C06EB460352
:103FF00004EBC3040546204602F004FA0A4B0022F3
:1040000028469A55FFF7C0FF48B1084B08491A687F
:10401000013A2046D317BDE8704000F011BB70BDD7
:1040200058030020D0010020AC07002080030020AE
:10403000C53F000038B50D4D2B4653F8184F9C4234
:1040400000D004B9EC68AB6838B95A7BD20604D109
:10405000A26912B9DA897F2A05D89C4202D020468B
:10406000FFF7C0FF23466B6138BD00BF5803002037
:1040700070B590F90D20437B002A014604DA03F065
:104080007F03437302F01CF94B7B154A63F07F03F7
:1040900010464B7350F8183FD469834208BF002381
:1040A00023B9C1E900042160D1610CE091F90E50FF
:1040B00093F90E60B5420ED0AE420CDD5868C1E9EE
:1040C0000030016059609068431A5842BDE8704062
:1040D0005841FFF7AFBF9C42E3D01B68E0E700BF49
:1040E0005803002070B490F90D30427B002B29DB7F
:1040F000D30627D183692BBB134962F07F02427339
:104100000A4652F8184F944218BF2346CC6923B987
:10411000C0E900242060C8610CE090F90E5093F9CA
:104120000E60B5420AD0AE4208DD5A68C0E90032DE
:104130001060586070BC0020FFF77CBFA342E7D03E
:104140001B68E4E770BC70475803002008B590F97D
:104150000D20437B002A014604DA03F07F034373FA
:1041600002F0AEF8044B9868431A58425841BDE833
:104170000840FFF75FBF00BF5803002070B5154629
:104180001C46064602F0AEF8B4F1FF3F08BFB5F199
:10419000FF3F08D02A46234606F118000249BDE831
:1041A000704000F04DBA70BD9963000038B54FF013
:1041B0002003EFF3118583F31288BFF36F8F104B49
:1041C000104A9C681068A04206D1FFF70BFF85F3E8
:1041D0001188BFF36F8F38BD00211B7C11600A4A24
:1041E000D35C002BF3D02046FFF7CEFE0028EED0A4
:1041F000637BDB0602D12046FFF73AFF2046E4E767
:104200005803002078030020AC07002070B50C484C
:104210000C4D86682E600C461146DDE904234FF0F4
:104220002006EFF3118586F31288BFF36F8F806845
:10423000FFF7A4FF2046BDE87040FCF703BF00BFB6
:10424000580300207803002049B9EFF3058030B906
:10425000054B5A699B689A4201D0FCF7F3BE81F383
:104260001188BFF36F8F70475803002010B54FF0CF
:104270002002EFF3118482F31288BFF36F8F427B29
:10428000510704D484F31188BFF36F8F10BD22F05F
:1042900004024273FFF726FF21460248BDE81040A2
:1042A000FFF7D2BFAD07002070B50446183002F00A
:1042B000A9F84FF02003EFF3118683F31288BFF3C0
:1042C0006F8F94F90D20637B002A05DA03F07F03DA
:1042D0006373204601F0F4FF0B4D637BA86843F045
:1042E00010036373031B58425841FFF7A3FE86F384
:1042F0001188BFF36F8FAB68A34203D1BDE8704054
:1043000002F076B870BD00BF580300204FF02003C4
:10431000EFF3118183F31288BFF36F8F044B9A6818
:10432000D37B013BD37381F31188BFF36F8F704749
:104330005803002010B54FF02003EFF3118483F3EE
:104340001288BFF36F8F084B9A68D37B0133D37306
:104350000020FFF76FFE84F31188BFF36F8FBDE875
:10436000104002F045B800BF58030020024B03F193
:104370001802C3E90622704758030020F8B54FF031
:104380002003EFF3118583F31288BFF36F8F194970
:104390008868437B03F07F03437301F091FF8B68D0
:1043A0005A7B084662F07F025A7350F8182FCC6986
:1043B000824208BF002222B9C3E900042360CB6116
:1043C0000CE093F90E6092F90E70BE420ED0B74227
:1043D0000CDD5168C3E900210B6053600120FFF739
:1043E00029FE2846BDE8F840FCF72CBEA242E3D0E7
:1043F0001268E0E75803002050EA01032DE9F0417C
:1044000005460E4603D1FFF7B9FF00202CE0831CC0
:1044100071F1FF332ADB02F00BF82C184FF0200368
:10442000EFF3118883F31288BFF36F8F114F124B94
:10443000B8681860FFF78AFEB86810492A46334604
:10444000183000F0FDF8BA68537B43F01003537343
:104450004046FCF7F7FD01F0EBFF201A63EB030386
:10446000012873F10003D0DBBDE8F0816FF0010497
:10447000241AD3E758030020780300209963000032
:10448000B1F1FF3F08BFB0F1FF3F08B506D1084BBF
:104490009868FFF709FF4FF0FF3008BDFFF7ACFF4A
:1044A0004FF47A7380FB0303C00B40EA4340F4E708
:1044B00058030020014B9868704700BF5803002044
:1044C0002DE9F04104464FF02003EFF3118683F30A
:1044D0001288BFF36F8F037BD9070BD586F3118842
:1044E000BFF36F8F404080F311884FF0040002DF6C
:1044F000BDE8F081437B1A0704D586F31188BFF32A
:104500006F8FF5E723F0200242F00801D20920D195
:104510004173A36813B1204601F0DAFE04F11800DC
:1045200001F070FF04F158074FF00008A56DBD427F
:1045300000D0B5B90120FFF77DFD104B9B68A34269
:10454000DBD1EFF30583002BD7D13046FCF77AFDA2
:10455000D3E703F05F0343F00803437301F0B0FEB9
:10456000D7E7284601F0B4FE05F1180001F04AFF34
:10457000C5F878802846FFF7B5FDD7E75803002037
:1045800008B50648064A0749121A01F085FEBDE83B
:104590000840054A0549064801F07EBE000000209B
:1045A000B0000020EC70000000000000EC70000083
:1045B00000000020034B1B680BB9FEF7F5B8002084
:1045C000704700BF8403002010B50E4B1C689C424E
:1045D00004D1FFF7EFFF6FF0004010BDFFF7EAFFD7
:1045E000002CF8D0D4E904321B1A62EBE072B3F16C
:1045F000004F72F10001EEDA002AACBF184600202D
:10460000EBE700BFA000002030B570B10B4B5B683A
:1046100098420AD0036843B1D3E90421D0E90445A4
:10462000121941EB0501C3E90421D0E900321360FE
:104630005A600023C0E9003330BD00BFA000002055
:10464000B3F1FF3F08BFB2F1FF3FF8B504461D4686
:1046500016465CD081604FF02003EFF3118783F39F
:104660001288BFF36F8F013275F1FF3324DA2D49C1
:10467000D1E900206FF001039B1A4FF0FF3262EB8B
:1046800000009E1B60EB0500012E70F1000301DAB3
:1046900001260020C4E90460234ED6F800C07568E6
:1046A000B44508BF4FF0000CBCF1000F0DD1C4E9B8
:1046B00000652C6074601CE0FFF77CFF013645F15B
:1046C0000005361845EBE070E4E7DCE90420D4E9A6
:1046D0000431934271EB000E1ADAD21ADCF804307E
:1046E00060EB0100CCE90420C4E900C31C60CCF8F5
:1046F00004403368B34206D09C4204D1FFF764FF04
:104700000021FEF71DF887F31188BFF36F8FF8BD06
:104710009B1A61EB0001AC45C4E90431C7D0DCF859
:1047200000C0C1E7E8010020A00000202DE9F84FFB
:104730004FF02003EFF3118C83F31288BFF36F8FD8
:10474000DFF8B0A0DFF8B0902C4FC9F80000DAF81D
:1047500000000024504508BF00200025D7E90021B3
:10476000D9F80030E04680B3D0E9046C4FEAE37E2C
:10477000B3427EEB0C0B05DAF61A6CEB0E04C0E9C3
:10478000046422E0B21841EBE671C0E90445C7E9D0
:104790000021FFF739FF88F31188BFF36F8F83681B
:1047A00098474FF02003EFF3118883F31288BFF38B
:1047B0006F8FD9F80030DAF800009B1B5045C446D3
:1047C000C9F80030CAD1D7E900219A1841EBE37348
:1047D0000024C7E90023C9F80040FFF7F5FE214691
:1047E000FDF7AEFF88F31188BFF36F8FBDE8F84F78
:1047F000FFF7DCBCA000002084030020E8010020BB
:1048000010B54FF02003EFF3118483F31288BFF348
:104810006F8FFFF7CFFE064A0346D2E90001181852
:1048200041EBE37184F31188BFF36F8F10BD00BFBC
:10483000E8010020014801F01CB900BFB47000007D
:104840002DE9F04101260746B24201DCBDE8F081C6
:104850003B461F4613F8014B002CF7D0252CF8D10E
:104860001C78252C07F10207F2D00023DFF8048121
:104870009C461D461F2D18D8A4F1200EBEF1100F26
:1048800009D9A4F1300EBEF1090F1ED80A2404FB89
:1048900003E3202504E028FA0EFE1EF0010F06D0E7
:1048A00017F8014B002CE5D128E07F2D1CD8A4F18E
:1048B000300EBEF1090FE9D9242C10D1BCF1000F44
:1048C00046D0B34246D00023EAE724F0040EBEF1FE
:1048D0002A0FF8D06C2C09D145F08005E0E724F0D0
:1048E000040EBEF12A0FEED06C2C22D06C2C1BD8FB
:1048F000682C23D06A2C28D04C2C26D0BCF1000F79
:10490000A4D0B445A0D144F02007A7F1650CBCF1B8
:10491000020F0B6801D9612F1ED1073323F0070363
:1049200008330B6001368EE7742CB9D07A2CB7D0DF
:10493000E4E72C0648BF45F40075CDE7EC0548BF19
:1049400045F4007545F48075AAE745F42075A7E79E
:104950009C46B8E76324D6E7692C02D007D8632CBD
:1049600003D02F0601D5AC05D7D40433D9E7732C77
:10497000F6E700BF892801002DE9F04F95B04368A4
:104980000393837880469807CDE9081217D50D92D6
:104990000B4600251F78A7B1252F16D001330793AA
:1049A000039B414638469847002805F1010580F2EF
:1049B000558498F8023043F0040388F802304FF031
:1049C000FF35284615B0BDE8F08F5F789A1C252F7B
:1049D0000792E5D000242646A246A346BBF11F0F4E
:1049E00032D8A7F12003102B0AD8DFE803F02409FE
:1049F000092A0909091B09090922092709091900B6
:104A0000A7F13003092B2DD92A2F39D154B90D9B89
:104A10001BF0400F53F8042B0D9329D0164601E0EC
:104A20004BF0010B079B13F8017B0793002FD5D1A7
:104A30005BE04BF0020B4BF0040BF3E74BF0080B81
:104A4000F0E74BF0100BEDE7BBF17F0F3FD8A7F17C
:104A50003003092BD8D81BF0400F03D00A2202FBE9
:104A60000636DFE70A2202FB0A3A4BF0200BD9E7B1
:104A7000B2F1000AF9DACAF1000A4BF0280BD1E7CB
:104A80002E2F05D11BF0400F9BD14BF0400BC9E7F7
:104A9000242F1CD1002C00F04481099B0D931BF0A6
:104AA000400F0AD1524608980DA9FFF7C9FE0D9B89
:104AB0001A1DD3F800A00D92B4E7324608980DA94C
:104AC000FFF7BEFE0D9B1A1D1E680D92AAE76C2F04
:104AD00000F0148100F20B81682F00F017816A2F1B
:104AE00000F01C814C2F00F0198134B1099B08980B
:104AF0000D9322460DA9FFF7A3FE002E47F02003D9
:104B0000B8BF2BF0400B0593A3F16503BCBF1FFAA0
:104B10008BFB0026022B40F2098147F02003612B1A
:104B200040F08482FF4307F0200306930D9B073378
:104B300023F007031BF0400FD3E9000103F1080243
:104B4000069B00930D9214BF33464FF0FF330EAA1D
:104B500001F0B1FD431CDBB24BF4C0540493DDF80B
:104B6000389070230646A3460127059309F10903EF
:104B7000122B0CD909F16303C62B40F2138109F201
:104B8000E73340F2CE72934294BF032704279DF887
:104B90003C2002F00C0312F0010240F01E811BF0D9
:104BA000020F40F017811BF0040400F0FD80002B81
:104BB00040F0168120231BF4405F21D1049A50322B
:104BC000002E6A4408BF0126133A049921B112F855
:104BD000011D302900F03B811BF0100F049A18BF13
:104BE000324619F1040FC0F23781B14580F23481A9
:104BF0004A454BF4005B40F3318109F10106961BF5
:104C00001BF400520A9200F02B8129EAE974013466
:104C100003B10134002E00F02A81721C1444A24515
:104C2000CCBFAAEB040400241BF0090F04D12C44D0
:104C3000A54240F02181002443B118464146039B20
:104C40009847002805F10105FFF6B3AE1BF4006F8D
:104C500013D0039B4146302098470028FFF6A9AEA9
:104C6000069BC3F178004146039B00F0F80098478B
:104C7000002805F10205FFF69CAE1BF0080F05D1D8
:104C80002C44AC4240F00481254600240A9B002BB2
:104C900000F02E8129EAE97AA9EB0A027642049B08
:104CA0000592934284BF0EABD3180AF1FF3A8CBF32
:104CB00058793020564505F1010700F3F380039B36
:104CC00041469847059A002802F10102FFF671AEAD
:104CD000BAF1FF3F09D1039B059241462E20984728
:104CE0000028FFF666AE059AAF1C3D46D7E7742F45
:104CF0003FF498AE7A2F3FF495AEF6E61BF0800FA6
:104D000018BF4BF4007B4BF0800B8BE61BF4807FCD
:104D100018BF4BF4007B4BF4807B83E64BF4207B85
:104D200080E62646B3465446B2467BE6FF4307F08C
:104D3000200306930D9B073323F0070303F10802BA
:104D4000D3E90001059B0D921BF0400F08BF06261A
:104D5000652B13D1731C0022DBB24BF4805B14462D
:104D6000112BCDE9002428BF11230EAA00F014FB5B
:104D7000C3B2DDF8389004930227F7E6059B662B53
:104D800005D14BF4005B344601221123E8E7F3B26E
:104D9000012B4FF000024FF0650738BF0123144686
:104DA0000597DDE70227F2E6002B3FF404AFBAF1E6
:104DB000030F3BDC9DF83C309A4E13F0080F9A4BE2
:104DC00008BF1E46B1464F4619F8010BB0BBAE1BDB
:104DD000374488E033BB2B23EDE62BBB2D23EAE6DB
:104DE0002022BAF1040F13DD1BF0080FAAF104040E
:104DF0000FD12C44039B0492414620209847002861
:104E000005F10105FFF6D5ADA542049AF2D19AB19C
:104E10000024039B414610469847002805F10105F0
:104E2000C8DAC6E52B22DCE72D22DAE71BF0080FF3
:104E3000AAF10304BED1DCE71446BBE7069BC01A07
:104E40004146039BC0B298470028BCDAB1E50499FB
:104E50000139C9B20491B8E6561ED1E60026CFE664
:104E60001BF4006F0CBF032405243C44D0E61BF068
:104E7000100F18BF0134D2E60B934146039B20204C
:104E8000984700280B9B05F10105BFF6D1AE90E5D0
:104E9000039B414630209847002805F10105BFF6E5
:104EA000F0AE86E5D1450AD19DF83D30352B1DD8B1
:104EB00005D19DF83C3013F0100F08BF3120039B43
:104EC000414698470028FFF674AD1BF0100F0AD03A
:104ED000BAF1FF3F07D1AF1C41462E20039B9847F4
:104EE0000028FFF666AD3D463C443DE23120E6E752
:104EF0009DF83D0031281EBF9DF83C3023F0100383
:104F00008DF83C304146039B98470028FFF651AD91
:104F1000002E6BDD039B41462E2098470028FFF6AC
:104F200048AD4FF0010A049B9A45BBBF0EAB5344FA
:104F300030205879039B414698470028D346FFF616
:104F400038AD0AF1010A5645EDDA02355D44DDE976
:104F50000532981A4146039BC0B298470028FFF6D5
:104F600028ADB9F1000F04DB4ED19DF83C30DB06D3
:104F70004AD5C9F100092D20039B414698470028D6
:104F8000FFF617AD042F41D14FF47A7799FBF7F66E
:104F900006F13000039B4146C0B29847002805F156
:104FA0000305FFF606AD07FB1699642799FBF7F694
:104FB00006F13000039B4146C0B29847002805F136
:104FC0000105FFF6F6AC07FB16990A2799FBF7F6E1
:104FD00006F13000039B4146C0B29847002805F116
:104FE0000105FFF6E6AC07FB169915E01BF0100F64
:104FF00001D10135ABE7039B41462E20984700289D
:1050000005F10205A3DAD4E42B20B5E7032F05F15F
:105010000205CAD0012FD8D109F130006F1C4146DA
:10502000C0B25BE7E0700000DC700000A7F1630332
:10503000122B00F2FB80DFE813F013005300F9009D
:10504000F900F900F9005300F900F900F900F9003E
:10505000F9001401F400F900F9002800F900B50086
:105060000D9B1A1D1B680D928DF8383001240EAF70
:105070001BF0080F2AD007EB04093E464E4527D106
:10508000EF1B3744AAEB04042DE70D9B1A1D0D926C
:105090001F68AB4B002F08BF1F461BF0400F14BF0B
:1050A00031464FF0FF31384601F0C6F90446DFE7DC
:1050B000039B4146202098470028FFF67AAC013E2A
:1050C000B442F5D35544AD1BB246D4E75646F7E794
:1050D00016F8010B039B414698470028CEDA68E496
:1050E0001BF0800F0D9B35D01BF4007F2DD00733B4
:1050F00023F00703D3E9000103F108020D922BF01E
:10510000100900291FFA89F936DA404261EB4101A2
:1051100049F480690DF1380B0A235A4601F098F9D9
:1051200019F0400FA0EB0B0B65D029F001025E4592
:1051300092B240F3B380002F00F0AA8019F0100360
:105140003446914626D002345CE01A1D18680D9250
:10515000C117D4E71A1D1BF4807F19680D9201D185
:105160000846F5E71BF4007F15BF48B208B241F3CB
:10517000C01141F3C031C2E750EA0103CAD11BF0AC
:10518000400FC7D0002EC5D12BF0110B1FFA8BF9A1
:105190003446B34640F2064319EA03031CBF013408
:1051A00000232FE02BF0100B1FFA8BFB0A231BF0C0
:1051B00080040D9A58D01BF400711DBF073222F0F5
:1051C000070202F10801101D19BF0D91D2E900017B
:1051D0000D90106850EA010253D12BF016091BF014
:1051E000400F1FFA89F950D0002E4ED12BF0170B2B
:1051F0001FFA8BF9B34619F0100353D0002F4FD18B
:105200000BF1010419F0080F5FD119F0010F06D05E
:10521000A2456EDDAAEB040404EB0B0654462246BD
:105220004EE04BF0100B10237827C0E747F0200327
:10523000782B04D1C7F1780343F01003B7E7039B41
:105240004146252098470028FFF6B3AB039B414613
:10525000384698470028FFF6ACAB0235079BFFF7AE
:1052600099BB08230027A2E7111D0D911BF4807143
:105270001068AFD01BF400711ABFC0B2214680B2D3
:10528000A8E72BF0060B1FFA8BF90DF1380B44E75A
:1052900029F011091FFA89F934467BE79146AAE7FC
:1052A0005C4650E75C4675E7CDE904234146039B25
:1052B000202098470028FFF67CAB049A059B01321A
:1052C0009245F1DC2C1BA5181446EBB1039B41461B
:1052D000302098470028FFF66CAB67B901352F46A0
:1052E0002E44F31B5B4521DC5D460EAE55BB5F448F
:1052F000C8E65E4693E7023541463846039B984729
:105300000028ECDAFFF755BB40F2064319EA030F19
:10531000E5D019F0020F14BF2B20202019F4806F64
:1053200005F10105414618BF2D20E7E7039B4146E3
:1053300030209847002807F10107D2DAFFF739BB80
:10534000E4700000013D039B705D414698470028D2
:10535000CCDAFFF72EBB039B41462020984700285C
:1053600005F10105FFF625AB631B002BF3DC75E7A8
:105370001FB502AB0093074A4FF0CC3301F04BF955
:10538000DDE90201C00840EA4170C90805B05DF8D6
:1053900004FB00BFCDCCCCCC2DE9F04F9BB0044634
:1053A00005920A460A93C2F30A559DF890300B9372
:1053B000D20FC1F313030992090D7DB950EA03021C
:1053C0001BD1059A30235371099B156043F00203EA
:1053D0001371012738461BB0BDE8F08F40F2FF7211
:1053E00095424AD10343099B059A14BF43F0080331
:1053F00043F0040313710027ECE700F00102089268
:105400004FEA83080122AC4D48EA907887009A461B
:105410001646C5F1000B5846069200F011FAB5F198
:10542000FF3FACBF8146A0F10109ABEB090B09EBD3
:1054300005035846049300F009FA16A9A0F17D056A
:10544000584600F023FA12AB069A0193A9EB050522
:1054500010AB0292009320462B4616AA514601F04B
:105460001FF8B9F1010F04460D4600F2D280089BE7
:10547000002B40F0C58001276BE043F4801A00F058
:1054800001024FEA8A080343A5F23545089248EA2B
:1054900090784FEA800749D140F2FE7319420CBF61
:1054A00001260026002D3246B3DB284600F0C2F963
:1054B000032DC8BF0138049000F0C8F9049B7C306C
:1054C0005D1B054416A9184600F054FA12AB01936F
:1054D00010AB009320462B46029616AA514600F0C8
:1054E000DFFF049B152B04460D4600F2868014ABAB
:1054F000724A009338464FF0CC33414601F08BF8A6
:10550000149B159A9B0843EA827303EB8303BB4207
:10551000DDE9109A0CD13846414600F09FF9049B12
:1055200083428CBF00270127002612E00126B9E73D
:10553000089B002B51D1013F48F1FF31B81B61F1AD
:10554000000100F08BF9049B089F83428CBF00266A
:1055500001260B9B002B40F09080DDF828B04FF027
:105560000008CDE906884FF00A0ADDE91001FFF7CF
:10557000FFFE129B0E93CDE90C0118461399FFF71D
:10558000F7FE0C9B0D9A0F9198420B469341814672
:1055900080F08D8020462946FFF7EAFE0E9A0AFB2E
:1055A00009F3934214BF002606F001060C9B1093EA
:1055B0000D9BCDE911390F9B1393079BB8F1000F99
:1055C00014BF002707F0010701330AFB10485FFAF8
:1055D00088F8079304460D46C7E7B81C48F1000158
:1055E00000F03CF9049B83428CBF00200120B9EB02
:1055F00000006AF10002CDE9100200273E46A8E74C
:10560000109B119A013B42F1FF32CDE91032012784
:105610008AE7B9F13E0FF0D84FF0FF33A9F120002F
:1056200003FA09F203FA00F0C9F1200123FA01F1AB
:1056300002430A4303FA09F327EA030728EA0208A8
:1056400057EA08070CBF012700276DE700FB02FCA3
:10565000A1FB0012013362448C4275EB020CF5D2BF
:10566000049ADDF828B01344259A1344012BB8BFDF
:1056700001239B45A8BF9B4671E70A210022012315
:105680000846E9E70AFB03F0A2FB0A2301310344C1
:10569000944275EB0300F5D2594511DDBBF1000FC3
:1056A00002D154EA05030BD00123069372E70A22C4
:1056B00000230121ECE700BFCCFBFFFFCDCCCCCC1D
:1056C000002E2FD04FF00A0A129B13990D93184603
:1056D000FFF74EFE0D9B0C910AFB00F29A428146A9
:1056E00020D1DDE91001FFF743FE0E900D91204619
:1056F0002946FFF73DFE0D9B0E9A1092CDE9113918
:105700000C9B1393079BB8F1000F14BF002707F001
:10571000010701330AFB10485FFA88F80793044633
:105720000D46D1E7DDF81090079B9944002F59D022
:10573000B8F1050F56D114F0010349D1069A32B9D8
:10574000DDE912239D4208BF94425ED0069B1819E2
:105750004FF00A0445F10001002201262546A0422F
:1057600071EB020754D2E3B1B3451ADA0B9B63B174
:10577000259ADDF828B006EB0903134423EAE37306
:105780009B45A8BF9B465E450BDD05304FF00A02E6
:105790004FF0000341F10001FBF770F809F1010936
:1057A000013E5E45A8BF5E4637B20FFA89F9059BF8
:1057B00009FA86F607F10508013E98444FF0000902
:1057C000B9452CDB059B1A461E60099B137101E647
:1057D000069B2BB9DDE912239D4208BF944209D0F4
:1057E0000123B4E7069B53B9DDE912239D4208BFAC
:1057F000944204D1089B002BF2D1002EF0D0B8F1D6
:10580000040F94BF00230123A1E74FF00408F1E740
:1058100005FB02F7A4FB054201363A449FE70A2242
:105820000023FBF72BF8303208F8012D09F10109AC
:10583000C6E700BF014B5843800C7047413401005C
:10584000014B5843000D7047FB2E0B00024B584391
:10585000C00C0130704700BF4F9312000A4A70B568
:1058600003464FF0CC3600204FF0333506FB03F4EF
:1058700002FB0144A3FB023121449D4275EB01046C
:1058800001D30130F2E770BDCDCCCCCC2DE9F04F87
:105890001A23354EB0FBF3FA03FB1A0389B0044612
:1058A0000D4606EB0A1653B9D6E90023C1E90023D9
:1058B000D6E90201C5E9020109B0BDE8F08F2B4A23
:1058C00002EBC303D3E9008904AB0093D6E90223BA
:1058D0004046494600F09FFE06AB0093D6E9002300
:1058E00083460F464046494600F095FEDDE90662D4
:1058F00016EB0B0652EB07084FF0000328BF0123FD
:10590000814633B1049B059A013342F10002CDE98F
:10591000043220460391FFF799FF07461A2000FB47
:105920000AF0FFF793FF3F1A324643460399009768
:10593000484600F08BFE4FEA141C0D4A640004F048
:105940001E0352F82C40DC4004F00304241841F1FB
:105950000001C5E90041DDE90423009730464146D6
:1059600000F074FEA6E700BF586B0000886A0000D4
:10597000586E00002DE9F04F1A27DFF8E4A000F17F
:105980001905B5FBF7F56F433A1A4FEA051B89B0C5
:1059900004460E460AEB05150AD1D5E90023C1E9F4
:1059A0000023D5E90201C6E9020109B0BDE8F08F84
:1059B0002C4B03EBC203D3E9008904AB0093D5E978
:1059C00002234046494600F026FE5AF80B206B6839
:1059D000013ACDE9020106A963F1000300914046B6
:1059E000494600F018FEDDE906528A4602996D1814
:1059F000039952EB01084FF0000328BF01238146B1
:105A000033B1049B059A013342F10002CDE904321F
:105A10003846FFF71BFF07462046FFF717FF3F1AE0
:105A20002A46434600974846514600F00FFE4FEA8B
:105A3000141C0D4A640004F01E0352F82C40DC4094
:105A400004F003040134241841F10001C6E90041C7
:105A5000DDE9042300972846414600F0F7FDA2E760
:105A6000286C0000886A0000AC6E000070470020BF
:105A700070470FB407B504A951F8040B0191FBF767
:105A80002BF903B05DF804EB04B0704700EBC100E4
:105A9000408840087047F8B50346FFF7F7FFB0FAB3
:105AA00080F0C0F11F0003EB800CCA00DCF810602E
:105AB000171D0C4606328DB256B9012101FA00F0CD
:105AC000D9680143D960CCF81040DD539D52F8BD30
:105AD000F1000431585AD85303EBC0009E52C580E0
