:10000000A01400205D0F000027420000310F000007
:10001000310F0000310F0000310F00000000000020
:10002000000000000000000000000000190A0000AD
:10003000310F000000000000C1090000310F000076
:100040009D0A00009D0A00009D0A00009D0A000014
:100050009D0A00009D0A00009D0A00009D0A000004
:100060009D0A00009D0A00009D0A00009D0A0000F4
:100070009D0A00009D0A00009D0A00009D0A0000E4
:100080009D0A00009D0A00009D0A00009D0A0000D4
:100090009D0A00009D0A00009D0A00009D0A0000C4
:1000A0009D0A00009D0A00009D0A00009D0A0000B4
:1000B0009D0A00009D0A00009D0A00009D0A0000A4
:1000C0009D0A00009D0A00009D0A00009D0A000094
:0C00D0009D0A00009D0A00009D0A00002F
:1000DC0053B94AB9002908BF00281CBF4FF0FF31A3
:1000EC004FF0FF3000F00CB8ADF1080C6DE904CE08
:1000FC0000F008F8DDF804E0DDE9022304B07047F5
:10010C00704700BF2DE9F04786468C460846089E8E
:10011C00154674461946002B40F0C2808542B2FA4F
:10012C0082F245D94AB1C2F1200300FA02FC2EFA40
:10013C0003F3954043EA0C0C94404FEA154EA8B2D9
:10014C00BCFBFEF8230C0EFB18CC08FB00F943EAB1
:10015C000C43994528D9EB1808F1FF3704D299457F
:10016C0002D9A8F102072B44A3EB0903A4B2B3FBF9
:10017C00FEFC0EFB1C330CFB00F044EA0344A042D3
:10018C0014D92C190CF1FF3304D2A04202D9ACF1D2
:10019C0002032C44241A43EA07401EB1D440002326
:1001AC0034607360BDE8F0874746DDE76346F1E7EE
:1001BC0092BB431B01214FEA154EAFB2B3FBFEFCC1
:1001CC00200C0EFB1C330CFB07F840EA034398454C
:1001DC0062D9EB180CF1FF3004D2984502D9ACF17E
:1001EC0002002B44A3EB0803A4B2B3FBFEFC0EFBF2
:1001FC001C330CFB07F744EA0344A7424ED92C19D5
:10020C000CF1FF3304D2A74202D9ACF102032C4407
:10021C00E41B43EA0040C0E7C2F1200320FA03F1DB
:10022C00954090402EFA03F303434FEA154EAFB2BC
:10023C00B1FBFEFC0EFB1C10190C0CFB07F841EA81
:10024C000041884504FA02F422D969180CF1FF30F8
:10025C0004D2884502D9ACF102002944A1EB080173
:10026C009BB2B1FBFEFC0EFB1C110CFB07F743EA27
:10027C0001439F420ED9EB180CF1FF3104D29F427F
:10028C0002D9ACF102012B44DB1B41EA004192E79D
:10029C006046E3E76146F7E76046A3E76346B7E7E6
:1002AC00834206D916B9002108467BE7C6E900E06F
:1002BC00F9E7B3FA83F78FB9834201D3724508D8B3
:1002CC00BEEB020460EB030301209C461EB9002127
:1002DC0068E73846FAE7C6E9004CF8E7C7F1200CA6
:1002EC00BB4022FA0CF41C432EFA0CF120FA0CF34E
:1002FC00B84001434FEA14490EFA07F5B3FBF9F87D
:10030C001FFA84FE09FB18300B0C08FB0EFA43EAAB
:10031C0000439A4502FA07F240D9E31808F1FF307E
:10032C0004D29A4502D9A8F102002344A3EB0A0394
:10033C0089B2B3FBF9F809FB183308FB0EFE41EA4E
:10034C0003418E452CD9611808F1FF3304D28E4538
:10035C0002D9A8F10203214443EA0040A0FB029811
:10036C00A1EB0E014145CE46434602D306D14D4585
:10037C0004D2B9EB020E68EB04030138002EA6D0B0
:10038C00B5EB0E0261EB030101FA0CFC22FA07F348
:10039C004CEA0303F940C6E9003198E74046C5E74B
:1003AC004346D9E738B50B480B4D0A22492103F0D7
:1003BC001FFF012401210B464B430131A142FBDD00
:1003CC00224649212846013403F012FF0B2CF1D1AF
:1003DC0038BD00BF9C4B0000D04B00007FB5334BA9
:1003EC006A4603F10806154618685968144603C492
:1003FC000833B3422246F7D118681B792371206069
:10040C0049212B4803F0F4FE03222A48492103F02A
:10041C00EFFE2948442103F0EBFE2848572103F056
:10042C00E7FE2748452103F0E3FE264A26484921EA
:10043C0003F0DEFE0D222946032000F09FF9234C29
:10044C00204604F0E1F868B321484FF4D01103F0D2
:10045C005EFD002826DB1F484FF4803103F057FD6A
:10046C0000281FDB2369A5681B68AE6913F0040F15
:10047C0014BF4FF000734FF0806302214FF0A07255
:10048C002046B0471449154B4B6004238B60EB6935
:10049C0013B101222046984700214FF0967003F0CB
:1004AC0007F9F9E74FF0FF3004B070BD704A000057
:1004BC00F04B0000124C0000234C0000454C000097
:1004CC006A4C00008D4C00009A4C0000BC480000A7
:1004DC00884A0000904A0000C8010020B1030000C7
:1004EC00014B1B68184700BF00000020014B18602F
:1004FC00704700BF0000002030B585B004460D46A3
:10050C0010220021684604F092F902238DF8023083
:10051C002A46044B01932146684603F0A9FA05B01C
:10052C0030BD00BFED04000080B505460E461746F1
:10053C00984603F0D7F8034604F082F9DFF81890D8
:10054C00044649F80030424630463946A84754F82C
:10055C00090000F07DFD00BF080000002DE9F04708
:10056C00058B04462807904611D4022905F007058F
:10057C0040F0CD80204603F061FD78B10138218B2D
:10058C00042811D8DFE800F0C3106D85950001290F
:10059C000CBF45F0100545F02005258388F3118824
:1005AC00BFF36F8FBDE8F08701F0070AAA4500F092
:1005BC00A6800027B9463E46A368002B00F0BD80FC
:1005CC0041F00801218388F31188BFF36F8FA16874
:1005DC00002900F0BB800D68002900F0B780D1F82D
:1005EC000480334652462046C047002D76D02B68F7
:1005FC0029461D46F0E701F007035A1F012A1BD8B4
:10060C00002221F00701062B276889B2C4E90022D9
:10061C0009D13B4603E0628B013262831B68002BDD
:10062C00F9D141F002012183204603F007FD002897
:10063C007BD041F0200177E0042B0AD121F0070197
:10064C0089B22183204603F0F9FC10B141F020015E
:10065C002183218B01F0070AAA4550D00027B94607
:10066C00AAE7236921F0070141F00601062DD3F812
:10067C00009021832DD1B9F1000F40D041F0080139
:10068C00218388F31188BFF36F8F3A492046C847FE
:10069C0029E021F00701236941F0040189B2042DFE
:1006AC00D3F804902183E6D000273E464FF0040A8D
:1006BC0082E721F00701236941F0050189B2052D7C
:1006CC00D3F808902183D6D000273E464FF0050A78
:1006DC0072E700273E464FF0060A6DE72B4687E788
:1006EC00B9F1000FD1D14FF02003EFF3118883F350
:1006FC001288BFF36F8F238B23F008032383258B82
:10070C00EA062ED525F01003238305F0070566694C
:10071C00218B002EBFF66FAF00232768C4E900338E
:10072C0021F0070141F001012183218B01F0070A1F
:10073C00AA454FF000097FF43FAF002F9BD041F04A
:10074C000801218388F31188BFF36F8F002FC7D066
:10075C003D68394633465246204603F09BFC2F46F3
:10076C00F4E7AB067FF51AAF25F02003238305F0E1
:10077C000705FFE6CD40000001F0A4BC2DE9F84FC1
:10078C00DFF8989080460F4616461446BD192D1B6F
:10079C000CB9BDE8F88F08F1FF33032B98BF19F89B
:1007AC0003101F48DFF87CA088BF3F2103F0D0FB6B
:1007BC004FF0000B5C4528D915F80B10504603F090
:1007CC00C7FB0BF1010BBBF1080FF3D11648DFF897
:1007DC005CB003F0BDFB4FF0000A544519D915F875
:1007EC000A10A1F120025F2A28BF2E21584603F0DF
:1007FC00AFFB0AF1010ABAF1080FEED10C4803F075
:10080C00A7FB072CC5D9083CC0E70A4803F0A0FB9E
:10081C00D7E7094803F09CFBEBE700BFD34C000083
:10082C00BF4C0000C44C0000CE4C0000D04C00006B
:10083C00CD520000CA4C0000CC4C000001491022E3
:10084C000A60704710ED00E072B6404080F31188EA
:10085C00BFF36F8FBFF34F8F30BF62B6BFF36F8F95
:10086C00704700BF72B6494081F31188BFF34F8FB8
:10087C0020BF80F3118862B6704700BF37B50546BC
:10088C000C46C9B18B680093D1E900230E48452171
:10089C0003F0AEFC63690093D4E903230B484521B4
:1008AC0003F0A6FCE2690A48452103F0A1FCA26909
:1008BC000848452103F09CFC2146284603B0BDE8BE
:1008CC00304002F049BA00BFD74C00000B4D00007D
:1008DC003F4D0000534D000040B2002807DB044A96
:1008EC004109012300F01F00834042F8213070477A
:1008FC0000E100E0054B420900F01F0053F82220F4
:10090C00012303FA00F01040704700BF00E100E043
:10091C0040B20028A8BF00F1604001F10101B8BF4E
:10092C00064B4FEA4111ACBF00F5614000F00F00DF
:10093C00C9B2B4BF195480F80013704714ED00E02D
:10094C0030BFFFF7FDBF00BF0B4A08B50B4B22F0C1
:10095C007F029A60BFF34F8FBFF36F8FD3F888205D
:10096C0022F47002C3F8882002F084FA02F020FF0F
:10097C0000F0E2FA02F0CCFA0000000000ED00E01A
:10098C00094A0A49936809689967094958674B6885
:10099C0043F080534B60002383F31188BFF36F8FB8
:1009AC009368986F704700BF140300206C4B0000D5
:1009BC0000ED00E012498A684FF030001044EFF36C
:1009CC00098C80E8F01F202080F31288BFF36F8F12
:1009DC000C4F4FF000664A698A603E604FF070041D
:1009EC0014192068084C2060506F0023536780F363
:1009FC00118802F1300090E8F01F8CF309887047E1
:100A0C001403002004ED00E0D40100201EF0040FBC
:100A1C000CBFEFF30880EFF30980816911F8021C19
:100A2C000229FFD001B503F0F0FB01BD42F8203CD8
:100A3C00009B42F81C3C0A49019B42F8183C029B63
:100A4C0042F8143C21F001014FF0807342F8043C51
:100A5C0042F8081C0023203A02654367704700BF28
:100A6C0035050000084B9860084B006F1860104665
:100A7C0081F30988002163B681F31188BFF36F8F6E
:100A8C0000220023FFF750FD14030020D4010020A6
:100A9C0001B5EFF30580A0F110004FEAC000044946
:100AAC00014409C99847BDE80140024908470000C4
:100ABC00E4480000210B0000114B124A2DE9F041D3
:100ACC00D518DFF84480013DB5FBF3F55D430F4BC2
:100ADC0008EB0304013CB4FBF3F403FB04540E1BBE
:100AEC0007460B49304603F094FE7019424600212C
:100AFC00083E03F09CFE3E6704F10800BDE8F0815F
:100B0C0001000000000000000400000004000000D0
:100B1C00644A0000044B99685869884203D0034921
:100B2C004FF080520A6070471403002004ED00E07F
:100B3C0010B5204C2048452103F05AFBA36A9901BB
:100B4C0036D51E48452103F053FB1E20A36ADA015B
:100B5C0004D51B48452103F04BFB1F20154CA36A01
:100B6C001B0304D51748452103F042FB2120A36A3F
:100B7C00590304D51448452103F03AFB22200D4CAF
:100B8C00A36A9A0304D51148452103F031FB2320B5
:100B9C00A36ADB0304D50E48452103F029FB24206E
:100BAC00044A936A6FEA03436FEA1343936210BDDE
:100BBC001D20CBE700ED00E0864D0000A34D0000AA
:100BCC00BB4D0000DA4D0000FD4D0000274E00002B
:100BDC00464E000070B5284C06460D462748452168
:100BEC0003F006FBA36AD9043BD52548452103F045
:100BFC00FFFA1720A36A1A0504D52248452103F0F1
:100C0C00F7FA18201C4CA36A9B0511D51E484521E8
:100C1C0003F0EEFAA26BA36A180408D51B48452111
:100C2C0003F0E6FA1EB1A36A23F40043A362192071
:100C3C00114CA36A590504D51548452103F0D8FA7F
:100C4C001A20A36ADA050ED51248452103F0D0FA12
:100C5C001B20094A936A43F47F43936200232B7051
:100C6C0070BD1620C6E7A36A9B04F2D50A4845213D
:100C7C0003F0BEFA1C20ECE700ED00E0764E00001D
:100C8C00914E0000A74E0000BF4E0000DD4E00004C
:100C9C00F74E0000174F0000344F000070B5294C80
:100CAC0006460D462848452103F0A2FAA36AD80649
:100CBC0046D52648452103F09BFA1120A36A190753
:100CCC0004D52348452103F093FA12201D4CA36A46
:100CDC009A0711D51F48452103F08AFA626BA36A63
:100CEC001B0608D51C48452103F082FA1EB1A36AE5
:100CFC0023F08003A3621320124CA36ADE0704D5F1
:100D0C001648452103F074FA1420A36A9C0604D5F6
:100D1C001348452103F06CFA15200A4B9A6AD10648
:100D2C0058BF9A6A9A6A920642BF5A6A22F40052D3
:100D3C005A629A6A42F0FF029A6200232B7070BDCD
:100D4C001020BBE700ED00E0684F0000834F00006F
:100D5C00A74E0000BB4F0000D84F0000F34F00001F
:100D6C00344F00002DE9F0415F4B5F688AB00446B8
:100D7C00C7F30806002585F31188BFF36F8F02F0C7
:100D8C007F43B3F17F4F07D102F00C03082B14D132
:100D9C005648452103F02CFA00252C464FF000084C
:100DAC00F31E8DF80780092B00F28C80DFE803F02E
:100DBC000A7F837B8A8A8A8A8A8710074CBF0C46F3
:100DCC000125EBE74A48484E452103F011FA8DF80E
:100DDC000780F36A9A0705D54648452103F008FABF
:100DEC00002332E0F36A002B02DA43484521F5E791
:100DFC00F36A5B00F4D54148452103F0F9F97369B6
:100E0C00A26943F480737361BFF34F8FBFF36F8F8D
:100E1C00736932F8022C23F480737361BFF34F8F24
:100E2C00BFF36F8F4DF602739A4208D0B36ADBB2F0
:100E3C005BB30DF107010120FFF730FF35E02268AD
:100E4C002F48452103F0D4F923689DF80720CAB92F
:100E5C0002AE04F1200720686168324603C20834F0
:100E6C00BC421646F7D1099A002D38D0C2F30801BE
:100E7C0021B96FEA52226FEA4222099202A918465E
:100E8C00FFF7FCFC0AB0BDE8F081B36A13F47F4FA6
:100E9C0005D00DF107010120FFF79CFE05E0B36AB8
:100EAC00B3F5803F9CD3FFF743FE0346CDE70DF12E
:100EBC0007010020C0E70DF107010020ECE7114805
:100ECC0045218BE71049114A114817F4F87F08BFE8
:100EDC000A46A6F11003452103F08AF980E722F4B3
:100EEC00FF7222F00102C8E700ED00E0455000005F
:100EFC007550000091500000B7500000CA5000001F
:100F0C00EE5000000F510000175000002C50000054
:100F1C0038510000024A536943F010035361704783
:100F2C0000ED00E0EFF30880EFF3098101B57246A4
:100F3C00FFF718FF01BD00BF044800232021C21891
:100F4C000133272B82F80013F9D1704700E100E040
:100F5C00002080F31488BFF36F8FFFF70DFC002087
:100F6C000D490860BFF34F8F0C4880F3088800F0E0
:100F7C003DF8202080F3118809484FF40061401897
:100F8C0080F30988EFF314800221084380F314885E
:100F9C00BFF36F8FFFF7D8FC94ED00E0A014002096
:100FAC0060070020BFF34F8F0549064BCA6802F457
:100FBC00E0621343CB60BFF34F8F00BFFDE700BF70
:100FCC0000ED00E00400FA050749D1F89020002359
:100FDC00C2F307221846934200DB7047C1F89830E1
:100FEC00C1F8A0000133F6E700ED00E008B572B6D9
:100FFC00002383F31388FFF7E7FF144B4FF0FF3206
:10100C00C3F88020C3F88420C3F88820C3F88C2050
:10101C00C3F89020C3F89420C3F89820C3F89C2000
:10102C00C3F88021C3F88421C3F88821C3F88C212C
:10103C00C3F89021C3F89421C3F89821C3F89C21DC
:10104C0062B6BFF34F8FBFF36F8F08BD00E100E0B6
:10105C00084B9B6883420BD1EFF3058343B1064BDE
:10106C005A6842F080525A605A6A22F400425A621C
:10107C0002F03EBB1403002000ED00E0024B034ADB
:10108C000348012100F06CB8000001200000002092
:10109C00984A0000F8B5244E00258D420FDA4468BA
:1010AC00002C3ED09BB104F1FF3C14EA0C0F08D08D
:1010BC001E482A46452103F09BF86FF01502104696
:1010CC00F8BD1F2CF4D907681CEA070FF0D1202CAF
:1010DC000768D0F808C05FFA82FE10D9B4F1004F4F
:1010EC000FD8013CB4FA84F4C4F11F046400BEF1BF
:1010FC00070F4CEA040C06D90D484521DBE7082400
:10110C00F5E73E24F3E727F01F04144344F01004E2
:10111C00C6F89820C6F89C404CF00104C6F8A040D4
:10112C00013201350C30B8E700ED00E054510000FD
:10113C007C510000044B0522C3F89420BFF34F8F61
:10114C00BFF36F8F704700BF00ED00E0BFF35F8F00
:10115C00024B0022C3F89420704700BF00ED00E062
:10116C0010B5034C01232278FFF794FF207010BDBB
:10117C004403002014490868082810B521D8FFF74B
:10118C00E5FF124C49680022904201F10C0105D197
:10119C000F4B1870FFF7CEFF002010BDC4F898203D
:1011AC0051F80C3C23F01F03134343F01003C4F815
:1011BC009C3051F8043C43F00103C4F8A0300132D8
:1011CC00E2E74FF0FF30E8E7A44A000000ED00E052
:1011DC004403002008B5024B1B689847002008BD4B
:1011EC00D8010020034B044A1860937843F00203A3
:1011FC0093707047D80100200400002008B5064900
:10120C00064821F00701C1F1005202F5803202F0CC
:10121C00D8FE002008BD00BFB3140020A01400208D
:10122C00044A0123C2F840354FF080420020C2F836
:10123C007835704700E0014020B1034B800143F04A
:10124C0001031847704700BF804A0000084B70B577
:10125C00C31A0D4607499B100446594306484022C1
:10126C0003F003F82B4601462046BDE870401847B2
:10127C00F0010020B76DDBB6A848000073B50C4C2C
:10128C000C4A4023041B00930D460B460A49A4103C
:10129C0061430646094803F014F8011E05DA30468E
:1012AC002B4602B0BDE87040184702B070BD00BFBD
:1012BC00F001002039430000B76DDBB6A8480000F0
:1012CC0010B54FF02003EFF3118483F31288BFF3B2
:1012DC006F8F074A136823F00201DB07116002D4F9
:1012EC00012003F0CCF884F31188BFF36F8F10BD8D
:1012FC0040020020002270B5012104461046FFF781
:10130C0007FB0F4801F0C0F80E4B984215D103F0C3
:10131C00A9F826690C49304602F0E0FE00280BDBE8
:10132C00012535642469084904F11C0002F0D6FE3D
:10133C00002801DBE564002070BD6FF00400FBE7C2
:10134C008D1300000000AD0BC44A000070B50146BF
:10135C000C2309484B43C418D4E90E5640330022E1
:10136C001844A26302F06EFF2DB132462B4603489F
:10137C00BDE87040184770BDF0010020A84800007F
:10138C0010B1012804D07047034B1B6C5B0701D1D3
:10139C00FFF7DCBF704700BFF001002008B54FF02D
:1013AC002003EFF3118183F31288BFF36F8F124A7E
:1013BC00136843F002001060DA0708D481F3118837
:1013CC00BFF36F8F0120BDE8084001F06DB84FF0FE
:1013DC008043D3F80C24D3F80C34DB07EED5074844
:1013EC0002F030FF81F31188BFF36F8F0020BDE84E
:1013FC000840FFF7ABBF00BF4002002030020020C6
:10140C001FB500220123CDE90223094ACDF800D0F3
:10141C006B46CDF804D002F082FF002805DB4FF4B8
:10142C0080420023684601F09FFE05B05DF804FB86
:10143C005143000010B5074C23782BB94FF4A5701D
:10144C0003F0DDF801232370BDE81040002001F00B
:10145C002BB800BF450300202DE9F0413849BFF3FC
:10146C005B8F0746012251E8003F41E8002000282D
:10147C00F9D1BFF35B8F33B9324933484B60CB6042
:10148C008A6002F03EFE7B1E012B2BD8012F07D168
:10149C004FF08043D3F81C3403F00303012B21D00D
:1014AC0003F0C1F80546F8B9284B1B78E3B14FF0AF
:1014BC0080430222C3F808230646DFF894804FF0DD
:1014CC008044D4F81824D4F81834D20316D503F079
:1014DC000303012B01D0012F10D15DB386F31188CA
:1014EC00BFF36F8FBDE8F0814FF02003EFF311864F
:1014FC0083F31288BFF36F8F0125DEE7ADB1304661
:10150C00FFF7B0F9D4F81835002BDAD1D4F8042150
:10151C00002AD6D0C4F80431D4F804310123C4F81D
:10152C001835C8F88031A360CBE70021212002F0E8
:10153C00BFF8E7E74FF080430222C3F80423D1E75A
:10154C00EC010020DC0100200C02002057070020D9
:10155C0000E100E010B5044C2046FEF7C7FF204622
:10156C00FFF740FE002010BD79150000F7B5144EB2
:10157C008DF8070004460325EFF311874FF0200187
:10158C0081F3118801220DF10701002001F0B8FB55
:10159C0087F3118820B101233370204603B0F0BDCE
:1015AC003378002BF9D0013D08D003F03CF800282B
:1015BC00E2D10021422002F07BF8DDE73570ECE748
:1015CC004603002008B5074803F01EF838B106485A
:1015DC00FFF708FE0448FEF789FF002008BD6FF0F6
:1015EC001200FBE7D0480000F91500000A2838B5B6
:1015FC00074D044604D1AB680D215B68284698471B
:10160C00AB6803485B68E1B29847204638BD00BF21
:10161C00D048000030B54068057B01F01F04B2F5DE
:10162C00001F85B044EA451405D1204601F024FA88
:10163C00002005B030BD0025B2F5800FCDE9025574
:10164C0014D1B3F1007F0CBF042305238DF80830AF
:10165C000023194602AA204601F042F8214B984279
:10166C0039D10121204601F0BBF9E1E7B3F1C06F9C
:10167C0026D0B3F1007F14BF012302238DF808306C
:10168C00836823FA01F111F00101E1D1B2F1A07FDD
:10169C00DED104F01F03620903F5E0731ED14FF095
:1016AC00A04252F82330DB07D2D40DF107052946AE
:1016BC00204601F041F90C4B984203D00395C7E743
:1016CC000323DBE7284601F085F9064B9842F5D059
:1016DC006FF00B00ADE76FF01500AAE751F823305F
:1016EC00FFDE00BF0000AD0B0400AD0B10B501F028
:1016FC0061F9044668B901F035F9084B98420AD1F2
:10170C000748214601F012F9224605210620FFF771
:10171C00FFF8002010BD6FF00400FBE70000AD0BDC
:10172C0031170000430970B507D10B4B596821B133
:10173C0001250C68094E854001B970BD8A682A40A4
:10174C0002D04B68304698471CB1236821461C4692
:10175C00F2E72346FAE700BF44020020BC48000031
:10176C002DE9FF4147683B7B01F01F0545EA431516
:10177C000E4628460DF10701144601F0DDF814F46D
:10178C00403F80460DD1284601F09CF93D4B9845D1
:10179C0003D19DF8070001F017F9002004B0BDE853
:1017AC00F0810023194602AA2846CDE9023300F045
:1017BC0097FF344B984214D1804503D19DF8070014
:1017CC0001F002F9A3034ED540F206332340B3F5E2
:1017DC00837F1AD00DD8062B18D005D8B3B1022BA5
:1017EC0033D06FF01500D9E7B3F5807FF9D1012321
:1017FC000CE040F20222934229D0B3F5407F28D06E
:10180C00B3F5007FEDD1022300E007238DF80830FB
:10181C0084F48033C3F30043E0068DF8093054BFE1
:10182C00C4F34013032321038DF80A3013D57A68CF
:10183C000123B340C2F80835002202A9284600F063
:10184C00FFFF104B9842A8D0CBE70423DEE705231B
:10185C00DCE70323DAE7620341BF01237A68B34074
:10186C00C2F80C35E8E7E3064FF0000354BFC4F3AD
:10187C00401403241A4602A928468DF8084000F0AB
:10188C002FFFDEE70000AD0BF0B5524D00EB8101F0
:10189C00814201D10020F0BD046804F07F03C4F341
:1018AC0043267F2B4FEA144408BF4FF0FF33192C0B
:1018BC007ED8DFE804F00D13191C1F251C7D7D7DDF
:1018CC007D345D7D7D7D7D7D7D7D7D7D6074777AD4
:1018DC00C2F80C355F1C57D10430D9E7C2F8143567
:1018EC005C1CF9D0002458E0C2F80835F2E7C2F8C5
:1018FC001035F5E75F1CC2F80835EDD0002404E084
:10190C005C1CC2F80C35E7D001245F0953D10127C8
:10191C004FF0A04C07FA03FECCF80CE508E0C2F837
:10192C000835002EDCD15C1CD6D0002427460626B8
:10193C00D0F800E00EF4005CBCF1000F1CBF0124D9
:10194C00002703F01F0C5B093DD14FEA8C0C0CF106
:10195C00A04CCEF3C11EDCF800372B4043EA8E03BB
:10196C0043EA06233B4343EA4403CCF80037B3E78E
:10197C00C2F80C35D5E7C2F860355F1C0468ABD0F3
:10198C00C4F38034002CBFD05C0918D101244FF073
:10199C00A04704FA03FCC7F808C52746C8E7C2F8F5
:1019AC006435EAE7C2F86835E7E7C2F86C35E4E776
:1019BC006FF085006FE70023C3F80C35FFDE0023C2
:1019CC00C3F80835FAE70CF5E07C002353F82C300B
:1019DC00F4E700BFF0F8FCFF074BD3F8082142B145
:1019EC000020C3F80801D3F80821D3F818350B7080
:1019FC0070474FF0FF30704700200040024BD3F887
:101A0C008004C3F8800470470020004010B54B7967
:101A1C00012B1CD18B79032B19D1CB79BBB90A794A
:101A2C0012B1022A13D10E220B68B3F5164F5ED0F9
:101A3C002BD8B3F5165F5CD014D8B3F5966F5AD08B
:101A4C0008D8B3F5967F59D0B3F5167F59D06FF0FF
:101A5C0085004BE0B3F5166F56D0B3F5965FF6D113
:101A6C00334B39E0B3F5E14F51D007D8B3F5615F93
:101A7C004FD0B3F5964FEAD12E4B2DE047F61224FA
:101A8C00A342E4D14FF4000326E0B3F5613F43D009
:101A9C0011D8B3F5963F41D008D84DF6C024A342D7
:101AAC003ED0B3F5614FD2D1234B15E0B3F5E13FF6
:101ABC00CDD1224B10E0B3F5612F34D007D8204C98
:101ACC00A34232D0B3F5E12FC1D11E4B04E01E4C22
:101ADC00A342BCD14FF0805304691C48C0F8243594
:101AEC00C0F86C2503C984E80300002010BD184B16
:101AFC00F2E7184BF0E74FF49E23EDE74FF4A033D9
:101B0C00EAE74FF41C33E7E74FF41D23E4E7124BED
:101B1C00E2E74FF46C13DFE7104BDDE7104BDBE72C
:101B2C004FF46503D8E70F4BD6E74FF08063D3E74C
:101B3C0000B0130000A04E0000F0EB0000E0D70155
:101B4C0090D0030000705F0740420F00002000405F
:101B5C0000509D000050270000F0750000B0AF034E
:101B6C0000903A0100D0BE0EF8B50E4602F05BFDB7
:101B7C001A4D78BB64240127BFF35B8F55E8003FF7
:101B8C00002B03D145E80072002AF7D1BFF35B8F1D
:101B9C0007D021200021013C01F08AFD14F0FF0444
:101BAC00EAD10F4C0023C4F81C31D4F81C310123AA
:101BBC00A360C4F81C654FF47A76D4F81C3123B9B1
:101BCC00012002F04DFC013EF7D10123E36000231C
:101BDC002B60F8BD01232B60E3E700BF500200200F
:101BEC0000200040F7B5134C436807690021C4F886
:101BFC0000151E68054601AA304602F0FBFB0028C2
:101C0C0015DB019B326819791868FFF73DFE002837
:101C1C000DDB39462846FFF7F9FE40B90423C4F81A
:101C2C000035C4F80801D4F808310123236003B04F
:101C3C00F0BD00BF0020004070B5012383400E4A68
:101C4C00BFF35B8FDC4352E8001F01EA040542E856
:101C5C000056002EF7D1BFF35B8F4FF480328240D9
:101C6C000648C0F80823BFF35F8FBFF36F8F0B429A
:101C7C0014BF0120002070BD58020020001001404C
:101C8C0070B40E49D1E90034D01AC31844F10004E1
:101C9C0022F07F46C1E90034A6F50013B3F5400FDE
:101CAC0009D2074B1B681A0A1B069C19054B42F1FB
:101CBC000005C3E9004570BC01F050BE980000203F
:101CCC005C020020A000002011B3BFF35B8F012346
:101CDC00104A834052E800CF4CEA030C42E800C1A2
:101CEC000029F7D1BFF35B8F0B4A4FF4803383404D
:101CFC00C2F80433094BBFF35B8F1B68BFF35B8FD8
:101D0C00C340DB0742BF064B4FF40032C3F800213F
:101D1C00704700BF58020020001001405402002000
:101D2C0000E100E00D4B1868010A0006BFF35F8F5D
:101D3C000B4BD3F80435181841F10001B3F5801F93
:101D4C000AD2084BD3E90023904271EB030303D270
:101D5C0010F1807041F10001704700BF5C0200205F
:101D6C0000100140A00000202DE9F04F85B0164670
:101D7C001F469DF840A00446FFF75EFF0190FFF759
:101D8C00D1FFB04271EB070354D23E4B301A67EBD4
:101D9C000101984271F100014FD23B4B03EB04134C
:101DAC00D3E902239F4208BF96425ED037494FF4D5
:101DBC00803804F1500508FA04F8AD00C1F84883E6
:101DCC002046ADB202F031FB26F07F4B05F1804589
:101DDC0004F5A87305F58835DC464FF0030902932A
:101DEC00029A2CF07F4341F82230C1F84483D1F899
:101DFC000435274A6FF00200C01A604420F07F407F
:101E0C00904232D9286868B1D1F804350393A3EB1A
:101E1C000B0020F07F40B0F5000F26D9204602F0D1
:101E2C0004FB039BBAF1000F07D109EB030C09F17A
:101E3C000109D5E7BAF1000F09D06FF0150520465E
:101E4C000199FFF741FF284605B0BDE8F08F01234B
:101E5C00104ABFF35B8FA34052E8000F184342E8CF
:101E6C0000010029F8D1BFF35B8F07490E982301BD
:101E7C0001EB0412C8500F9B5360C2E902670025A6
:101E8C00DDE700BF01008000880000200010014049
:101E9C00FDFF7F00540200207FB51C4C1C4BC4F886
:101EAC000833C4F848331B4B00254FF0FF304FF07C
:101EBC00FF31C4F80855C3E902014FF48033C4F86C
:101ECC000433154B02264FF400320121C4F804638D
:101EDC001120C3F880212A46FEF71AFD1120FEF7C7
:101EEC00FBFC0E4A0123A360236013600C4B0D4ACC
:101EFC000093CDE9015500232846FFF735FF304606
:101F0C00FFF7AAFA284604B070BD00BF00100140CC
:101F1C0003000F008800002000E100E058020020C0
:101F2C008D1C0000FFFF7F002DE9F7432F4CD4F8E8
:101F3C00043399070BD5D4F8043143B12C4A002350
:101F4C00C4F80431D4F80431136801331360D4F8A5
:101F5C000433DA032AD5BFF35B8F264B53E8002FEB
:101F6C0022F0010143E800100028F7D1BFF35B8F8A
:101F7C00D30702D4D4F84031C3B10025C4F8405182
:101F8C00D4F84031FFF7CEFE4FF02003EFF311826F
:101F9C0083F31288BFF36F8F174BD3E90267B042FC
:101FAC00B94106D282F31188BFF36F8F03B0BDE83D
:101FBC00F0834FF0FF384FF0FF39C3E90289D3E9C2
:101FCC0000101D604FF48033C4F84833C4F84051FE
:101FDC00D4F8403182F31188BFF36F8F0029E5D01C
:101FEC00009032463B4628468847DFE70010014008
:101FFC005C02002054020020880000201FB5431C06
:10200C0023D0012823DD134A134B9042D4BF04463E
:10201C001C46FFF787FE114B0F49D3E90023801AAA
:10202C00B0F5000F28BF002404448C4228BF0C4696
:10203C00A2180B4900914FF00000CDE9010043F1CB
:10204C000003FFF791FE04B010BD034CE1E701243F
:10205C00DFE700BFFEFF7F00FFFF7F00980000203E
:10206C008D1C000008B5FFF75DFE024B1B68C01A03
:10207C0008BD00BF98000020034808B5452102F0B8
:10208C00B7F80020FEF78EFFFF5100004FF07043B1
:10209C0093F8E02F062A09D1D3F8E83FC3F30313D2
:1020AC00033B042B02D8024AD05C704700207047D7
:1020BC0030520000024AD2F80034002BFBD070479B
:1020CC0000E0014010B502F0BCF940B14FF0805374
:1020DC008E4AD3F82433C3F30423C2F84035FFF7F8
:1020EC00D5FF10B18A4B8B4A5A6702F0AAF948B156
:1020FC004FF080534FF08042D3F84432C3F3423355
:10210C00C2F83C35FFF7C2FF30B1834AD2F8FC303D
:10211C0023F08073C2F8FC3002F093F940B14FF019
:10212C0080430022C3F80C21C3F81021C3F83825D2
:10213C00FFF7ACFF20B14FF080430322C3F8A0257A
:10214C00FFF7A4FF60B1754B0522C3F810260122DE
:10215C00C3F888260022C3F818263F22C3F8142699
:10216C004FF08053D3F83021511C09BF4FF070430E
:10217C00D3F8343193F8E02FD3F8E83F08BFC3F31A
:10218C000313062A4DD1033B042B03D8644AD35CBA
:10219C00002B46D04FF08052624BD2F80414C3F897
:1021AC002015D2F80814C3F82415D2F80C14C3F86F
:1021BC002815D2F81014C3F82C15D2F81414C3F83F
:1021CC003015D2F81814C3F83415D2F81C14C3F80F
:1021DC004015D2F82014C3F84415D2F82414C3F8CF
:1021EC004815D2F82814C3F84C15D2F82C14C3F89F
:1021FC005015D2F83014C3F85415D2F83414C3F86F
:10220C006015D2F83814C3F86415D2F83C14C3F82E
:10221C006815D2F84014C3F86C15D2F84424C3F8EE
:10222C00702502F00EF948B14FF080534FF0804208
:10223C00D3F8583203F04F03C2F8E43E02F001F930
:10224C0048B14FF08043D3F80024D20744BF6FF05D
:10225C000102C3F800244FF08053D3F83021062A32
:10226C0026D1D3F83431033B042B02D82E4AD35C4D
:10227C0063B12E4AD2F83C3743F48063C2F83C3742
:10228C004FF08053D3F83031062B11D14FF08053DF
:10229C00D3F83431033B042B02D8254AD35C3BB131
:1022AC004FF01023D3F808224FF08043C3F8582581
:1022BC004FF01023D3F80022002A03DBD3F80432AA
:1022CC00002B22DA1B4901234FF01020C1F80435F2
:1022DC001524FFF7EFFEC0F80042FFF7EBFEC0F845
:1022EC000442FFF7E7FE0023C1F80435FFF7E2FED6
:1022FC00BFF34F8F0849104BCA6802F4E0621343D6
:10230C00CB60BFF34F8F00BFFDE710BD0030014025
:10231C0000C007400DF0ADBA00ED00E000500040E9
:10232C002B52000000C0004026520000001000405C
:10233C002152000000E001400400FA0530B50468A9
:10234C00CCB1BFF35B8FB4FA84F3C3F11F03DBB2E0
:10235C0001229A4024EA020250E8005FA54204D10F
:10236C0040E8002CBCF1000FF6D1BFF35B8FE6D137
:10237C0002480B7030BD0248FCE700BF0000AD0BFB
:10238C000200AD0B10B50368CB40DB0714D401235E
:10239C008B400268BFF35B8F43EA020150E8004FA9
:1023AC00944204D140E8001CBCF1000FF6D1BFF3FD
:1023BC005B8FEED1014810BD0148FCE70000AD0B6E
:1023CC000400AD0BF7B5044618B1012823D003B0B7
:1023DC00F0BD4FF080430222C3F80823C3F8040178
:1023EC00D3F804210122DA60064601238DF8073068
:1023FC0042F210754FF08047D4B1012CE7D1D7F8D9
:10240C000C3403F48033AEBB83B3012002F028F804
:10241C00013DF4D12AE04FF080430022C3F80803B9
:10242C00C3F80021D3F8002158600DF10706DCE752
:10243C00D7F8183403F480333EB9002BC7D00120F1
:10244C0002F00EF8013DF3D1C1E7D7F8182402F0E1
:10245C0003023260002BBAD09DF80700012803D18B
:10246C0001F0FEFF013DC7D1012CB0D1054B00227C
:10247C005A71ACE7D7F80C2402F001023270002B31
:10248C00EAD1F3E760020020044B1A7922B9012249
:10249C0018609A800248704702487047600200201A
:1024AC000000AD0B0C00AD0B38B510B1012843D0BA
:1024BC0038BD4FF08042D2F81814D2F81834C80343
:1024CC002ED503F00303012B04D013B10020FFF72A
:1024DC0079FF00234FF08042C2F818350023C2F870
:1024EC000431D2F804310223C2F80433184AD2F86A
:1024FC00FC0040F08073C2F8FC30164B1C6844F0B2
:10250C00010119605D685968491BB1F50A5FFAD37E
:10251C001C604FF08043C2F8FC0001229A60C7E7B0
:10252C00D2F81434D907D4D5D2F81C349B07CDD4A7
:10253C000223C2F80433BBE74FF080430022C3F8F8
:10254C000021D3F80021C3F804031860B0E700BFE2
:10255C0000ED00E0001000E010B54FF08043D3F820
:10256C0000216AB10022C3F80021D3F80021012216
:10257C00C3F80823114B587910B95A711B68984746
:10258C004FF08043D3F8042172B10022C3F8042128
:10259C00D3F80421D3F81824D3F81824920704D1C3
:1025AC000122C3F818259A6010BD0222C3F8082333
:1025BC00024BBDE810401B68012018476002002048
:1025CC00C0B2034B083033F81000C0F34010704712
:1025DC001C000020C0B2034B083033F81000C0F3CD
:1025EC00400070471C000020C0B2034B083033F889
:1025FC001000400B704700BF1C00002070B500F1AC
:10260C0008030C4C34F81330DA0505460E4607D592
:10261C00C3F3432304EBC30254F833305268984796
:10262C00A3682BB1E26831462846BDE870401847D4
:10263C0070BD00BF1C00002010B4C0B2114A08309D
:10264C0032F81030D9051BD5C3F3432123F4F853CA
:10265C0022F8103002F10E04002034F8023F13F47B
:10266C00807F03D0C3F34323994209D00130202843
:10267C00F3D1002342F83130034810BCFFF782BE7F
:10268C0010BC70471C00002070000020F0B5014603
:10269C00104A114C00200125064602F14043A3F5D7
:1026AC00C2439B0805FA03F3194204D0176817B10B
:1026BC001660176818430432A242EED1074BD3F8C8
:1026CC007C2132B10022C3F87C21D3F87C3140F05C
:1026DC000040F0BD006100402061004000600040FF
:1026EC00F0B5044685B017461D4601B3FFF772FFDF
:1026FC0018B12046FFF764FF08BB0023CDE9003377
:10270C008DF80E308DF80F300DF10F020B46204670
:10271C000DF10E0101F0BFFEE3B24449083331F86C
:10272C00132022F0020242F0010221F8132057B3C9
:10273C0020463E787A68FFF74DFF10B1C2B13C4895
:10274C0023E0E3B2DFF8E4C008333CF8131021F0C7
:10275C002001C904C90C2CF813104AB1032EEED871
:10276C007A6817789EB9334B07F5A27743F8276040
:10277C00E3B22E49083331F8132022F01C0242EA4E
:10278C00860221F813203DBB2B4805B0F0BDBA00E2
:10279C0002F1804202F5C04241EA4731D2F81005FD
:1027AC0020F00300C2F81005D2F8100520F44730D1
:1027BC0020F44070C2F81005D2F810E5200200F4A5
:1027CC00F85040EA0E0040EA064041F020012CF897
:1027DC001310C2F81005CBE7D5E900672046FFF7C8
:1027EC002BFF002ED0D0114DD5E90023964201D1FC
:1027FC009F4219D011480DF10F01FFF79FFD0E4BB1
:10280C009842C2D19DF80F2045F83260E4B205EB36
:10281C00C20308345F6035F8143043EA422343F4B2
:10282C00807325F81430AFE70022EDE71C00002080
:10283C000400AD0B006000400000AD0B70000020E8
:10284C00F0B5044685B0164629B3FFF7C3FE20B990
:10285C002046FFF7B5FE00285FD1E5B2304F0835B2
:10286C0037F8153013F01C0F02D04B78012B54D0D5
:10287C0001238DF80F300023CDE900134A1C8B1C6B
:10288C0020460DF10F0101F006FE37F8153043F02C
:10289C00030327F8153016B9224805B0F0BD2046C1
:1028AC00FFF798FEC8B3E5B21D4F96F800C0083587
:1028BC00614637F81500890020F0200001F18041B5
:1028CC00C00401F5C041C00C27F815000023C1F865
:1028DC0010357278002ADFD0D1F81035B67823F491
:1028EC00981323F4F853C1F8103512042302D1F8CD
:1028FC0010E502F4403203F4F8531343320543EA73
:10290C000E0302F4801240EA4C30134340F02000D6
:10291C0027F81500C1F81035BEE70348BDE700BF26
:10292C001C0000200000AD0B0400AD0B014BC3E9F3
:10293C00020170471C00002008B50246FFF740FE5C
:10294C0040B1D2B2044B0548083233F812305B0B5D
:10295C000B7008BD0248FCE71C0000200000AD0B0A
:10296C000400AD0B70B50F4C94F85860BEB90E4D09
:10297C004022314604F1100001F059FFC5F87C618A
:10298C000620D5F87C31FDF7A7FF4FF00043C5F8C2
:10299C0004330648012384F85830636570BD04483D
:1029AC00FCE700BF1C000020006000400000AD0BE5
:1029BC000500AD0B034B93F85800003818BF0120ED
:1029CC00704700BF1C00002001460148FFF7DABC2D
:1029DC006C00002001460148FFF7B0BC6C000020E1
:1029EC0037B50446FFF7ECFD08B32046FFF7F2FDC0
:1029FC000546E0B92046FFF7F7FD03B29B0003F153
:102A0C00804202F5C24203F1804303F5C0431560D6
:102A1C001268D3F8102542F00102C3F8102521B139
:102A2C00134A01238340C2F8043303B030BDE3B230
:102A3C00104A083332F81330C3F38203042B12D03C
:102A4C00052B12D001A8019401F01BFD019BD0F8BD
:102A5C001015D94001F001010231204603B0BDE848
:102A6C00304001F061BD0321F7E70221F5E700BF1B
:102A7C00006000401C00002008B50246FFF7A0FDD6
:102A8C00C0B11046FFF7A6FDA0B91046FFF7ACFD8C
:102A9C000B4A01238340C2F8083303B29B0003F1B5
:102AAC00804303F5C043D3F8102522F00302C3F88A
:102ABC00102508BDBDE808400021104601F034BDCA
:102ACC000060004073B5C5B2174E0835044636F8A1
:102ADC001530DB0726D5FFF7CFFF2046FFF770FD3B
:102AEC0040B12046FFF780FD104B00F5A27000228C
:102AFC0043F820202046FFF79FFD002301A826F86D
:102B0C001530019401F0BDFC019B00EB8300084BD8
:102B1C00D0F80027134043F00203C0F800370548F3
:102B2C0002B070BD0448FBE71C00002000600040B0
:102B3C00F0F8FCFF0000AD0B0400AD0B2DE9F347E2
:102B4C00534BD3F80403C0B240F00040FFF79EFD96
:102B5C00051E1ADA4FF0A043DFF83881D3F8202590
:102B6C000092C3F820250127009CA4B94FF0004027
:102B7C00FFF78CFD4FF0A042D2F820350093C2F83D
:102B8C002035002BEFD125F000450124002D66D116
:102B9C0002B0BDE8F08794FAA4F4B4FA84F4E00827
:102BAC0004F1080304F0070238F813901DF8003004
:102BBC00019407FA02F223EA02030DF8003001A88F
:102BCC0001F05FFC019B03F5E0734FEA990150F8AB
:102BDC002360C9F3820A4B07D146C6F3014623D5BD
:102BEC0020465146FFF70AFD01A8019401F049FC6B
:102BFC00019B03F5E073F6B250F82330C3F30143A5
:102C0C009E4207D10021204601F08EFC3146204621
:102C1C0001F08AFC01A8019401F033FC019B07FA36
:102C2C0003F3C0F820359FE7022E0CD10321204678
:102C3C0001F07AFC0AF00503012BEBD14946204642
:102C4C00FFF7DCFCE6E70221204601F06DFCBAF14F
:102C5C00030FF3D0032EDDD1BAF1020FEDE795FA95
:102C6C00A5F3B3FA83F304FA03F29B0003F1804358
:102C7C0003F5C04325EA0205D3F81005D3F8101567
:102C8C00C0F30420C1F30141FFF7B8FC7EE700BF9D
:102C9C00006000401C00002008B5144BA822002145
:102CAC00184601F0C4FD0322026111494261114A28
:102CBC008161C2614FF480620262002282624262D0
:102CCC00C26201660C4941661021816603460267A7
:102CDC00C2664267BFF35F8F084911F8010D985423
:102CEC000132102AF9D1BFF35F8F08BD68020020B2
:102CFC004C5200005703002047030020655200008F
:102D0C00F8B5144B182700FB07751D4407FB00335F
:102D1C000E46DB6A012B14460AD0022B14D023B9C1
:102D2C00284601F010FC844208D900242046F8BD46
:102D3C00284601F008FC844228BF0446224631464E
:102D4C00284601F009FCF1E72846BDE8F84001F0FF
:102D5C0022BC00BF68020020F7B504460D464FF0B8
:102D6C002003EFF3118783F31288BFF36F8F01F009
:102D7C0067FD1A4B042C1E5896BF194B194B53F870
:102D8C0024301948002200924521224601F030FAE5
:102D9C003DB1EB69C3F308031BB11448452101F0A5
:102DAC0027FA36B1304601F044FC034608B10278EC
:102DBC0002B90F4B0F483246452101F019FA29464A
:102DCC002046FFF759F987F31188BFF36F8F304610
:102DDC0003B0BDE8F040FEF73BB900BF08000000AF
:102DEC00704B0000665200007C520000A95200009B
:102DFC0074520000CF520000104B70B553F82040B5
:102E0C00013053F82060A64200D870BDD4E90035DB
:102E1C0095B153B12846984738B10028B8BF404205
:102E2C00EB68FF28A8BFFF201870EA68537843F0BE
:102E3C00010353700834E6E79847FBE7844B000026
:102E4C0008B50A4B012203201A70FFF7D5FF00F0DA
:102E5C0009FE0420FFF7D0FF00F006F9FDF7BEFADB
:102E6C00034A137B23F00103137308BD570700209B
:102E7C002801002008B50348034A0021121A01F06A
:102E8C00CEFB08BD880000205C07002070B5002335
:102E9C0086B00122CDE90423174E184D01930F2261
:102EAC00CDE902321649142303FB005506EBC0167C
:102EBC004FF4A0720446134B009502FB00113046F0
:102ECC0000F094F8737B2C7423F0040373730E4B93
:102EDC00EE60013403EBC4236B600C4BBFF35B8FD0
:102EEC0053E8001F013143E80012002AF8D1BFF368
:102EFC005B8F06B070BD00BFA8000020140300203B
:102F0C00600F0020434600006007002010030020E3
:102F1C0080B50020A6B0FFF76FFF2D4B83F3088818
:102F2C002C4D2D4E6B692D4F43F400736B610024B7
:102F3C00E02385F82230EC772C766C76AC7685F82D
:102F4C0020406B6A43F4E0236B6285F82340FDF765
:102F5C00E1FFFDF773FC4FF0FF33AB62EB62FEF762
:102F6C0009F9FEF78BF840F20113ADF8243006ABEB
:102F7C00B360CDE91E44219401F045FB0120FFF71D
:102F8C003BFF0220164DFFF737FF00F007FB154BF8
:102F9C0075610593012314490094CDE903434FF463
:102FAC0080623B46CDE90144284600F01FF86A7B5D
:102FBC00064622F0040228466A7301F082FB204682
:102FCC00FFF764FF3A4631462846FDF74BFD00BF3C
:102FDC00600F002000ED00E0140300204D2E0000D7
:102FEC002801002036530000A01000202DE9F043EA
:102FFC0085B0984600F158030732C0E91633109B90
:10300C00037322F0070504230026437301EB050923
:10301C000F9B83730F46C0E9066649468660C673EC
:10302C000446FDF749FD07300E9B20F00700A06613
:10303C00C4E9187502930D9B0193A9EB00090C9B35
:10304C0000934A46434639462046FDF7EFFC054BB4
:10305C0066659B6803B1DB6EE366484605B0BDE868
:10306C00F08300BF140300202DE9F043294C2A4DB6
:10307C0087B02646AE4204F12C040FD300F05EFA62
:10308C00244CDFF898904FF4004640F2E737AC42FE
:10309C0020D307B0BDE8F04300F064BA54F8043C08
:1030AC00059354F80C3C049354F8103C039354F8D7
:1030BC00143C029354F8183C019354F81C3C0093B4
:1030CC0054E9092354E90B01FFF790FF54F82C3C09
:1030DC005E65CEE7636A5A1C0DD023EAE3730021C8
:1030EC003846C3FB060151EAC333D4F8008004D13F
:1030FC00404600F0D3F92C34C9E74FF47A72002320
:10310C00FCF7E6FF02460B4608F11800494600F0B2
:10311C00AFFBF0E71C4A00001C4A000033470000DC
:10312C0038B504464FF02003EFF3118583F3128872
:10313C00BFF36F8F01F0FBFA48B10022826701F0F8
:10314C00C0FA29460748BDE8384000F095B9D4E9E3
:10315C0002329A4218BF0133A36085F31188BFF382
:10316C006F8F38BD5807002013B54FF02004EFF3D4
:10317C00118184F31288BFF36F8F846844B1013CD2
:10318C00846081F31188BFF36F8F002002B010BDF3
:10319C0052EA030406D181F31188BFF36F8F6FF0ED
:1031AC000F00F3E7CDE900230246024800F046F990
:1031BC00ECE700BF58070020C3897F2B12D80A4BBD
:1031CC001B6863B1094B90F90E201B689A4209DB0E
:1031DC00437BDB0606D1064BC31A18BF012303F051
:1031EC00010070470023FAE73C030020380300205D
:1031FC00A8000020044BC01A044BC0105843044BC9
:10320C0001221A54704700BFA8010020ABAAAAAA39
:10321C005807002070B50E4B0E4C1E7C06EB460377
:10322C0004EBC3040546204601F0B3FA0A4B002216
:10323C0028469A55FFF7C0FF48B1084B08491A6851
:10324C00013A2046D317BDE8704000F011BB70BDA9
:10325C0014030020A8010020580700203C03002084
:10326C000132000038B50D4D2B4653F8184F9C42D7
:10327C0000D004B9EC68AB6838B95A7BD20604D1DB
:10328C00A26912B9DA897F2A05D89C4202D020465D
:10329C00FFF7C0FF23466B6138BD00BF140300204D
:1032AC0070B590F90D20437B002A014604DA03F037
:1032BC007F03437301F0CBF94B7B154A63F07F031B
:1032CC0010464B7350F8183FD469834208BF002353
:1032DC0023B9C1E900042160D1610CE091F90E50D1
:1032EC0093F90E60B5420ED0AE420CDD5868C1E9C0
:1032FC000030016059609068431A5842BDE8704034
:10330C005841FFF7AFBF9C42E3D01B68E0E700BF1A
:10331C001403002070B490F90D30427B002B29DB94
:10332C00D30627D183692BBB134962F07F0242730A
:10333C000A4652F8184F944218BF2346CC6923B959
:10334C00C0E900242060C8610CE090F90E5093F99C
:10335C000E60B5420AD0AE4208DD5A68C0E90032B0
:10336C001060586070BC0020FFF77CBFA342E7D010
:10337C001B68E4E770BC70471403002008B590F993
:10338C000D20437B002A014604DA03F07F034373CC
:10339C0001F05DF9044B9868431A58425841BDE856
:1033AC000840FFF75FBF00BF1403002070B515463F
:1033BC001C46064601F05DF9B4F1FF3F08BFB5F1BC
:1033CC00FF3F08D02A46234606F118000249BDE803
:1033DC00704000F04DBA70BD3347000038B54FF067
:1033EC002003EFF3118583F31288BFF36F8F104B1B
:1033FC00104A9C681068A04206D1FFF70BFF85F3BA
:10340C001188BFF36F8F38BD00211B7C11600A4AF5
:10341C00D35C002BF3D02046FFF7CEFE0028EED075
:10342C00637BDB0602D12046FFF73AFF2046E4E738
:10343C0014030020340300205807002070B50C48FA
:10344C000C4D86682E600C461146DDE904234FF0C6
:10345C002006EFF3118586F31288BFF36F8F806817
:10346C00FFF7A4FF2046BDE87040FDF789BA00BF06
:10347C00140300203403002049B9EFF3058030B960
:10348C00054B5A699B689A4201D0FDF779BA81F3D2
:10349C001188BFF36F8F70471403002010B54FF0E5
:1034AC002002EFF3118482F31288BFF36F8F427BFB
:1034BC00510704D484F31188BFF36F8F10BD22F031
:1034CC0004024273FFF726FF21460248BDE8104074
:1034DC00FFF7D2BF5907002070B50446183001F031
:1034EC0058F94FF02003EFF3118683F31288BFF3E2
:1034FC006F8F94F90D20637B002A05DA03F07F03AC
:10350C006373204601F0A3F80B4D637BA86843F06E
:10351C0010036373031B58425841FFF7A3FE86F355
:10352C001188BFF36F8FAB68A34203D1BDE8704025
:10353C0001F025B970BD00BF140300204FF020032B
:10354C00EFF3118183F31288BFF36F8F044B9A68EA
:10355C00D37B013BD37381F31188BFF36F8F70471B
:10356C001403002010B54FF02003EFF3118483F304
:10357C001288BFF36F8F084B9A68D37B0133D373D8
:10358C000020FFF76FFE84F31188BFF36F8FBDE847
:10359C00104001F0F4B800BF14030020024B03F1FB
:1035AC001802C3E90622704714030020F8B54FF047
:1035BC002003EFF3118583F31288BFF36F8F194942
:1035CC008868437B03F07F03437301F040F88B68FA
:1035DC005A7B084662F07F025A7350F8182FCC6958
:1035EC00824208BF002222B9C3E900042360CB61E8
:1035FC000CE093F90E6092F90E70BE420ED0B742F9
:10360C000CDD5168C3E900210B6053600120FFF70A
:10361C0029FE2846BDE8F840FDF7B2B9A242E3D036
:10362C001268E0E71403002050EA01032DE9F04191
:10363C0005460E4603D1FFF7B9FF00202CE0831C92
:10364C0071F1FF332ADB01F0BAF82C184FF020038C
:10365C00EFF3118883F31288BFF36F8F114F124B66
:10366C00B8681860FFF78AFEB86810492A463346D6
:10367C00183000F0FDF8BA68537B43F01003537315
:10368C004046FDF77DF901F09AF8201A63EB03032D
:10369C00012873F10003D0DBBDE8F0816FF0010469
:1036AC00241AD3E71403002034030020334700000E
:1036BC00B1F1FF3F08BFB0F1FF3F08B506D1084B91
:1036CC009868FFF709FF4FF0FF3008BDFFF7ACFF1C
:1036DC004FF47A7380FB0303C00B40EA4340F4E7DA
:1036EC0014030020014B9868704700BF140300209E
:1036FC002DE9F04104464FF02003EFF3118683F3DC
:10370C001288BFF36F8F037BD9070BD586F3118813
:10371C00BFF36F8F404080F311884FF0040002DF3D
:10372C00BDE8F081437B1A0704D586F31188BFF3FB
:10373C006F8FF5E723F0200242F00801D20920D167
:10374C004173A36813B1204600F089FF04F11800FF
:10375C0001F01FF804F158074FF00008A56DBD42A9
:10376C0000D0B5B90120FFF77DFD104B9B68A3423B
:10377C00DBD1EFF30583002BD7D13046FDF700F9F1
:10378C00D3E703F05F0343F00803437300F05FFFDC
:10379C00D7E7284600F063FF05F1180000F0F9FFA9
:1037AC00C5F878802846FFF7B5FDD7E7140300204D
:1037BC0008B50648064A0749121A00F032FFBDE860
:1037CC000840054A0549064800F02BBF00000020C0
:1037DC0086000020785300000000000078530000A1
:1037EC0000000020034B1B680BB9FEF73BBC00200C
:1037FC00704700BF4003002010B50E4B1C689C4264
:10380C0004D1FFF7EFFF6FF0004010BDFFF7EAFFA8
:10381C00002CF8D0D4E904321B1A62EBE072B3F13D
:10382C00004F72F10001EEDA002AACBF18460020FE
:10383C00EBE700BF7800002030B570B10B4B5B6834
:10384C0098420AD0036843B1D3E90421D0E9044576
:10385C00121941EB0501C3E90421D0E900321360D0
:10386C005A600023C0E9003330BD00BF780000204F
:10387C00B3F1FF3F08BFB2F1FF3FF8B504461D4658
:10388C0016465CD081604FF02003EFF3118783F371
:10389C001288BFF36F8F013275F1FF3324DA2D4993
:1038AC00D1E900206FF001039B1A4FF0FF3262EB5D
:1038BC0000009E1B60EB0500012E70F1000301DA85
:1038CC0001260020C4E90460234ED6F800C07568B8
:1038DC00B44508BF4FF0000CBCF1000F0DD1C4E98A
:1038EC0000652C6074601CE0FFF77CFF013645F12D
:1038FC000005361845EBE070E4E7DCE90420D4E978
:10390C000431934271EB000E1ADAD21ADCF804304F
:10391C0060EB0100CCE90420C4E900C31C60CCF8C6
:10392C0004403368B34206D09C4204D1FFF764FFD5
:10393C000021FEF763FB87F31188BFF36F8FF8BD8F
:10394C009B1A61EB0001AC45C4E90431C7D0DCF82B
:10395C0000C0C1E7C0010020780000202DE9F84F1D
:10396C004FF02003EFF3118C83F31288BFF36F8FAA
:10397C00DFF8B0A0DFF8B0902C4FC9F80000DAF8EF
:10398C0000000024504508BF00200025D7E9002185
:10399C00D9F80030E04680B3D0E9046C4FEAE37EFE
:1039AC00B3427EEB0C0B05DAF61A6CEB0E04C0E995
:1039BC00046422E0B21841EBE671C0E90445C7E9A2
:1039CC000021FFF739FF88F31188BFF36F8F8368ED
:1039DC0098474FF02003EFF3118883F31288BFF35D
:1039EC006F8FD9F80030DAF800009B1B5045C446A5
:1039FC00C9F80030CAD1D7E900219A1841EBE3731A
:103A0C000024C7E90023C9F80040FFF7F5FE214662
:103A1C00FEF7F4FA88F31188BFF36F8FBDE8F84F07
:103A2C00FFF7DCBC7800002040030020C001002020
:103A3C0010B54FF02003EFF3118483F31288BFF31A
:103A4C006F8FFFF7CFFE064A0346D2E90001181824
:103A5C0041EBE37184F31188BFF36F8F10BD00BF8E
:103A6C00C0010020014800F073BA00BF3E530000B3
:103A7C002DE9F04F8BB0436801938378814698070A
:103A8C00144640F1098100250F78002F00F00681C3
:103A9C00252F0BD04B1C02930135019B4946384610
:103AAC0098470028C0F2F2800299EDE74F788B1C02
:103ABC00252F0293F0D000239A469846B8F11F0F99
:103ACC0037D8A7F12002102A0AD8DFE802F029091A
:103ADC00092F0909092009090927092C09091E00C0
:103AEC00A7F13002092A32D92A2F36D118F0400F0B
:103AFC0054F8042B7ED1002AA7BF48F02008924628
:103B0C00C2F1000A48F0280801E048F00108029AC6
:103B1C0012F8017B0292002FD0D130E048F002085D
:103B2C0048F00408F3E748F00808F0E748F01008FC
:103B3C00EDE7B8F17F0F19D8A7F13002092AD3D8D5
:103B4C0018F0400F03D00A2101FB0323DFE70A2101
:103B5C0001FB0A2A48F02008D9E72E2F06D118F0CD
:103B6C00400F40F09B8048F04008D0E76C2F2ED0DF
:103B7C0028D8682F33D06A2F39D04C2F37D0002B50
:103B8C0047F02002B8BF28F04008A2F16501BCBF85
:103B9C001FFA88F80023022901D9612A2CD1073495
:103BAC0024F00704A24E0834072718F0080F64D03D
:103BBC0006EB070BB046D84561D1AE1BB044AAEB5F
:103BCC00070A62E1742FA2D07A2FA0D0D7E718F0A1
:103BDC00800F18BF48F4007848F0800897E718F475
:103BEC00807F18BF48F4007848F480788FE748F459
:103BFC0020788CE713468AE7A7F16301122900F2BB
:103C0C00E080DFE811F013004F00DE00DE00DE0084
:103C1C00DE004F00DE00DE00DE00DE00DE00EE0027
:103C2C00D900DE00DE001A00DE00A30054F8043BCD
:103C3C008DF81C30012707AEB7E754F8046B7D4AAA
:103C4C00002E08BF164618F0400F14BF19464FF04F
:103C5C00FF31304600F0B7FD0746A6E7019B494609
:103C6C0020209847002811DB08F1FF384745F5D391
:103C7C005544A5EB0805C2469AE7D046F6E718F876
:103C8C00010B019B49469847002894DA99F80230B9
:103C9C0043F0040389F802304FF0FF3528460BB08F
:103CAC00BDE8F08F18F0800F2ED018F4007F1BBFEA
:103CBC00073424F0070454F8040B54F8080B28F0CC
:103CCC0010060028B6B22ADA404246F48066039306
:103CDC000DF11C080A22414600F081FD7206039B7F
:103CEC00A0EB080853D526F00101434589B240F3F7
:103CFC009380002F00F08B8016F01002039240F09E
:103D0C008D809B460E4616E018F4807F54F8040B09
:103D1C00D5D018F4007F14BF40B200B2CFE7D6D193
:103D2C0018F0400FD3D0002BD1D128F011081FFA76
:103D3C0088F69B46984640F2064116EA0102039229
:103D4C001EBF00220BF1010B039228E028F0100893
:103D5C001FFA88F80A2218F0800F45D018F4007F5B
:103D6C001BBF073424F0070454F8040B54F8080B59
:103D7C00002844D128F0160618F0400FB6B242D0F5
:103D8C00002B40D128F017081FFA88F6984616F039
:103D9C001002039249D0002F45D108F1010B3107D5
:103DAC005CD4F20706D5DA4572DDAAEB0B0202EB06
:103DBC000803D3465A464BE048F0100810227827E7
:103DCC00C9E7782A04D1C7F1780242F01002C2E7A1
:103DDC00019B4946252098470028FFF657AF02352E
:103DEC005BE608220027B6E718F4807F54F8040B32
:103DFC00BED018F4007F14BFC0B280B2B8E728F070
:103E0C0006081FFA88F603930DF11C0863E726F0E9
:103E1C001106B6B29B468EE70E46B8E71A460E461A
:103E2C0002F1020BBBE74246FAE7C34683E700BF49
:103E3C006D53000066530000CDE904324946019BE6
:103E4C00202098470028FFF621AF059A049B0132E9
:103E5C009245F1DCA5EB0B018D189346039A1AB32E
:103E6C0003934946019B302098470028FFF60EAF7C
:103E7C00039B7FB901355E19711B414526DC464613
:103E8C0007AF66BBA844AAEB0B0A4546C24437E011
:103E9C0043468FE70393023549463846019B9847C2
:103EAC000028039BE7DAF1E640F206410E42E2D02D
:103EBC0016F0020F14BF2B20202016F4806F0393F2
:103ECC0005F10105494618BF2D20E7E7019B49463E
:103EDC0030209847002805F10105CDDAD6E6013EE1
:103EEC00019BB85D494698470028CADACEE6019B8B
:103EFC00494620209847002805F10105FFF6C6AE7B
:103F0C00AAEB0503002BF2DCCEE500BF7047F0B442
:103F1C0003460A461979DB8800681343DC0287687C
:103F2C00066906D513F4402F03D0DA0748BF83F493
:103F3C004023346801258D4023F48012DB074CBFED
:103F4C002C43AC4334603B68F0BC184700207047EE
:103F5C000FB407B504A951F8040B0191FCF7CCFA86
:103F6C0003B05DF804EB04B0704700EBC10040886F
:103F7C0040087047F8B50346FFF7F7FFB0FA80F03A
:103F8C00C0F11F0003EB800CCA00DCF81060171D99
:103F9C000C4606328DB256B9012101FA00F0D968EF
:103FAC000143D960CCF81040DD539D52F8BDF100AF
:103FBC000431585AD85303EBC0009E52C5805D5251
:103FCC00F4E7043A2DE9F041CC1D114424F0070428
:103FDC0021F007010E1BF708B7FA87F2C2F124058E
:103FEC00AD004FF000080735C2F12002ED08046067
:103FFC004146A760C4F80C80920004F1100000F058
:10400C0016FC6B0043F00103638004EBC5027B1BC1
:10401C005900A4F800805180A21924F83550A2F858
:10402C000280A35304EBC70329465A8842F00102CD
:10403C005A802046BDE8F041FFF79CBF038B13F07C
:10404C00070305D10368002B0CBF00200320704729
:10405C00022B05D1408BB0FA80F0400980007047EC
:10406C00012B05D10368002B0CBF002005207047E5
:10407C000020704710B50C4600B111B96FF0150057
:10408C0010BD081D00F095F80028F9D1A368032B8A
:10409C00F6D9F3E72DE9F0410D4607461946281DE0
:1040AC0090461E4600F096F8044638B13346424618
:1040BC0029463846A446BDE8F0416047BDE8F0818A
:1040CC0010B44FF02004EFF3118284F31288BFF385
:1040DC006F8F416110BC0121FCF740BA38B50C461A
:1040EC00054658B151B10B6843B14B6833B11C2232
:1040FC00002100F09CFB2C61002038BD6FF01500F6
:10410C00FBE770B505460E46FFF7B4FF041E15DB42
:10411C004FF02003EFF3118283F31288BFF36F8FFC
:10412C006B8B2C8B4FF6FF718B4204F0070407D17D
:10413C0082F31188BFF36F8F6FF00A04204670BDB5
:10414C00022C0CD101336B8382F31188BFF36F8F78
:10415C000023224631462846FFF79CFFEEE7062C4B
:10416C0014D8DFE804F004131313041A040000231A
:10417C0033606B683BB9C5E90066ACB902212846CF
:10418C00FCF7ECF9DAE71E606E60F6E782F3118853
:10419C00BFF36F8F6FF00404D0E782F31188BFF385
:1041AC006F8F6FF08504C9E782F31188BFF36F8FAF
:1041BC00C4E7034658B1426802F00302012A03D057
:1041CC00032A04D1026812B10020986070476FF086
:1041DC00150070474268816002F00302032A4FF019
:1041EC00000203460CBF006810465A6070477047C7
:1041FC000FB407B504A951F8040B0191FCF77CF935
:10420C0003B05DF804EB04B0704701460068FCF79E
:10421C0035BB00210120FCF731BB08B5FCF790FB46
:10422C00BDE80840FCF776BC08B5FCF7D3FF0020CE
:10423C0008BD0369C9B20C2201FB0233186C00F0F3
:10424C00070070474FF02003EFF3118283F31288BD
:10425C00BFF36F8F036803F0C00343F002030360E6
:10426C0082F31188BFF36F8F704770B5C9B20369C1
:10427C004FF02004EFF3118584F31288BFF36F8F96
:10428C000C2606FB0134246C14F0C00408D0A242A6
:10429C0006D085F31188BFF36F8F4FF0FF3070BDE0
:1042AC0071430B4401221A6485F31188BFF36F8F9D
:1042BC0043680B445B6898470020F0E78022FFF7C7
:1042CC00D4BFF8B5069F0469C9B24FF02005EFF3CF
:1042DC00118685F31288BFF36F8F0C2569430C444C
:1042EC00256C05F0070CBCF1010F0BD1276486F38C
:1042FC001188BFF36F8FC4E90E2343685B5898474E
:10430C000020F8BD05F0C005AF4286F31188BFF35D
:10431C006F8F0CBF6FF077004FF0FF30F1E713B5E4
:10432C0080240094FFF7CDFF02B010BD10B40069DB
:10433C00CBB21C2403FB0400002110BC104700204E
:10434C0000F09DB81046FEF7EBBE43685B68D3F8EF
:10435C0010350B600020704743685B6802EA01006F
:10436C0021EA0201C3F80805C3F80C1500207047B8
:10437C0043685B680020C3F80815704743685B68A6
:10438C000020C3F80C15704743685A68D2F80435FE
:10439C0021EA03000B40C2F80805C2F80C350020D6
:1043AC00704710B503695868F8B1884219D19C68F8
:1043BC0008685860A14200D19860002008602AB1BA
:1043CC005A680A609A68596002B99960002010E036
:1043DC00814206D10868206098688142EDD19C60CA
:1043EC00EBE7044600680028F2D1002AE8D16FF010
:1043FC00150010BD30B543681360057A446804EBB2
:10440C00C504A34202D36FF0010030BD5C798C422D
:10441C0001D00833F0E70020F7E702690B4692E879
:10442C00030083E803000020704700F150039B0059
:10443C009BB203F1804303F5883300221A601B689A
:10444C0070474FF08053D3F83001421C04BF4FF03B
:10445C00704393F8E00F831F584258417047004750
:10446C0000F0CDB808B50020FCF744FA08B9FCF709
:10447C0033FA4FF080430022C3F8182508BDFDF72E
:10448C00A1BF036803F01F025B0902600CBF4FF071
:10449C00A04000207047F7B5019001A8DDE908475E
:1044AC0016461D46FFF7EDFF019BB6F1000C18BF39
:1044BC004FF0010C00EB83000B1E18BF0123002DE5
:1044CC0043EA4C0314BF4FF00C0C4FF0000C002CC3
:1044DC0043EA0C0314BF4FF4E06C4FF0000C002FB8
:1044EC0043EA0C03D0F8002714BF4FF4403C4FF0C4
:1044FC00000C43EA0C0322EA030301B109780EB164
:10450C003678760019430DB12D78AD0031430CB1DE
:10451C002478240229430FB13F783F040C433C43D9
:10452C00C0F8004703B0F0BD1FB50DF10F030193A8
:10453C0000238DF80F1000931A461946FFF7ABFFB6
:10454C0005B05DF804FB0369C26893429CBF8168A7
:10455C005B18013B981A70472DE9F0410446D0E9ED
:10456C000280D4F804C0A8EB0006964200EB0205CA
:10457C000F46604406D900F04CF9BFF35F8FE5603D
:10458C00BDE8F0813246A5EB080500F042F9606801
:10459C002A46B919EFE72DE9F843C568064689465E
:1045AC0017464FF000083369B46870689D4228BF05
:1045BC001B19641BBC4203F1FF3328BF3C465B1B39
:1045CC009C4228BF1C4649462246284400F021F94B
:1045DC00B3682544A044A1443F1BAB4208BF00254F
:1045EC00BFF35F8FF560002FDDD14046BDE8F88347
:1045FC00FEF752BB08B5FFF7FBFF002008BD08B162
:10460C00FCF71ABE7047704740B1C368587810F079
:10461C0001001EBF1878B0FA80F04009704700F016
:10462C0006B900F0F6B8EFF30580003818BF01208A
:10463C0070470020704708B54FF02002EFF311834C
:10464C0082F31288BFF36F8FFCF7FEF8F4E7D0E922
:10465C00003213605A600023C0E90033704708B57C
:10466C00FFF7F5FF437B23F00203437300238360C2
:10467C0008BD38B504460D46FEF780FE637B43F05B
:10468C0002036373E5B1A5602B689D4209D16B6889
:10469C00C4E900531C606C6012E06A689342F6D067
:1046AC001B68002BF3D094F90E2093F90E108A425C
:1046BC00F3D09142F1DD5A68C4E9003214605C60B9
:1046CC0038BD10B54FF02003EFF3118483F312883B
:1046DC00BFF36F8FFEF71EFE84F31188BFF36F8F4D
:1046EC0010BD38B504464FF02003EFF3118583F36A
:1046FC001288BFF36F8F437B13F0280F0BD18368A5
:10470C000BB1FFF7ACFF637B51B903F0FB03637391
:10471C002046FEF7FFFD85F31188BFF36F8F38BD80
:10472C0003F0EB03F3E701211838FFF7DABF38B5D4
:10473C004FF02003EFF3118583F31288BFF36F8FD3
:10474C000468A0420DD034B12046FFF788FF04F175
:10475C00180000F01EF885F31188BFF36F8F204608
:10476C0038BD0024F7E7034620B9EFF305820AB9F8
:10477C00FCF706B983F31188BFF36F8F70474FF0C6
:10478C002003EFF3118083F31288BFF36F8FFFF7D1
:10479C00EABF10B54FF02002EFF3118482F31288B8
:1047AC00BFF36F8F03683BB1FFF746F8002084F32B
:1047BC001188BFF36F8F10BD6FF01500F7E708B5C8
:1047CC00FFF736F908BD10B5024601448A4213467C
:1047DC0003D01C780132002CF8D1181A10BDF0B59A
:1047EC00C2F137050446EDB202F01F020846B4FBD5
:1047FC00F2F602FB1641CBB2092988BF5B1927469A
:10480C0088BFDBB23033BA4200F8013B3446EED9F4
:10481C00F0BD0A44914200F1FF3300D1704710B54E
:10482C0011F8014B03F8014F9142F9D110BD02442C
:10483C000346934200D1704703F8011BF9E70000CF
:0C484C000148006870470000D401002003
:08485800B8B8FF7F0100000069
:104860002D1200000000000001130000A848000005
:104870000146000000000000F9160000BC480000DE
:10488000F11B0000D048000061150000000000008E
:10489000D115000000000000A51E0000000000006F
:0848A0000912000000000000F5
:1048A800BA510000D04A0000E84A00008000002009
:1048B800F0010020E3510000044B0000144B0000FD
:1048C8008200002044020020F1510000384B000013
:0C48D800584B0000840000201400002059
:1048E400652500006B440000000000001F4200002A
:1048F400000000001F420000000000001F420000F2
:10490400000000001F420000000000001F420000E1
:10491400492B00006B440000000000001F4200000F
:10492400000000001F420000000000001F420000C1
:10493400000000001F420000000000001F420000B1
:10494400000000001F420000000000001F420000A1
:10495400000000001F420000000000001F42000091
:10496400000000001F42000000000000351F00008E
:10497400000000001F420000000000001F42000071
:10498400000000001F420000000000001F42000061
:10499400000000001F420000000000001F42000051
:1049A400000000001F420000000000001F42000041
:1049B400000000001F420000000000001F42000031
:1049C400000000001F420000000000001F42000021
:1049D400000000001F420000000000001F42000011
:1049E400000000001F420000000000001F42000001
:1049F400000000001F420000000000001F420000F1
:104A0400000000001F420000000000001F420000E0
:084A1400000000001F42000039
:104A1C00A24C000004000000355200000000000011
:104A2C004052000000000000AE4C000003000000EB
:104A3C00D5510000030000001552000003000000D7
:104A4C0050510000030000003B5300000300000025
:084A5C00B65100000300000048
:0C4A6400FFFFFFFFFFFFFFFFFFFFFFFF52
:104A7000000102030405060748656C6C6F00000026
:104A80000338FDD870470000BC4800000E0001004C
:104A9000BC480000020011000000002000000000DF
:104AA00000000B0602000000AC4A000000000000FD
:104AB000A75100002400020700000020AF510000B1
:104AC0001E000B11891200005912000000000000A6
:104AD000A9130000CD120000C951000041140000CC
:104AE0004B430000CF5100000D140000C9420000EC
:104AF0002B430000000000003F42000000000000C7
:104B000000000000FFFFFFFF000000500000000059
:104B1000000000006D1700005743000065430000CF
:104B20007D430000894300009543000021160000EA
:104B3000AF430000000000003C4B0000002000409C
:104B4000484B000001000000504B00000200000034
:104B5000050000000B000100E5190000751B0000B6
:104B6000091A0000191A000027440000F5FFFFFF92
:104B7000EC520000FA5200000E5300001D530000DA
:104B80002953000060480000604800009848000079
:104B9000A0480000A8480000A848000025633A206B
:104BA00043616C63756C6174696E6720746865201D
:104BB000666163746F7269616C73206F66206E75D5
:104BC0006D62657273203120746F2025643A0A008B
:104BD00025633A2054686520666163746F72696169
:104BE0006C206F6620253264203D20256C640A000D
:104BF00025633A206E524620436F6E6E65637420C3
:104C000053444B2046756E64616D656E74616C73C0
:104C10000A0025633A20457865726369736520252B
:104C2000640A0025633A2041206C6F67206D65732C
:104C30007361676520696E206465627567206C65C5
:104C400076656C0A0025633A2041206C6F67206D01
:104C500065737361676520696E207761726E696E36
:104C600067206C6576656C210A0025633A20412037
:104C70006C6F67206D65737361676520696E206571
:104C800072726F72206C6576656C210A0053616DDB
:104C9000706C652044617461210025633A2025739E
:104CA0000A004C657373345F457865723300636244
:104CB0007072696E74665F7061636B616765002511
:104CC000633A2000253032782000202020007C002C
:104CD0002563004557494425633A2072302F6131DE
:104CE0003A2020307825303878202072312F6132F8
:104CF0003A2020307825303878202072322F6133E6
:104D00003A20203078253038780A0025633A20721E
:104D1000332F61343A2020307825303878207231B2
:104D2000322F69703A20203078253038782072315F
:104D3000342F6C723A20203078253038780A0025DC
:104D4000633A2020787073723A202030782530380A
:104D5000780A0025633A204661756C74696E672095
:104D6000696E737472756374696F6E2061646472C6
:104D700065737320287231352F7063293A2030789B
:104D8000253038780A0025633A202A2A2A2A2A2040
:104D90005553414745204641554C54202A2A2A2A3A
:104DA0002A0A0025633A2020204469766973696FD6
:104DB0006E206279207A65726F0A0025633A20209E
:104DC00020556E616C69676E6564206D656D6F72EC
:104DD00079206163636573730A0025633A2020209C
:104DE0004E6F20636F70726F636573736F722069AB
:104DF0006E737472756374696F6E730A0025633A1B
:104E0000202020496C6C6567616C206C6F616420A8
:104E10006F66204558435F52455455524E20696E87
:104E2000746F2050430A0025633A202020496C6C9F
:104E30006567616C20757365206F662074686520F6
:104E4000455053520A0025633A202020417474656E
:104E50006D707420746F2065786563757465207556
:104E60006E646566696E656420696E7374727563DD
:104E700074696F6E0A0025633A202A2A2A2A2A209A
:104E8000425553204641554C54202A2A2A2A2A0AA0
:104E90000025633A202020537461636B696E67209C
:104EA0006572726F720A0025633A202020556E7376
:104EB0007461636B696E67206572726F720A002598
:104EC000633A2020205072656369736520646174C1
:104ED0006120627573206572726F720A0025633AF1
:104EE0002020204246415220416464726573733A27
:104EF00020307825780A0025633A202020496D70FB
:104F000072656369736520646174612062757320E2
:104F10006572726F720A0025633A202020496E7311
:104F20007472756374696F6E206275732065727236
:104F30006F720A0025633A202020466C6F61746905
:104F40006E672D706F696E74206C617A792073744E
:104F500061746520707265736572766174696F6ED5
:104F6000206572726F720A0025633A202A2A2A2A63
:104F70002A204D5055204641554C54202A2A2A2A91
:104F80002A0A0025633A202020537461636B696EFE
:104F900067206572726F722028636F6E7465787413
:104FA0002061726561206D69676874206265206E9A
:104FB0006F742076616C6964290A0025633A2020A9
:104FC0002044617461204163636573732056696F87
:104FD0006C6174696F6E0A0025633A2020204D4D84
:104FE00046415220416464726573733A20307825DB
:104FF000780A0025633A202020496E737472756325
:1050000074696F6E204163636573732056696F6CBA
:105010006174696F6E0A005265736572766564200B
:10502000457863657074696F6E20280053707572DF
:10503000696F757320696E7465727275707420285B
:10504000495251200025633A20535053454C206962
:105050006E20746872656164206D6F646520646F92
:105060006573206E6F7420696E6469636174652076
:105070005053500A0025633A202A2A2A2A2A204817
:10508000415244204641554C54202A2A2A2A2A0AB1
:105090000025633A202020427573206661756C7488
:1050A000206F6E20766563746F72207461626C6528
:1050B00020726561640A0025633A202020446562FD
:1050C0007567206576656E740A0025633A20202096
:1050D0004661756C7420657363616C6174696F6E91
:1050E00020287365652062656C6F77290A00256347
:1050F0003A20415243485F45584345505420776910
:10510000746820726561736F6E2025780A0A002525
:10511000633A202A2A2A2A2A204465627567206D6C
:105120006F6E69746F7220657863657074696F6EF5
:10513000202A2A2A2A2A0A0025633A202A2A2A2AE9
:105140002A20257320256429202A2A2A2A2A0A00AF
:105150006D70750025633A20506172746974696FCF
:105160006E2025753A2073616E69747920636865D5
:10517000636B206661696C65642E0A0025633A20C2
:105180004661696C656420746F20616C6C6F63614B
:105190007465206E6577204D505520726567696F84
:1051A0006E2025750A0A00464C4153485F30005373
:1051B00052414D5F3000736F6300636C6F636B40EF
:1051C0003430303030303030006866636C6B006CE7
:1051D00066636C6B00636C6F636B5F636F6E74729E
:1051E0006F6C006770696F40353030303030303070
:1051F0000075617274403430303032303030002508
:10520000633A20526573657474696E6720737973AD
:1052100074656D0A00666174616C5F6572726F72AD
:105220000000000000010000000101000001010178
:1052300001000000004E5246585F434C4F434B0064
:105240004E5246585F4750494F5445005465726D61
:10525000696E616C0000000000000054545220523E
:10526000454747455300556E6B6E6F776E206572EC
:10527000726F7200756E6B6E6F776E0025633A20E9
:105280003E3E3E205A455048595220464154414CDA
:10529000204552524F522025643A202573206F6ECC
:1052A000204350552025640A0025633A2046617545
:1052B0006C7420647572696E6720696E74657272B1
:1052C0007570742068616E646C696E670A0A0025E7
:1052D000633A2043757272656E74207468726561FA
:1052E000643A20257020282573290A004350552050
:1052F000657863657074696F6E00556E68616E6481
:105300006C656420696E7465727275707400537494
:1053100061636B206F766572666C6F77004B6572A8
:105320006E656C206F6F7073004B65726E656C20DC
:1053300070616E6963006D61696E006F73002A2A87
:105340002A20426F6F74696E67206E524620436F49
:105350006E6E6563742053444B2076322E352E31A9
:10536000202A2A2A0A00286E756C6C29002A666C8D
:085370006F61742A00000000C7
:10537800593F000000000000354200000000000016
:105388000000000000C2010000010300000000004E
:105398000000000000000000000000000000000005
:1053A80000000000000000000000000000000000F5
:1053B80000000000000000000000000000000000E5
:1053C80000000000000000000000000000000000D5
:1053D800000000000000000000000000FF000000C6
:1053E8000000000000000000780000207800002085
:0653F800000000000000AF
:0453FE0015E015E0C1
:0400000300000F5D8D
:00000001FF
