:10000000A0140020490C0000693E00001D0C0000F7
:100010001D0C00001D0C00001D0C00000000000065
:100020000000000000000000000000008D0800003B
:100030001D0C000000000000350800001D0C000031
:100040001109000011090000110900001109000048
:100050001109000011090000110900001109000038
:100060001109000011090000110900001109000028
:100070001109000011090000110900001109000018
:100080001109000011090000110900001109000008
:1000900011090000110900001109000011090000F8
:1000A00011090000110900001109000011090000E8
:1000B00011090000110900001109000011090000D8
:1000C00011090000110900001109000011090000C8
:0C00D000110900001109000011090000D6
:1000DC0053B94AB9002908BF00281CBF4FF0FF31A3
:1000EC004FF0FF3000F00CB8ADF1080C6DE904CE08
:1000FC0000F008F8DDF804E0DDE9022304B07047F5
:10010C00704700BF2DE9F04786468C460846089E8E
:10011C00154674461946002B40F0C2808542B2FA4F
:10012C0082F245D94AB1C2F1200300FA02FC2EFA40
:10013C0003F3954043EA0C0C94404FEA154EA8B2D9
:10014C00BCFBFEF8230C0EFB18CC08FB00F943EAB1
:10015C000C43994528D9EB1808F1FF3704D299457F
:10016C0002D9A8F102072B44A3EB0903A4B2B3FBF9
:10017C00FEFC0EFB1C330CFB00F044EA0344A042D3
:10018C0014D92C190CF1FF3304D2A04202D9ACF1D2
:10019C0002032C44241A43EA07401EB1D440002326
:1001AC0034607360BDE8F0874746DDE76346F1E7EE
:1001BC0092BB431B01214FEA154EAFB2B3FBFEFCC1
:1001CC00200C0EFB1C330CFB07F840EA034398454C
:1001DC0062D9EB180CF1FF3004D2984502D9ACF17E
:1001EC0002002B44A3EB0803A4B2B3FBFEFC0EFBF2
:1001FC001C330CFB07F744EA0344A7424ED92C19D5
:10020C000CF1FF3304D2A74202D9ACF102032C4407
:10021C00E41B43EA0040C0E7C2F1200320FA03F1DB
:10022C00954090402EFA03F303434FEA154EAFB2BC
:10023C00B1FBFEFC0EFB1C10190C0CFB07F841EA81
:10024C000041884504FA02F422D969180CF1FF30F8
:10025C0004D2884502D9ACF102002944A1EB080173
:10026C009BB2B1FBFEFC0EFB1C110CFB07F743EA27
:10027C0001439F420ED9EB180CF1FF3104D29F427F
:10028C0002D9ACF102012B44DB1B41EA004192E79D
:10029C006046E3E76146F7E76046A3E76346B7E7E6
:1002AC00834206D916B9002108467BE7C6E900E06F
:1002BC00F9E7B3FA83F78FB9834201D3724508D8B3
:1002CC00BEEB020460EB030301209C461EB9002127
:1002DC0068E73846FAE7C6E9004CF8E7C7F1200CA6
:1002EC00BB4022FA0CF41C432EFA0CF120FA0CF34E
:1002FC00B84001434FEA14490EFA07F5B3FBF9F87D
:10030C001FFA84FE09FB18300B0C08FB0EFA43EAAB
:10031C0000439A4502FA07F240D9E31808F1FF307E
:10032C0004D29A4502D9A8F102002344A3EB0A0394
:10033C0089B2B3FBF9F809FB183308FB0EFE41EA4E
:10034C0003418E452CD9611808F1FF3304D28E4538
:10035C0002D9A8F10203214443EA0040A0FB029811
:10036C00A1EB0E014145CE46434602D306D14D4585
:10037C0004D2B9EB020E68EB04030138002EA6D0B0
:10038C00B5EB0E0261EB030101FA0CFC22FA07F348
:10039C004CEA0303F940C6E9003198E74046C5E74B
:1003AC004346D9E738B50C480C4D0A2103F0FCFB49
:1003BC000124012213465A430133A342FBDD21469B
:1003CC002846013403F0F0FB0B2CF2D1BDE8384089
:1003DC00034803F0E9BB00BFB0470000E54700004D
:1003EC000148000070B51C4803F0DEFB1B4C204696
:1003FC0003F031FF68B31A484FF4D01103F0B3FB8C
:10040C00002826DB17484FF4803103F0ACFB0028A2
:10041C001FDB2369A5681B68AE6913F0040F14BFBA
:10042C004FF000734FF0806302214FF0A072204612
:10043C00B0470D490D4B4B6004238B60EB6913B136
:10044C0001222046984700214FF0967002F05CFF85
:10045C00F9E74FF0FF3070BD3A480000044500004A
:10046C00B8460000C0460000C8010020B1030000DF
:10047C00014B1B68184700BF00000020014B18609F
:10048C00704700BF0000002030B585B004460D4613
:10049C0010220021684603F0EFFF02238DF8023092
:1004AC002A46044B01932146684603F00DF905B02A
:1004BC0030BD00BF7D04000080B505460E461746D2
:1004CC00984602F03BFF034603F0DEFFDFF818907E
:1004DC00044649F80030424630463946A84754F89D
:1004EC00090000F02BFC00BF080000002DE9F047CC
:1004FC00058B04462807904611D4022905F0070500
:10050C0040F0CD80204603F0C5FB78B10138218B3B
:10051C00042811D8DFE800F0C3106D85950001297F
:10052C000CBF45F0100545F02005258388F3118894
:10053C00BFF36F8FBDE8F08701F0070AAA4500F002
:10054C00A6800027B9463E46A368002B00F0BD806C
:10055C0041F00801218388F31188BFF36F8FA168E4
:10056C00002900F0BB800D68002900F0B780D1F89D
:10057C000480334652462046C047002D76D02B6867
:10058C0029461D46F0E701F007035A1F012A1BD824
:10059C00002221F00701062B276889B2C4E900224A
:1005AC0009D13B4603E0628B013262831B68002B4E
:1005BC00F9D141F002012183204603F06BFB0028A6
:1005CC007BD041F0200177E0042B0AD121F0070108
:1005DC0089B22183204603F05DFB10B141F020016C
:1005EC002183218B01F0070AAA4550D00027B94678
:1005FC00AAE7236921F0070141F00601062DD3F883
:10060C00009021832DD1B9F1000F40D041F00801A9
:10061C00218388F31188BFF36F8F3A492046C8476E
:10062C0029E021F00701236941F0040189B2042D6E
:10063C00D3F804902183E6D000273E464FF0040AFD
:10064C0082E721F00701236941F0050189B2052DEC
:10065C00D3F808902183D6D000273E464FF0050AE8
:10066C0072E700273E464FF0060A6DE72B4687E7F8
:10067C00B9F1000FD1D14FF02003EFF3118883F3C0
:10068C001288BFF36F8F238B23F008032383258BF2
:10069C00EA062ED525F01003238305F007056669BD
:1006AC00218B002EBFF66FAF00232768C4E90033FF
:1006BC0021F0070141F001012183218B01F0070A90
:1006CC00AA454FF000097FF43FAF002F9BD041F0BB
:1006DC000801218388F31188BFF36F8F002FC7D0D7
:1006EC003D68394633465246204603F0FFFA2F4602
:1006FC00F4E7AB067FF51AAF25F02003238305F052
:10070C000705FFE6253D000001F03CBB0149102226
:10071C000A60704710ED00E072B6404080F311881B
:10072C00BFF36F8FBFF34F8F30BF62B6BFF36F8FC6
:10073C00704700BF72B6494081F31188BFF34F8FE9
:10074C0020BF80F3118862B6704700BF40B200280A
:10075C0007DB044A4109012300F01F00834042F8E3
:10076C002130704700E100E0054B420900F01F000A
:10077C0053F82220012303FA00F01040704700BF09
:10078C0000E100E040B20028A8BF00F1604001F198
:10079C000101B8BF064B4FEA4111ACBF00F56140F7
:1007AC0000F00F00C9B2B4BF195480F800137047A1
:1007BC0014ED00E030BFFFF7FDBF00BF0B4A08B5DA
:1007CC000B4B22F07F029A60BFF34F8FBFF36F8FFA
:1007DC00D3F8882022F47002C3F8882002F076F94E
:1007EC0002F012FE00F01EFA02F0BEF9000000004A
:1007FC0000ED00E0094A0A499368096899670949BC
:10080C0058674B6843F080534B60002383F3118887
:10081C00BFF36F8F9368986F704700BF140300206D
:10082C009447000000ED00E012498A684FF0300058
:10083C001044EFF3098C80E8F01F202080F312881D
:10084C00BFF36F8F0C4F4FF000664A698A603E60B1
:10085C004FF0700414192068084C2060506F00236E
:10086C00536780F3118802F1300090E8F01F8CF38D
:10087C00098870471403002004ED00E0D401002027
:10088C001EF0040F0CBFEFF30880EFF309808169B1
:10089C0011F8021C0229FFD001B503F0D7FA01BDF3
:1008AC0042F8203C009B42F81C3C0A49019B42F850
:1008BC00183C029B42F8143C21F001014FF080736C
:1008CC0042F8043C42F8081C0023203A02654367B6
:1008DC00704700BFC5040000084B9860084B006FC0
:1008EC001860104681F30988002163B681F31188E2
:1008FC00BFF36F8F00220023FFF7DEFD14030020EF
:10090C00D401002001B5EFF30580A0F110004FEAEF
:10091C00C0000449014409C99847BDE80140024997
:10092C00084700002C45000095090000114B124AA5
:10093C002DE9F041D518DFF84480013DB5FBF3F506
:10094C005D430F4B08EB0304013CB4FBF3F403FBD6
:10095C0004540E1B07460B49304603F07FFD7019FB
:10096C0042460021083E03F087FD3E6704F1080073
:10097C00BDE8F08101000000000000000400000050
:10098C0004000000A4460000044B99685869884292
:10099C0003D003494FF080520A60704714030020C3
:1009AC0004ED00E0134B9A6A12F0007F9A6A14BFB0
:1009BC001E201D2012F0807F9A6A18BF1F2012F48F
:1009CC00002F9A6A18BF212012F4802F9A6A18BF40
:1009DC00222012F4003F9A6A18BF232012F4803FA1
:1009EC009A6A6FEA02426FEA12429A6218BF242096
:1009FC00704700BF00ED00E010B5194B0246986A35
:100A0C009C6A10F4805F14BF1720162014F4006F3A
:100A1C009C6A18BF1820A40509D5986B986A000425
:100A2C0004D51AB19A6A22F400429A6219200C4B2E
:100A3C009A6A12F4806F9A6A18BF1A20D2050CD4E5
:100A4C009B6A13F4005F18BF1C20054A936A43F499
:100A5C007F43936200230B7010BD1B20F5E700BF92
:100A6C0000ED00E010B51C4B0246986A9C6A10F031
:100A7C00100F14BF1120102014F0080F9C6A18BF1F
:100A8C001220A40709D5586B986A000604D51AB130
:100A9C009A6A22F080029A6213200F4B9A6A12F023
:100AAC00010F9A6A18BF142012F0200F9A6A18BF0F
:100ABC001520D40658BF9B6A074B9A6A920642BF10
:100ACC005A6A22F400525A629A6A42F0FF029A62FF
:100ADC0000230B7010BD00BF00ED00E0F0B5474BDC
:100AEC005B688BB00446C3F30803002585F31188BB
:100AFC00BFF36F8F02F07F40B0F17F4F11D102F046
:100B0C000C0008280DD010074CBF0C460125002204
:100B1C00033B8DF80720032B05D8DFE803F0246294
:100B2C00665F2C46F3E700239DF80720CAB902AE96
:100B3C0004F1200720686168324603C20834BC42C5
:100B4C001646F7D1099A002D53D0C2F3080121B9EA
:100B5C006FEA52226FEA4222099202A9184603F068
:100B6C0073F90BB0F0BD254BDA6A9107DBD4DA6A66
:100B7C00002AD8DBDA6A5200D5D55A69A16942F449
:100B8C0080725A61BFF34F8FBFF36F8F5A6931F880
:100B9C00021C22F480725A61BFF34F8FBFF36F8F28
:100BAC004DF60272914209D09A6AD2B242B10DF15D
:100BBC0007010120FFF756FF0346B5E72368B3E7AB
:100BCC009A6A12F47F4F05D00DF107010120FFF74F
:100BDC0013FFF1E79B6AB3F5803FA4D3FFF7E2FE66
:100BEC00EAE70DF107010020E4E70DF10701002011
:100BFC00EDE722F4FF7222F00102ADE700ED00E018
:100C0C00024A536943F010035361704700ED00E052
:100C1C00EFF30880EFF3098101B57246FFF75EFF31
:100C2C0001BD00BF044800232021C2180133272B2B
:100C3C0082F80013F9D1704700E100E0002080F346
:100C4C001488BFF36F8FFFF75FFD00200D4908601C
:100C5C00BFF34F8F0C4880F3088800F03DF820203C
:100C6C0080F3118809484FF40061401880F309881B
:100C7C00EFF314800221084380F31488BFF36F8FC5
:100C8C00FFF79CFD94ED00E0A0140020600700200D
:100C9C00BFF34F8F0549064BCA6802F4E062134359
:100CAC00CB60BFF34F8F00BFFDE700BF00ED00E04E
:100CBC000400FA050749D1F890200023C2F307225B
:100CCC001846934200DB7047C1F89830C1F8A00079
:100CDC000133F6E700ED00E008B572B6002383F3AC
:100CEC001388FFF7E7FF144B4FF0FF32C3F8802057
:100CFC00C3F88420C3F88820C3F88C20C3F8902054
:100D0C00C3F89420C3F89820C3F89C20C3F8802122
:100D1C00C3F88421C3F88821C3F88C21C3F890212F
:100D2C00C3F89421C3F89821C3F89C2162B6BFF391
:100D3C004F8FBFF36F8F08BD00E100E0084B9B683D
:100D4C0083420BD1EFF3058343B1064B5A6842F053
:100D5C0080525A605A6A22F400425A6202F0F4BA83
:100D6C001403002000ED00E0024B034A034801216C
:100D7C0000F060B80000012000000020C846000010
:100D8C00F0B5204E00258D4239DA446874B353B166
:100D9C0004F1FF3C14EA0C0F2FD11F2C2DD907683E
:100DAC001CEA070F29D1202C0768D0F808C05FFA7D
:100DBC0082FE1ED9B4F1004F1DD8013CB4FA84F464
:100DCC00C4F11F046400BEF1070F4CEA040C14D8E4
:100DDC0027F01F04144344F01004C6F89820C6F8FA
:100DEC009C404CF00104C6F8A040013201350C3097
:100DFC00C9E70824E7E73E24E5E76FF01502104643
:100E0C00F0BD00BF00ED00E0044B0522C3F89420B8
:100E1C00BFF34F8FBFF36F8F704700BF00ED00E043
:100E2C00BFF35F8F024B0022C3F89420704700BFC2
:100E3C0000ED00E010B5034C01232278FFF7A0FF72
:100E4C00207010BD4403002014490868082810B510
:100E5C0021D8FFF7E5FF124C49680022904201F1BE
:100E6C000C0105D10F4B1870FFF7CEFF002010BD01
:100E7C00C4F8982051F80C3C23F01F03134343F0A3
:100E8C001003C4F89C3051F8043C43F00103C4F83F
:100E9C00A0300132E2E74FF0FF30E8E7D446000023
:100EAC0000ED00E04403002008B5024B1B68984796
:100EBC00002008BDD8010020034B044A1860937829
:100ECC0043F0020393707047D80100200400002007
:100EDC0008B50649064821F00701C1F1005202F598
:100EEC00803202F09AFE002008BD00BFB31400202F
:100EFC00A0140020044A0123C2F840354FF0804270
:100F0C000020C2F87835704700E0014020B1034B57
:100F1C00800143F001031847704700BFB046000042
:100F2C00084B70B5C31A0D4607499B10044659432C
:100F3C000648402202F0BAFF2B4601462046BDE887
:100F4C0070401847F0010020B76DDBB6F04400008C
:100F5C0073B50C4C0C4A4023041B00930D460B46F6
:100F6C000A49A41061430646094802F0CCFF011E51
:100F7C0005DA30462B4602B0BDE87040184702B087
:100F8C0070BD00BFF00100207F3F0000B76DDBB6E5
:100F9C00F044000010B54FF02003EFF3118483F3FD
:100FAC001288BFF36F8F074A136823F00201DB0727
:100FBC00116002D4012003F089F884F31188BFF387
:100FCC006F8F10BD40020020002270B50121044635
:100FDC001046FFF7D7FB0F4801F0B6F80E4B9842BE
:100FEC0015D103F066F826690C49304602F0A2FED2
:100FFC0000280BDB012535642469084904F11C0029
:10100C0002F098FE002801DBE564002070BD6FF053
:10101C000400FBE7611000000000AD0BF44600007B
:10102C0070B501460C2309484B43C418D4E90E563D
:10103C00403300221844A26302F025FF2DB1324642
:10104C002B460348BDE87040184770BDF0010020E6
:10105C00F044000010B1012804D07047034B1B6C06
:10106C005B0701D1FFF7DCBF704700BFF001002028
:10107C0008B54FF02003EFF3118183F31288BFF30F
:10108C006F8F124A136843F002001060DA0708D41D
:10109C0081F31188BFF36F8F0120BDE8084001F088
:1010AC0063B84FF08043D3F80C24D3F80C34DB072F
:1010BC00EED5074802F0E7FE81F31188BFF36F8F7E
:1010CC000020BDE80840FFF7ABBF00BF4002002086
:1010DC00300200201FB500220123CDE90223094A6A
:1010EC00CDF800D06B46CDF804D002F03BFF0028C1
:1010FC0005DB4FF480420023684601F061FE05B029
:10110C005DF804FB973F000010B5074C23782BB912
:10111C004FF4A57003F09AF801232370BDE810403A
:10112C00002001F021B800BF450300202DE9F0415B
:10113C003849BFF35B8F0746012251E8003F41E875
:10114C0000200028F9D1BFF35B8F33B93249334803
:10115C004B60CB608A6002F000FE7B1E012B2BD80B
:10116C00012F07D14FF08043D3F81C3403F0030355
:10117C00012B21D003F07EF80546F8B9284B1B78DB
:10118C00E3B14FF080430222C3F808230646DFF890
:10119C0094804FF08044D4F81824D4F81834D20337
:1011AC0016D503F00303012B01D0012F10D15DB331
:1011BC0086F31188BFF36F8FBDE8F0814FF02003E9
:1011CC00EFF3118683F31288BFF36F8F0125DEE7EF
:1011DC00ADB13046FFF7AEFAD4F81835002BDAD1A2
:1011EC00D4F80421002AD6D0C4F80431D4F8043140
:1011FC000123C4F81835C8F88031A360CBE700216F
:10120C00212002F081F8E7E74FF080430222C3F877
:10121C000423D1E7EC010020DC0100200C020020AB
:10122C005707002000E100E010B5044C2046FFF702
:10123C0025F92046FFF740FE002010BD4D1200009E
:10124C00F7B5144E8DF8070004460325EFF311870C
:10125C004FF0200181F3118801220DF107010020CC
:10126C0001F0AEFB87F3118820B1012333702046C7
:10127C0003B0F0BD3378002BF9D0013D08D002F05B
:10128C00F9FF0028E2D10021422002F03DF8DDE711
:10129C003570ECE74603002008B5074802F0DBFF89
:1012AC0038B10648FFF708FE0448FFF7E7F80020BE
:1012BC0008BD6FF01200FBE718450000CD120000CE
:1012CC000A2838B5074D044604D1AB680D215B687C
:1012DC0028469847AB6803485B68E1B298472046BC
:1012EC0038BD00BF1845000030B54068057B01F0E3
:1012FC001F04B2F5001F85B044EA451405D1204601
:10130C0001F01AFA002005B030BD0025B2F5800FAF
:10131C00CDE9025514D1B3F1007F0CBF0423052392
:10132C008DF808300023194602AA204601F038F83F
:10133C00214B984239D10121204601F0B1F9E1E766
:10134C00B3F1C06F26D0B3F1007F14BF0123022389
:10135C008DF80830836823FA01F111F00101E1D115
:10136C00B2F1A07FDED104F01F03620903F5E07334
:10137C001ED14FF0A04252F82330DB07D2D40DF12E
:10138C0007052946204601F037F90C4B984203D04B
:10139C000395C7E70323DBE7284601F07BF9064BEF
:1013AC009842F5D06FF00B00ADE76FF01500AAE78F
:1013BC0051F82330FFDE00BF0000AD0B0400AD0B75
:1013CC0010B501F057F9044668B901F02BF9084B38
:1013DC0098420AD10748214601F008F92246052116
:1013EC000620FFF7CFF9002010BD6FF00400FBE7DB
:1013FC000000AD0B05140000430970B507D10B4B71
:10140C00596821B101250C68094E854001B970BDA0
:10141C008A682A4002D04B68304698471CB1236832
:10142C0021461C46F2E72346FAE700BF440200209F
:10143C00044500002DE9FF4147683B7B01F01F0587
:10144C0045EA43150E4628460DF10701144601F0F6
:10145C00D3F814F4403F80460DD1284601F092F9A0
:10146C003D4B984503D19DF8070001F00DF9002084
:10147C0004B0BDE8F0810023194602AA2846CDE944
:10148C00023300F08DFF344B984214D1804503D1C8
:10149C009DF8070001F0F8F8A3034ED540F206338F
:1014AC002340B3F5837F1AD00DD8062B18D005D85E
:1014BC00B3B1022B33D06FF01500D9E7B3F5807FB1
:1014CC00F9D101230CE040F20222934229D0B3F56A
:1014DC00407F28D0B3F5007FEDD1022300E0072335
:1014EC008DF8083084F48033C3F30043E0068DF8A4
:1014FC00093054BFC4F34013032321038DF80A3081
:10150C0013D57A680123B340C2F80835002202A92A
:10151C00284600F0F5FF104B9842A8D0CBE70423E7
:10152C00DEE70523DCE70323DAE7620341BF01238F
:10153C007A68B340C2F80C35E8E7E3064FF00003D5
:10154C0054BFC4F3401403241A4602A928468DF84C
:10155C00084000F025FFDEE70000AD0BF0B5524D62
:10156C0000EB8101814201D10020F0BD046804F040
:10157C007F03C4F343267F2B4FEA144408BF4FF07C
:10158C00FF33192C7ED8DFE804F00D13191C1F252E
:10159C001C7D7D7D7D345D7D7D7D7D7D7D7D7D7D39
:1015AC006074777AC2F80C355F1C57D10430D9E7D8
:1015BC00C2F814355C1CF9D0002458E0C2F8083588
:1015CC00F2E7C2F81035F5E75F1CC2F80835EDD02C
:1015DC00002404E05C1CC2F80C35E7D001245F0940
:1015EC0053D101274FF0A04C07FA03FECCF80CE5C1
:1015FC0008E0C2F80835002EDCD15C1CD6D00024E3
:10160C0027460626D0F800E00EF4005CBCF1000F73
:10161C001CBF0124002703F01F0C5B093DD14FEACE
:10162C008C0C0CF1A04CCEF3C11EDCF800372B4017
:10163C0043EA8E0343EA06233B4343EA4403CCF8D4
:10164C000037B3E7C2F80C35D5E7C2F860355F1C3C
:10165C000468ABD0C4F38034002CBFD05C0918D123
:10166C0001244FF0A04704FA03FCC7F808C527462D
:10167C00C8E7C2F86435EAE7C2F86835E7E7C2F8AC
:10168C006C35E4E76FF085006FE70023C3F80C3589
:10169C00FFDE0023C3F80835FAE70CF5E07C0023E5
:1016AC0053F82C30F4E700BFF0F8FCFF074BD3F8ED
:1016BC00082142B10020C3F80801D3F80821D3F85F
:1016CC0018350B7070474FF0FF307047002000400A
:1016DC00024BD3F88004C3F880047047002000400C
:1016EC0010B54B79012B1CD18B79032B19D1CB79EC
:1016FC00BBB90A7912B1022A13D10E220B68B3F5C9
:10170C00164F5ED02BD8B3F5165F5CD014D8B3F55A
:10171C00966F5AD008D8B3F5967F59D0B3F5167F8B
:10172C0059D06FF085004BE0B3F5166F56D0B3F57A
:10173C00965FF6D1334B39E0B3F5E14F51D007D872
:10174C00B3F5615F4FD0B3F5964FEAD12E4B2DE038
:10175C0047F61224A342E4D14FF4000326E0B3F57C
:10176C00613F43D011D8B3F5963F41D008D84DF620
:10177C00C024A3423ED0B3F5614FD2D1234B15E028
:10178C00B3F5E13FCDD1224B10E0B3F5612F34D04E
:10179C0007D8204CA34232D0B3F5E12FC1D11E4B58
:1017AC0004E01E4CA342BCD14FF0805304691C488A
:1017BC00C0F82435C0F86C2503C984E80300002068
:1017CC0010BD184BF2E7184BF0E74FF49E23EDE7F2
:1017DC004FF4A033EAE74FF41C33E7E74FF41D2333
:1017EC00E4E7124BE2E74FF46C13DFE7104BDDE755
:1017FC00104BDBE74FF46503D8E70F4BD6E74FF000
:10180C008063D3E700B0130000A04E0000F0EB00A3
:10181C0000E0D70190D0030000705F0740420F003A
:10182C000020004000509D000050270000F0750083
:10183C0000B0AF0300903A0100D0BE0EF8B50E46D2
:10184C0002F018FD1A4D78BB64240127BFF35B8F9F
:10185C0055E8003F002B03D145E80072002AF7D170
:10186C00BFF35B8F07D021200021013C01F04CFD20
:10187C0014F0FF04EAD10F4C0023C4F81C31D4F847
:10188C001C310123A360C4F81C654FF47A76D4F89C
:10189C001C3123B9012002F00AFC013EF7D10123CF
:1018AC00E36000232B60F8BD01232B60E3E700BF4E
:1018BC005002002000200040F7B5134C4368076924
:1018CC000021C4F800151E68054601AA304602F036
:1018DC00B4FB002815DB019B326819791868FFF7F7
:1018EC003DFE00280DDB39462846FFF7F9FE40B9CE
:1018FC000423C4F80035C4F80801D4F808310123D6
:10190C00236003B0F0BD00BF0020004070B5012380
:10191C0083400E4ABFF35B8FDC4352E8001F01EAA1
:10192C00040542E80056002EF7D1BFF35B8F4FF44D
:10193C00803282400648C0F80823BFF35F8FBFF3A4
:10194C006F8F0B4214BF0120002070BD5802002085
:10195C000010014070B40E49D1E90034D01AC318FC
:10196C0044F1000422F07F46C1E90034A6F50013CF
:10197C00B3F5400F09D2074B1B681A0A1B069C19BA
:10198C00054B42F10005C3E9004570BC01F012BEE5
:10199C00980000205C020020A000002011B3BFF3CF
:1019AC005B8F0123104A834052E800CF4CEA030CB2
:1019BC0042E800C10029F7D1BFF35B8F0B4A4FF40B
:1019CC0080338340C2F80433094BBFF35B8F1B6831
:1019DC00BFF35B8FC340DB0742BF064B4FF40032B3
:1019EC00C3F80021704700BF5802002000100140CE
:1019FC005402002000E100E00D4B1868010A0006BB
:101A0C00BFF35F8F0B4BD3F80435181841F100016D
:101A1C00B3F5801F0AD2084BD3E90023904271EB37
:101A2C00030303D210F1807041F10001704700BF35
:101A3C005C02002000100140A00000202DE9F04FB6
:101A4C0085B016461F469DF840A00446FFF75EFF82
:101A5C000190FFF7D1FFB04271EB070354D23E4B1C
:101A6C00301A67EB0101984271F100014FD23B4BE8
:101A7C0003EB0413D3E902239F4208BF96425ED0C6
:101A8C0037494FF4803804F1500508FA04F8AD00DA
:101A9C00C1F848832046ADB202F0EAFA26F07F4B3B
:101AAC0005F1804504F5A87305F58835DC464FF043
:101ABC0003090293029A2CF07F4341F82230C1F8BB
:101ACC004483D1F80435274A6FF00200C01A6044F1
:101ADC0020F07F40904232D9286868B1D1F80435A3
:101AEC000393A3EB0B0020F07F40B0F5000F26D939
:101AFC00204602F0BDFA039BBAF1000F07D109EBA7
:101B0C00030C09F10109D5E7BAF1000F09D06FF008
:101B1C00150520460199FFF741FF284605B0BDE8A1
:101B2C00F08F0123104ABFF35B8FA34052E8000FE4
:101B3C00184342E800010029F8D1BFF35B8F074935
:101B4C000E98230101EB0412C8500F9B5360C2E99D
:101B5C0002670025DDE700BF01008000880000203F
:101B6C0000100140FDFF7F00540200207FB51C4C8B
:101B7C001C4BC4F80833C4F848331B4B00254FF0FA
:101B8C00FF304FF0FF31C4F80855C3E902014FF4A0
:101B9C008033C4F80433154B02264FF40032012174
:101BAC00C4F804631120C3F880212A46FEF7EAFD2D
:101BBC001120FEF7CBFD0E4A0123A36023601360B6
:101BCC000C4B0D4A0093CDE9015500232846FFF735
:101BDC0035FF3046FFF7AAFA284604B070BD00BFA7
:101BEC000010014003000F008800002000E100E01D
:101BFC005802002061190000FFFF7F002DE9F74318
:101C0C002F4CD4F8043399070BD5D4F8043143B1D5
:101C1C002C4A0023C4F80431D4F80431136801337E
:101C2C001360D4F80433DA032AD5BFF35B8F264B49
:101C3C0053E8002F22F0010143E800100028F7D1EF
:101C4C00BFF35B8FD30702D4D4F84031C3B1002566
:101C5C00C4F84051D4F84031FFF7CEFE4FF02003CA
:101C6C00EFF3118283F31288BFF36F8F174BD3E915
:101C7C000267B042B94106D282F31188BFF36F8F6D
:101C8C0003B0BDE8F0834FF0FF384FF0FF39C3E9E4
:101C9C000289D3E900101D604FF48033C4F8483337
:101CAC00C4F84051D4F8403182F31188BFF36F8FE0
:101CBC000029E5D0009032463B4628468847DFE7AE
:101CCC00001001405C02002054020020880000201B
:101CDC001FB5431C23D0012823DD134A134B90421C
:101CEC00D4BF04461C46FFF787FE114B0F49D3E9BE
:101CFC000023801AB0F5000F28BF002404448C4246
:101D0C0028BF0C46A2180B4900914FF00000CDE9FA
:101D1C00010043F10003FFF791FE04B010BD034C2A
:101D2C00E1E70124DFE700BFFEFF7F00FFFF7F003C
:101D3C00980000206119000008B5FFF75DFE024B0A
:101D4C001B68C01A08BD00BF980000204FF07043FC
:101D5C0093F8E02F062A09D1D3F8E83FC3F3031315
:101D6C00033B042B02D8024AD05C7047002070471A
:101D7C00EC480000024AD2F80034002BFBD070472C
:101D8C0000E0014010B502F083F940B14FF08053F0
:101D9C008E4AD3F82433C3F30423C2F84035FFF73B
:101DAC00D5FF10B18A4B8B4A5A6702F071F948B1D2
:101DBC004FF080534FF08042D3F84432C3F3423398
:101DCC00C2F83C35FFF7C2FF30B1834AD2F8FC3081
:101DDC0023F08073C2F8FC3002F05AF940B14FF096
:101DEC0080430022C3F80C21C3F81021C3F8382516
:101DFC00FFF7ACFF20B14FF080430322C3F8A025BE
:101E0C00FFF7A4FF60B1754B0522C3F81026012221
:101E1C00C3F888260022C3F818263F22C3F81426DC
:101E2C004FF08053D3F83021511C09BF4FF0704351
:101E3C00D3F8343193F8E02FD3F8E83F08BFC3F35D
:101E4C000313062A4DD1033B042B03D8644AD35CFD
:101E5C00002B46D04FF08052624BD2F80414C3F8DA
:101E6C002015D2F80814C3F82415D2F80C14C3F8B2
:101E7C002815D2F81014C3F82C15D2F81414C3F882
:101E8C003015D2F81814C3F83415D2F81C14C3F852
:101E9C004015D2F82014C3F84415D2F82414C3F812
:101EAC004815D2F82814C3F84C15D2F82C14C3F8E2
:101EBC005015D2F83014C3F85415D2F83414C3F8B2
:101ECC006015D2F83814C3F86415D2F83C14C3F872
:101EDC006815D2F84014C3F86C15D2F84424C3F832
:101EEC00702502F0D5F848B14FF080534FF0804286
:101EFC00D3F8583203F04F03C2F8E43E02F0C8F8AE
:101F0C0048B14FF08043D3F80024D20744BF6FF0A0
:101F1C000102C3F800244FF08053D3F83021062A75
:101F2C0026D1D3F83431033B042B02D82E4AD35C90
:101F3C0063B12E4AD2F83C3743F48063C2F83C3785
:101F4C004FF08053D3F83031062B11D14FF0805322
:101F5C00D3F83431033B042B02D8254AD35C3BB174
:101F6C004FF01023D3F808224FF08043C3F85825C4
:101F7C004FF01023D3F80022002A03DBD3F80432ED
:101F8C00002B22DA1B4901234FF01020C1F8043535
:101F9C001524FFF7EFFEC0F80042FFF7EBFEC0F888
:101FAC000442FFF7E7FE0023C1F80435FFF7E2FE19
:101FBC00BFF34F8F0849104BCA6802F4E062134319
:101FCC00CB60BFF34F8F00BFFDE710BD0030014069
:101FDC0000C007400DF0ADBA00ED00E0005000402D
:101FEC00E748000000C00040E2480000001000403C
:101FFC00DD48000000E001400400FA0530B504683B
:10200C00CCB1BFF35B8FB4FA84F3C3F11F03DBB223
:10201C0001229A4024EA020250E8005FA54204D152
:10202C0040E8002CBCF1000FF6D1BFF35B8FE6D17A
:10203C0002480B7030BD0248FCE700BF0000AD0B3E
:10204C000200AD0B10B50368CB40DB0714D40123A1
:10205C008B400268BFF35B8F43EA020150E8004FEC
:10206C00944204D140E8001CBCF1000FF6D1BFF340
:10207C005B8FEED1014810BD0148FCE70000AD0BB1
:10208C000400AD0BF7B5044618B1012823D003B0FA
:10209C00F0BD4FF080430222C3F80823C3F80401BB
:1020AC00D3F804210122DA60064601238DF80730AB
:1020BC0042F210754FF08047D4B1012CE7D1D7F81C
:1020CC000C3403F48033AEBB83B3012001F0EFFF7B
:1020DC00013DF4D12AE04FF080430022C3F80803FD
:1020EC00C3F80021D3F8002158600DF10706DCE796
:1020FC00D7F8183403F480333EB9002BC7D0012035
:10210C0001F0D5FF013DF3D1C1E7D7F8182402F057
:10211C0003023260002BBAD09DF80700012803D1CE
:10212C0001F0C5FF013DC7D1012CB0D1054B0022F8
:10213C005A71ACE7D7F80C2402F001023270002B74
:10214C00EAD1F3E760020020044B1A7922B901228C
:10215C0018609A800248704702487047600200205D
:10216C000000AD0B0C00AD0B38B510B1012843D0FD
:10217C0038BD4FF08042D2F81814D2F81834C80386
:10218C002ED503F00303012B04D013B10020FFF76D
:10219C0079FF00234FF08042C2F818350023C2F8B3
:1021AC000431D2F804310223C2F80433184AD2F8AD
:1021BC00FC0040F08073C2F8FC30164B1C6844F0F5
:1021CC00010119605D685968491BB1F50A5FFAD3C2
:1021DC001C604FF08043C2F8FC0001229A60C7E7F4
:1021EC00D2F81434D907D4D5D2F81C349B07CDD4EB
:1021FC000223C2F80433BBE74FF080430022C3F83C
:10220C000021D3F80021C3F804031860B0E700BF25
:10221C0000ED00E0001000E010B54FF08043D3F863
:10222C0000216AB10022C3F80021D3F80021012259
:10223C00C3F80823114B587910B95A711B68984789
:10224C004FF08043D3F8042172B10022C3F804216B
:10225C00D3F80421D3F81824D3F81824920704D106
:10226C000122C3F818259A6010BD0222C3F8082376
:10227C00024BBDE810401B6801201847600200208B
:10228C00C0B2034B083033F81000C0F34010704755
:10229C001C000020C0B2034B083033F81000C0F310
:1022AC00400070471C000020C0B2034B083033F8CC
:1022BC001000400B704700BF1C00002070B500F1EF
:1022CC0008030C4C34F81330DA0505460E4607D5D6
:1022DC00C3F3432304EBC30254F8333052689847DA
:1022EC00A3682BB1E26831462846BDE87040184718
:1022FC0070BD00BF1C00002010B4C0B2114A0830E1
:10230C0032F81030D9051BD5C3F3432123F4F8530D
:10231C0022F8103002F10E04002034F8023F13F4BE
:10232C00807F03D0C3F34323994209D00130202886
:10233C00F3D1002342F83130034810BCFFF782BEC2
:10234C0010BC70471C00002070000020F0B5014646
:10235C00104A114C00200125064602F14043A3F51A
:10236C00C2439B0805FA03F3194204D0176817B14E
:10237C001660176818430432A242EED1074BD3F80B
:10238C007C2132B10022C3F87C21D3F87C3140F09F
:10239C000040F0BD00610040206100400060004042
:1023AC00F0B5044685B017461D4601B3FFF772FF22
:1023BC0018B12046FFF764FF08BB0023CDE90033BA
:1023CC008DF80E308DF80F300DF10F020B462046B4
:1023DC000DF10E0101F086FEE3B24449083331F8E9
:1023EC00132022F0020242F0010221F8132057B30D
:1023FC0020463E787A68FFF74DFF10B1C2B13C48D9
:10240C0023E0E3B2DFF8E4C008333CF8131021F00A
:10241C002001C904C90C2CF813104AB1032EEED8B4
:10242C007A6817789EB9334B07F5A27743F8276083
:10243C00E3B22E49083331F8132022F01C0242EA91
:10244C00860221F813203DBB2B4805B0F0BDBA0025
:10245C0002F1804202F5C04241EA4731D2F8100540
:10246C0020F00300C2F81005D2F8100520F4473014
:10247C0020F44070C2F81005D2F810E5200200F4E8
:10248C00F85040EA0E0040EA064041F020012CF8DA
:10249C001310C2F81005CBE7D5E900672046FFF70B
:1024AC002BFF002ED0D0114DD5E90023964201D13F
:1024BC009F4219D011480DF10F01FFF79FFD0E4BF4
:1024CC009842C2D19DF80F2045F83260E4B205EB7A
:1024DC00C20308345F6035F8143043EA422343F4F6
:1024EC00807325F81430AFE70022EDE71C000020C4
:1024FC000400AD0B006000400000AD0B700000202C
:10250C00F0B5044685B0164629B3FFF7C3FE20B9D3
:10251C002046FFF7B5FE00285FD1E5B2304F0835F5
:10252C0037F8153013F01C0F02D04B78012B54D018
:10253C0001238DF80F300023CDE900134A1C8B1CAE
:10254C0020460DF10F0101F0CDFD37F8153043F0A9
:10255C00030327F8153016B9224805B0F0BD204604
:10256C00FFF798FEC8B3E5B21D4F96F800C00835CA
:10257C00614637F81500890020F0200001F18041F8
:10258C00C00401F5C041C00C27F815000023C1F8A8
:10259C0010357278002ADFD0D1F81035B67823F4D4
:1025AC00981323F4F853C1F8103512042302D1F810
:1025BC0010E502F4403203F4F8531343320543EAB6
:1025CC000E0302F4801240EA4C30134340F020001A
:1025DC0027F81500C1F81035BEE70348BDE700BF6A
:1025EC001C0000200000AD0B0400AD0B014BC3E937
:1025FC00020170471C00002008B50246FFF740FEA0
:10260C0040B1D2B2044B0548083233F812305B0BA0
:10261C000B7008BD0248FCE71C0000200000AD0B4D
:10262C000400AD0B70B50F4C94F85860BEB90E4D4C
:10263C004022314604F1100001F01EFFC5F87C6108
:10264C000620D5F87C31FEF781F84FF00043C5F831
:10265C0004330648012384F85830636570BD044880
:10266C00FCE700BF1C000020006000400000AD0B28
:10267C000500AD0B034B93F85800003818BF012030
:10268C00704700BF1C00002001460148FFF7DABC70
:10269C006C00002001460148FFF7B0BC6C00002024
:1026AC0037B50446FFF7ECFD08B32046FFF7F2FD03
:1026BC000546E0B92046FFF7F7FD03B29B0003F196
:1026CC00804202F5C24203F1804303F5C04315601A
:1026DC001268D3F8102542F00102C3F8102521B17D
:1026EC00134A01238340C2F8043303B030BDE3B274
:1026FC00104A083332F81330C3F38203042B12D080
:10270C00052B12D001A8019401F0E2FC019BD0F83A
:10271C001015D94001F001010231204603B0BDE88B
:10272C00304001F028BD0321F7E70221F5E700BF97
:10273C00006000401C00002008B50246FFF7A0FD19
:10274C00C0B11046FFF7A6FDA0B91046FFF7ACFDCF
:10275C000B4A01238340C2F8083303B29B0003F1F8
:10276C00804303F5C043D3F8102522F00302C3F8CD
:10277C00102508BDBDE808400021104601F0FBBC47
:10278C000060004073B5C5B2174E0835044636F8E4
:10279C001530DB0726D5FFF7CFFF2046FFF770FD7E
:1027AC0040B12046FFF780FD104B00F5A2700022CF
:1027BC0043F820202046FFF79FFD002301A826F8B0
:1027CC001530019401F084FC019B00EB8300084B55
:1027DC00D0F80027134043F00203C0F80037054837
:1027EC0002B070BD0448FBE71C00002000600040F4
:1027FC00F0F8FCFF0000AD0B0400AD0B2DE9F34726
:10280C00534BD3F80403C0B240F00040FFF79EFDD9
:10281C00051E1ADA4FF0A043DFF83881D3F82025D3
:10282C000092C3F820250127009CA4B94FF000406A
:10283C00FFF78CFD4FF0A042D2F820350093C2F880
:10284C002035002BEFD125F000450124002D66D159
:10285C0002B0BDE8F08794FAA4F4B4FA84F4E0086A
:10286C0004F1080304F0070238F813901DF8003047
:10287C00019407FA02F223EA02030DF8003001A8D2
:10288C0001F026FC019B03F5E0734FEA990150F827
:10289C002360C9F3820A4B07D146C6F3014623D500
:1028AC0020465146FFF70AFD01A8019401F010FCE7
:1028BC00019B03F5E073F6B250F82330C3F30143E8
:1028CC009E4207D10021204601F055FC314620469E
:1028DC0001F051FC01A8019401F0FAFB019B07FAED
:1028EC0003F3C0F820359FE7022E0CD103212046BC
:1028FC0001F041FC0AF00503012BEBD149462046BF
:10290C00FFF7DCFCE6E70221204601F034FCBAF1CB
:10291C00030FF3D0032EDDD1BAF1020FEDE795FAD8
:10292C00A5F3B3FA83F304FA03F29B0003F180439B
:10293C0003F5C04325EA0205D3F81005D3F81015AA
:10294C00C0F30420C1F30141FFF7B8FC7EE700BFE0
:10295C00006000401C00002008B5144BA822002188
:10296C00184601F089FD0322026111494261114AA6
:10297C008161C2614FF48062026200228262426213
:10298C00C26201660C4941661021816603460267EA
:10299C00C2664267BFF35F8F084911F8010D985466
:1029AC000132102AF9D1BFF35F8F08BD68020020F5
:1029BC00084900005703002047030020214900006C
:1029CC00F8B5144B182700FB07751D4407FB0033A3
:1029DC000E46DB6A012B14460AD0022B14D023B905
:1029EC00284601F0D7FB844208D900242046F8BDC4
:1029FC00284601F0CFFB844228BF044622463146CC
:102A0C00284601F0D0FBF1E72846BDE8F84001F07C
:102A1C00E9BB00BF6802002038B503464FF0200226
:102A2C00EFF3118582F31288BFF36F8F01F02CFD49
:102A3C00064A1458184601F027FB85F31188BFF39A
:102A4C006F8F2046BDE83840FEF778B908000000CB
:102A5C00104B70B553F82040013053F82060A6425B
:102A6C0000D870BDD4E9003595B153B128469847CC
:102A7C0038B10028B8BF4042EB68FF28A8BFFF2040
:102A8C001870EA68537843F0010353700834E6E792
:102A9C009847FBE79847000008B50A4B0122032032
:102AAC001A70FFF7D5FF00F009FE0420FFF7D0FFE6
:102ABC0000F006F9FDF796FC034A137B23F00103A3
:102ACC00137308BD570700202801002008B50348E0
:102ADC00034A0021121A01F0C9FB08BD880000202E
:102AEC005C07002070B5002386B00122CDE90423D9
:102AFC00174E184D01930F22CDE9023216491423BB
:102B0C0003FB005506EBC0164FF4A0720446134BA2
:102B1C00009502FB0011304600F094F8737B2C7486
:102B2C0023F0040373730E4BEE60013403EBC423E8
:102B3C006B600C4BBFF35B8F53E8001F013143E814
:102B4C000012002AF8D1BFF35B8F06B070BD00BF36
:102B5C00A800002014030020600F00208D4200000C
:102B6C00600700201003002080B50020A6B0FFF7FE
:102B7C006FFF2D4B83F308882C4D2D4E6B692D4F19
:102B8C0043F400736B610024E02385F82230EC776A
:102B9C002C766C76AC7685F820406B6A43F4E02397
:102BAC006B6285F82340FEF72BF8FDF7AFFD4FF075
:102BBC00FF33AB62EB62FEF747F9FEF7D5F840F254
:102BCC000113ADF8243006ABB360CDE91E4421945B
:102BDC0001F040FB0120FFF73BFF0220164DFFF7F1
:102BEC0037FF00F007FB154B756105930123144962
:102BFC000094CDE903434FF480623B46CDE9014498
:102C0C00284600F01FF86A7B064622F0040228468C
:102C1C006A7301F07BFB2046FFF764FF3A463146AE
:102C2C002846FDF759FE00BF600F002000ED00E0C4
:102C3C0014030020A52A00002801002022490000CE
:102C4C00A01000202DE9F04385B0984600F1580300
:102C5C000732C0E91633109B037322F007050423D7
:102C6C000026437301EB05090F9B83730F46C0E9E4
:102C7C00066649468660C6730446FDF757FE073064
:102C8C000E9B20F00700A066C4E9187502930D9BFB
:102C9C000193A9EB00090C9B00934A464346394625
:102CAC002046FDF7FDFD054B66659B6803B1DB6EA9
:102CBC00E366484605B0BDE8F08300BF140300206E
:102CCC002DE9F043294C2A4D87B02646AE4204F13B
:102CDC002C040FD300F05EFA244CDFF898904FF4DC
:102CEC00004640F2E737AC4220D307B0BDE8F043D2
:102CFC0000F064BA54F8043C059354F80C3C04936B
:102D0C0054F8103C039354F8143C029354F8183CB8
:102D1C00019354F81C3C009354E9092354E90B012A
:102D2C00FFF790FF54F82C3C5E65CEE7636A5A1CA3
:102D3C000DD023EAE37300213846C3FB060151EAA8
:102D4C00C333D4F8008004D1404600F0D3F92C34BE
:102D5C00C9E74FF47A720023FDF7BAF902460B4625
:102D6C0008F11800494600F0AFFBF0E7644600009C
:102D7C00644600007D43000038B504464FF0200344
:102D8C00EFF3118583F31288BFF36F8F01F0F4FA20
:102D9C0048B10022826701F0B9FA29460748BDE81C
:102DAC00384000F095B9D4E902329A4218BF013389
:102DBC00A36085F31188BFF36F8F38BD58070020CF
:102DCC0013B54FF02004EFF3118184F31288BFF395
:102DDC006F8F846844B1013C846081F31188BFF328
:102DEC006F8F002002B010BD52EA030406D181F3AC
:102DFC001188BFF36F8F6FF00F00F3E7CDE900235D
:102E0C000246024800F046F9ECE700BF58070020E4
:102E1C00C3897F2B12D80A4B1B6863B1094B90F9FD
:102E2C000E201B689A4209DB437BDB0606D1064B5E
:102E3C00C31A18BF012303F0010070470023FAE7FF
:102E4C003C03002038030020A8000020044BC01ACB
:102E5C00044BC0105843044B01221A54704700BF56
:102E6C00A8010020ABAAAAAA5807002070B50E4BE7
:102E7C000E4C1E7C06EB460304EBC30405462046B1
:102E8C0001F0ACFA0A4B002228469A55FFF7C0FF16
:102E9C0048B1084B08491A68013A2046D317BDE8D7
:102EAC00704000F011BB70BD14030020A80100207D
:102EBC00580700203C030020592E000038B50D4D5A
:102ECC002B4653F8184F9C4200D004B9EC68AB6801
:102EDC0038B95A7BD20604D1A26912B9DA897F2A91
:102EEC0005D89C4202D02046FFF7C0FF23466B61F9
:102EFC0038BD00BF1403002070B590F90D20437B42
:102F0C00002A014604DA03F07F03437301F0C4F98D
:102F1C004B7B154A63F07F0310464B7350F8183FF8
:102F2C00D469834208BF002323B9C1E9000421609E
:102F3C00D1610CE091F90E5093F90E60B5420ED0B0
:102F4C00AE420CDD5868C1E90030016059609068F0
:102F5C00431A5842BDE870405841FFF7AFBF9C423E
:102F6C00E3D01B68E0E700BF1403002070B490F9B5
:102F7C000D30427B002B29DBD30627D183692BBB79
:102F8C00134962F07F0242730A4652F8184F94427A
:102F9C0018BF2346CC6923B9C0E900242060C8615E
:102FAC000CE090F90E5093F90E60B5420AD0AE4287
:102FBC0008DD5A68C0E900321060586070BC00200F
:102FCC00FFF77CBFA342E7D01B68E4E770BC7047F7
:102FDC001403002008B590F90D20437B002A01460C
:102FEC0004DA03F07F03437301F056F9044B98683D
:102FFC00431A58425841BDE80840FFF75FBF00BF75
:10300C001403002070B515461C46064601F056F90F
:10301C00B4F1FF3F08BFB5F1FF3F08D02A46234665
:10302C0006F118000249BDE8704000F04DBA70BDC1
:10303C007D43000038B54FF02003EFF3118583F387
:10304C001288BFF36F8F104B104A9C681068A04217
:10305C0006D1FFF70BFF85F31188BFF36F8F38BDD7
:10306C0000211B7C11600A4AD35C002BF3D0204654
:10307C00FFF7CEFE0028EED0637BDB0602D12046A4
:10308C00FFF73AFF2046E4E7140300203403002046
:10309C005807002070B50C480C4D86682E600C4605
:1030AC001146DDE904234FF02006EFF3118586F37A
:1030BC001288BFF36F8F8068FFF7A4FF2046BDE82E
:1030CC007040FDF797BB00BF1403002034030020B1
:1030DC0049B9EFF3058030B9054B5A699B689A42A0
:1030EC0001D0FDF787BB81F31188BFF36F8F704759
:1030FC001403002010B54FF02002EFF3118482F37B
:10310C001288BFF36F8F427B510704D484F311886C
:10311C00BFF36F8F10BD22F004024273FFF726FF3E
:10312C0021460248BDE81040FFF7D2BF59070020E6
:10313C0070B50446183001F051F94FF02003EFF34D
:10314C00118683F31288BFF36F8F94F90D20637B84
:10315C00002A05DA03F07F036373204601F09CF824
:10316C000B4D637BA86843F010036373031B584239
:10317C005841FFF7A3FE86F31188BFF36F8FAB683E
:10318C00A34203D1BDE8704001F01EB970BD00BF71
:10319C00140300204FF02003EFF3118183F3128806
:1031AC00BFF36F8F044B9A68D37B013BD37381F3CE
:1031BC001188BFF36F8F70471403002010B54FF0C8
:1031CC002003EFF3118483F31288BFF36F8F084B46
:1031DC009A68D37B0133D3730020FFF76FFE84F31F
:1031EC001188BFF36F8FBDE8104001F0EDB800BF40
:1031FC0014030020024B03F11802C3E906227047A6
:10320C0014030020F8B54FF02003EFF3118583F37E
:10321C001288BFF36F8F19498868437B03F07F03D3
:10322C00437301F039F88B685A7B084662F07F02D1
:10323C005A7350F8182FCC69824208BF002222B969
:10324C00C3E900042360CB610CE093F90E6092F9A2
:10325C000E70BE420ED0B7420CDD5168C3E900219E
:10326C000B6053600120FFF729FE2846BDE8F840AB
:10327C00FDF7C0BAA242E3D01268E0E714030020C5
:10328C0050EA01032DE9F04105460E4603D1FFF744
:10329C00B9FF00202CE0831C71F1FF332ADB01F015
:1032AC00B3F82C184FF02003EFF3118883F3128836
:1032BC00BFF36F8F114F124BB8681860FFF78AFE7F
:1032CC00B86810492A463346183000F0FDF8BA6841
:1032DC00537B43F0100353734046FDF78BFA01F018
:1032EC0093F8201A63EB0303012873F10003D0DB7E
:1032FC00BDE8F0816FF00104241AD3E71403002019
:10330C00340300207D430000B1F1FF3F08BFB0F152
:10331C00FF3F08B506D1084B9868FFF709FF4FF03F
:10332C00FF3008BDFFF7ACFF4FF47A7380FB03034B
:10333C00C00B40EA4340F4E714030020014B9868AB
:10334C00704700BF140300202DE9F04104464FF0F4
:10335C002003EFF3118683F31288BFF36F8F037B87
:10336C00D9070BD586F31188BFF36F8F404080F3DC
:10337C0011884FF0040002DFBDE8F081437B1A078F
:10338C0004D586F31188BFF36F8FF5E723F0200285
:10339C0042F00801D20920D14173A36813B1204631
:1033AC0000F082FF04F1180001F018F804F158073E
:1033BC004FF00008A56DBD4200D0B5B90120FFF754
:1033CC007DFD104B9B68A342DBD1EFF30583002BF3
:1033DC00D7D13046FDF70EFAD3E703F05F0343F085
:1033EC000803437300F058FFD7E7284600F05CFF52
:1033FC0005F1180000F0F2FFC5F878802846FFF7B9
:10340C00B5FDD7E71403002008B50648064A07495E
:10341C00121A00F02DFFBDE80840054A0549064880
:10342C0000F026BF00000020860000206449000048
:10343C00000000006449000000000020034B1B68E2
:10344C000BB9FEF779BC0020704700BF4003002089
:10345C0010B50E4B1C689C4204D1FFF7EFFF6FF0C8
:10346C00004010BDFFF7EAFF002CF8D0D4E904327D
:10347C001B1A62EBE072B3F1004F72F10001EEDA4D
:10348C00002AACBF18460020EBE700BF78000020F4
:10349C0030B570B10B4B5B6898420AD0036843B1EE
:1034AC00D3E90421D0E90445121941EB0501C3E924
:1034BC000421D0E9003213605A600023C0E90033C4
:1034CC0030BD00BF78000020B3F1FF3F08BFB2F160
:1034DC00FF3FF8B504461D4616465CD081604FF0A0
:1034EC002003EFF3118783F31288BFF36F8F013240
:1034FC0075F1FF3324DA2D49D1E900206FF0010377
:10350C009B1A4FF0FF3262EB00009E1B60EB050034
:10351C00012E70F1000301DA01260020C4E90460D9
:10352C00234ED6F800C07568B44508BF4FF0000CA8
:10353C00BCF1000F0DD1C4E900652C6074601CE077
:10354C00FFF77CFF013645F10005361845EBE070BE
:10355C00E4E7DCE90420D4E90431934271EB000E7A
:10356C001ADAD21ADCF8043060EB0100CCE9042042
:10357C00C4E900C31C60CCF804403368B34206D0E5
:10358C009C4204D1FFF764FF0021FEF7A1FB87F3F7
:10359C001188BFF36F8FF8BD9B1A61EB0001AC452E
:1035AC00C4E90431C7D0DCF800C0C1E7C001002079
:1035BC00780000202DE9F84F4FF02003EFF3118C29
:1035CC0083F31288BFF36F8FDFF8B0A0DFF8B090F1
:1035DC002C4FC9F80000DAF800000024504508BF51
:1035EC0000200025D7E90021D9F80030E04680B34F
:1035FC00D0E9046C4FEAE37EB3427EEB0C0B05DAA8
:10360C00F61A6CEB0E04C0E9046422E0B21841EB2C
:10361C00E671C0E90445C7E90021FFF739FF88F3DB
:10362C001188BFF36F8F836898474FF02003EFF337
:10363C00118883F31288BFF36F8FD9F80030DAF852
:10364C0000009B1B5045C446C9F80030CAD1D7E9CD
:10365C0000219A1841EBE3730024C7E90023C9F851
:10366C000040FFF7F5FE2146FEF732FB88F3118888
:10367C00BFF36F8FBDE8F84FFFF7DCBC780000207C
:10368C0040030020C001002010B54FF02003EFF3E1
:10369C00118483F31288BFF36F8FFFF7CFFE064AB6
:1036AC000346D2E90001181841EBE37184F3118849
:1036BC00BFF36F8F10BD00BFC0010020014800F0A8
:1036CC0073BA00BF2A4900002DE9F04F8BB0436854
:1036DC000193837881469807144640F109810025AF
:1036EC000F78002F00F00681252F0BD04B1C029376
:1036FC000135019B4946384698470028C0F2F280B4
:10370C000299EDE74F788B1C252F0293F0D0002304
:10371C009A469846B8F11F0F37D8A7F12002102A05
:10372C000AD8DFE802F02909092F0909092009093B
:10373C000927092C09091E00A7F13002092A32D9E0
:10374C002A2F36D118F0400F54F8042B7ED1002AC2
:10375C00A7BF48F020089246C2F1000A48F028089A
:10376C0001E048F00108029A12F8017B0292002F46
:10377C00D0D130E048F0020848F00408F3E748F0F4
:10378C000808F0E748F01008EDE7B8F17F0F19D8FA
:10379C00A7F13002092AD3D818F0400F03D00A2120
:1037AC0001FB0323DFE70A2101FB0A2A48F020086A
:1037BC00D9E72E2F06D118F0400F40F09B8048F02F
:1037CC004008D0E76C2F2ED028D8682F33D06A2F22
:1037DC0039D04C2F37D0002B47F02002B8BF28F03F
:1037EC004008A2F16501BCBF1FFA88F8002302292A
:1037FC0001D9612A2CD1073424F00704A24E0834D5
:10380C00072718F0080F64D006EB070BB046D84515
:10381C0061D1AE1BB044AAEB070A62E1742FA2D0AF
:10382C007A2FA0D0D7E718F0800F18BF48F4007893
:10383C0048F0800897E718F4807F18BF48F40078A8
:10384C0048F480788FE748F420788CE713468AE7B1
:10385C00A7F16301122900F2E080DFE811F01300F8
:10386C004F00DE00DE00DE00DE004F00DE00DE007A
:10387C00DE00DE00DE00EE00D900DE00DE001A0005
:10388C00DE00A30054F8043B8DF81C30012707AE72
:10389C00B7E754F8046B7D4A002E08BF164618F0A3
:1038AC00400F14BF19464FF0FF31304600F0B0FD09
:1038BC000746A6E7019B494620209847002811DBC4
:1038CC0008F1FF384745F5D35544A5EB0805C2462A
:1038DC009AE7D046F6E718F8010B019B4946984742
:1038EC00002894DA99F8023043F0040389F8023086
:1038FC004FF0FF3528460BB0BDE8F08F18F0800F65
:10390C002ED018F4007F1BBF073424F0070454F8A2
:10391C00040B54F8080B28F010060028B6B22ADA6B
:10392C00404246F4806603930DF11C080A2241467E
:10393C0000F07AFD7206039BA0EB080853D526F025
:10394C000101434589B240F39380002F00F08B8036
:10395C0016F01002039240F08D809B460E4616E046
:10396C0018F4807F54F8040BD5D018F4007F14BFE2
:10397C0040B200B2CFE7D6D118F0400FD3D0002B15
:10398C00D1D128F011081FFA88F69B46984640F2D0
:10399C00064116EA010203921EBF00220BF1010B35
:1039AC00039228E028F010081FFA88F80A2218F071
:1039BC00800F45D018F4007F1BBF073424F0070498
:1039CC0054F8040B54F8080B002844D128F01606C0
:1039DC0018F0400FB6B242D0002B40D128F0170897
:1039EC001FFA88F6984616F01002039249D0002F61
:1039FC0045D108F1010B31075CD4F20706D5DA4545
:103A0C0072DDAAEB0B0202EB0803D3465A464BE0DD
:103A1C0048F0100810227827C9E7782A04D1C7F19A
:103A2C00780242F01002C2E7019B494625209847D4
:103A3C000028FFF657AF02355BE608220027B6E7F1
:103A4C0018F4807F54F8040BBED018F4007F14BF18
:103A5C00C0B280B2B8E728F006081FFA88F60393C4
:103A6C000DF11C0863E726F01106B6B29B468EE7F3
:103A7C000E46B8E71A460E4602F1020BBBE7424669
:103A8C00FAE7C34683E700BF5949000052490000DA
:103A9C00CDE904324946019B202098470028FFF6C7
:103AAC0021AF059A049B01329245F1DCA5EB0B0189
:103ABC008D189346039A1AB303934946019B302001
:103ACC0098470028FFF60EAF039B7FB901355E19AE
:103ADC00711B414526DC464607AF66BBA844AAEBE2
:103AEC000B0A4546C24437E043468FE70393023541
:103AFC0049463846019B98470028039BE7DAF1E6D4
:103B0C0040F206410E42E2D016F0020F14BF2B20F9
:103B1C00202016F4806F039305F10105494618BF68
:103B2C002D20E7E7019B494630209847002805F1F6
:103B3C000105CDDAD6E6013E019BB85D49469847B2
:103B4C000028CADACEE6019B494620209847002877
:103B5C0005F10105FFF6C6AEAAEB0503002BF2DC5E
:103B6C00CEE500BF7047F0B403460A461979DB88EE
:103B7C0000681343DC028768066906D513F4402FEE
:103B8C0003D0DA0748BF83F44023346801258D4005
:103B9C0023F48012DB074CBF2C43AC4334603B68EE
:103BAC00F0BC1847002070470FB407B504A951F8B2
:103BBC00040B0191FCF768FC03B05DF804EB04B056
:103BCC00704700EBC100408840087047F8B50346C9
:103BDC00FFF7F7FFB0FA80F0C0F11F0003EB800C89
:103BEC00CA00DCF81060171D0C4606328DB256B9AF
:103BFC00012101FA00F0D9680143D960CCF81040DA
:103C0C00DD539D52F8BDF1000431585AD85303EBE3
:103C1C00C0009E52C5805D52F4E7043A2DE9F04194
:103C2C00CC1D114424F0070421F007010E1BF708EA
:103C3C00B7FA87F2C2F12405AD004FF00008073542
:103C4C00C2F12002ED0804604146A760C4F80C8064
:103C5C00920004F1100000F00FFC6B0043F0010324
:103C6C00638004EBC5027B1B5900A4F800805180D3
:103C7C00A21924F83550A2F80280A35304EBC70311
:103C8C0029465A8842F001025A802046BDE8F0418C
:103C9C00FFF79CBF038B13F0070305D10368002BC0
:103CAC000CBF002003207047022B05D1408BB0FACB
:103CBC0080F0400980007047012B05D10368002B70
:103CCC000CBF0020052070470020704710B50C4633
:103CDC0000B111B96FF0150010BD081D00F095F87A
:103CEC000028F9D1A368032BF6D9F3E72DE9F041AD
:103CFC000D4607461946281D90461E4600F096F8BC
:103D0C00044638B13346424629463846A446BDE8F7
:103D1C00F0416047BDE8F08110B44FF02004EFF3A0
:103D2C00118284F31288BFF36F8F416110BC0121A3
:103D3C00FCF7DCBB38B50C46054658B151B10B68E5
:103D4C0043B14B6833B11C22002100F095FB2C6170
:103D5C00002038BD6FF01500FBE770B505460E4628
:103D6C00FFF7B4FF041E15DB4FF02003EFF31182B5
:103D7C0083F31288BFF36F8F6B8B2C8B4FF6FF7115
:103D8C008B4204F0070407D182F31188BFF36F8FC5
:103D9C006FF00A04204670BD022C0CD101336B83EA
:103DAC0082F31188BFF36F8F0023224631462846D9
:103DBC00FFF79CFFEEE7062C14D8DFE804F00413A1
:103DCC001313041A0400002333606B683BB9C5E974
:103DDC000066ACB902212846FCF788FBDAE71E60C6
:103DEC006E60F6E782F31188BFF36F8F6FF00404F7
:103DFC00D0E782F31188BFF36F8F6FF08504C9E7AA
:103E0C0082F31188BFF36F8FC4E7034658B1426841
:103E1C0002F00302012A03D0032A04D1026812B172
:103E2C000020986070476FF0150070474268816001
:103E3C0002F00302032A4FF0000203460CBF006895
:103E4C0010465A6070477047FEF7E6BD01460068A1
:103E5C00FEF7E2BD00210120FFF7F6BF08B5FCF725
:103E6C00A9FCBDE80840FCF78FBD08B5FDF71CF8B0
:103E7C00002008BD0369C9B20C2201FB0233186C87
:103E8C0000F0070070474FF02003EFF3118283F32B
:103E9C001288BFF36F8F036803F0C00343F0020373
:103EAC00036082F31188BFF36F8F704770B5C9B28E
:103EBC0003694FF02004EFF3118584F31288BFF3EC
:103ECC006F8F0C2606FB0134246C14F0C00408D050
:103EDC00A24206D085F31188BFF36F8F4FF0FF30ED
:103EEC0070BD06FB013301221A6485F31188BFF300
:103EFC006F8F436803EBC1035B6898470020EFE7C3
:103F0C008022FFF7D3BFF8B5069F0469C9B24FF002
:103F1C002005EFF3118685F31288BFF36F8F0C2504
:103F2C0005FB0144256C05F0070CBCF1010F0CD10D
:103F3C00276486F31188BFF36F8FC4E90E2343689F
:103F4C0053F8313098470020F8BD05F0C005AF425A
:103F5C0086F31188BFF36F8F0CBF6FF077004FF0B3
:103F6C00FF30F1E713B580240094FFF7CCFF02B0CB
:103F7C0010BD10B40069CBB21C2403FB040000215B
:103F8C0010BC1047002000F0A1B81046FEF7F4BE9C
:103F9C0043685B68D3F810350B60002070474368AA
:103FAC005B6802EA010021EA0201C3F80805C3F8C4
:103FBC000C150020704743685B680020C3F8081597
:103FCC00704743685B680020C3F80C157047436862
:103FDC005A68D2F8043521EA03000B40C2F80805F0
:103FEC00C2F80C350020704710B503695868F8B159
:103FFC00884219D19C6808685860A14200D1986029
:10400C00002008602AB15A680A609A68596002B99F
:10401C009960002010E0814206D108682060986801
:10402C008142EDD19C60EBE7044600680028F2D198
:10403C00002AE8D16FF0150010BD30B5436813604D
:10404C00057A446804EBC504A34202D36FF0010067
:10405C0030BD5C798C4201D00833F0E70020F7E7E3
:10406C0002690B4692E8030083E8030000207047C6
:10407C0000F150039B009BB203F1804303F588339E
:10408C0000221A601B68704708B50020FCF700FE80
:10409C004FF08053D3F83001421C04BF4FF07043F3
:1040AC0093F8E00F831F584258417047004700F0C7
:1040BC00CDB808B50020FCF757FB08B9FCF746FB58
:1040CC004FF080430022C3F8182508BDFDF7DABF76
:1040DC00036803F01F025B0902600CBF4FF0A040A5
:1040EC0000207047F7B5019001A8DDE90847164696
:1040FC001D46FFF7EDFF019BB6F1000C18BF4FF00A
:10410C00010C00EB83000B1E18BF0123002D43EAAA
:10411C004C0314BF4FF00C0C4FF0000C002C43EA76
:10412C000C0314BF4FF4E06C4FF0000C002F43EA6B
:10413C000C03D0F8002714BF4FF4403C4FF0000C98
:10414C0043EA0C0322EA030301B109780EB1367875
:10415C00760019430DB12D78AD0031430CB12478A4
:10416C00240229430FB13F783F040C433C43C0F871
:10417C00004703B0F0BD1FB50DF10F0301930023F1
:10418C008DF80F1000931A461946FFF7ABFF05B0D8
:10419C005DF804FB0369C26893429CBF81685B189D
:1041AC00013B981A70472DE9F0410446D0E9028092
:1041BC00D4F804C0A8EB0006964200EB02050F46AB
:1041CC00604406D900F04AF9BFF35F8FE560BDE8A3
:1041DC00F0813246A5EB080500F040F960682A46EC
:1041EC00B919EFE72DE9F843C56806468946174625
:1041FC004FF000083369B46870689D4228BF1B19E2
:10420C00641BBC4203F1FF3328BF3C465B1B9C4242
:10421C0028BF1C4649462246284400F01FF9B368C3
:10422C002544A044A1443F1BAB4208BF0025BFF36B
:10423C005F8FF560002FDDD14046BDE8F883FEF7B7
:10424C008BBB08B5FFF7FBFF002008BD08B1FCF7DE
:10425C005DBE7047704740B1C368587810F00100DC
:10426C001EBF1878B0FA80F04009704700F004B90E
:10427C0000F0F4B8EFF30580003818BF0120704748
:10428C0008B54FF02002EFF3118382F31288BFF3CD
:10429C006F8FFCF741FAF4E7D0E9003213605A60F3
:1042AC000023C0E90033704708B5FFF7F5FF437BE7
:1042BC0023F0020343730023836008BD38B5044622
:1042CC000D46FEF787FE637B43F002036373E5B193
:1042DC00A5602B689D4209D16B68C4E900531C6032
:1042EC006C6012E06A689342F6D01B68002BF3D026
:1042FC0094F90E2093F90E108A42F3D09142F1DD1D
:10430C005A68C4E9003214605C6038BD10B54FF0D7
:10431C002003EFF3118483F31288BFF36F8FFEF742
:10432C0025FE84F31188BFF36F8F10BD38B504469A
:10433C004FF02003EFF3118583F31288BFF36F8FD7
:10434C00437B13F0280F0BD183680BB1FFF7ACFF45
:10435C00637B51B903F0FB0363732046FEF706FE43
:10436C0085F31188BFF36F8F38BD03F0EB03F3E7D0
:10437C0001211838FFF7DABF38B54FF02003EFF3FF
:10438C00118583F31288BFF36F8F0468A0420DD0A0
:10439C0034B12046FFF788FF04F1180000F01EF836
:1043AC0085F31188BFF36F8F204638BD0024F7E7E3
:1043BC00034620B9EFF305820AB9FCF71BBA83F365
:1043CC001188BFF36F8F70474FF02003EFF311800C
:1043DC0083F31288BFF36F8FFFF7EABF10B54FF06E
:1043EC002002EFF3118482F31288BFF36F8F0368FE
:1043FC003BB1FFF74DF8002084F31188BFF36F8FAA
:10440C0010BD6FF01500F7E708B5FFF73DF908BDD3
:10441C0010B5024601448A42134603D01C7801327F
:10442C00002CF8D1181A10BDF0B5C2F137050446AE
:10443C00EDB202F01F020846B4FBF2F602FB164185
:10444C00CBB2092988BF5B19274688BFDBB2303352
:10445C00BA4200F8013B3446EED9F0BD0A44914211
:10446C0000F1FF3300D1704710B511F8014B03F880
:10447C00014F9142F9D110BD02440346934200D141
:10448C00704703F8011BF9E701480068704700000A
:04449C00D401002027
:0844A00070BCFF7F0100000069
:1044A800010F000000000000D50F0000F0440000DC
:1044B8004F42000000000000CD130000044500003A
:1044C800C518000018450000351200000000000063
:1044D800A512000000000000791B00000000000089
:0844E800DD0E000000000000E1
:1044F000984800000047000010470000800000209E
:10450000F0010020B54800002C4700003C470000A7
:104510008200002044020020C348000060470000E1
:0C452000804700008400002014000020F0
:10452C0025220000B940000000000000613E0000A0
:10453C0000000000613E000000000000613E000031
:10454C0000000000613E000000000000613E000021
:10455C0009280000B940000000000000613E000086
:10456C0000000000613E000000000000613E000001
:10457C0000000000613E000000000000613E0000F1
:10458C0000000000613E000000000000613E0000E1
:10459C0000000000613E000000000000613E0000D1
:1045AC0000000000613E000000000000091C00003B
:1045BC0000000000613E000000000000613E0000B1
:1045CC0000000000613E000000000000613E0000A1
:1045DC0000000000613E000000000000613E000091
:1045EC0000000000613E000000000000613E000081
:1045FC0000000000613E000000000000613E000071
:10460C0000000000613E000000000000613E000060
:10461C0000000000613E000000000000613E000050
:10462C0000000000613E000000000000613E000040
:10463C0000000000613E000000000000613E000030
:10464C0000000000613E000000000000613E000020
:08465C0000000000613E0000B7
:10466400F148000000000000FC48000000000000C9
:104674007048000000000000A7480000000000008F
:10468400D148000000000000814800000000000044
:1046940027490000000000009448000000000000CA
:0C46A400FFFFFFFFFFFFFFFFFFFFFFFF16
:1046B0000338FDD870470000044500000E000100DB
:1046C000044500000200110000000020000000006E
:1046D00000000B0602000000DC46000000000000A5
:1046E0008548000024000207000000208D480000DB
:1046F0001E000B115D0F00002D0F000000000000D8
:104700007D100000A10F000015110000913F000076
:10471000E11000000D3F0000713F000000000000AC
:10472000813E00000000000000000000FFFFFFFFCE
:1047300000000050000000000000000041140000D4
:104740009D3F0000AB3F0000C33F0000CF3F000093
:10475000DB3F0000F5120000F53F00000000000004
:104760006447000000200040704700000100000086
:104770007847000002000000050000000B00010067
:10478000B916000049180000DD160000ED16000003
:104790006D400000F5FFFFFFA8440000A8440000A2
:1047A000E0440000E8440000F0440000F044000051
:1047B00043616C63756C6174696E67207468652011
:1047C000666163746F7269616C73206F66206E75C9
:1047D0006D626572732066726F6D203120746F2078
:1047E00025643A0A0054686520666163746F7269D3
:1047F000616C206F6620253264203D20256C640AA0
:10480000005F5F5F5F5F5F5F5F5F5F5F5F5F5F5F17
:104810005F5F5F5F5F5F5F5F5F5F5F5F5F5F5F5FA8
:104820005F5F5F5F5F5F5F5F5F5F5F5F5F5F5F5F98
:104830005F5F5F5F5F5F5F5F0A006E524620436F9E
:104840006E6E6563742053444B2046756E64616DD3
:10485000656E74616C73202D204C6573736F6E20D0
:1048600034202D20457865726369736520310A0014
:1048700063627072696E74665F7061636B616765B5
:10488000006D707500464C4153485F3000535241F3
:104890004D5F3000736F6300636C6F636B40343047
:1048A00030303030303000636C6F636B5F636F6E3D
:1048B00074726F6C006770696F4035303030303023
:1048C0003030007561727440343030303230303006
:1048D00000666174616C5F6572726F720000000047
:1048E00000010000000101000001010101000000C1
:1048F000004E5246585F434C4F434B004E52465871
:104900005F4750494F5445005465726D696E616C44
:104910000000000000000054545220524547474513
:1049200053006D61696E006F73002A2A2A20426F5E
:104930006F74696E67206E524620436F6E6E6563BA
:10494000742053444B2076322E352E31202A2A2AC9
:104950000A00286E756C6C29002A666C6F61742AD7
:044960000000000053
:10496400B13B000000000000773E000000000000A2
:104974000000000000C2010000010300000000006C
:104984000000000000000000000000000000000023
:104994000000000000000000000000000000000013
:1049A4000000000000000000000000000000000003
:1049B40000000000000000000000000000000000F3
:1049C400000000000000000000000000FF000000E4
:1049D40000000000000000007800002078000020A3
:0649E400000000000000CD
:0449EA0015E015E0DF
:0400000300000C49A4
:00000001FF
