:1000000078150020810C0000AF440000550C000062
:10001000550C0000550C0000550C000000000000BD
:10002000000000000000000000000000C508000003
:10003000550C0000000000006D080000550C000089
:100040004909000049090000490900004909000068
:100050004909000049090000490900004909000058
:100060004909000049090000490900004909000048
:100070004909000049090000490900004909000038
:100080004909000049090000490900004909000028
:100090004909000049090000490900004909000018
:1000A0004909000049090000490900004909000008
:1000B00049090000490900004909000049090000F8
:1000C00049090000490900004909000049090000E8
:0C00D0004909000049090000490900002E
:1000DC0053B94AB9002908BF00281CBF4FF0FF31A3
:1000EC004FF0FF3000F00CB8ADF1080C6DE904CE08
:1000FC0000F008F8DDF804E0DDE9022304B07047F5
:10010C00704700BF2DE9F04786468C460846089E8E
:10011C00154674461946002B40F0C2808542B2FA4F
:10012C0082F245D94AB1C2F1200300FA02FC2EFA40
:10013C0003F3954043EA0C0C94404FEA154EA8B2D9
:10014C00BCFBFEF8230C0EFB18CC08FB00F943EAB1
:10015C000C43994528D9EB1808F1FF3704D299457F
:10016C0002D9A8F102072B44A3EB0903A4B2B3FBF9
:10017C00FEFC0EFB1C330CFB00F044EA0344A042D3
:10018C0014D92C190CF1FF3304D2A04202D9ACF1D2
:10019C0002032C44241A43EA07401EB1D440002326
:1001AC0034607360BDE8F0874746DDE76346F1E7EE
:1001BC0092BB431B01214FEA154EAFB2B3FBFEFCC1
:1001CC00200C0EFB1C330CFB07F840EA034398454C
:1001DC0062D9EB180CF1FF3004D2984502D9ACF17E
:1001EC0002002B44A3EB0803A4B2B3FBFEFC0EFBF2
:1001FC001C330CFB07F744EA0344A7424ED92C19D5
:10020C000CF1FF3304D2A74202D9ACF102032C4407
:10021C00E41B43EA0040C0E7C2F1200320FA03F1DB
:10022C00954090402EFA03F303434FEA154EAFB2BC
:10023C00B1FBFEFC0EFB1C10190C0CFB07F841EA81
:10024C000041884504FA02F422D969180CF1FF30F8
:10025C0004D2884502D9ACF102002944A1EB080173
:10026C009BB2B1FBFEFC0EFB1C110CFB07F743EA27
:10027C0001439F420ED9EB180CF1FF3104D29F427F
:10028C0002D9ACF102012B44DB1B41EA004192E79D
:10029C006046E3E76146F7E76046A3E76346B7E7E6
:1002AC00834206D916B9002108467BE7C6E900E06F
:1002BC00F9E7B3FA83F78FB9834201D3724508D8B3
:1002CC00BEEB020460EB030301209C461EB9002127
:1002DC0068E73846FAE7C6E9004CF8E7C7F1200CA6
:1002EC00BB4022FA0CF41C432EFA0CF120FA0CF34E
:1002FC00B84001434FEA14490EFA07F5B3FBF9F87D
:10030C001FFA84FE09FB18300B0C08FB0EFA43EAAB
:10031C0000439A4502FA07F240D9E31808F1FF307E
:10032C0004D29A4502D9A8F102002344A3EB0A0394
:10033C0089B2B3FBF9F809FB183308FB0EFE41EA4E
:10034C0003418E452CD9611808F1FF3304D28E4538
:10035C0002D9A8F10203214443EA0040A0FB029811
:10036C00A1EB0E014145CE46434602D306D14D4585
:10037C0004D2B9EB020E68EB04030138002EA6D0B0
:10038C00B5EB0E0261EB030101FA0CFC22FA07F348
:10039C004CEA0303F940C6E9003198E74046C5E74B
:1003AC004346D9E710B40A78022A03D0052A15D09F
:1003BC0010BC7047CB68012BFAD1D1E90123D35C77
:1003CC00312B03D1094810BC03F007BF322B01D1EC
:1003DC000748F8E7332BEBD10648F4E78368064966
:1003EC00DC680A22A446642310BC6047B84D0000A8
:1003FC00B04D0000A84D00001404002038B5214C6D
:10040C00206804F04BFA20B91F4803F0F0FE0120DD
:10041C0038BD1E4804F042FA08B91D48F5E71D48DE
:10042C0003F0C1FE0028F2DB1B4803F0BCFE0028E1
:10043C00EDDB194803F0B7FE0028E8DB2068836881
:10044C001B68002BE3D01549002298470028DED109
:10045C002068836812495D686D224FF0FF33A8470E
:10046C000028D4D1206883680E49DC680A226423F2
:10047C00A0470028CBD100214FF4004003F0C2F973
:10048C00F9E700BF00000020C04E0000F44B000054
:10049C00D84E0000B84D0000B04D0000B103000074
:1004AC008400002014040020014B1B68184700BF77
:1004BC0004000020014B1860704700BF04000020AE
:1004CC0030B585B004460D4610220021684604F074
:1004DC004AFB02238DF802302A46044B0193214635
:1004EC00684603F011FC05B030BD00BFB504000038
:1004FC0080B505460E461746984603F09DF903460F
:10050C0004F03AFBDFF81890044649F800304246F4
:10051C0030463946A84754F8090000F02BFC00BFC0
:10052C00080000002DE9F047058B0446280790468B
:10053C0011D4022905F0070540F0CD80204603F0C8
:10054C00CCFE78B10138218B042811D8DFE800F0FB
:10055C00C3106D85950001290CBF45F0100545F0C1
:10056C002005258388F31188BFF36F8FBDE8F087D2
:10057C0001F0070AAA4500F0A6800027B9463E46BE
:10058C00A368002B00F0BD8041F00801218388F3A3
:10059C001188BFF36F8FA168002900F0BB800D6834
:1005AC00002900F0B780D1F804803346524620462B
:1005BC00C047002D76D02B6829461D46F0E701F088
:1005CC0007035A1F012A1BD8002221F00701062B12
:1005DC00276889B2C4E9002209D13B4603E0628B4B
:1005EC00013262831B68002BF9D141F00201218397
:1005FC00204603F072FE00287BD041F0200177E00A
:10060C00042B0AD121F0070189B22183204603F083
:10061C0064FE10B141F020012183218B01F0070A07
:10062C00AA4550D00027B946AAE7236921F0070153
:10063C0041F00601062DD3F8009021832DD1B9F19C
:10064C00000F40D041F00801218388F31188BFF3DB
:10065C006F8F3A492046C84729E021F007012369EA
:10066C0041F0040189B2042DD3F804902183E6D023
:10067C0000273E464FF0040A82E721F00701236968
:10068C0041F0050189B2052DD3F808902183D6D00D
:10069C0000273E464FF0050A72E700273E464FF012
:1006AC00060A6DE72B4687E7B9F1000FD1D14FF061
:1006BC002003EFF3118883F31288BFF36F8F238B22
:1006CC0023F008032383258BEA062ED525F010038F
:1006DC00238305F007056669218B002EBFF66FAFEB
:1006EC0000232768C4E9003321F0070141F0010120
:1006FC002183218B01F0070AAA454FF000097FF4F2
:10070C003FAF002F9BD041F00801218388F3118863
:10071C00BFF36F8F002FC7D03D6839463346524622
:10072C00204603F006FE2F46F4E7AB067FF51AAF22
:10073C0025F02003238305F00705FFE66B4300003B
:10074C0001F09EBD014910220A60704710ED00E0D7
:10075C0072B6404080F31188BFF36F8FBFF34F8F99
:10076C0030BF62B6BFF36F8F704700BF72B649409F
:10077C0081F31188BFF34F8F20BF80F3118862B6CD
:10078C00704700BF40B2002807DB044A410901232F
:10079C0000F01F00834042F82130704700E100E078
:1007AC00054B420900F01F0053F82220012303FAE5
:1007BC0000F01040704700BF00E100E040B200289C
:1007CC00A8BF00F1604001F10101B8BF064B4FEA30
:1007DC004111ACBF00F5614000F00F00C9B2B4BFCD
:1007EC00195480F80013704714ED00E030BFFFF788
:1007FC00FDBF00BF0B4A08B50B4B22F07F029A607D
:10080C00BFF34F8FBFF36F8FD3F8882022F47002A1
:10081C00C3F8882002F0D8FB03F074F800F01EFA3D
:10082C0002F020FC0000000000ED00E0094A0A493B
:10083C00936809689967094958674B6843F0805376
:10084C004B60002383F31188BFF36F8F9368986F0D
:10085C00704700BFE4030020A44E000000ED00E050
:10086C0012498A684FF030001044EFF3098C80E88D
:10087C00F01F202080F31288BFF36F8F0C4F4FF0C6
:10088C0000664A698A603E604FF070041419206853
:10089C00084C2060506F0023536780F3118802F1DD
:1008AC00300090E8F01F8CF309887047E4030020B7
:1008BC0004ED00E0A80200201EF0040F0CBFEFF3C3
:1008CC000880EFF30980816911F8021C0229FFD01E
:1008DC0001B503F0DEFD01BD42F8203C009B42F85F
:1008EC001C3C0A49019B42F8183C029B42F8143C00
:1008FC0021F001014FF0807342F8043C42F8081CCF
:10090C000023203A02654367704700BFFD040000D6
:10091C00084B9860084B006F1860104681F30988EB
:10092C00002163B681F31188BFF36F8F002200237F
:10093C00FFF7DEFDE4030020A802002001B5EFF371
:10094C000580A0F110004FEAC0000449014409C918
:10095C009847BDE801400249084700001C4C0000C4
:10096C00CD090000114B124A2DE9F041D518DFF8E2
:10097C004480013DB5FBF3F55D430F4B08EB0304DD
:10098C00013CB4FBF3F403FB04540E1B07460B4968
:10099C00304604F0DAF8701942460021083E04F0A3
:1009AC00E2F83E6704F10800BDE8F08101000000A8
:1009BC00000000000400000004000000944D000042
:1009CC00044B99685869884203D003494FF0805210
:1009DC000A607047E403002004ED00E0134B9A6AB0
:1009EC0012F0007F9A6A14BF1E201D2012F0807F27
:1009FC009A6A18BF1F2012F4002F9A6A18BF212080
:100A0C0012F4802F9A6A18BF222012F4003F9A6ABF
:100A1C0018BF232012F4803F9A6A6FEA02426FEAF1
:100A2C0012429A6218BF2420704700BF00ED00E00C
:100A3C0010B5194B0246986A9C6A10F4805F14BF7B
:100A4C001720162014F4006F9C6A18BF1820A405F8
:100A5C0009D5986B986A000404D51AB19A6A22F4E5
:100A6C0000429A6219200C4B9A6A12F4806F9A6AAF
:100A7C0018BF1A20D2050CD49B6A13F4005F18BF60
:100A8C001C20054A936A43F47F43936200230B7046
:100A9C0010BD1B20F5E700BF00ED00E010B51C4BAE
:100AAC000246986A9C6A10F0100F14BF1120102097
:100ABC0014F0080F9C6A18BF1220A40709D5586BB4
:100ACC00986A000604D51AB19A6A22F080029A62DA
:100ADC0013200F4B9A6A12F0010F9A6A18BF142058
:100AEC0012F0200F9A6A18BF1520D40658BF9B6AC3
:100AFC00074B9A6A920642BF5A6A22F400525A6213
:100B0C009A6A42F0FF029A6200230B7010BD00BF7C
:100B1C0000ED00E0F0B5474B5B688BB00446C3F3C7
:100B2C000803002585F31188BFF36F8F02F07F4017
:100B3C00B0F17F4F11D102F00C0008280DD0100736
:100B4C004CBF0C4601250022033B8DF80720032BDC
:100B5C0005D8DFE803F02462665F2C46F3E7002338
:100B6C009DF80720CAB902AE04F12007206861681D
:100B7C00324603C20834BC421646F7D1099A002DFE
:100B8C0053D0C2F3080121B96FEA52226FEA422214
:100B9C00099202A9184603F07AFC0BB0F0BD254B64
:100BAC00DA6A9107DBD4DA6A002AD8DBDA6A5200F7
:100BBC00D5D55A69A16942F480725A61BFF34F8F3F
:100BCC00BFF36F8F5A6931F8021C22F480725A619C
:100BDC00BFF34F8FBFF36F8F4DF60272914209D066
:100BEC009A6AD2B242B10DF107010120FFF756FF0C
:100BFC000346B5E72368B3E79A6A12F47F4F05D032
:100C0C000DF107010120FFF713FFF1E79B6AB3F524
:100C1C00803FA4D3FFF7E2FEEAE70DF107010020C5
:100C2C00E4E70DF107010020EDE722F4FF7222F05A
:100C3C000102ADE700ED00E0024A536943F01003F6
:100C4C005361704700ED00E0EFF30880EFF309818A
:100C5C0001B57246FFF75EFF01BD00BF04480023DB
:100C6C002021C2180133272B82F80013F9D17047C9
:100C7C0000E100E0002080F31488BFF36F8FFFF7D2
:100C8C005FFD00200D490860BFF34F8F0C4880F3C7
:100C9C00088800F03DF8202080F3118809484FF4B3
:100CAC000061401880F30988EFF314800221084397
:100CBC0080F31488BFF36F8FFFF79CFD94ED00E079
:100CCC007815002038080020BFF34F8F0549064BDC
:100CDC00CA6802F4E0621343CB60BFF34F8F00BFCE
:100CEC00FDE700BF00ED00E00400FA050749D1F86C
:100CFC0090200023C2F307221846934200DB704772
:100D0C00C1F89830C1F8A0000133F6E700ED00E01F
:100D1C0008B572B6002383F31388FFF7E7FF144B73
:100D2C004FF0FF32C3F88020C3F88420C3F888202A
:100D3C00C3F88C20C3F89020C3F89420C3F89820F3
:100D4C00C3F89C20C3F88021C3F88421C3F8882100
:100D5C00C3F88C21C3F89021C3F89421C3F89821CF
:100D6C00C3F89C2162B6BFF34F8FBFF36F8F08BDE2
:100D7C0000E100E0084B9B6883420BD1EFF3058345
:100D8C0043B1064B5A6842F080525A605A6A22F4B8
:100D9C0000425A6202F056BDE403002000ED00E070
:100DAC00024B034A0348012100F060B80000012007
:100DBC0000000020C04D0000F0B5204E00258D42F3
:100DCC0039DA446874B353B104F1FF3C14EA0C0FE4
:100DDC002FD11F2C2DD907681CEA070F29D1202CE5
:100DEC000768D0F808C05FFA82FE1ED9B4F1004F34
:100DFC001DD8013CB4FA84F4C4F11F046400BEF1A4
:100E0C00070F4CEA040C14D827F01F04144344F0C9
:100E1C001004C6F89820C6F89C404CF00104C6F8A3
:100E2C00A040013201350C30C9E70824E7E73E2425
:100E3C00E5E76FF015021046F0BD00BF00ED00E0D5
:100E4C00044B0522C3F89420BFF34F8FBFF36F8F71
:100E5C00704700BF00ED00E0BFF35F8F024B002234
:100E6C00C3F89420704700BF00ED00E010B5034CB0
:100E7C0001232278FFF7A0FF207010BD1E04002074
:100E8C0014490868082810B521D8FFF7E5FF124C63
:100E9C0049680022904201F10C0105D10F4B1870EA
:100EAC00FFF7CEFF002010BDC4F8982051F80C3C81
:100EBC0023F01F03134343F01003C4F89C3051F884
:100ECC00043C43F00103C4F8A0300132E2E74FF0D8
:100EDC00FF30E8E7CC4D000000ED00E01E040020E0
:100EEC0008B5024B1B689847002008BDAC020020D7
:100EFC00034B044A1860937843F0020393707047D5
:100F0C00AC0200200800002008B50649064821F074
:100F1C000701C1F1005202F5803203F0A1F9002063
:100F2C0008BD00BF8B15002078150020044A012352
:100F3C00C2F840354FF080420020C2F87835704737
:100F4C0000E0014020B1034B800143F0010318473E
:100F5C00704700BFA04D0000084B70B5C31A0D467A
:100F6C0007499B10044659430648402203F0C1FA36
:100F7C002B4601462046BDE870401847C4020020AD
:100F8C00B76DDBB6E04B000073B50C4C0C4A40233C
:100F9C00041B00930D460B460A49A41061430646F8
:100FAC00094803F0D3FA011E05DA30462B4602B08D
:100FBC00BDE87040184702B070BD00BFC4020020ED
:100FCC00C5450000B76DDBB6E04B000010B54FF027
:100FDC002003EFF3118483F31288BFF36F8F074A5A
:100FEC00136823F00201DB07116002D4012003F027
:100FFC0090FB84F31188BFF36F8F10BD1403002096
:10100C00002270B5012104461046FFF7D7FB0F48AC
:10101C0001F018FB0E4B984215D103F06DFB2669BD
:10102C000C49304603F0A9F900280BDB0125356487
:10103C002469084904F11C0003F09FF9002801DB26
:10104C00E564002070BD6FF00400FBE79910000010
:10105C000000AD0BEC4D000070B501460C230948A7
:10106C004B43C418D4E90E56403300221844A263F3
:10107C0003F02CFA2DB132462B460348BDE87040E4
:10108C00184770BDC4020020E04B000010B10128CD
:10109C0004D07047034B1B6C5B0701D1FFF7DCBF1F
:1010AC00704700BFC402002008B54FF02003EFF3D7
:1010BC00118183F31288BFF36F8F124A136843F0C8
:1010CC0002001060DA0708D481F31188BFF36F8F28
:1010DC000120BDE8084001F0C5BA4FF08043D3F8B9
:1010EC000C24D3F80C34DB07EED5074803F0EEF9EB
:1010FC0081F31188BFF36F8F0020BDE80840FFF724
:10110C00ABBF00BF14030020040300201FB5002256
:10111C000123CDE90223094ACDF800D06B46CDF866
:10112C0004D003F042FA002805DB4FF48042002380
:10113C00684602F0C3F805B05DF804FBDD4500001D
:10114C0010B5074C23782BB94FF4A57003F0A1FB15
:10115C0001232370BDE81040002001F083BA00BFCA
:10116C001F0400202DE9F0413849BFF35B8F07467F
:10117C00012251E8003F41E800200028F9D1BFF3DB
:10118C005B8F33B9324933484B60CB608A6003F0D4
:10119C0007F97B1E012B2BD8012F07D14FF0804371
:1011AC00D3F81C3403F00303012B21D003F085FB8F
:1011BC000546F8B9284B1B78E3B14FF08043022267
:1011CC00C3F808230646DFF894804FF08044D4F827
:1011DC001824D4F81834D20316D503F00303012BCA
:1011EC0001D0012F10D15DB386F31188BFF36F8F3F
:1011FC00BDE8F0814FF02003EFF3118683F31288E2
:10120C00BFF36F8F0125DEE7ADB13046FFF7AEFAC5
:10121C00D4F81835002BDAD1D4F80421002AD6D012
:10122C00C4F80431D4F804310123C4F81835C8F8D3
:10123C008031A360CBE70021212002F0E3FAE7E73D
:10124C004FF080430222C3F80423D1E7C0020020F0
:10125C00B0020020E00200203108002000E100E094
:10126C0010B5044C2046FFF725F92046FFF740FE49
:10127C00002010BD85120000F7B5144E8DF8070044
:10128C0004460325EFF311874FF0200181F31188F9
:10129C0001220DF10701002001F010FE87F31188E7
:1012AC0020B101233370204603B0F0BD3378002BFE
:1012BC00F9D0013D08D003F000FB0028E2D1002159
:1012CC00422002F09FFADDE73570ECE720040020A5
:1012DC0008B5074803F0E2FA38B10648FFF708FEF4
:1012EC000448FFF7E7F8002008BD6FF01200FBE799
:1012FC00084C0000051300000A2838B5074D0446B9
:10130C0004D1AB680D21DB6928469847AB680348CC
:10131C00DB69E1B29847204638BD00BF084C00009D
:10132C0030B54068057B01F01F04B2F5001F85B095
:10133C0044EA451405D1204601F07CFC002005B0A0
:10134C0030BD0025B2F5800FCDE9025514D1B3F1B3
:10135C00007F0CBF042305238DF8083000231946A9
:10136C0002AA204601F09AFA214B984239D1012168
:10137C00204601F013FCE1E7B3F1C06F26D0B3F1C6
:10138C00007F14BF012302238DF80830836823FAF1
:10139C0001F111F00101E1D1B2F1A07FDED104F035
:1013AC001F03620903F5E0731ED14FF0A04252F8FF
:1013BC002330DB07D2D40DF107052946204601F076
:1013CC0099FB0C4B984203D00395C7E70323DBE74B
:1013DC00284601F0DDFB064B9842F5D06FF00B0070
:1013EC00ADE76FF01500AAE751F82330FFDE00BF20
:1013FC000000AD0B0400AD0B10B501F0B9FB0446B9
:10140C0068B901F08DFB084B98420AD10748214678
:10141C0001F06AFB224605210620FFF7CFF90020D8
:10142C0010BD6FF00400FBE70000AD0B3D14000095
:10143C00430970B507D10B4B596821B101250C68D4
:10144C00094E854001B970BD8A682A4002D04B68AC
:10145C00304698471CB1236821461C46F2E72346C8
:10146C00FAE700BF18030020F44B00002DE9FF4100
:10147C0047683B7B01F01F0545EA43150E4628469D
:10148C000DF10701144601F035FB14F4403F804682
:10149C000DD1284601F0F4FB3D4B984503D19DF846
:1014AC00070001F06FFB002004B0BDE8F0810023C1
:1014BC00194602AA2846CDE9023301F0EFF9344B64
:1014CC00984214D1804503D19DF8070001F05AFBD6
:1014DC00A3034ED540F206332340B3F5837F1AD0D5
:1014EC000DD8062B18D005D8B3B1022B33D06FF022
:1014FC001500D9E7B3F5807FF9D101230CE040F258
:10150C000222934229D0B3F5407F28D0B3F5007F57
:10151C00EDD1022300E007238DF8083084F48033EA
:10152C00C3F30043E0068DF8093054BFC4F34013F5
:10153C00032321038DF80A3013D57A680123B340B5
:10154C00C2F80835002202A9284601F057FA104BC0
:10155C009842A8D0CBE70423DEE70523DCE703237E
:10156C00DAE7620341BF01237A68B340C2F80C3555
:10157C00E8E7E3064FF0000354BFC4F34014032420
:10158C001A4602A928468DF8084001F087F9DEE7D3
:10159C000000AD0BF0B5524D00EB8101814201D141
:1015AC000020F0BD046804F07F03C4F343267F2BB6
:1015BC004FEA144408BF4FF0FF33192C7ED8DFE8F4
:1015CC0004F00D13191C1F251C7D7D7D7D345D7D64
:1015DC007D7D7D7D7D7D7D7D6074777AC2F80C3557
:1015EC005F1C57D10430D9E7C2F814355C1CF9D014
:1015FC00002458E0C2F80835F2E7C2F81035F5E7D8
:10160C005F1CC2F80835EDD0002404E05C1CC2F865
:10161C000C35E7D001245F0953D101274FF0A04CC2
:10162C0007FA03FECCF80CE508E0C2F80835002EEA
:10163C00DCD15C1CD6D0002427460626D0F800E06E
:10164C000EF4005CBCF1000F1CBF0124002703F05A
:10165C001F0C5B093DD14FEA8C0C0CF1A04CCEF366
:10166C00C11EDCF800372B4043EA8E0343EA062305
:10167C003B4343EA4403CCF80037B3E7C2F80C35DC
:10168C00D5E7C2F860355F1C0468ABD0C4F3803476
:10169C00002CBFD05C0918D101244FF0A04704FAEC
:1016AC0003FCC7F808C52746C8E7C2F86435EAE763
:1016BC00C2F86835E7E7C2F86C35E4E76FF08500EF
:1016CC006FE70023C3F80C35FFDE0023C3F80835A1
:1016DC00FAE70CF5E07C002353F82C30F4E700BF5C
:1016EC00F0F8FCFF074BD3F8082142B10020C3F8F7
:1016FC000801D3F80821D3F818350B7070474FF058
:10170C00FF30704700200040024BD3F88004C3F830
:10171C008004704700200040024A13680BB15268E5
:10172C0018477047F8000020024B0020C3E9001254
:10173C00704700BFF8000020134BBFF35B8F53E8DA
:10174C00000F002804D143E8002CBCF1000FF6D1A7
:10175C00BFF35B8F14D10D4A43F8041C0020C2F870
:10176C001C01D2F81C11012191608021C2F80413D4
:10177C0053F8041C683BDB6ECB5CC2F81C3570471D
:10178C006FF00F00704700BF600100200020004088
:10179C0070B5104DAB6E86B00646BBB10E4B012436
:1017AC00DC601422002101A803F0DDF96B6E8DF8CA
:1017BC00044002930024EB6E0393304601A9AC66FF
:1017CC00EC66FFF7A9FF204606B070BD6FF0150060
:1017DC00FAE700BFF80000200020004030B5104CA4
:1017EC002069C8B923620F4BA160012584F86050B1
:1017FC002261A0616061C3F82401D3F82421C3F8ED
:10180C000801D3F80821C3F84401D3F84421064A4F
:10181C001D60C3F8042330BD6FF00F00FBE700BF61
:10182C00F8000020002000400402020010B54FF028
:10183C002003EFF3118483F31288BFF36F8F094BEE
:10184C0093F8600040B1586948B9D9605A6184F383
:10185C001188BFF36F8F10BD6FF00C00F7E76FF0BE
:10186C000F00F4E7F80000207FB5094B02228DF839
:10187C0004209A6899690292DA698A1A0492DA69E0
:10188C00D96101A90392FFF747FF07B05DF804FB8C
:10189C00F800002010B586B004461422002101A8DF
:1018AC0003F061F904238DF80430044B01A99B6803
:1018BC0002932046FFF730FF06B010BDF800002061
:1018CC000148FFF7D1BF00BF084C000010B54B79A1
:1018DC00012B1CD18B79032B19D1CB79BBB90A798C
:1018EC0012B1022A13D10E220B68B3F5164F5ED03B
:1018FC002BD8B3F5165F5CD014D8B3F5966F5AD0CD
:10190C0008D8B3F5967F59D0B3F5167F59D06FF040
:10191C0085004BE0B3F5166F56D0B3F5965FF6D154
:10192C00334B39E0B3F5E14F51D007D8B3F5615FD4
:10193C004FD0B3F5964FEAD12E4B2DE047F612243B
:10194C00A342E4D14FF4000326E0B3F5613F43D04A
:10195C0011D8B3F5963F41D008D84DF6C024A34218
:10196C003ED0B3F5614FD2D1234B15E0B3F5E13F37
:10197C00CDD1224B10E0B3F5612F34D007D8204CD9
:10198C00A34232D0B3F5E12FC1D11E4B04E01E4C63
:10199C00A342BCD14FF0805304691C48C0F82435D5
:1019AC00C0F86C2503C984E80300002010BD184B57
:1019BC00F2E7184BF0E74FF49E23EDE74FF4A0331A
:1019CC00EAE74FF41C33E7E74FF41D23E4E7124B2F
:1019DC00E2E74FF46C13DFE7104BDDE7104BDBE76E
:1019EC004FF46503D8E70F4BD6E74FF08063D3E78E
:1019FC0000B0130000A04E0000F0EB0000E0D70197
:101A0C0090D0030000705F0740420F0000200040A0
:101A1C0000509D000050270000F0750000B0AF038F
:101A2C0000903A0100D0BE0E2DE9F3411A4D4368E7
:101A3C00D0F810800021C5F800151F68064601AAD1
:101A4C00384602F01DFE041E22DB019B3A68197910
:101A5C001868FFF79FFD041E1ADB41463046FFF75E
:101A6C0035FF0446A0B90423C5F800350121C5F89B
:101A7C0008010246D5F8083129600220FEF79EFEC7
:101A8C000220FEF77FFE05490548224603F00EF8BA
:101A9C00204602B0BDE8F08100200040CD180000C7
:101AAC002001002008B50A4803696BB1002380F8B7
:101ABC006030036A013302D0283003F003F8054B81
:101ACC0001225A60002008BD6FF00D00FBE700BF3B
:101ADC00F800002000200040F0B59D4CD4F80433F1
:101AEC00990589B0054649D5D4F82431002B45D049
:101AFC00984E336A013303D006F1280002F0E2FF5E
:101B0C000023C4F82431D4F8243196F860300BB992
:101B1C000123636006238DF80C308D4BD3F88024A1
:101B2C00C3F88024D20723D4D3F88024C3F88024AC
:101B3C0097071FD4D3F88024C3F8802454071BD4F0
:101B4C00D3F88024C3F8802402F008038DF81030F9
:101B5C00B3680593F3690693B369F26928469B1A37
:101B6C0003A90793FFF7D8FD2846FFF79BFF4FE02B
:101B7C000123EBE70223E9E70423E7E7D4F8043376
:101B8C00580745D5D4F80831002B41D00023C4F8B0
:101B9C000831D4F808316F4C236923B194F86030C4
:101BAC00002B40F085806A4BD3F81835A369226965
:101BBC009A422DD1236A013302D0674802F082FF8A
:101BCC002846FFF751FE4FF02003EFF3118283F309
:101BDC001288BFF36F8F63690BB984F8603082F39E
:101BEC001188BFF36F8F63692846002BBDD0FFF7B8
:101BFC0051FE63692361E368A3600023A361636101
:101C0C00E36103A9032328468DF80C30FFF784FD0C
:101C1C004F4BD3F81C21C2B1D3F80423120614D5B0
:101C2C004C4CE26E0132E266E16EA26E914273D2CE
:101C3C0094F86120002A6FD1C3F81C21D3F81C2121
:101C4C00616EE26E8A5CC3F81C25414BD3F84421CB
:101C5C0062B3404C0022C3F84421D3F84431A2694A
:101C6C00E3699A4202D02846FFF7FEFD2846FFF7AB
:101C7C0011FE636923B1E368A3602846FFF70AFEEF
:101C8C00334B364AC3F808230021142203A8A16160
:101C9C00216184F86010E161616102F064FF052349
:101CAC0003A928468DF80C30FFF736FD09B0F0BDBE
:101CBC00A3696269134306D1032303A928468DF84F
:101CCC000C30FFF729FD224AA369D2F81815A26837
:101CDC00D154A369206A0133A36118B92846FFF7D0
:101CEC00C3FD63E7411C3FF461AF1D4E1D4A20EA62
:101CFC00E0704FF400470021C0FB07610023304621
:101D0C00FEF7E6F902460B4600200021CDE9000162
:101D1C00114801F0C3FF49E70D4E0123F360142273
:101D2C00002103A802F01FFF636E0493E36E05937A
:101D3C000023C6F81C31D6F81C21E366A366636643
:101D4C008023C6F8083303A92846FFF7E5FC7CE797
:101D5C0000200040F80000202001002004020200B6
:101D6C003F420F0040420F002DE9F041234D044645
:101D7C000E466B6EB3BB02F0A0FD00283AD1204F8B
:101D8C0064244FF00108BFF35B8F57E8003F002B32
:101D9C0003D147E80082002AF7D1BFF35B8F07D04D
:101DAC0021200021013C01F02DFD14F0FF04EAD1AB
:101DBC00144C0023C4F81C31D4F81C310123A3604B
:101DCC00C4F81C654FF47A76D4F81C3123B9012081
:101DDC0002F090FC013EF7D10123E3600023AB66D7
:101DEC00BDE8F08102F069FD0028C2D02046FFF763
:101DFC0073FEBEE70123AB66DAE700BFF8000020F4
:101E0C00600100200020004070B5012383400E4A81
:101E1C00BFF35B8FDC4352E8001F01EA040542E884
:101E2C000056002EF7D1BFF35B8F4FF48032824007
:101E3C000648C0F80823BFF35F8FBFF36F8F0B42C8
:101E4C0014BF0120002070BD2803002000100140A9
:101E5C0070B40E49D1E90034D01AC31844F100040F
:101E6C0022F07F46C1E90034A6F50013B3F5400F0C
:101E7C0009D2074B1B681A0A1B069C19054B42F129
:101E8C000005C3E9004570BC01F012BE78010020CA
:101E9C002C0300208001002011B3BFF35B8F0123C2
:101EAC00104A834052E800CF4CEA030C42E800C1D0
:101EBC000029F7D1BFF35B8F0B4A4FF4803383407B
:101ECC00C2F80433094BBFF35B8F1B68BFF35B8F06
:101EDC00C340DB0742BF064B4FF40032C3F800216E
:101EEC00704700BF2803002000100140240300208D
:101EFC0000E100E00D4B1868010A0006BFF35F8F8C
:101F0C000B4BD3F80435181841F10001B3F5801FC1
:101F1C000AD2084BD3E90023904271EB030303D29E
:101F2C0010F1807041F10001704700BF2C030020BC
:101F3C0000100140800100202DE9F04F85B01646BD
:101F4C001F469DF840A00446FFF75EFF0190FFF787
:101F5C00D1FFB04271EB070354D23E4B301A67EB02
:101F6C000101984271F100014FD23B4B03EB04137A
:101F7C00D3E902239F4208BF96425ED037494FF403
:101F8C00803804F1500508FA04F8AD00C1F8488314
:101F9C002046ADB202F08FFB26F07F4B05F1804559
:101FAC0004F5A87305F58835DC464FF00309029358
:101FBC00029A2CF07F4341F82230C1F84483D1F8C7
:101FCC000435274A6FF00200C01A604420F07F40AD
:101FDC00904232D9286868B1D1F804350393A3EB49
:101FEC000B0020F07F40B0F5000F26D9204602F000
:101FFC0062FB039BBAF1000F07D109EB030C09F14B
:10200C000109D5E7BAF1000F09D06FF0150520468C
:10201C000199FFF741FF284605B0BDE8F08F012379
:10202C00104ABFF35B8FA34052E8000F184342E8FD
:10203C0000010029F8D1BFF35B8F07490E982301EB
:10204C0001EB0412C8500F9B5360C2E902670025D4
:10205C00DDE700BF01008000680100200010014096
:10206C00FDFF7F00240300207FB51C4C1C4BC4F8E3
:10207C000833C4F848331B4B00254FF0FF304FF0AA
:10208C00FF31C4F80855C3E902014FF48033C4F89A
:10209C000433154B02264FF400320121C4F80463BB
:1020AC001120C3F880212A46FEF788FB1120FEF789
:1020BC0069FB0E4A0123A360236013600C4B0D4A8D
:1020CC000093CDE9015500232846FFF735FF304634
:1020DC00FFF748F8284604B070BD00BF001001405F
:1020EC0003000F006801002000E100E0280300203D
:1020FC005D1E0000FFFF7F002DE9F7432F4CD4F845
:10210C00043399070BD5D4F8043143B12C4A00237E
:10211C00C4F80431D4F80431136801331360D4F8D3
:10212C000433DA032AD5BFF35B8F264B53E8002F19
:10213C0022F0010143E800100028F7D1BFF35B8FB8
:10214C00D30702D4D4F84031C3B10025C4F84051B0
:10215C00D4F84031FFF7CEFE4FF02003EFF311829D
:10216C0083F31288BFF36F8F174BD3E90267B0422A
:10217C00B94106D282F31188BFF36F8F03B0BDE86B
:10218C00F0834FF0FF384FF0FF39C3E90289D3E9F0
:10219C0000101D604FF48033C4F84833C4F840512C
:1021AC00D4F8403182F31188BFF36F8F0029E5D04A
:1021BC00009032463B4628468847DFE70010014036
:1021CC002C03002024030020680100201FB5431CB1
:1021DC0023D0012823DD134A134B9042D4BF04466D
:1021EC001C46FFF787FE114B0F49D3E90023801AD9
:1021FC00B0F5000F28BF002404448C4228BF0C46C5
:10220C00A2180B4900914FF00000CDE9010043F1F9
:10221C000003FFF791FE04B010BD034CE1E701246D
:10222C00DFE700BFFEFF7F00FFFF7F00780100208B
:10223C005D1E000008B5FFF75DFE024B1B68C01A5F
:10224C0008BD00BF780100204FF0704393F8E02FD9
:10225C00062A09D1D3F8E83FC3F30313033B042B3D
:10226C0002D8024AD05C7047002070476F4F0000C4
:10227C00024AD2F80034002BFBD0704700E001403A
:10228C0010B502F028FA40B14FF080538E4AD3F8C3
:10229C002433C3F30423C2F84035FFF7D5FF10B144
:1022AC008A4B8B4A5A6702F016FA48B14FF08053AA
:1022BC004FF08042D3F84432C3F34233C2F83C357A
:1022CC00FFF7C2FF30B1834AD2F8FC3023F08073A1
:1022DC00C2F8FC3002F0FFF940B14FF0804300220D
:1022EC00C3F80C21C3F81021C3F83825FFF7ACFF55
:1022FC0020B14FF080430322C3F8A025FFF7A4FFC1
:10230C0060B1754B0522C3F810260122C3F888264C
:10231C000022C3F818263F22C3F814264FF080532E
:10232C00D3F83021511C09BF4FF07043D3F834312E
:10233C0093F8E02FD3F8E83F08BFC3F30313062A42
:10234C004DD1033B042B03D8644AD35C002B46D0FD
:10235C004FF08052624BD2F80414C3F82015D2F817
:10236C000814C3F82415D2F80C14C3F82815D2F8A5
:10237C001014C3F82C15D2F81414C3F83015D2F875
:10238C001814C3F83415D2F81C14C3F84015D2F83D
:10239C002014C3F84415D2F82414C3F84815D2F805
:1023AC002814C3F84C15D2F82C14C3F85015D2F8D5
:1023BC003014C3F85415D2F83414C3F86015D2F89D
:1023CC003814C3F86415D2F83C14C3F86815D2F865
:1023DC004014C3F86C15D2F84424C3F8702502F0ED
:1023EC007AF948B14FF080534FF08042D3F858320D
:1023FC0003F04F03C2F8E43E02F06DF948B14FF020
:10240C008043D3F80024D20744BF6FF00102C3F815
:10241C0000244FF08053D3F83021062A26D1D3F86C
:10242C003431033B042B02D82E4AD35C63B12E4AC1
:10243C00D2F83C3743F48063C2F83C374FF08053FA
:10244C00D3F83031062B11D14FF08053D3F83431FF
:10245C00033B042B02D8254AD35C3BB14FF010232D
:10246C00D3F808224FF08043C3F858254FF01023BF
:10247C00D3F80022002A03DBD3F80432002B22DA33
:10248C001B4901234FF01020C1F804351524FFF728
:10249C00EFFEC0F80042FFF7EBFEC0F80442FFF776
:1024AC00E7FE0023C1F80435FFF7E2FEBFF34F8FC0
:1024BC000849104BCA6802F4E0621343CB60BFF3C7
:1024CC004F8F00BFFDE710BD0030014000C007403A
:1024DC000DF0ADBA00ED00E0005000406A4F000076
:1024EC0000C00040654F000000100040604F00002D
:1024FC0000E001400400FA0530B50468CCB1BFF32C
:10250C005B8FB4FA84F3C3F11F03DBB201229A4050
:10251C0024EA020250E8005FA54204D140E8002CF6
:10252C00BCF1000FF6D1BFF35B8FE6D102480B7004
:10253C0030BD0248FCE700BF0000AD0B0200AD0B44
:10254C0010B50368CB40DB0714D401238B40026821
:10255C00BFF35B8F43EA020150E8004F944204D171
:10256C0040E8001CBCF1000FF6D1BFF35B8FEED13D
:10257C00014810BD0148FCE70000AD0B0400AD0B99
:10258C00F7B5044618B1012823D003B0F0BD4FF0C5
:10259C0080430222C3F80823C3F80401D3F80421B2
:1025AC000122DA60064601238DF8073042F21075DD
:1025BC004FF08047D4B1012CE7D1D7F80C3403F499
:1025CC008033AEBB83B3012002F094F8013DF4D10B
:1025DC002AE04FF080430022C3F80803C3F800211F
:1025EC00D3F8002158600DF10706DCE7D7F8183452
:1025FC0003F480333EB9002BC7D0012002F07AF8E7
:10260C00013DF3D1C1E7D7F8182402F00302326080
:10261C00002BBAD09DF80700012803D102F06AF80C
:10262C00013DC7D1012CB0D1054B00225A71ACE74A
:10263C00D7F80C2402F001023270002BEAD1F3E738
:10264C0030030020044B1A7922B9012218609A80B9
:10265C000248704702487047300300200000AD0B61
:10266C000C00AD0B38B510B1012843D038BD4FF07C
:10267C008042D2F81814D2F81834C8032ED503F0BF
:10268C000303012B04D013B10020FFF779FF0023C3
:10269C004FF08042C2F818350023C2F80431D2F84A
:1026AC0004310223C2F80433184AD2F8FC0040F07B
:1026BC008073C2F8FC30164B1C6844F001011960A1
:1026CC005D685968491BB1F50A5FFAD31C604FF07D
:1026DC008043C2F8FC0001229A60C7E7D2F8143498
:1026EC00D907D4D5D2F81C349B07CDD40223C2F819
:1026FC000433BBE74FF080430022C3F80021D3F82A
:10270C000021C3F804031860B0E700BF00ED00E03F
:10271C00001000E010B54FF08043D3F800216AB1EF
:10272C000022C3F80021D3F800210122C3F80823AA
:10273C00114B587910B95A711B6898474FF0804368
:10274C00D3F8042172B10022C3F80421D3F8042178
:10275C00D3F81824D3F81824920704D10122C3F813
:10276C0018259A6010BD0222C3F80823024BBDE85D
:10277C0010401B680120184730030020C0B2034BE7
:10278C00083033F81000C0F34010704720000020D0
:10279C00C0B2034B083033F81000C0F34000704750
:1027AC0020000020C0B2034B083033F81000400B5F
:1027BC00704700BF2000002070B500F108030C4CDE
:1027CC0034F81330DA0505460E4607D5C3F3432318
:1027DC0004EBC30254F8333052689847A3682BB10A
:1027EC00E26831462846BDE87040184770BD00BF0E
:1027FC002000002010B4C0B2114A083032F810305A
:10280C00D9051BD5C3F3432123F4F85322F8103018
:10281C0002F10E04002034F8023F13F4807F03D041
:10282C00C3F34323994209D001302028F3D100236C
:10283C0042F83130034810BCFFF782BE10BC704721
:10284C002000002074000020F0B50146104A114C05
:10285C0000200125064602F14043A3F5C2439B0824
:10286C0005FA03F3194204D0176817B116601768FC
:10287C0018430432A242EED1074BD3F87C2132B17B
:10288C000022C3F87C21D3F87C3140F00040F0BD2D
:10289C00006100402061004000600040F0B504463B
:1028AC0085B017461D4601B3FFF772FF18B12046DD
:1028BC00FFF764FF08BB0023CDE900338DF80E3021
:1028CC008DF80F300DF10F020B4620460DF10E0165
:1028DC0001F02BFFE3B24449083331F8132022F006
:1028EC00020242F0010221F8132057B320463E7831
:1028FC007A68FFF74DFF10B1C2B13C4823E0E3B258
:10290C00DFF8E4C008333CF8131021F02001C904AF
:10291C00C90C2CF813104AB1032EEED87A6817782C
:10292C009EB9334B07F5A27743F82760E3B22E49E3
:10293C00083331F8132022F01C0242EA860221F8F7
:10294C0013203DBB2B4805B0F0BDBA0002F180420C
:10295C0002F5C04241EA4731D2F8100520F00300DD
:10296C00C2F81005D2F8100520F4473020F440705E
:10297C00C2F81005D2F810E5200200F4F85040EA35
:10298C000E0040EA064041F020012CF81310C2F86A
:10299C001005CBE7D5E900672046FFF72BFF002E8B
:1029AC00D0D0114DD5E90023964201D19F4219D0C8
:1029BC0011480DF10F01FFF79FFD0E4B9842C2D14C
:1029CC009DF80F2045F83260E4B205EBC2030834E1
:1029DC005F6035F8143043EA422343F4807325F8E2
:1029EC001430AFE70022EDE7200000200400AD0B0F
:1029FC00006000400000AD0B74000020F0B50446F0
:102A0C0085B0164629B3FFF7C3FE20B92046FFF761
:102A1C00B5FE00285FD1E5B2304F083537F81530D8
:102A2C0013F01C0F02D04B78012B54D001238DF8DE
:102A3C000F300023CDE900134A1C8B1C20460DF1EE
:102A4C000F0101F072FE37F8153043F0030327F83D
:102A5C00153016B9224805B0F0BD2046FFF798FE98
:102A6C00C8B3E5B21D4F96F800C00835614637F87B
:102A7C001500890020F0200001F18041C00401F50F
:102A8C00C041C00C27F815000023C1F8103572782E
:102A9C00002ADFD0D1F81035B67823F4981323F43C
:102AAC00F853C1F8103512042302D1F810E502F4E2
:102ABC00403203F4F8531343320543EA0E0302F495
:102ACC00801240EA4C30134340F0200027F81500E8
:102ADC00C1F81035BEE70348BDE700BF2000002059
:102AEC000000AD0B0400AD0B014BC3E902017047B4
:102AFC002000002008B50246FFF740FE40B1D2B2DC
:102B0C00044B0548083233F812305B0B0B7008BDD0
:102B1C000248FCE7200000200000AD0B0400AD0BC8
:102B2C0070B50F4C94F85860BEB90E4D402231462A
:102B3C0004F1100002F017F8C5F87C610620D5F8F6
:102B4C007C31FDF71FFE4FF00043C5F804330648F7
:102B5C00012384F85830636570BD0448FCE700BF5E
:102B6C0020000020006000400000AD0B0500AD0B04
:102B7C00034B93F85800003818BF0120704700BF72
:102B8C002000002001460148FFF7DABC700000204D
:102B9C0001460148FFF7B0BC7000002037B5044671
:102BAC00FFF7ECFD08B32046FFF7F2FD0546E0B950
:102BBC002046FFF7F7FD03B29B0003F1804202F5BC
:102BCC00C24203F1804303F5C04315601268D3F889
:102BDC00102542F00102C3F8102521B1134A01233C
:102BEC008340C2F8043303B030BDE3B2104A08335B
:102BFC0032F81330C3F38203042B12D0052B12D0FE
:102C0C0001A8019401F087FD019BD0F81015D94063
:102C1C0001F001010231204603B0BDE8304001F063
:102C2C00CDBD0321F7E70221F5E700BF00600040AE
:102C3C002000002008B50246FFF7A0FDC0B11046E9
:102C4C00FFF7A6FDA0B91046FFF7ACFD0B4A012318
:102C5C008340C2F8083303B29B0003F1804303F5B1
:102C6C00C043D3F8102522F00302C3F8102508BD89
:102C7C00BDE808400021104601F0A0BD00600040F6
:102C8C0073B5C5B2174E0835044636F81530DB0758
:102C9C0026D5FFF7CFFF2046FFF770FD40B1204649
:102CAC00FFF780FD104B00F5A270002243F82020A6
:102CBC002046FFF79FFD002301A826F8153001944C
:102CCC0001F029FD019B00EB8300084BD0F8002795
:102CDC00134043F00203C0F80037054802B070BD42
:102CEC000448FBE72000002000600040F0F8FCFFE7
:102CFC000000AD0B0400AD0B2DE9F347534BD3F89B
:102D0C000403C0B240F00040FFF79EFD051E1ADA26
:102D1C004FF0A043DFF83881D3F820250092C3F898
:102D2C0020250127009CA4B94FF00040FFF78CFD33
:102D3C004FF0A042D2F820350093C2F82035002B7A
:102D4C00EFD125F000450124002D66D102B0BDE87D
:102D5C00F08794FAA4F4B4FA84F4E00804F10803BC
:102D6C0004F0070238F813901DF80030019407FAAC
:102D7C0002F223EA02030DF8003001A801F0CBFCAB
:102D8C00019B03F5E0734FEA990150F82360C9F3F6
:102D9C00820A4B07D146C6F3014623D5204651463D
:102DAC00FFF70AFD01A8019401F0B5FC019B03F5A6
:102DBC00E073F6B250F82330C3F301439E4207D1BF
:102DCC000021204601F0FAFC3146204601F0F6FCC9
:102DDC0001A8019401F09FFC019B07FA03F3C0F8D2
:102DEC0020359FE7022E0CD10321204601F0E6FC92
:102DFC000AF00503012BEBD149462046FFF7DCFC1A
:102E0C00E6E70221204601F0D9FCBAF1030FF3D01A
:102E1C00032EDDD1BAF1020FEDE795FAA5F3B3FA63
:102E2C0083F304FA03F29B0003F1804303F5C043E0
:102E3C0025EA0205D3F81005D3F81015C0F30420C9
:102E4C00C1F30141FFF7B8FC7EE700BF0060004012
:102E5C002000002008B5144BA8220021184601F0D0
:102E6C0082FE0322026111494261114A8161C261F1
:102E7C004FF480620262002282624262C262016688
:102E8C000C4941661021816603460267C26642679F
:102E9C00BFF35F8F084911F8010D98540132102AC5
:102EAC00F9D1BFF35F8F08BD380300208B4F0000B2
:102EBC003104002021040020A44F0000F8B5144B6D
:102ECC00182700FB07751D4407FB00330E46DB6A11
:102EDC00012B14460AD0022B14D023B9284601F03A
:102EEC007CFC844208D900242046F8BD284601F019
:102EFC0074FC844228BF044622463146284601F021
:102F0C0075FCF1E72846BDE8F84001F08EBC00BF27
:102F1C003803002038B503464FF02002EFF311853B
:102F2C0082F31288BFF36F8F01F026FE064A145805
:102F3C00184601F0CCFB85F31188BFF36F8F204648
:102F4C00BDE83840FDF716BF08000000104B70B507
:102F5C0053F82040013053F82060A64200D870BDD1
:102F6C00D4E9003595B153B12846984738B10028BB
:102F7C00B8BF4042EB68FF28A8BFFF201870EA6872
:102F8C00537843F0010353700834E6E79847FBE7A6
:102F9C00A84E000008B50A4B012203201A70FFF757
:102FAC00D5FF00F0ABFE0420FFF7D0FF00F006F9D0
:102FBC00FDF724FA034A137B23F00103137308BDB6
:102FCC00310800200802002008B50348034A0021FC
:102FDC00121A01F06EFC08BDF80000203408002025
:102FEC0070B5002386B00122CDE90423174E184D8D
:102FFC0001930F22CDE902321649142303FB00552D
:10300C0006EBC0164FF4A0720446134B009502FB5E
:10301C000011304600F094F8737B2C7423F00403F9
:10302C0073730E4BEE60013403EBC4236B600C4BDB
:10303C00BFF35B8F53E8001F013143E80012002AF5
:10304C00F8D1BFF35B8F06B070BD00BF88010020C4
:10305C00E403002038100020D3480000380800207A
:10306C00E003002080B50020A6B0FFF76FFF2D4BCA
:10307C0083F308882C4D2D4E6B692D4F43F4007350
:10308C006B610024E02385F82230EC772C766C768B
:10309C00AC7685F820406B6A43F4E0236B6285F8CC
:1030AC002340FDF7C9FDFDF74DFB4FF0FF33AB623D
:1030BC00EB62FDF7E5FEFDF773FE40F20113ADF890
:1030CC00243006ABB360CDE91E44219401F0E5FB3E
:1030DC000120FFF73BFF0220164DFFF737FF00F0F2
:1030EC0007FB154B75610593012314490094CDE939
:1030FC0003434FF480623B46CDE90144284600F07F
:10310C001FF86A7B064622F0040228466A7301F017
:10311C0020FC2046FFF764FF3A4631462846FDF76F
:10312C00F7FB00BF3810002000ED00E0E4030020A6
:10313C00A12F000008020020A54F000078110020EC
:10314C002DE9F04385B0984600F158030732C0E9E9
:10315C001633109B037322F00705042300264373D8
:10316C0001EB05090F9B83730F46C0E906664946C0
:10317C008660C6730446FDF7F5FB07300E9B20F006
:10318C000700A066C4E9187502930D9B0193A9EB87
:10319C0000090C9B00934A46434639462046FDF7EE
:1031AC009BFB054B66659B6803B1DB6EE36648468B
:1031BC0005B0BDE8F08300BFE40300202DE9F04327
:1031CC00294C2A4D87B02646AE4204F12C040FD36D
:1031DC0000F05EFA244CDFF898904FF4004640F271
:1031EC00E737AC4220D307B0BDE8F04300F064BA37
:1031FC0054F8043C059354F80C3C049354F8103CDC
:10320C00039354F8143C029354F8183C019354F86B
:10321C001C3C009354E9092354E90B01FFF790FF80
:10322C0054F82C3C5E65CEE7636A5A1C0DD023EA39
:10323C00E37300213846C3FB060151EAC333D4F8CB
:10324C00008004D1404600F0D3F92C34C9E74FF488
:10325C007A720023FCF73CFF02460B4608F118007B
:10326C00494600F0AFFBF0E7544D0000544D000010
:10327C00E749000038B504464FF02003EFF3118501
:10328C0083F31288BFF36F8F01F0C2FB48B10022A9
:10329C00826701F05EFB29460748BDE8384000F024
:1032AC0095B9D4E902329A4218BF0133A36085F371
:1032BC001188BFF36F8F38BD3208002013B54FF063
:1032CC002004EFF3118184F31288BFF36F8F8468AD
:1032DC0044B1013C846081F31188BFF36F8F0020EF
:1032EC0002B010BD52EA030406D181F31188BFF37A
:1032FC006F8F6FF00F00F3E7CDE900230246024811
:10330C0000F046F9ECE700BF32080020C3897F2BA0
:10331C0012D80A4B1B6863B1094B90F90E201B683D
:10332C009A4209DB437BDB0606D1064BC31A18BF56
:10333C00012303F0010070470023FAE70C0400207E
:10334C000804002088010020044BC01A044BC01054
:10335C005843044B01221A54704700BF88020020C6
:10336C00ABAAAAAA3208002070B50E4B0E4C1E7CDC
:10337C0006EB460304EBC3040546204601F07AFB3A
:10338C000A4B002228469A55FFF7C0FF48B1084B5C
:10339C0008491A68013A2046D317BDE8704000F07E
:1033AC0011BB70BDE403002088020020320800200D
:1033BC000C0400205533000038B50D4D2B4653F846
:1033CC00184F9C4200D004B9EC68AB6838B95A7BF2
:1033DC00D20604D1A26912B9DA897F2A05D89C4297
:1033EC0002D02046FFF7C0FF23466B6138BD00BFFB
:1033FC00E403002070B590F90D20437B002A0146B0
:10340C0004DA03F07F03437301F069FA4B7B154A2E
:10341C0063F07F0310464B7350F8183FD469834216
:10342C0008BF002323B9C1E900042160D1610CE07D
:10343C0091F90E5093F90E60B5420ED0AE420CDDF0
:10344C005868C1E90030016059609068431A5842CD
:10345C00BDE870405841FFF7AFBF9C42E3D01B68FA
:10346C00E0E700BFE403002070B490F90D30427B1C
:10347C00002B29DBD30627D183692BBB134962F0C0
:10348C007F0242730A4652F8184F944218BF2346E3
:10349C00CC6923B9C0E900242060C8610CE090F924
:1034AC000E5093F90E60B5420AD0AE4208DD5A6850
:1034BC00C0E900321060586070BC0020FFF77CBF80
:1034CC00A342E7D01B68E4E770BC7047E40300201C
:1034DC0008B590F90D20437B002A014604DA03F06D
:1034EC007F03437301F0FBF9044B9868431A58426D
:1034FC005841BDE80840FFF75FBF00BFE403002060
:10350C0070B515461C46064601F0FBF9B4F1FF3FB9
:10351C0008BFB5F1FF3F08D02A46234606F1180034
:10352C000249BDE8704000F04DBA70BDE74900009B
:10353C0038B54FF02003EFF3118583F31288BFF3F6
:10354C006F8F104B104A9C681068A04206D1FFF791
:10355C000BFF85F31188BFF36F8F38BD00211B7CE7
:10356C0011600A4AD35C002BF3D02046FFF7CEFE45
:10357C000028EED0637BDB0602D12046FFF73AFF32
:10358C002046E4E7E4030020040400203208002075
:10359C0070B50C480C4D86682E600C461146DDE962
:1035AC0004234FF02006EFF3118586F31288BFF346
:1035BC006F8F8068FFF7A4FF2046BDE87040FDF7D1
:1035CC0035B900BFE40300200404002049B9EFF32F
:1035DC00058030B9054B5A699B689A4201D0FDF7BA
:1035EC0025B981F31188BFF36F8F7047E403002076
:1035FC0010B54FF02002EFF3118482F31288BFF361
:10360C006F8F427B510704D484F31188BFF36F8F03
:10361C0010BD22F004024273FFF726FF2146024838
:10362C00BDE81040FFF7D2BF3308002070B5044648
:10363C00183001F01FFA4FF02003EFF3118683F3DB
:10364C001288BFF36F8F94F90D20637B002A05DA83
:10365C0003F07F036373204601F041F90B4D637B4C
:10366C00A86843F010036373031B58425841FFF7DB
:10367C00A3FE86F31188BFF36F8FAB68A34203D10F
:10368C00BDE8704001F0ECB970BD00BFE403002050
:10369C004FF02003EFF3118183F31288BFF36F8F88
:1036AC00044B9A68D37B013BD37381F31188BFF32E
:1036BC006F8F7047E403002010B54FF02003EFF339
:1036CC00118483F31288BFF36F8F084B9A68D37BF6
:1036DC000133D3730020FFF76FFE84F31188BFF31F
:1036EC006F8FBDE8104001F0BBB900BFE4030020B0
:1036FC00024B03F11802C3E906227047E4030020D1
:10370C00F8B54FF02003EFF3118583F31288BFF364
:10371C006F8F19498868437B03F07F03437301F073
:10372C00DEF88B685A7B084662F07F025A7350F8B9
:10373C00182FCC69824208BF002222B9C3E90004C9
:10374C002360CB610CE093F90E6092F90E70BE42CF
:10375C000ED0B7420CDD5168C3E900210B605360F9
:10376C000120FFF729FE2846BDE8F840FDF75EB8BA
:10377C00A242E3D01268E0E7E403002050EA010320
:10378C002DE9F04105460E4603D1FFF7B9FF0020A5
:10379C002CE0831C71F1FF332ADB01F081F92C182A
:1037AC004FF02003EFF3118883F31288BFF36F8F70
:1037BC00114F124BB8681860FFF78AFEB8681049B1
:1037CC002A463346183000F0FDF8BA68537B43F0B4
:1037DC00100353734046FDF729F801F061F9201AE4
:1037EC0063EB0303012873F10003D0DBBDE8F08128
:1037FC006FF00104241AD3E7E40300200404002032
:10380C00E7490000B1F1FF3F08BFB0F1FF3F08B539
:10381C0006D1084B9868FFF709FF4FF0FF3008BD41
:10382C00FFF7ACFF4FF47A7380FB0303C00B40EA45
:10383C004340F4E7E4030020014B9868704700BF55
:10384C00E40300202DE9F04104464FF02003EFF390
:10385C00118683F31288BFF36F8F037BD9070BD5C7
:10386C0086F31188BFF36F8F404080F311884FF0BF
:10387C00040002DFBDE8F081437B1A0704D586F310
:10388C001188BFF36F8FF5E723F0200242F0080197
:10389C00D20920D14173A36813B1204601F027F857
:1038AC0004F1180001F0E6F804F158074FF0000895
:1038BC00A56DBD4200D0B5B90120FFF77DFD104BC1
:1038CC009B68A342DBD1EFF30583002BD7D13046A5
:1038DC00FCF7ACFFD3E703F05F0343F0080343733B
:1038EC0000F0FDFFD7E7284601F001F805F11800BC
:1038FC0001F0C0F8C5F878802846FFF7B5FDD7E78A
:10390C00E403002008B50648064A0749121A00F0DD
:10391C00D2FFBDE80840054A0549064800F0CBBF78
:10392C0000000020F7000020E44F00000000000021
:10393C00E44F000000000020034B1B680BB9FEF79E
:10394C0079BC0020704700BF1004002010B50E4B4E
:10395C001C689C4204D1FFF7EFFF6FF0004010BDD4
:10396C00FFF7EAFF002CF8D0D4E904321B1A62EB03
:10397C00E072B3F1004F72F10001EEDA002AACBF35
:10398C0018460020EBE700BF7C00002030B570B17A
:10399C000B4B5B6898420AD0036843B1D3E904210E
:1039AC00D0E90445121941EB0501C3E90421D0E922
:1039BC00003213605A600023C0E9003330BD00BFF1
:1039CC007C000020B3F1FF3F08BFB2F1FF3FF8B518
:1039DC0004461D4616465CD081604FF02003EFF381
:1039EC00118783F31288BFF36F8F013275F1FF33A8
:1039FC0024DA2D49D1E900206FF001039B1A4FF016
:103A0C00FF3262EB00009E1B60EB0500012E70F193
:103A1C00000301DA01260020C4E90460234ED6F825
:103A2C0000C07568B44508BF4FF0000CBCF1000F26
:103A3C000DD1C4E900652C6074601CE0FFF77CFFBD
:103A4C00013645F10005361845EBE070E4E7DCE99A
:103A5C000420D4E90431934271EB000E1ADAD21A25
:103A6C00DCF8043060EB0100CCE90420C4E900C3AD
:103A7C001C60CCF804403368B34206D09C4204D19D
:103A8C00FFF764FF0021FEF7A1FB87F31188BFF35A
:103A9C006F8FF8BD9B1A61EB0001AC45C4E9043192
:103AAC00C7D0DCF800C0C1E7A00200207C000020D9
:103ABC002DE9F84F4FF02003EFF3118C83F31288AC
:103ACC00BFF36F8FDFF8B0A0DFF8B0902C4FC9F8C0
:103ADC000000DAF800000024504508BF0020002543
:103AEC00D7E90021D9F80030E04680B3D0E9046C66
:103AFC004FEAE37EB3427EEB0C0B05DAF61A6CEB65
:103B0C000E04C0E9046422E0B21841EBE671C0E98E
:103B1C000445C7E90021FFF739FF88F31188BFF38B
:103B2C006F8F836898474FF02003EFF3118883F36E
:103B3C001288BFF36F8FD9F80030DAF800009B1BA6
:103B4C005045C446C9F80030CAD1D7E900219A18AB
:103B5C0041EBE3730024C7E90023C9F80040FFF7E9
:103B6C00F5FE2146FEF732FB88F31188BFF36F8F09
:103B7C00BDE8F84FFFF7DCBC7C00002010040020EF
:103B8C00A002002010B54FF02003EFF3118483F353
:103B9C001288BFF36F8FFFF7CFFE064A0346D2E9B8
:103BAC000001181841EBE37184F31188BFF36F8F98
:103BBC0010BD00BFA0020020F8B504464FF0200352
:103BCC00EFF3118783F31288BFF36F8F026822B172
:103BDC0087F31188BFF36F8FF8BDD0E90A36581CF4
:103BEC0046F10001022871F1000127D3012B76F177
:103BFC000001BCBF012316465D1E46F1FF3600F0E6
:103C0C0053FF013041F10001401946EB010101283D
:103C1C0071F100013ADB00F047FF013041F1000186
:103C2C006FF00102401946EB0103121A4FF0FF31FD
:103C3C0061EB030318492046FFF7C4FE236B0133E5
:103C4C002363236A73B187F31188BFF36F8F236AE1
:103C5C00204698474FF02003EFF3118783F3128827
:103C6C00BFF36F8F54F8185FA542B1D0002DAFD0C1
:103C7C00284600F07EFE0023AB6787F31188BFF364
:103C8C006F8F2846BDE8F84000F063BE6FF001026C
:103C9C004FF0FF33CEE700BFC53B00002DE9F047E6
:103CAC00B3F1FF3F08BFB2F1FF3FDDE908670546FE
:103CBC001C46914698461CD0531C74F1FF3309DB0B
:103CCC00012A74F10003BCBF0122002412F1FF3958
:103CDC0044F1FF38284600F0CDFEC5E90A67002301
:103CEC002B634A46434628460349BDE8F047FFF795
:103CFC0069BEBDE8F08700BFC53B0000014800F07D
:103D0C0076BA00BFAD4F00002DE9F04F8BB0436881
:103D1C000193837881469807144640F10981002568
:103D2C000F78002F00F00681252F0BD04B1C02932F
:103D3C000135019B4946384698470028C0F2F2806D
:103D4C000299EDE74F788B1C252F0293F0D00023BE
:103D5C009A469846B8F11F0F37D8A7F12002102ABF
:103D6C000AD8DFE802F02909092F090909200909F5
:103D7C000927092C09091E00A7F13002092A32D99A
:103D8C002A2F36D118F0400F54F8042B7ED1002A7C
:103D9C00A7BF48F020089246C2F1000A48F0280854
:103DAC0001E048F00108029A12F8017B0292002F00
:103DBC00D0D130E048F0020848F00408F3E748F0AE
:103DCC000808F0E748F01008EDE7B8F17F0F19D8B4
:103DDC00A7F13002092AD3D818F0400F03D00A21DA
:103DEC0001FB0323DFE70A2101FB0A2A48F0200824
:103DFC00D9E72E2F06D118F0400F40F09B8048F0E9
:103E0C004008D0E76C2F2ED028D8682F33D06A2FDB
:103E1C0039D04C2F37D0002B47F02002B8BF28F0F8
:103E2C004008A2F16501BCBF1FFA88F800230229E3
:103E3C0001D9612A2CD1073424F00704A24E08348E
:103E4C00072718F0080F64D006EB070BB046D845CF
:103E5C0061D1AE1BB044AAEB070A62E1742FA2D069
:103E6C007A2FA0D0D7E718F0800F18BF48F400784D
:103E7C0048F0800897E718F4807F18BF48F4007862
:103E8C0048F480788FE748F420788CE713468AE76B
:103E9C00A7F16301122900F2E080DFE811F01300B2
:103EAC004F00DE00DE00DE00DE004F00DE00DE0034
:103EBC00DE00DE00DE00EE00D900DE00DE001A00BF
:103ECC00DE00A30054F8043B8DF81C30012707AE2C
:103EDC00B7E754F8046B7D4A002E08BF164618F05D
:103EEC00400F14BF19464FF0FF31304600F007FE6B
:103EFC000746A6E7019B494620209847002811DB7E
:103F0C0008F1FF384745F5D35544A5EB0805C246E3
:103F1C009AE7D046F6E718F8010B019B49469847FB
:103F2C00002894DA99F8023043F0040389F802303F
:103F3C004FF0FF3528460BB0BDE8F08F18F0800F1E
:103F4C002ED018F4007F1BBF073424F0070454F85C
:103F5C00040B54F8080B28F010060028B6B22ADA25
:103F6C00404246F4806603930DF11C080A22414638
:103F7C0000F0D1FD7206039BA0EB080853D526F088
:103F8C000101434589B240F39380002F00F08B80F0
:103F9C0016F01002039240F08D809B460E4616E000
:103FAC0018F4807F54F8040BD5D018F4007F14BF9C
:103FBC0040B200B2CFE7D6D118F0400FD3D0002BCF
:103FCC00D1D128F011081FFA88F69B46984640F28A
:103FDC00064116EA010203921EBF00220BF1010BEF
:103FEC00039228E028F010081FFA88F80A2218F02B
:103FFC00800F45D018F4007F1BBF073424F0070452
:10400C0054F8040B54F8080B002844D128F0160679
:10401C0018F0400FB6B242D0002B40D128F0170850
:10402C001FFA88F6984616F01002039249D0002F1A
:10403C0045D108F1010B31075CD4F20706D5DA45FE
:10404C0072DDAAEB0B0202EB0803D3465A464BE097
:10405C0048F0100810227827C9E7782A04D1C7F154
:10406C00780242F01002C2E7019B4946252098478E
:10407C000028FFF657AF02355BE608220027B6E7AB
:10408C0018F4807F54F8040BBED018F4007F14BFD2
:10409C00C0B280B2B8E728F006081FFA88F603937E
:1040AC000DF11C0863E726F01106B6B29B468EE7AD
:1040BC000E46B8E71A460E4602F1020BBBE7424623
:1040CC00FAE7C34683E700BFDC4F0000D54F000082
:1040DC00CDE904324946019B202098470028FFF681
:1040EC0021AF059A049B01329245F1DCA5EB0B0143
:1040FC008D189346039A1AB303934946019B3020BB
:10410C0098470028FFF60EAF039B7FB901355E1967
:10411C00711B414526DC464607AF66BBA844AAEB9B
:10412C000B0A4546C24437E043468FE703930235FA
:10413C0049463846019B98470028039BE7DAF1E68D
:10414C0040F206410E42E2D016F0020F14BF2B20B3
:10415C00202016F4806F039305F10105494618BF22
:10416C002D20E7E7019B494630209847002805F1B0
:10417C000105CDDAD6E6013E019BB85D494698476C
:10418C000028CADACEE6019B494620209847002831
:10419C0005F10105FFF6C6AEAAEB0503002BF2DC18
:1041AC00CEE500BF7047F0B4034600681979DB8890
:1041BC00066987683468DA0754BF43F4D01383F474
:1041CC00B01301258D4023F48012DB074CBF2C4328
:1041DC00AC4334603B68F0BC1847034601211B79A3
:1041EC000068994083685B691847002070470FB4DA
:1041FC0007B504A951F8040B0191FCF761F903B060
:10420C005DF804EB04B0704700EBC1004088400837
:10421C007047F8B50346FFF7F7FFB0FA80F0C0F12E
:10422C001F0003EB800CCA00DCF81060171D0C4655
:10423C0006328DB256B9012101FA00F0D96801435A
:10424C00D960CCF81040DD539D52F8BDF10004311B
:10425C00585AD85303EBC0009E52C5805D52F4E708
:10426C00043A2DE9F041CC1D114424F0070421F04F
:10427C0007010E1BF708B7FA87F2C2F12405AD004F
:10428C004FF000080735C2F12002ED0804604146EA
:10429C00A760C4F80C80920004F1100000F063FCDD
:1042AC006B0043F00103638004EBC5027B1B5900D8
:1042BC00A4F800805180A21924F83550A2F802808D
:1042CC00A35304EBC70329465A8842F001025A80D3
:1042DC002046BDE8F041FFF79CBF038B13F00703AA
:1042EC0005D10368002B0CBF002003207047022B64
:1042FC0005D1408BB0FA80F0400980007047012B4B
:10430C0005D10368002B0CBF00200520704700204E
:10431C00704710B50C4600B111B96FF0150010BD07
:10432C00081D00F095F80028F9D1A368032BF6D9E5
:10433C00F3E72DE9F0410D4607461946281D904636
:10434C001E4600F096F8044638B1334642462946DC
:10435C003846A446BDE8F0416047BDE8F08110B492
:10436C004FF02004EFF3118284F31288BFF36F8FA8
:10437C00416110BC0121FCF7D5B838B50C46054697
:10438C0058B151B10B6843B14B6833B11C220021B9
:10439C0000F0E9FB2C61002038BD6FF01500FBE745
:1043AC0070B505460E46FFF7B4FF041E15DB4FF043
:1043BC002003EFF3118283F31288BFF36F8F6B8BA3
:1043CC002C8B4FF6FF718B4204F0070407D182F35C
:1043DC001188BFF36F8F6FF00A04204670BD022C5A
:1043EC000CD101336B8382F31188BFF36F8F0023E1
:1043FC00224631462846FFF79CFFEEE7062C14D8E0
:10440C00DFE804F004131313041A040000233360D0
:10441C006B683BB9C5E90066ACB902212846FCF7CC
:10442C0081F8DAE71E606E60F6E782F31188BFF35D
:10443C006F8F6FF00404D0E782F31188BFF36F8F96
:10444C006FF08504C9E782F31188BFF36F8FC4E75F
:10445C00034658B1426802F00302012A03D0032A32
:10446C0004D1026812B10020986070476FF01500FB
:10447C0070474268816002F00302032A4FF0000289
:10448C0003460CBF006810465A6070477047FEF731
:10449C0041BD01460068FEF73DBD00210120FFF73C
:1044AC00F6BF08B5FCF7A2F9BDE80840FCF788BADE
:1044BC0008B5FCF715FD002008BD0369C9B20C2234
:1044CC0001FB0233186C00F0070070474FF020031B
:1044DC00EFF3118283F31288BFF36F8F036803F03D
:1044EC00C00343F00203036082F31188BFF36F8FA4
:1044FC00704770B5C9B203694FF02004EFF3118512
:10450C0084F31288BFF36F8F0C2606FB0134246CE6
:10451C0014F0C00408D0A24206D085F31188BFF372
:10452C006F8F4FF0FF3070BD06FB013301221A6410
:10453C0085F31188BFF36F8F436803EBC1035B688E
:10454C0098470020EFE78022FFF7D3BFF8B5069F0E
:10455C000469C9B24FF02005EFF3118685F3128878
:10456C00BFF36F8F0C2505FB0144256C05F0070C80
:10457C00BCF1010F0CD1276486F31188BFF36F8F48
:10458C00C4E90E23436853F8313098470020F8BD36
:10459C0005F0C005AF4286F31188BFF36F8F0CBFD7
:1045AC006FF077004FF0FF30F1E713B580240094E3
:1045BC00FFF7CCFF02B010BD10B40069CBB21C24C5
:1045CC0003FB0400002110BC1047002000F0A1B830
:1045DC001046FEF74FBE43685B68D3F810350B608E
:1045EC000020704743685B6802EA010021EA02017F
:1045FC00C3F80805C3F80C150020704743685B68C6
:10460C000020C3F80815704743685B680020C3F8A6
:10461C000C15704743685A68D2F8043521EA030038
:10462C000B40C2F80805C2F80C350020704710B5D5
:10463C0003695868F8B1884219D19C6808685860B9
:10464C00A14200D19860002008602AB15A680A6023
:10465C009A68596002B99960002010E0814206D135
:10466C000868206098688142EDD19C60EBE70446B5
:10467C0000680028F2D1002AE8D16FF0150010BDB7
:10468C0030B543681360057A446804EBC504A34253
:10469C0002D36FF0010030BD5C798C4201D008333D
:1046AC00F0E70020F7E702690B4692E8030083E885
:1046BC0003000020704700F150039B009BB203F1F4
:1046CC00804303F5883300221A601B68704708B5D5
:1046DC000020FCF7F9FA4FF08053D3F83001421C5C
:1046EC0004BF4FF0704393F8E00F831F58425841BA
:1046FC007047004700F0CDB808B50020FCF750F823
:10470C0008B9FCF73FF84FF080430022C3F8182596
:10471C0008BDFDF735BF036803F01F025B0902609B
:10472C000CBF4FF0A04000207047F7B5019001A8D6
:10473C00DDE9084716461D46FFF7EDFF019BB6F174
:10474C00000C18BF4FF0010C00EB83000B1E18BFC0
:10475C000123002D43EA4C0314BF4FF00C0C4FF017
:10476C00000C002C43EA0C0314BF4FF4E06C4FF028
:10477C00000C002F43EA0C03D0F8002714BF4FF4B1
:10478C00403C4FF0000C43EA0C0322EA030301B156
:10479C0009780EB13678760019430DB12D78AD003D
:1047AC0031430CB12478240229430FB13F783F04E4
:1047BC000C433C43C0F8004703B0F0BD1FB50DF1EE
:1047CC000F03019300238DF80F1000931A4619461E
:1047DC00FFF7ABFF05B05DF804FB0369C2689342B9
:1047EC009CBF81685B18013B981A70472DE9F0411A
:1047FC000446D0E90280D4F804C0A8EB0006964227
:10480C0000EB02050F46604406D900F09EF9BFF399
:10481C005F8FE560BDE8F0813246A5EB080500F03E
:10482C0094F960682A46B919EFE72DE9F843C56891
:10483C000646894617464FF000083369B46870681D
:10484C009D4228BF1B19641BBC4203F1FF3328BFD8
:10485C003C465B1B9C4228BF1C46494622462844CA
:10486C0000F073F9B3682544A044A1443F1BAB424C
:10487C0008BF0025BFF35F8FF560002FDDD14046E8
:10488C00BDE8F883FEF7E6BA08B5FFF7FBFF00209A
:10489C0008BD08B1FCF756BB7047704740B1C36800
:1048AC00587810F001001EBF1878B0FA80F040095B
:1048BC00704700F058B900F048B9EFF305800038A4
:1048CC0018BF0120704708B54FF02002EFF3118399
:1048DC0082F31288BFF36F8FFBF73AFFF4E7D0E94E
:1048EC00003213605A600023C0E90033704708B5EA
:1048FC00FFF7F5FF437B23F0020343730023836030
:10490C0008BD38B504460D46FEF7E2FD637B43F067
:10491C0002036373E5B1A5602B689D4209D16B68F6
:10492C00C4E900531C606C6012E06A689342F6D0D4
:10493C001B68002BF3D094F90E2093F90E108A42C9
:10494C00F3D09142F1DD5A68C4E9003214605C6026
:10495C0038BD10B54FF02003EFF3118483F31288A8
:10496C00BFF36F8FFEF780FD84F31188BFF36F8F59
:10497C0010BD08B54FF02002EFF3118182F31288BD
:10498C00BFF36F8F83680BB1FFF7B1FF81F3118811
:10499C00BFF36F8F08BD38B504464FF02003EFF31B
:1049AC00118583F31288BFF36F8F437B13F0280FAD
:1049BC000BD183680BB1FFF79AFF637B51B903F0FE
:1049CC00FB0363732046FEF74FFD85F31188BFF39D
:1049DC006F8F38BD03F0EB03F3E701211838FFF7B5
:1049EC00DABF08B503464FF02002EFF3118182F3D2
:1049FC001288BFF36F8F0068834207D008B1FFF7AE
:104A0C0076FF81F31188BFF36F8F08BD0020F8E7A4
:104A1C0038B54FF02003EFF3118583F31288BFF301
:104A2C006F8F0468A0420DD034B12046FFF75FFFB2
:104A3C0004F1180000F01EF885F31188BFF36F8F96
:104A4C00204638BD0024F7E7034620B9EFF3058272
:104A5C000AB9FBF7EBBE83F31188BFF36F8F704776
:104A6C004FF02003EFF3118083F31288BFF36F8FA5
:104A7C00FFF7EABF10B54FF02002EFF3118482F379
:104A8C001288BFF36F8F03683BB1FEF77FFF0020E6
:104A9C0084F31188BFF36F8F10BD6FF01500F7E72B
:104AAC0008B5FFF76FF808BDFFF76CB80023C0E935
:104ABC00081200F11802C0E90622C0E900330363B2
:104ACC004363704710B50446FFF7D4FFB0B9636A6F
:104ADC000BB12046984704F11800FFF782FF68B12C
:104AEC00FFF737FF4FF02003EFF3118083F31288A9
:104AFC00BFF36F8FBDE81040FFF7A6BF10BD10B518
:104B0C00024601448A42134603D01C780132002C21
:104B1C00F8D1181A10BDF0B5C2F137050446EDB244
:104B2C0002F01F020846B4FBF2F602FB1641CBB2B0
:104B3C00092988BF5B19274688BFDBB23033BA42DC
:104B4C0000F8013B3446EED9F0BD0A44914200F125
:104B5C00FF3300D1704710B511F8014B03F8014F2A
:104B6C009142F9D110BD02440346934200D17047E3
:104B7C0003F8011BF9E700000148006870470000CA
:044B8C00A80200205B
:084B900080B5FF7F0100000069
:104B9800390F0000000000000D100000E04B00007D
:104BA800954800000000000005140000F44B0000C8
:104BB800351A0000084C00006D12000000000000CB
:104BC800DD12000000000000752000000000000059
:084BD800150F000000000000B1
:104BE0001B4F0000F84D0000084E0000F1000020AF
:104BF000C4020020384F0000244E0000344E000054
:104C0000F300002018030020464F0000584E00001B
:0C4C1000784E0000F50000201800002085
:104C1C0021270000FF46000000000000A744000010
:104C2C00084C0000E51A000000000000A74400003A
:104C3C0000000000A744000000000000A744000092
:104C4C00052D0000FF46000000000000A7440000F6
:104C5C0000000000A744000000000000A744000072
:104C6C0000000000A744000000000000A744000062
:104C7C0000000000A744000000000000A744000052
:104C8C0000000000A744000000000000A744000042
:104C9C0000000000A74400000000000005210000F7
:104CAC0000000000A744000000000000A744000022
:104CBC0000000000A744000000000000A744000012
:104CCC0000000000A744000000000000A744000002
:104CDC0000000000A744000000000000A7440000F2
:104CEC0000000000A744000000000000A7440000E2
:104CFC0000000000A744000000000000A7440000D2
:104D0C0000000000A744000000000000A7440000C1
:104D1C0000000000A744000000000000A7440000B1
:104D2C0000000000A744000000000000A7440000A1
:104D3C0000000000A744000000000000A744000091
:084D4C0000000000A744000074
:104D5400744F0000000000007F4F000000000000BE
:104D6400F34E0000000000002A4F00000000000085
:104D7400544F000000000000044F00000000000039
:104D8400AA4F000000000000174F000000000000C0
:0C4D9400FFFFFFFFFFFFFFFFFFFFFFFF1F
:104DA0000338FDD870470000F44B00001F000100DD
:104DB000F44B000016000100F44B00001E0001003F
:104DC000000000200000000000000B0602000000B0
:104DD000D44D000000000000084F0000240002072E
:104DE00000000020104F00001E000B11950F000066
:104DF000650F000000000000B5100000D90F000092
:104E00004D110000D7450000191100005345000066
:104E1000B745000000000000C7440000000000008B
:104E200000000000FFFFFFFF000000500000000036
:104E30000000000079140000E3450000F145000087
:104E40000946000015460000214600002D13000011
:104E50003B460000000000005C4E000000200040C7
:104E6000684E000001000000704E000002000000CB
:104E7000050000000B000100351700004517000079
:104E80009D170000E917000039180000B11A000052
:104E9000F1160000751D000015170000D91800005C
:104EA000B3460000F5FFFFFF984B0000984B000051
:104EB000D04B0000D84B0000E04B0000E04B00005E
:104EC0005541525420646576696365206E6F742085
:104ED00072656164790D0A004750494F2064657618
:104EE000696365206973206E6F74207265616479EF
:104EF0000D0A0063627072696E74665F7061636B45
:104F0000616765006D707500464C4153485F300025
:104F10005352414D5F3000736F6300636C6F636B7E
:104F200040343030303030303000636C6F636B5F52
:104F3000636F6E74726F6C006770696F40353030EC
:104F4000303030303000756172744034303030327F
:104F500030303000666174616C5F6572726F720030
:104F6000000000000100000001010000010101013A
:104F7000000000004E5246585F434C4F434B004EDA
:104F80005246585F4750494F5445005465726D6909
:104F90006E616C0000000000000054545220524525
:104FA00047474553006D61696E006F73002A2A2AD6
:104FB00020426F6F74696E67206E524620436F6E99
:104FC0006E6563742053444B2076322E352E31208B
:104FD0002A2A2A0A00286E756C6C29002A666C6FD2
:044FE00061742A00CE
:104FE400084C0000F741000000000000BD44000030
:104FF400000000000000000000C2010000010300E6
:10500400000000000000000000000000000000009C
:10501400000000000000000000000000000000008C
:10502400000000000000000000000000000000007C
:10503400000000000000000000000000000000006C
:10504400000000000000000000000000000000005C
:10505400FF00000000000000000000007C000020B1
:105064007C0000206E524620436F6E6E6563742090
:1050740053444B2046756E64616D656E74616C7348
:1050840020436F757273650D0A5072657373203116
:105094002D33206F6E20796F7572206B6579626F86
:1050A40061726420746F20746F67676C65204C456F
:1050B400445320312D33206F6E20796F7572206434
:1050C4006576656C6F706D656E74206B69740D0A1E
:0150D40000DB
:0650D500000000000000D5
:0450DB0015E015E0E7
:0400000300000C816C
:00000001FF
